{
  "contractName": "StrikersCore",
  "abi": [
    {
      "constant": true,
      "inputs": [],
      "name": "name",
      "outputs": [
        {
          "name": "",
          "type": "string"
        }
      ],
      "payable": false,
      "stateMutability": "view",
      "type": "function"
    },
    {
      "constant": true,
      "inputs": [
        {
          "name": "_tokenId",
          "type": "uint256"
        }
      ],
      "name": "getApproved",
      "outputs": [
        {
          "name": "",
          "type": "address"
        }
      ],
      "payable": false,
      "stateMutability": "view",
      "type": "function"
    },
    {
      "constant": false,
      "inputs": [
        {
          "name": "_to",
          "type": "address"
        },
        {
          "name": "_tokenId",
          "type": "uint256"
        }
      ],
      "name": "approve",
      "outputs": [],
      "payable": false,
      "stateMutability": "nonpayable",
      "type": "function"
    },
    {
      "constant": true,
      "inputs": [],
      "name": "totalSupply",
      "outputs": [
        {
          "name": "",
          "type": "uint256"
        }
      ],
      "payable": false,
      "stateMutability": "view",
      "type": "function"
    },
    {
      "constant": true,
      "inputs": [
        {
          "name": "",
          "type": "bytes32"
        }
      ],
      "name": "tradeStates",
      "outputs": [
        {
          "name": "",
          "type": "uint8"
        }
      ],
      "payable": false,
      "stateMutability": "view",
      "type": "function"
    },
    {
      "constant": false,
      "inputs": [
        {
          "name": "_from",
          "type": "address"
        },
        {
          "name": "_to",
          "type": "address"
        },
        {
          "name": "_tokenId",
          "type": "uint256"
        }
      ],
      "name": "transferFrom",
      "outputs": [],
      "payable": false,
      "stateMutability": "nonpayable",
      "type": "function"
    },
    {
      "constant": true,
      "inputs": [],
      "name": "strikersChecklist",
      "outputs": [
        {
          "name": "",
          "type": "address"
        }
      ],
      "payable": false,
      "stateMutability": "view",
      "type": "function"
    },
    {
      "constant": false,
      "inputs": [
        {
          "name": "_checklistId",
          "type": "uint8"
        }
      ],
      "name": "pullFromCirculation",
      "outputs": [],
      "payable": false,
      "stateMutability": "nonpayable",
      "type": "function"
    },
    {
      "constant": true,
      "inputs": [
        {
          "name": "_owner",
          "type": "address"
        },
        {
          "name": "_index",
          "type": "uint256"
        }
      ],
      "name": "tokenOfOwnerByIndex",
      "outputs": [
        {
          "name": "",
          "type": "uint256"
        }
      ],
      "payable": false,
      "stateMutability": "view",
      "type": "function"
    },
    {
      "constant": false,
      "inputs": [],
      "name": "unpause",
      "outputs": [],
      "payable": false,
      "stateMutability": "nonpayable",
      "type": "function"
    },
    {
      "constant": true,
      "inputs": [
        {
          "name": "",
          "type": "uint8"
        }
      ],
      "name": "outOfCirculation",
      "outputs": [
        {
          "name": "",
          "type": "bool"
        }
      ],
      "payable": false,
      "stateMutability": "view",
      "type": "function"
    },
    {
      "constant": false,
      "inputs": [
        {
          "name": "_from",
          "type": "address"
        },
        {
          "name": "_to",
          "type": "address"
        },
        {
          "name": "_tokenId",
          "type": "uint256"
        }
      ],
      "name": "safeTransferFrom",
      "outputs": [],
      "payable": false,
      "stateMutability": "nonpayable",
      "type": "function"
    },
    {
      "constant": true,
      "inputs": [
        {
          "name": "_tokenId",
          "type": "uint256"
        }
      ],
      "name": "exists",
      "outputs": [
        {
          "name": "",
          "type": "bool"
        }
      ],
      "payable": false,
      "stateMutability": "view",
      "type": "function"
    },
    {
      "constant": true,
      "inputs": [
        {
          "name": "_index",
          "type": "uint256"
        }
      ],
      "name": "tokenByIndex",
      "outputs": [
        {
          "name": "",
          "type": "uint256"
        }
      ],
      "payable": false,
      "stateMutability": "view",
      "type": "function"
    },
    {
      "constant": true,
      "inputs": [],
      "name": "paused",
      "outputs": [
        {
          "name": "",
          "type": "bool"
        }
      ],
      "payable": false,
      "stateMutability": "view",
      "type": "function"
    },
    {
      "constant": false,
      "inputs": [
        {
          "name": "_maker",
          "type": "address"
        },
        {
          "name": "_makerCardId",
          "type": "uint256"
        },
        {
          "name": "_taker",
          "type": "address"
        },
        {
          "name": "_takerCardOrChecklistId",
          "type": "uint256"
        },
        {
          "name": "_salt",
          "type": "uint256"
        }
      ],
      "name": "cancelTrade",
      "outputs": [],
      "payable": false,
      "stateMutability": "nonpayable",
      "type": "function"
    },
    {
      "constant": true,
      "inputs": [
        {
          "name": "_tokenId",
          "type": "uint256"
        }
      ],
      "name": "ownerOf",
      "outputs": [
        {
          "name": "",
          "type": "address"
        }
      ],
      "payable": false,
      "stateMutability": "view",
      "type": "function"
    },
    {
      "constant": false,
      "inputs": [
        {
          "name": "_checklistId",
          "type": "uint8"
        },
        {
          "name": "_owner",
          "type": "address"
        }
      ],
      "name": "mintUnreleasedCard",
      "outputs": [],
      "payable": false,
      "stateMutability": "nonpayable",
      "type": "function"
    },
    {
      "constant": true,
      "inputs": [
        {
          "name": "_owner",
          "type": "address"
        }
      ],
      "name": "balanceOf",
      "outputs": [
        {
          "name": "",
          "type": "uint256"
        }
      ],
      "payable": false,
      "stateMutability": "view",
      "type": "function"
    },
    {
      "constant": false,
      "inputs": [
        {
          "name": "_checklistId",
          "type": "uint8"
        },
        {
          "name": "_owner",
          "type": "address"
        }
      ],
      "name": "mintPackSaleCard",
      "outputs": [
        {
          "name": "",
          "type": "uint256"
        }
      ],
      "payable": false,
      "stateMutability": "nonpayable",
      "type": "function"
    },
    {
      "constant": true,
      "inputs": [
        {
          "name": "",
          "type": "uint8"
        }
      ],
      "name": "mintedCountForChecklistId",
      "outputs": [
        {
          "name": "",
          "type": "uint16"
        }
      ],
      "payable": false,
      "stateMutability": "view",
      "type": "function"
    },
    {
      "constant": true,
      "inputs": [
        {
          "name": "_signer",
          "type": "address"
        },
        {
          "name": "_tradeHash",
          "type": "bytes32"
        },
        {
          "name": "_v",
          "type": "uint8"
        },
        {
          "name": "_r",
          "type": "bytes32"
        },
        {
          "name": "_s",
          "type": "bytes32"
        }
      ],
      "name": "isValidSignature",
      "outputs": [
        {
          "name": "",
          "type": "bool"
        }
      ],
      "payable": false,
      "stateMutability": "pure",
      "type": "function"
    },
    {
      "constant": false,
      "inputs": [],
      "name": "pause",
      "outputs": [],
      "payable": false,
      "stateMutability": "nonpayable",
      "type": "function"
    },
    {
      "constant": true,
      "inputs": [],
      "name": "owner",
      "outputs": [
        {
          "name": "",
          "type": "address"
        }
      ],
      "payable": false,
      "stateMutability": "view",
      "type": "function"
    },
    {
      "constant": true,
      "inputs": [
        {
          "name": "",
          "type": "uint256"
        }
      ],
      "name": "cards",
      "outputs": [
        {
          "name": "mintTime",
          "type": "uint32"
        },
        {
          "name": "checklistId",
          "type": "uint8"
        },
        {
          "name": "serialNumber",
          "type": "uint16"
        }
      ],
      "payable": false,
      "stateMutability": "view",
      "type": "function"
    },
    {
      "constant": false,
      "inputs": [
        {
          "name": "_address",
          "type": "address"
        }
      ],
      "name": "setPackSaleAddress",
      "outputs": [],
      "payable": false,
      "stateMutability": "nonpayable",
      "type": "function"
    },
    {
      "constant": true,
      "inputs": [],
      "name": "symbol",
      "outputs": [
        {
          "name": "",
          "type": "string"
        }
      ],
      "payable": false,
      "stateMutability": "view",
      "type": "function"
    },
    {
      "constant": true,
      "inputs": [
        {
          "name": "_maker",
          "type": "address"
        },
        {
          "name": "_makerCardId",
          "type": "uint256"
        },
        {
          "name": "_taker",
          "type": "address"
        },
        {
          "name": "_takerCardOrChecklistId",
          "type": "uint256"
        },
        {
          "name": "_salt",
          "type": "uint256"
        }
      ],
      "name": "getTradeHash",
      "outputs": [
        {
          "name": "",
          "type": "bytes32"
        }
      ],
      "payable": false,
      "stateMutability": "view",
      "type": "function"
    },
    {
      "constant": false,
      "inputs": [
        {
          "name": "_to",
          "type": "address"
        },
        {
          "name": "_approved",
          "type": "bool"
        }
      ],
      "name": "setApprovalForAll",
      "outputs": [],
      "payable": false,
      "stateMutability": "nonpayable",
      "type": "function"
    },
    {
      "constant": false,
      "inputs": [
        {
          "name": "_from",
          "type": "address"
        },
        {
          "name": "_to",
          "type": "address"
        },
        {
          "name": "_tokenId",
          "type": "uint256"
        },
        {
          "name": "_data",
          "type": "bytes"
        }
      ],
      "name": "safeTransferFrom",
      "outputs": [],
      "payable": false,
      "stateMutability": "nonpayable",
      "type": "function"
    },
    {
      "constant": true,
      "inputs": [],
      "name": "packSaleAddress",
      "outputs": [
        {
          "name": "",
          "type": "address"
        }
      ],
      "payable": false,
      "stateMutability": "view",
      "type": "function"
    },
    {
      "constant": true,
      "inputs": [],
      "name": "strikersMetadata",
      "outputs": [
        {
          "name": "",
          "type": "address"
        }
      ],
      "payable": false,
      "stateMutability": "view",
      "type": "function"
    },
    {
      "constant": true,
      "inputs": [
        {
          "name": "_owner",
          "type": "address"
        },
        {
          "name": "_operator",
          "type": "address"
        }
      ],
      "name": "isApprovedForAll",
      "outputs": [
        {
          "name": "",
          "type": "bool"
        }
      ],
      "payable": false,
      "stateMutability": "view",
      "type": "function"
    },
    {
      "constant": false,
      "inputs": [
        {
          "name": "newOwner",
          "type": "address"
        }
      ],
      "name": "transferOwnership",
      "outputs": [],
      "payable": false,
      "stateMutability": "nonpayable",
      "type": "function"
    },
    {
      "constant": true,
      "inputs": [
        {
          "name": "_owner",
          "type": "address"
        }
      ],
      "name": "cardAndChecklistIdsForOwner",
      "outputs": [
        {
          "name": "",
          "type": "uint256[]"
        },
        {
          "name": "",
          "type": "uint8[]"
        }
      ],
      "payable": false,
      "stateMutability": "view",
      "type": "function"
    },
    {
      "constant": false,
      "inputs": [
        {
          "name": "_maker",
          "type": "address"
        },
        {
          "name": "_makerCardId",
          "type": "uint256"
        },
        {
          "name": "_taker",
          "type": "address"
        },
        {
          "name": "_takerCardOrChecklistId",
          "type": "uint256"
        },
        {
          "name": "_salt",
          "type": "uint256"
        },
        {
          "name": "_submittedCardId",
          "type": "uint256"
        },
        {
          "name": "_v",
          "type": "uint8"
        },
        {
          "name": "_r",
          "type": "bytes32"
        },
        {
          "name": "_s",
          "type": "bytes32"
        }
      ],
      "name": "fillTrade",
      "outputs": [],
      "payable": false,
      "stateMutability": "nonpayable",
      "type": "function"
    },
    {
      "inputs": [
        {
          "name": "_checklistAddress",
          "type": "address"
        }
      ],
      "payable": false,
      "stateMutability": "nonpayable",
      "type": "constructor"
    },
    {
      "anonymous": false,
      "inputs": [
        {
          "indexed": true,
          "name": "tradeHash",
          "type": "bytes32"
        },
        {
          "indexed": true,
          "name": "maker",
          "type": "address"
        },
        {
          "indexed": false,
          "name": "makerCardId",
          "type": "uint256"
        },
        {
          "indexed": true,
          "name": "taker",
          "type": "address"
        },
        {
          "indexed": false,
          "name": "takerCardId",
          "type": "uint256"
        }
      ],
      "name": "TradeFilled",
      "type": "event"
    },
    {
      "anonymous": false,
      "inputs": [
        {
          "indexed": true,
          "name": "tradeHash",
          "type": "bytes32"
        },
        {
          "indexed": true,
          "name": "maker",
          "type": "address"
        }
      ],
      "name": "TradeCancelled",
      "type": "event"
    },
    {
      "anonymous": false,
      "inputs": [
        {
          "indexed": false,
          "name": "checklistId",
          "type": "uint8"
        }
      ],
      "name": "PulledFromCirculation",
      "type": "event"
    },
    {
      "anonymous": false,
      "inputs": [],
      "name": "Pause",
      "type": "event"
    },
    {
      "anonymous": false,
      "inputs": [],
      "name": "Unpause",
      "type": "event"
    },
    {
      "anonymous": false,
      "inputs": [
        {
          "indexed": true,
          "name": "previousOwner",
          "type": "address"
        },
        {
          "indexed": true,
          "name": "newOwner",
          "type": "address"
        }
      ],
      "name": "OwnershipTransferred",
      "type": "event"
    },
    {
      "anonymous": false,
      "inputs": [
        {
          "indexed": false,
          "name": "cardId",
          "type": "uint256"
        }
      ],
      "name": "CardMinted",
      "type": "event"
    },
    {
      "anonymous": false,
      "inputs": [
        {
          "indexed": true,
          "name": "_from",
          "type": "address"
        },
        {
          "indexed": true,
          "name": "_to",
          "type": "address"
        },
        {
          "indexed": false,
          "name": "_tokenId",
          "type": "uint256"
        }
      ],
      "name": "Transfer",
      "type": "event"
    },
    {
      "anonymous": false,
      "inputs": [
        {
          "indexed": true,
          "name": "_owner",
          "type": "address"
        },
        {
          "indexed": true,
          "name": "_approved",
          "type": "address"
        },
        {
          "indexed": false,
          "name": "_tokenId",
          "type": "uint256"
        }
      ],
      "name": "Approval",
      "type": "event"
    },
    {
      "anonymous": false,
      "inputs": [
        {
          "indexed": true,
          "name": "_owner",
          "type": "address"
        },
        {
          "indexed": true,
          "name": "_operator",
          "type": "address"
        },
        {
          "indexed": false,
          "name": "_approved",
          "type": "bool"
        }
      ],
      "name": "ApprovalForAll",
      "type": "event"
    },
    {
      "constant": false,
      "inputs": [
        {
          "name": "_contractAddress",
          "type": "address"
        }
      ],
      "name": "setMetadataAddress",
      "outputs": [],
      "payable": false,
      "stateMutability": "nonpayable",
      "type": "function"
    },
    {
      "constant": true,
      "inputs": [
        {
          "name": "_tokenId",
          "type": "uint256"
        }
      ],
      "name": "tokenURI",
      "outputs": [
        {
          "name": "",
          "type": "string"
        }
      ],
      "payable": false,
      "stateMutability": "view",
      "type": "function"
    }
  ],
  "bytecode": "0x60806040526000600e60146101000a81548160ff0219169083151502179055503480156200002c57600080fd5b50604051602080620044cb833981018060405281019080805190602001909291905050506040805190810160405280600e81526020017f43727970746f537472696b6572730000000000000000000000000000000000008152506040805190810160405280600481526020017f5354524b000000000000000000000000000000000000000000000000000000008152508160049080519060200190620000d492919062000179565b508060059080519060200190620000ed92919062000179565b50505033600e60006101000a81548173ffffffffffffffffffffffffffffffffffffffff021916908373ffffffffffffffffffffffffffffffffffffffff16021790555080600d60006101000a81548173ffffffffffffffffffffffffffffffffffffffff021916908373ffffffffffffffffffffffffffffffffffffffff1602179055505062000228565b828054600181600116156101000203166002900490600052602060002090601f016020900481019282601f10620001bc57805160ff1916838001178555620001ed565b82800160010185558215620001ed579182015b82811115620001ec578251825591602001919060010190620001cf565b5b509050620001fc919062000200565b5090565b6200022591905b808211156200022157600081600090555060010162000207565b5090565b90565b61429380620002386000396000f3006080604052600436106101d8576000357c0100000000000000000000000000000000000000000000000000000000900463ffffffff16806306fdde03146101dd578063081812fc1461026d578063095ea7b3146102da57806318160ddd146103275780631b9ad2391461035257806323b872dd146103a55780632a571b15146104125780632b232741146104695780632f745c59146104995780633f4ba83a146104fa5780633ff25c641461051157806342842e0e146105595780634f558e79146105c65780634f6ccce71461060b5780635c975abb1461064c5780636280382a1461067b5780636352211e146106fc5780636977aa621461076957806370a08231146107b95780637579fcb3146108105780637f791d05146108745780638163681e146108c05780638456cb59146109525780638da5cb5b146109695780638dc10768146109c0578063914e45d014610a2957806395d89b4114610a6c578063a1490d5014610afc578063a22cb46514610b99578063b88d4fde14610be8578063c4a3155714610c9b578063c87b56dd14610cf2578063c8a2cc0314610d98578063e17b25af14610def578063e985e9c514610e32578063f2fde38b14610ead578063f7ce25bb14610ef0578063fdd3af8f14610fd0575b600080fd5b3480156101e957600080fd5b506101f2611084565b6040518080602001828103825283818151815260200191508051906020019080838360005b83811015610232578082015181840152602081019050610217565b50505050905090810190601f16801561025f5780820380516001836020036101000a031916815260200191505b509250505060405180910390f35b34801561027957600080fd5b5061029860048036038101908080359060200190929190505050611126565b604051808273ffffffffffffffffffffffffffffffffffffffff1673ffffffffffffffffffffffffffffffffffffffff16815260200191505060405180910390f35b3480156102e657600080fd5b50610325600480360381019080803573ffffffffffffffffffffffffffffffffffffffff16906020019092919080359060200190929190505050611163565b005b34801561033357600080fd5b5061033c611329565b6040518082815260200191505060405180910390f35b34801561035e57600080fd5b506103816004803603810190808035600019169060200190929190505050611336565b6040518082600281111561039157fe5b60ff16815260200191505060405180910390f35b3480156103b157600080fd5b50610410600480360381019080803573ffffffffffffffffffffffffffffffffffffffff169060200190929190803573ffffffffffffffffffffffffffffffffffffffff16906020019092919080359060200190929190505050611356565b005b34801561041e57600080fd5b5061042761146d565b604051808273ffffffffffffffffffffffffffffffffffffffff1673ffffffffffffffffffffffffffffffffffffffff16815260200191505060405180910390f35b34801561047557600080fd5b50610497600480360381019080803560ff169060200190929190505050611493565b005b3480156104a557600080fd5b506104e4600480360381019080803573ffffffffffffffffffffffffffffffffffffffff16906020019092919080359060200190929190505050611716565b6040518082815260200191505060405180910390f35b34801561050657600080fd5b5061050f61178d565b005b34801561051d57600080fd5b5061053f600480360381019080803560ff16906020019092919050505061184d565b604051808215151515815260200191505060405180910390f35b34801561056557600080fd5b506105c4600480360381019080803573ffffffffffffffffffffffffffffffffffffffff169060200190929190803573ffffffffffffffffffffffffffffffffffffffff1690602001909291908035906020019092919050505061186d565b005b3480156105d257600080fd5b506105f1600480360381019080803590602001909291905050506118a5565b604051808215151515815260200191505060405180910390f35b34801561061757600080fd5b5061063660048036038101908080359060200190929190505050611916565b6040518082815260200191505060405180910390f35b34801561065857600080fd5b5061066161194e565b604051808215151515815260200191505060405180910390f35b34801561068757600080fd5b506106fa600480360381019080803573ffffffffffffffffffffffffffffffffffffffff16906020019092919080359060200190929190803573ffffffffffffffffffffffffffffffffffffffff1690602001909291908035906020019092919080359060200190929190505050611961565b005b34801561070857600080fd5b5061072760048036038101908080359060200190929190505050611ba4565b604051808273ffffffffffffffffffffffffffffffffffffffff1673ffffffffffffffffffffffffffffffffffffffff16815260200191505060405180910390f35b34801561077557600080fd5b506107b7600480360381019080803560ff169060200190929190803573ffffffffffffffffffffffffffffffffffffffff169060200190929190505050611c21565b005b3480156107c557600080fd5b506107fa600480360381019080803573ffffffffffffffffffffffffffffffffffffffff169060200190929190505050611df0565b6040518082815260200191505060405180910390f35b34801561081c57600080fd5b5061085e600480360381019080803560ff169060200190929190803573ffffffffffffffffffffffffffffffffffffffff169060200190929190505050611e74565b6040518082815260200191505060405180910390f35b34801561088057600080fd5b506108a2600480360381019080803560ff169060200190929190505050612035565b604051808261ffff1661ffff16815260200191505060405180910390f35b3480156108cc57600080fd5b50610938600480360381019080803573ffffffffffffffffffffffffffffffffffffffff1690602001909291908035600019169060200190929190803560ff16906020019092919080356000191690602001909291908035600019169060200190929190505050612056565b604051808215151515815260200191505060405180910390f35b34801561095e57600080fd5b506109676121c9565b005b34801561097557600080fd5b5061097e61228a565b604051808273ffffffffffffffffffffffffffffffffffffffff1673ffffffffffffffffffffffffffffffffffffffff16815260200191505060405180910390f35b3480156109cc57600080fd5b506109eb600480360381019080803590602001909291905050506122b0565b604051808463ffffffff1663ffffffff1681526020018360ff1660ff1681526020018261ffff1661ffff168152602001935050505060405180910390f35b348015610a3557600080fd5b50610a6a600480360381019080803573ffffffffffffffffffffffffffffffffffffffff169060200190929190505050612310565b005b348015610a7857600080fd5b50610a816123b0565b6040518080602001828103825283818151815260200191508051906020019080838360005b83811015610ac1578082015181840152602081019050610aa6565b50505050905090810190601f168015610aee5780820380516001836020036101000a031916815260200191505b509250505060405180910390f35b348015610b0857600080fd5b50610b7b600480360381019080803573ffffffffffffffffffffffffffffffffffffffff16906020019092919080359060200190929190803573ffffffffffffffffffffffffffffffffffffffff1690602001909291908035906020019092919080359060200190929190505050612452565b60405180826000191660001916815260200191505060405180910390f35b348015610ba557600080fd5b50610be6600480360381019080803573ffffffffffffffffffffffffffffffffffffffff1690602001909291908035151590602001909291905050506125c0565b005b348015610bf457600080fd5b50610c99600480360381019080803573ffffffffffffffffffffffffffffffffffffffff169060200190929190803573ffffffffffffffffffffffffffffffffffffffff16906020019092919080359060200190929190803590602001908201803590602001908080601f01602080910402602001604051908101604052809392919081815260200183838082843782019150505050505091929192905050506126fc565b005b348015610ca757600080fd5b50610cb061273b565b604051808273ffffffffffffffffffffffffffffffffffffffff1673ffffffffffffffffffffffffffffffffffffffff16815260200191505060405180910390f35b348015610cfe57600080fd5b50610d1d60048036038101908080359060200190929190505050612761565b6040518080602001828103825283818151815260200191508051906020019080838360005b83811015610d5d578082015181840152602081019050610d42565b50505050905090810190601f168015610d8a5780820380516001836020036101000a031916815260200191505b509250505060405180910390f35b348015610da457600080fd5b50610dad612971565b604051808273ffffffffffffffffffffffffffffffffffffffff1673ffffffffffffffffffffffffffffffffffffffff16815260200191505060405180910390f35b348015610dfb57600080fd5b50610e30600480360381019080803573ffffffffffffffffffffffffffffffffffffffff169060200190929190505050612997565b005b348015610e3e57600080fd5b50610e93600480360381019080803573ffffffffffffffffffffffffffffffffffffffff169060200190929190803573ffffffffffffffffffffffffffffffffffffffff169060200190929190505050612a37565b604051808215151515815260200191505060405180910390f35b348015610eb957600080fd5b50610eee600480360381019080803573ffffffffffffffffffffffffffffffffffffffff169060200190929190505050612acb565b005b348015610efc57600080fd5b50610f31600480360381019080803573ffffffffffffffffffffffffffffffffffffffff169060200190929190505050612c23565b604051808060200180602001838103835285818151815260200191508051906020019060200280838360005b83811015610f78578082015181840152602081019050610f5d565b50505050905001838103825284818151815260200191508051906020019060200280838360005b83811015610fba578082015181840152602081019050610f9f565b5050505090500194505050505060405180910390f35b348015610fdc57600080fd5b50611082600480360381019080803573ffffffffffffffffffffffffffffffffffffffff16906020019092919080359060200190929190803573ffffffffffffffffffffffffffffffffffffffff169060200190929190803590602001909291908035906020019092919080359060200190929190803560ff16906020019092919080356000191690602001909291908035600019169060200190929190505050612d87565b005b606060048054600181600116156101000203166002900480601f01602080910402602001604051908101604052809291908181526020018280546001816001161561010002031660029004801561111c5780601f106110f15761010080835404028352916020019161111c565b820191906000526020600020905b8154815290600101906020018083116110ff57829003601f168201915b5050505050905090565b60006001600083815260200190815260200160002060009054906101000a900473ffffffffffffffffffffffffffffffffffffffff169050919050565b600061116e82611ba4565b90508073ffffffffffffffffffffffffffffffffffffffff168373ffffffffffffffffffffffffffffffffffffffff16141515156111ab57600080fd5b8073ffffffffffffffffffffffffffffffffffffffff163373ffffffffffffffffffffffffffffffffffffffff1614806111eb57506111ea8133612a37565b5b15156111f657600080fd5b600073ffffffffffffffffffffffffffffffffffffffff1661121783611126565b73ffffffffffffffffffffffffffffffffffffffff161415806112675750600073ffffffffffffffffffffffffffffffffffffffff168373ffffffffffffffffffffffffffffffffffffffff1614155b1561132457826001600084815260200190815260200160002060006101000a81548173ffffffffffffffffffffffffffffffffffffffff021916908373ffffffffffffffffffffffffffffffffffffffff1602179055508273ffffffffffffffffffffffffffffffffffffffff168173ffffffffffffffffffffffffffffffffffffffff167f8c5be1e5ebec7d5bd14f71427d1e84f3dd0314c0f7b2291e5b200ac8c7c3b925846040518082815260200191505060405180910390a35b505050565b6000600880549050905090565b60116020528060005260406000206000915054906101000a900460ff1681565b806113613382613353565b151561136c57600080fd5b600073ffffffffffffffffffffffffffffffffffffffff168473ffffffffffffffffffffffffffffffffffffffff16141515156113a857600080fd5b600073ffffffffffffffffffffffffffffffffffffffff168373ffffffffffffffffffffffffffffffffffffffff16141515156113e457600080fd5b6113ee84836133e8565b6113f88483613551565b6114028383613769565b8273ffffffffffffffffffffffffffffffffffffffff168473ffffffffffffffffffffffffffffffffffffffff167fddf252ad1be2c89b69c2b068fc378daa952ba7f163c4a11628f55a4df523b3ef846040518082815260200191505060405180910390a350505050565b600d60009054906101000a900473ffffffffffffffffffffffffffffffffffffffff1681565b6000600e60009054906101000a900473ffffffffffffffffffffffffffffffffffffffff1673ffffffffffffffffffffffffffffffffffffffff163373ffffffffffffffffffffffffffffffffffffffff16148061153e5750601060009054906101000a900473ffffffffffffffffffffffffffffffffffffffff1673ffffffffffffffffffffffffffffffffffffffff163373ffffffffffffffffffffffffffffffffffffffff16145b9050801515611601576040517f08c379a00000000000000000000000000000000000000000000000000000000081526004018080602001828103825260488152602001807f4f6e6c7920746865206f776e6572206f72207061636b2073616c652063616e2081526020017f74616b6520636865636b6c697374206974656d73206f7574206f66206369726381526020017f756c6174696f6e2e00000000000000000000000000000000000000000000000081525060600191505060405180910390fd5b60648260ff16101515156116a3576040517f08c379a000000000000000000000000000000000000000000000000000000000815260040180806020018281038252603a8152602001807f546869732066756e6374696f6e20697320726573657276656420666f7220496381526020017f6f6e69637320616e6420556e72656c656173656420736574732e00000000000081525060400191505060405180910390fd5b6001600f60008460ff1660ff16815260200190815260200160002060006101000a81548160ff0219169083151502179055507fca2965a599f9007a8bc0a636d12c9edea5f8c5af10209eaed37a86d44e0d7b8382604051808260ff1660ff16815260200191505060405180910390a15050565b600061172183611df0565b8210151561172e57600080fd5b600660008473ffffffffffffffffffffffffffffffffffffffff1673ffffffffffffffffffffffffffffffffffffffff1681526020019081526020016000208281548110151561177a57fe5b9060005260206000200154905092915050565b600e60009054906101000a900473ffffffffffffffffffffffffffffffffffffffff1673ffffffffffffffffffffffffffffffffffffffff163373ffffffffffffffffffffffffffffffffffffffff161415156117e957600080fd5b600e60149054906101000a900460ff16151561180457600080fd5b6000600e60146101000a81548160ff0219169083151502179055507f7805862f689e2f13df9f062ff482ad3ad112aca9e0847911ed832e158c525b3360405160405180910390a1565b600f6020528060005260406000206000915054906101000a900460ff1681565b806118783382613353565b151561188357600080fd5b61189f84848460206040519081016040528060008152506126fc565b50505050565b60008060008084815260200190815260200160002060009054906101000a900473ffffffffffffffffffffffffffffffffffffffff169050600073ffffffffffffffffffffffffffffffffffffffff168173ffffffffffffffffffffffffffffffffffffffff161415915050919050565b6000611920611329565b8210151561192d57600080fd5b60088281548110151561193c57fe5b90600052602060002001549050919050565b600e60149054906101000a900460ff1681565b60003373ffffffffffffffffffffffffffffffffffffffff168673ffffffffffffffffffffffffffffffffffffffff16141515611a2c576040517f08c379a000000000000000000000000000000000000000000000000000000000815260040180806020018281038252602d8152602001807f4f6e6c79207468652074726164652063726561746f722063616e2063616e636581526020017f6c20746869732074726164652e0000000000000000000000000000000000000081525060400191505060405180910390fd5b611a398686868686612452565b905060006002811115611a4857fe5b60116000836000191660001916815260200190815260200160002060009054906101000a900460ff166002811115611a7c57fe5b141515611b17576040517f08c379a00000000000000000000000000000000000000000000000000000000081526004018080602001828103825260308152602001807f546869732074726164652068617320616c7265616479206265656e2063616e6381526020017f656c6c6564206f722066696c6c65642e0000000000000000000000000000000081525060400191505060405180910390fd5b600260116000836000191660001916815260200190815260200160002060006101000a81548160ff02191690836002811115611b4f57fe5b02179055508573ffffffffffffffffffffffffffffffffffffffff1681600019167f37bea1bad72947bbe287e44f80432b090eef483a8ae55f2bca77cd212beb54c960405160405180910390a3505050505050565b60008060008084815260200190815260200160002060009054906101000a900473ffffffffffffffffffffffffffffffffffffffff169050600073ffffffffffffffffffffffffffffffffffffffff168173ffffffffffffffffffffffffffffffffffffffff1614151515611c1857600080fd5b80915050919050565b600e60009054906101000a900473ffffffffffffffffffffffffffffffffffffffff1673ffffffffffffffffffffffffffffffffffffffff163373ffffffffffffffffffffffffffffffffffffffff16141515611c7d57600080fd5b60c88260ff1610151515611d1f576040517f08c379a000000000000000000000000000000000000000000000000000000000815260040180806020018281038252602f8152602001807f596f752063616e206f6e6c7920757365207468697320746f206d696e7420756e81526020017f72656c65617365642063617264732e000000000000000000000000000000000081525060400191505060405180910390fd5b600f60008360ff1660ff16815260200190815260200160002060009054906101000a900460ff16151515611de1576040517f08c379a000000000000000000000000000000000000000000000000000000000815260040180806020018281038252602d8152602001807f43616e2774206d696e7420616e79206d6f7265206f662074686973206368656381526020017f6b6c697374206974656d2e2e2e0000000000000000000000000000000000000081525060400191505060405180910390fd5b611deb8282613840565b505050565b60008073ffffffffffffffffffffffffffffffffffffffff168273ffffffffffffffffffffffffffffffffffffffff1614151515611e2d57600080fd5b600260008373ffffffffffffffffffffffffffffffffffffffff1673ffffffffffffffffffffffffffffffffffffffff168152602001908152602001600020549050919050565b6000601060009054906101000a900473ffffffffffffffffffffffffffffffffffffffff1673ffffffffffffffffffffffffffffffffffffffff163373ffffffffffffffffffffffffffffffffffffffff16141515611f61576040517f08c379a000000000000000000000000000000000000000000000000000000000815260040180806020018281038252602a8152602001807f4f6e6c7920746865207061636b2073616c6520636f6e74726163742063616e2081526020017f6d696e7420686572652e0000000000000000000000000000000000000000000081525060400191505060405180910390fd5b600f60008460ff1660ff16815260200190815260200160002060009054906101000a900460ff16151515612023576040517f08c379a000000000000000000000000000000000000000000000000000000000815260040180806020018281038252602d8152602001807f43616e2774206d696e7420616e79206d6f7265206f662074686973206368656381526020017f6b6c697374206974656d2e2e2e0000000000000000000000000000000000000081525060400191505060405180910390fd5b61202d8383613840565b905092915050565b600c6020528060005260406000206000915054906101000a900461ffff1681565b600060608560405160200180807f19457468657265756d205369676e6564204d6573736167653a0a333200000000815250601c01826000191660001916815260200191505060405160208183030381529060405290506001816040518082805190602001908083835b6020831015156120e457805182526020820191506020810190506020830392506120bf565b6001836020036101000a0380198251168184511680821785525050505050509050019150506040518091039020868686604051600081526020016040526040518085600019166000191681526020018460ff1660ff1681526020018360001916600019168152602001826000191660001916815260200194505050505060206040516020810390808403906000865af1158015612185573d6000803e3d6000fd5b5050506020604051035173ffffffffffffffffffffffffffffffffffffffff168773ffffffffffffffffffffffffffffffffffffffff161491505095945050505050565b600e60009054906101000a900473ffffffffffffffffffffffffffffffffffffffff1673ffffffffffffffffffffffffffffffffffffffff163373ffffffffffffffffffffffffffffffffffffffff1614151561222557600080fd5b600e60149054906101000a900460ff1615151561224157600080fd5b6001600e60146101000a81548160ff0219169083151502179055507f6985a02210a168e66602d3235cb6db0e70f92b3ba4d376a33c0f3d9434bff62560405160405180910390a1565b600e60009054906101000a900473ffffffffffffffffffffffffffffffffffffffff1681565b600b818154811015156122bf57fe5b906000526020600020016000915090508060000160009054906101000a900463ffffffff16908060000160049054906101000a900460ff16908060000160059054906101000a900461ffff16905083565b600e60009054906101000a900473ffffffffffffffffffffffffffffffffffffffff1673ffffffffffffffffffffffffffffffffffffffff163373ffffffffffffffffffffffffffffffffffffffff1614151561236c57600080fd5b80601060006101000a81548173ffffffffffffffffffffffffffffffffffffffff021916908373ffffffffffffffffffffffffffffffffffffffff16021790555050565b606060058054600181600116156101000203166002900480601f0160208091040260200160405190810160405280929190818152602001828054600181600116156101000203166002900480156124485780601f1061241d57610100808354040283529160200191612448565b820191906000526020600020905b81548152906001019060200180831161242b57829003601f168201915b5050505050905090565b60006060308787878787604051602001808773ffffffffffffffffffffffffffffffffffffffff1673ffffffffffffffffffffffffffffffffffffffff166c010000000000000000000000000281526014018673ffffffffffffffffffffffffffffffffffffffff1673ffffffffffffffffffffffffffffffffffffffff166c010000000000000000000000000281526014018581526020018473ffffffffffffffffffffffffffffffffffffffff1673ffffffffffffffffffffffffffffffffffffffff166c0100000000000000000000000002815260140183815260200182815260200196505050505050506040516020818303038152906040529050806040518082805190602001908083835b6020831015156125875780518252602082019150602081019050602083039250612562565b6001836020036101000a038019825116818451168082178552505050505050905001915050604051809103902091505095945050505050565b3373ffffffffffffffffffffffffffffffffffffffff168273ffffffffffffffffffffffffffffffffffffffff16141515156125fb57600080fd5b80600360003373ffffffffffffffffffffffffffffffffffffffff1673ffffffffffffffffffffffffffffffffffffffff16815260200190815260200160002060008473ffffffffffffffffffffffffffffffffffffffff1673ffffffffffffffffffffffffffffffffffffffff16815260200190815260200160002060006101000a81548160ff0219169083151502179055508173ffffffffffffffffffffffffffffffffffffffff163373ffffffffffffffffffffffffffffffffffffffff167f17307eab39ab6107e8899845ad3d59bd9653f200f220920489ca2b5937696c3183604051808215151515815260200191505060405180910390a35050565b816127073382613353565b151561271257600080fd5b61271d858585611356565b61272985858585613b5b565b151561273457600080fd5b5050505050565b601060009054906101000a900473ffffffffffffffffffffffffffffffffffffffff1681565b6060600073ffffffffffffffffffffffffffffffffffffffff16601260009054906101000a900473ffffffffffffffffffffffffffffffffffffffff1673ffffffffffffffffffffffffffffffffffffffff1614156127ca576127c382613d49565b905061296c565b6127d3826118a5565b1515612847576040517f08c379a00000000000000000000000000000000000000000000000000000000081526004018080602001828103825260148152602001807f4361726420646f6573206e6f742065786973742e00000000000000000000000081525060200191505060405180910390fd5b601260009054906101000a900473ffffffffffffffffffffffffffffffffffffffff1673ffffffffffffffffffffffffffffffffffffffff1663c87b56dd836040518263ffffffff167c010000000000000000000000000000000000000000000000000000000002815260040180828152602001915050600060405180830381600087803b1580156128d857600080fd5b505af11580156128ec573d6000803e3d6000fd5b505050506040513d6000823e3d601f19601f82011682018060405250602081101561291657600080fd5b81019080805164010000000081111561292e57600080fd5b8281019050602081018481111561294457600080fd5b815185600182028301116401000000008211171561296157600080fd5b505092919050505090505b919050565b601260009054906101000a900473ffffffffffffffffffffffffffffffffffffffff1681565b600e60009054906101000a900473ffffffffffffffffffffffffffffffffffffffff1673ffffffffffffffffffffffffffffffffffffffff163373ffffffffffffffffffffffffffffffffffffffff161415156129f357600080fd5b80601260006101000a81548173ffffffffffffffffffffffffffffffffffffffff021916908373ffffffffffffffffffffffffffffffffffffffff16021790555050565b6000600360008473ffffffffffffffffffffffffffffffffffffffff1673ffffffffffffffffffffffffffffffffffffffff16815260200190815260200160002060008373ffffffffffffffffffffffffffffffffffffffff1673ffffffffffffffffffffffffffffffffffffffff16815260200190815260200160002060009054906101000a900460ff16905092915050565b600e60009054906101000a900473ffffffffffffffffffffffffffffffffffffffff1673ffffffffffffffffffffffffffffffffffffffff163373ffffffffffffffffffffffffffffffffffffffff16141515612b2757600080fd5b600073ffffffffffffffffffffffffffffffffffffffff168173ffffffffffffffffffffffffffffffffffffffff1614151515612b6357600080fd5b8073ffffffffffffffffffffffffffffffffffffffff16600e60009054906101000a900473ffffffffffffffffffffffffffffffffffffffff1673ffffffffffffffffffffffffffffffffffffffff167f8be0079c531659141344cd1fd0a4f28419497f9722a3daafe3b4186f6b6457e060405160405180910390a380600e60006101000a81548173ffffffffffffffffffffffffffffffffffffffff021916908373ffffffffffffffffffffffffffffffffffffffff16021790555050565b606080606060006060600080600660008973ffffffffffffffffffffffffffffffffffffffff1673ffffffffffffffffffffffffffffffffffffffff168152602001908152602001600020805480602002602001604051908101604052809291908181526020018280548015612cb857602002820191906000526020600020905b815481526020019060010190808311612ca4575b505050505094508451935083604051908082528060200260200182016040528015612cf25781602001602082028038833980820191505090505b509250600091505b83821015612d77578482815181101515612d1057fe5b906020019060200201519050600b81815481101515612d2b57fe5b9060005260206000200160000160049054906101000a900460ff168383815181101515612d5457fe5b9060200190602002019060ff16908160ff16815250508180600101925050612cfa565b8483965096505050505050915091565b6000600e60149054906101000a900460ff16151515612da557600080fd5b3373ffffffffffffffffffffffffffffffffffffffff168a73ffffffffffffffffffffffffffffffffffffffff1614151515612e49576040517f08c379a000000000000000000000000000000000000000000000000000000000815260040180806020018281038252601e8152602001807f596f752063616e27742066696c6c20796f7572206f776e2074726164652e000081525060200191505060405180910390fd5b600073ffffffffffffffffffffffffffffffffffffffff168873ffffffffffffffffffffffffffffffffffffffff161480612eaf57503373ffffffffffffffffffffffffffffffffffffffff168873ffffffffffffffffffffffffffffffffffffffff16145b1515612f49576040517f08c379a000000000000000000000000000000000000000000000000000000000815260040180806020018281038252602a8152602001807f596f7520617265206e6f7420617574686f72697a656420746f2066696c6c207481526020017f6869732074726164652e0000000000000000000000000000000000000000000081525060400191505060405180910390fd5b600073ffffffffffffffffffffffffffffffffffffffff168873ffffffffffffffffffffffffffffffffffffffff16141561304c5786600b86815481101515612f8e57fe5b9060005260206000200160000160049054906101000a900460ff1660ff16141515613047576040517f08c379a00000000000000000000000000000000000000000000000000000000081526004018080602001828103825260338152602001807f546865206361726420796f75207375626d6974746564206973206e6f7420766181526020017f6c696420666f7220746869732074726164652e0000000000000000000000000081525060400191505060405180910390fd5b6130ea565b86851415156130e9576040517f08c379a00000000000000000000000000000000000000000000000000000000081526004018080602001828103825260338152602001807f546865206361726420796f75207375626d6974746564206973206e6f7420766181526020017f6c696420666f7220746869732074726164652e0000000000000000000000000081525060400191505060405180910390fd5b5b6130f78a8a8a8a8a612452565b90506000600281111561310657fe5b60116000836000191660001916815260200190815260200160002060009054906101000a900460ff16600281111561313a57fe5b1415156131af576040517f08c379a000000000000000000000000000000000000000000000000000000000815260040180806020018281038252601e8152602001807f54686973207472616465206973206e6f206c6f6e6765722076616c69642e000081525060200191505060405180910390fd5b6131bc8a82868686612056565b1515613230576040517f08c379a00000000000000000000000000000000000000000000000000000000081526004018080602001828103825260128152602001807f496e76616c6964207369676e61747572652e000000000000000000000000000081525060200191505060405180910390fd5b600160116000836000191660001916815260200190815260200160002060006101000a81548160ff0219169083600281111561326857fe5b021790555033600160008b815260200190815260200160002060006101000a81548173ffffffffffffffffffffffffffffffffffffffff021916908373ffffffffffffffffffffffffffffffffffffffff1602179055506132ca8a338b61186d565b6132d5338b8761186d565b3373ffffffffffffffffffffffffffffffffffffffff168a73ffffffffffffffffffffffffffffffffffffffff1682600019167f9e429a813ac4a0e0edadd2f63b4afa6f8c1c51e1240fcf23775f588c2475dab78c89604051808381526020018281526020019250505060405180910390a450505050505050505050565b60008061335f83611ba4565b90508073ffffffffffffffffffffffffffffffffffffffff168473ffffffffffffffffffffffffffffffffffffffff1614806133ce57508373ffffffffffffffffffffffffffffffffffffffff166133b684611126565b73ffffffffffffffffffffffffffffffffffffffff16145b806133df57506133de8185612a37565b5b91505092915050565b8173ffffffffffffffffffffffffffffffffffffffff1661340882611ba4565b73ffffffffffffffffffffffffffffffffffffffff1614151561342a57600080fd5b600073ffffffffffffffffffffffffffffffffffffffff166001600083815260200190815260200160002060009054906101000a900473ffffffffffffffffffffffffffffffffffffffff1673ffffffffffffffffffffffffffffffffffffffff1614151561354d5760006001600083815260200190815260200160002060006101000a81548173ffffffffffffffffffffffffffffffffffffffff021916908373ffffffffffffffffffffffffffffffffffffffff160217905550600073ffffffffffffffffffffffffffffffffffffffff168273ffffffffffffffffffffffffffffffffffffffff167f8c5be1e5ebec7d5bd14f71427d1e84f3dd0314c0f7b2291e5b200ac8c7c3b925836040518082815260200191505060405180910390a35b5050565b60008060006135608585613e12565b600760008581526020019081526020016000205492506135cc6001600660008873ffffffffffffffffffffffffffffffffffffffff1673ffffffffffffffffffffffffffffffffffffffff16815260200190815260200160002080549050613f4090919063ffffffff16565b9150600660008673ffffffffffffffffffffffffffffffffffffffff1673ffffffffffffffffffffffffffffffffffffffff1681526020019081526020016000208281548110151561361a57fe5b9060005260206000200154905080600660008773ffffffffffffffffffffffffffffffffffffffff1673ffffffffffffffffffffffffffffffffffffffff1681526020019081526020016000208481548110151561367457fe5b90600052602060002001819055506000600660008773ffffffffffffffffffffffffffffffffffffffff1673ffffffffffffffffffffffffffffffffffffffff168152602001908152602001600020838154811015156136d057fe5b9060005260206000200181905550600660008673ffffffffffffffffffffffffffffffffffffffff1673ffffffffffffffffffffffffffffffffffffffff16815260200190815260200160002080548091906001900361373091906141e7565b50600060076000868152602001908152602001600020819055508260076000838152602001908152602001600020819055505050505050565b60006137758383613f59565b600660008473ffffffffffffffffffffffffffffffffffffffff1673ffffffffffffffffffffffffffffffffffffffff168152602001908152602001600020805490509050600660008473ffffffffffffffffffffffffffffffffffffffff1673ffffffffffffffffffffffffffffffffffffffff168152602001908152602001600020829080600181540180825580915050906001820390600052602060002001600090919290919091505550806007600084815260200190815260200160002081905550505050565b600080600061384d614213565b6000600d60009054906101000a900473ffffffffffffffffffffffffffffffffffffffff1673ffffffffffffffffffffffffffffffffffffffff1663303d0870886040518263ffffffff167c0100000000000000000000000000000000000000000000000000000000028152600401808260ff1660ff168152602001915050602060405180830381600087803b1580156138e657600080fd5b505af11580156138fa573d6000803e3d6000fd5b505050506040513d602081101561391057600080fd5b8101908080519060200190929190505050935060008461ffff16148061396457508361ffff16600c60008960ff1660ff16815260200190815260200160002060009054906101000a900461ffff1661ffff16105b15156139fe576040517f08c379a00000000000000000000000000000000000000000000000000000000081526004018080602001828103825260218152602001807f43616e2774206d696e7420616e79206d6f7265206f662074686973206361726481526020017f210000000000000000000000000000000000000000000000000000000000000081525060400191505060405180910390fd5b600c60008860ff1660ff168152602001908152602001600020600081819054906101000a900461ffff1660010191906101000a81548161ffff021916908361ffff160217905592506060604051908101604052804263ffffffff1681526020018860ff1681526020018461ffff1681525091506001600b8390806001815401808255809150509060018203906000526020600020016000909192909190915060008201518160000160006101000a81548163ffffffff021916908363ffffffff16021790555060208201518160000160046101000a81548160ff021916908360ff16021790555060408201518160000160056101000a81548161ffff021916908361ffff16021790555050500390507f220b53d3db6f7694ac363d118b95866fad85b0e6b18b77cbe36eb044996994a0816040518082815260200191505060405180910390a1613b4e86826140b1565b8094505050505092915050565b600080613b7d8573ffffffffffffffffffffffffffffffffffffffff16614108565b1515613b8c5760019150613d40565b8473ffffffffffffffffffffffffffffffffffffffff1663f0b9e5ba8786866040518463ffffffff167c0100000000000000000000000000000000000000000000000000000000028152600401808473ffffffffffffffffffffffffffffffffffffffff1673ffffffffffffffffffffffffffffffffffffffff16815260200183815260200180602001828103825283818151815260200191508051906020019080838360005b83811015613c4e578082015181840152602081019050613c33565b50505050905090810190601f168015613c7b5780820380516001836020036101000a031916815260200191505b50945050505050602060405180830381600087803b158015613c9c57600080fd5b505af1158015613cb0573d6000803e3d6000fd5b505050506040513d6020811015613cc657600080fd5b8101908080519060200190929190505050905063f0b9e5ba7c0100000000000000000000000000000000000000000000000000000000027bffffffffffffffffffffffffffffffffffffffffffffffffffffffff1916817bffffffffffffffffffffffffffffffffffffffffffffffffffffffff19161491505b50949350505050565b6060613d54826118a5565b1515613d5f57600080fd5b600a60008381526020019081526020016000208054600181600116156101000203166002900480601f016020809104026020016040519081016040528092919081815260200182805460018160011615610100020316600290048015613e065780601f10613ddb57610100808354040283529160200191613e06565b820191906000526020600020905b815481529060010190602001808311613de957829003601f168201915b50505050509050919050565b8173ffffffffffffffffffffffffffffffffffffffff16613e3282611ba4565b73ffffffffffffffffffffffffffffffffffffffff16141515613e5457600080fd5b613ea76001600260008573ffffffffffffffffffffffffffffffffffffffff1673ffffffffffffffffffffffffffffffffffffffff16815260200190815260200160002054613f4090919063ffffffff16565b600260008473ffffffffffffffffffffffffffffffffffffffff1673ffffffffffffffffffffffffffffffffffffffff16815260200190815260200160002081905550600080600083815260200190815260200160002060006101000a81548173ffffffffffffffffffffffffffffffffffffffff021916908373ffffffffffffffffffffffffffffffffffffffff1602179055505050565b6000828211151515613f4e57fe5b818303905092915050565b600073ffffffffffffffffffffffffffffffffffffffff1660008083815260200190815260200160002060009054906101000a900473ffffffffffffffffffffffffffffffffffffffff1673ffffffffffffffffffffffffffffffffffffffff16141515613fc657600080fd5b8160008083815260200190815260200160002060006101000a81548173ffffffffffffffffffffffffffffffffffffffff021916908373ffffffffffffffffffffffffffffffffffffffff16021790555061406a6001600260008573ffffffffffffffffffffffffffffffffffffffff1673ffffffffffffffffffffffffffffffffffffffff1681526020019081526020016000205461411b90919063ffffffff16565b600260008473ffffffffffffffffffffffffffffffffffffffff1673ffffffffffffffffffffffffffffffffffffffff168152602001908152602001600020819055505050565b6140bb8282614137565b600880549050600960008381526020019081526020016000208190555060088190806001815401808255809150509060018203906000526020600020016000909192909190915055505050565b600080823b905060008111915050919050565b6000818301905082811015151561412e57fe5b80905092915050565b600073ffffffffffffffffffffffffffffffffffffffff168273ffffffffffffffffffffffffffffffffffffffff161415151561417357600080fd5b61417d8282613769565b8173ffffffffffffffffffffffffffffffffffffffff16600073ffffffffffffffffffffffffffffffffffffffff167fddf252ad1be2c89b69c2b068fc378daa952ba7f163c4a11628f55a4df523b3ef836040518082815260200191505060405180910390a35050565b81548183558181111561420e5781836000526020600020918201910161420d9190614242565b5b505050565b606060405190810160405280600063ffffffff168152602001600060ff168152602001600061ffff1681525090565b61426491905b80821115614260576000816000905550600101614248565b5090565b905600a165627a7a72305820d4fffe3d06925fbf7a61d3adee42f5669a1c076abbffeb132589a090715383c80029",
  "source": "pragma solidity 0.4.24;\n\nimport \"./StrikersMetadata.sol\";\nimport \"./StrikersTrading.sol\";\n\n/// @title The main, ERC721-compliant CryptoStrikers contract.\n/// @author The CryptoStrikers Team\ncontract StrikersCore is StrikersTrading {\n\n  /// @dev An external metadata contract that the owner can upgrade.\n  StrikersMetadata public strikersMetadata;\n\n  /// @dev We initialize the CryptoStrikers game with an immutable checklist that oversees card rarity.\n  constructor(address _checklistAddress) public {\n    strikersChecklist = StrikersChecklist(_checklistAddress);\n  }\n\n  /// @dev Allows the contract owner to update the metadata contract.\n  function setMetadataAddress(address _contractAddress) external onlyOwner {\n    strikersMetadata = StrikersMetadata(_contractAddress);\n  }\n\n  /// @dev If we've set an external metadata contract, use that.\n  function tokenURI(uint256 _tokenId) public view returns (string) {\n    if (strikersMetadata == address(0)) {\n      return super.tokenURI(_tokenId);\n    }\n\n    require(exists(_tokenId), \"Card does not exist.\");\n    return strikersMetadata.tokenURI(_tokenId);\n  }\n}\n",
  "sourcePath": "/Users/GiaSet/Desktop/Projects/cryptostrikers/contracts/StrikersCore.sol",
  "compiler": {
    "name": "solc",
    "version": "0.4.24+commit.e67f0147.Emscripten.clang"
  },
  "schemaVersion": "2.0.0",
  "updatedAt": "2018-06-09T04:30:53.848Z"
}