{
  "contractName": "StrikersUpdate",
  "abi": [
    {
      "constant": true,
      "inputs": [
        {
          "name": "",
          "type": "uint256"
        }
      ],
      "name": "games",
      "outputs": [
        {
          "name": "startTime",
          "type": "uint32"
        },
        {
          "name": "homeTeam",
          "type": "uint8"
        },
        {
          "name": "awayTeam",
          "type": "uint8"
        }
      ],
      "payable": false,
      "stateMutability": "view",
      "type": "function"
    },
    {
      "constant": true,
      "inputs": [
        {
          "name": "",
          "type": "uint256"
        }
      ],
      "name": "starCountForCard",
      "outputs": [
        {
          "name": "",
          "type": "uint8"
        }
      ],
      "payable": false,
      "stateMutability": "view",
      "type": "function"
    },
    {
      "constant": false,
      "inputs": [],
      "name": "renounceOwnership",
      "outputs": [],
      "payable": false,
      "stateMutability": "nonpayable",
      "type": "function"
    },
    {
      "constant": true,
      "inputs": [
        {
          "name": "",
          "type": "address"
        },
        {
          "name": "",
          "type": "uint256"
        }
      ],
      "name": "picksForUser",
      "outputs": [
        {
          "name": "",
          "type": "uint256"
        }
      ],
      "payable": false,
      "stateMutability": "view",
      "type": "function"
    },
    {
      "constant": true,
      "inputs": [],
      "name": "owner",
      "outputs": [
        {
          "name": "",
          "type": "address"
        }
      ],
      "payable": false,
      "stateMutability": "view",
      "type": "function"
    },
    {
      "constant": true,
      "inputs": [],
      "name": "strikersBaseContract",
      "outputs": [
        {
          "name": "",
          "type": "address"
        }
      ],
      "payable": false,
      "stateMutability": "view",
      "type": "function"
    },
    {
      "constant": false,
      "inputs": [
        {
          "name": "_newOwner",
          "type": "address"
        }
      ],
      "name": "transferOwnership",
      "outputs": [],
      "payable": false,
      "stateMutability": "nonpayable",
      "type": "function"
    },
    {
      "inputs": [
        {
          "name": "_strikersBaseAddress",
          "type": "address"
        }
      ],
      "payable": false,
      "stateMutability": "nonpayable",
      "type": "constructor"
    },
    {
      "anonymous": false,
      "inputs": [
        {
          "indexed": true,
          "name": "user",
          "type": "address"
        },
        {
          "indexed": true,
          "name": "game",
          "type": "uint8"
        },
        {
          "indexed": false,
          "name": "cardId",
          "type": "uint256"
        }
      ],
      "name": "PickMade",
      "type": "event"
    },
    {
      "anonymous": false,
      "inputs": [
        {
          "indexed": true,
          "name": "user",
          "type": "address"
        },
        {
          "indexed": true,
          "name": "game",
          "type": "uint8"
        },
        {
          "indexed": false,
          "name": "cardId",
          "type": "uint256"
        }
      ],
      "name": "CardUpgraded",
      "type": "event"
    },
    {
      "anonymous": false,
      "inputs": [
        {
          "indexed": true,
          "name": "previousOwner",
          "type": "address"
        }
      ],
      "name": "OwnershipRenounced",
      "type": "event"
    },
    {
      "anonymous": false,
      "inputs": [
        {
          "indexed": true,
          "name": "previousOwner",
          "type": "address"
        },
        {
          "indexed": true,
          "name": "newOwner",
          "type": "address"
        }
      ],
      "name": "OwnershipTransferred",
      "type": "event"
    },
    {
      "constant": false,
      "inputs": [
        {
          "name": "_game",
          "type": "uint8"
        },
        {
          "name": "_acceptedChecklistIds",
          "type": "uint8[]"
        },
        {
          "name": "_startTime",
          "type": "uint32"
        },
        {
          "name": "_homeTeam",
          "type": "uint8"
        },
        {
          "name": "_awayTeam",
          "type": "uint8"
        }
      ],
      "name": "updateGame",
      "outputs": [],
      "payable": false,
      "stateMutability": "nonpayable",
      "type": "function"
    },
    {
      "constant": true,
      "inputs": [
        {
          "name": "_game",
          "type": "uint8"
        }
      ],
      "name": "getGame",
      "outputs": [
        {
          "name": "acceptedChecklistIds",
          "type": "uint8[]"
        },
        {
          "name": "startTime",
          "type": "uint32"
        },
        {
          "name": "homeTeam",
          "type": "uint8"
        },
        {
          "name": "awayTeam",
          "type": "uint8"
        }
      ],
      "payable": false,
      "stateMutability": "view",
      "type": "function"
    },
    {
      "constant": false,
      "inputs": [
        {
          "name": "_game",
          "type": "uint8"
        },
        {
          "name": "_cardId",
          "type": "uint256"
        }
      ],
      "name": "makePick",
      "outputs": [],
      "payable": false,
      "stateMutability": "nonpayable",
      "type": "function"
    },
    {
      "constant": false,
      "inputs": [
        {
          "name": "_game",
          "type": "uint8"
        },
        {
          "name": "_cardIds",
          "type": "uint256[]"
        }
      ],
      "name": "updateCards",
      "outputs": [],
      "payable": false,
      "stateMutability": "nonpayable",
      "type": "function"
    },
    {
      "constant": true,
      "inputs": [
        {
          "name": "_user",
          "type": "address"
        }
      ],
      "name": "getPicksForUser",
      "outputs": [
        {
          "name": "",
          "type": "uint256[8]"
        }
      ],
      "payable": false,
      "stateMutability": "view",
      "type": "function"
    },
    {
      "constant": true,
      "inputs": [
        {
          "name": "_owner",
          "type": "address"
        }
      ],
      "name": "starCountsForOwner",
      "outputs": [
        {
          "name": "",
          "type": "uint8[]"
        }
      ],
      "payable": false,
      "stateMutability": "view",
      "type": "function"
    },
    {
      "constant": true,
      "inputs": [],
      "name": "getMintedCounts",
      "outputs": [
        {
          "name": "",
          "type": "uint16[132]"
        }
      ],
      "payable": false,
      "stateMutability": "view",
      "type": "function"
    }
  ],
  "bytecode": "0x60806040523480156200001157600080fd5b506040516020806200279f833981018060405281019080805190602001909291905050506200003f62000a9e565b6200004962000a9e565b6200005362000a9e565b6200005d62000a9e565b6200006762000a9e565b6200007162000a9e565b6200007b62000a9e565b6200008562000a9e565b336000806101000a81548173ffffffffffffffffffffffffffffffffffffffff021916908373ffffffffffffffffffffffffffffffffffffffff16021790555088600460006101000a81548173ffffffffffffffffffffffffffffffffffffffff021916908373ffffffffffffffffffffffffffffffffffffffff160217905550635b3f75e0886020019063ffffffff16908163ffffffff1681525050601f886040019060ff16908160ff1681525050600a886060019060ff16908160ff16815250506003889080600181540180825580915050906001820390600052602060002090600202016000909192909190915060008201518160000190805190602001906200019492919062000ad3565b5060208201518160010160006101000a81548163ffffffff021916908363ffffffff16021790555060408201518160010160046101000a81548160ff021916908360ff16021790555060608201518160010160056101000a81548160ff021916908360ff16021790555050505061012060405190810160405280600a60ff168152602001600d60ff168152602001601060ff168152602001601160ff168152602001601260ff168152602001601360ff168152602001602560ff168152602001602960ff168152602001603360ff16815250600360008154811015156200027757fe5b90600052602060002090600202016000019060096200029892919062000b81565b50635b3fae20876020019063ffffffff16908163ffffffff16815250506003876040019060ff16908160ff16815250506002876060019060ff16908160ff16815250506003879080600181540180825580915050906001820390600052602060002090600202016000909192909190915060008201518160000190805190602001906200032792919062000ad3565b5060208201518160010160006101000a81548163ffffffff021916908363ffffffff16021790555060408201518160010160046101000a81548160ff021916908360ff16021790555060608201518160010160056101000a81548160ff021916908360ff1602179055505050506101c060405190810160405280600260ff168152602001600560ff168152602001600760ff168152602001601560ff168152602001601760ff168152602001601c60ff168152602001601e60ff168152602001601f60ff168152602001602160ff168152602001602260ff168152602001602d60ff168152602001603260ff168152602001603c60ff168152602001603e60ff16815250600360018154811015156200043c57fe5b906000526020600020906002020160000190600e6200045d92919062000c2f565b50635b40c760866020019063ffffffff16908163ffffffff1681525050601c866040019060ff16908160ff16815250506009866060019060ff16908160ff1681525050600386908060018154018082558091505090600182039060005260206000209060020201600090919290919091506000820151816000019080519060200190620004ec92919062000ad3565b5060208201518160010160006101000a81548163ffffffff021916908363ffffffff16021790555060408201518160010160046101000a81548160ff021916908360ff16021790555060608201518160010160056101000a81548160ff021916908360ff16021790555050505060c060405190810160405280600b60ff168152602001602860ff168152602001603060ff168152602001603f60ff168152602001604860ff168152602001604f60ff1681525060036002815481101515620005b057fe5b9060005260206000209060020201600001906006620005d192919062000cdd565b50635b40ffa0856020019063ffffffff16908163ffffffff16815250506016856040019060ff16908160ff16815250506006856060019060ff16908160ff16815250506003859080600181540180825580915050906001820390600052602060002090600202016000909192909190915060008201518160000190805190602001906200066092919062000ad3565b5060208201518160010160006101000a81548163ffffffff021916908363ffffffff16021790555060408201518160010160046101000a81548160ff021916908360ff16021790555060608201518160010160056101000a81548160ff021916908360ff16021790555050505060a060405190810160405280600660ff168152602001602b60ff168152602001604060ff168152602001604660ff168152602001605160ff168152506003808154811015156200071957fe5b90600052602060002090600202016000019060056200073a92919062000d8b565b50635b44f420846020019063ffffffff16908163ffffffff1681525050600384908060018154018082558091505090600182039060005260206000209060020201600090919290919091506000820151816000019080519060200190620007a392919062000ad3565b5060208201518160010160006101000a81548163ffffffff021916908363ffffffff16021790555060408201518160010160046101000a81548160ff021916908360ff16021790555060608201518160010160056101000a81548160ff021916908360ff160217905550505050635b4645a0836020019063ffffffff16908163ffffffff16815250506003839080600181540180825580915050906001820390600052602060002090600202016000909192909190915060008201518160000190805190602001906200087892919062000ad3565b5060208201518160010160006101000a81548163ffffffff021916908363ffffffff16021790555060408201518160010160046101000a81548160ff021916908360ff16021790555060608201518160010160056101000a81548160ff021916908360ff160217905550505050635b4a0ff0826020019063ffffffff16908163ffffffff16815250506003829080600181540180825580915050906001820390600052602060002090600202016000909192909190915060008201518160000190805190602001906200094d92919062000ad3565b5060208201518160010160006101000a81548163ffffffff021916908363ffffffff16021790555060408201518160010160046101000a81548160ff021916908360ff16021790555060608201518160010160056101000a81548160ff021916908360ff160217905550505050635b4b6170816020019063ffffffff16908163ffffffff168152505060038190806001815401808255809150509060018203906000526020600020906002020160009091929091909150600082015181600001908051906020019062000a2292919062000ad3565b5060208201518160010160006101000a81548163ffffffff021916908363ffffffff16021790555060408201518160010160046101000a81548160ff021916908360ff16021790555060608201518160010160056101000a81548160ff021916908360ff16021790555050505050505050505050505062000e6c565b60806040519081016040528060608152602001600063ffffffff168152602001600060ff168152602001600060ff1681525090565b82805482825590600052602060002090601f0160209004810192821562000b6e5791602002820160005b8382111562000b3d57835183826101000a81548160ff021916908360ff160217905550926020019260010160208160000104928301926001030262000afd565b801562000b6c5782816101000a81549060ff021916905560010160208160000104928301926001030262000b3d565b505b50905062000b7d919062000e39565b5090565b82805482825590600052602060002090601f0160209004810192821562000c1c5791602002820160005b8382111562000beb57835183826101000a81548160ff021916908360ff160217905550926020019260010160208160000104928301926001030262000bab565b801562000c1a5782816101000a81549060ff021916905560010160208160000104928301926001030262000beb565b505b50905062000c2b919062000e39565b5090565b82805482825590600052602060002090601f0160209004810192821562000cca5791602002820160005b8382111562000c9957835183826101000a81548160ff021916908360ff160217905550926020019260010160208160000104928301926001030262000c59565b801562000cc85782816101000a81549060ff021916905560010160208160000104928301926001030262000c99565b505b50905062000cd9919062000e39565b5090565b82805482825590600052602060002090601f0160209004810192821562000d785791602002820160005b8382111562000d4757835183826101000a81548160ff021916908360ff160217905550926020019260010160208160000104928301926001030262000d07565b801562000d765782816101000a81549060ff021916905560010160208160000104928301926001030262000d47565b505b50905062000d87919062000e39565b5090565b82805482825590600052602060002090601f0160209004810192821562000e265791602002820160005b8382111562000df557835183826101000a81548160ff021916908360ff160217905550926020019260010160208160000104928301926001030262000db5565b801562000e245782816101000a81549060ff021916905560010160208160000104928301926001030262000df5565b505b50905062000e35919062000e39565b5090565b62000e6991905b8082111562000e6557600081816101000a81549060ff02191690555060010162000e40565b5090565b90565b6119238062000e7c6000396000f3006080604052600436106100d0576000357c0100000000000000000000000000000000000000000000000000000000900463ffffffff1680630ed61407146100d5578063117a5b901461010f57806316a35f5d14610176578063715018a6146101bd5780637229063f146101d457806374b527b01461023557806377d79d10146102885780638da5cb5b1461033a578063922856da1461039157806399851eac14610410578063bc63cc9014610458578063d36a35c9146104f0578063e3599c2114610547578063f2fde38b146105b9575b600080fd5b3480156100e157600080fd5b5061010d600480360381019080803560ff169060200190929190803590602001909291905050506105fc565b005b34801561011b57600080fd5b5061013a60048036038101908080359060200190929190505050610b3e565b604051808463ffffffff1663ffffffff1681526020018360ff1660ff1681526020018260ff1660ff168152602001935050505060405180910390f35b34801561018257600080fd5b506101a160048036038101908080359060200190929190505050610ba1565b604051808260ff1660ff16815260200191505060405180910390f35b3480156101c957600080fd5b506101d2610bc1565b005b3480156101e057600080fd5b5061021f600480360381019080803573ffffffffffffffffffffffffffffffffffffffff16906020019092919080359060200190929190505050610cc3565b6040518082815260200191505060405180910390f35b34801561024157600080fd5b5061024a610cea565b6040518082608460200280838360005b8381101561027557808201518184015260208101905061025a565b5050505090500191505060405180910390f35b34801561029457600080fd5b506102b6600480360381019080803560ff169060200190929190505050610e1a565b60405180806020018563ffffffff1663ffffffff1681526020018460ff1660ff1681526020018360ff1660ff168152602001828103825286818151815260200191508051906020019060200280838360005b83811015610323578082015181840152602081019050610308565b505050509050019550505050505060405180910390f35b34801561034657600080fd5b5061034f610f59565b604051808273ffffffffffffffffffffffffffffffffffffffff1673ffffffffffffffffffffffffffffffffffffffff16815260200191505060405180910390f35b34801561039d57600080fd5b506103d2600480360381019080803573ffffffffffffffffffffffffffffffffffffffff169060200190929190505050610f7e565b6040518082600860200280838360005b838110156103fd5780820151818401526020810190506103e2565b5050505090500191505060405180910390f35b34801561041c57600080fd5b50610456600480360381019080803560ff169060200190929190803590602001908201803590602001919091929391929390505050611008565b005b34801561046457600080fd5b50610499600480360381019080803573ffffffffffffffffffffffffffffffffffffffff169060200190929190505050611260565b6040518080602001828103825283818151815260200191508051906020019060200280838360005b838110156104dc5780820151818401526020810190506104c1565b505050509050019250505060405180910390f35b3480156104fc57600080fd5b506105056114c8565b604051808273ffffffffffffffffffffffffffffffffffffffff1673ffffffffffffffffffffffffffffffffffffffff16815260200191505060405180910390f35b34801561055357600080fd5b506105b7600480360381019080803560ff169060200190929190803590602001908201803590602001919091929391929390803563ffffffff169060200190929190803560ff169060200190929190803560ff1690602001909291905050506114ee565b005b3480156105c557600080fd5b506105fa600480360381019080803573ffffffffffffffffffffffffffffffffffffffff1690602001909291905050506115e7565b005b6106046117a0565b600060038460ff1681548110151561061857fe5b906000526020600020906002020160806040519081016040529081600082018054806020026020016040519081016040528092919081815260200182805480156106a757602002820191906000526020600020906000905b82829054906101000a900460ff1660ff16815260200190600101906020826000010492830192600103820291508084116106705790505b505050505081526020016001820160009054906101000a900463ffffffff1663ffffffff1663ffffffff1681526020016001820160049054906101000a900460ff1660ff1660ff1681526020016001820160059054906101000a900460ff1660ff1660ff16815250509150816020015163ffffffff1642101515610793576040517f08c379a000000000000000000000000000000000000000000000000000000000815260040180806020018281038252601e8152602001807f546869732067616d652068617320616c726561647920737461727465642e000081525060200191505060405180910390fd5b3373ffffffffffffffffffffffffffffffffffffffff16600460009054906101000a900473ffffffffffffffffffffffffffffffffffffffff1673ffffffffffffffffffffffffffffffffffffffff16636352211e856040518263ffffffff167c010000000000000000000000000000000000000000000000000000000002815260040180828152602001915050602060405180830381600087803b15801561083b57600080fd5b505af115801561084f573d6000803e3d6000fd5b505050506040513d602081101561086557600080fd5b810190808051906020019092919050505073ffffffffffffffffffffffffffffffffffffffff16141515610901576040517f08c379a00000000000000000000000000000000000000000000000000000000081526004018080602001828103825260188152602001807f596f7520646f6e2774206f776e207468697320636172642e000000000000000081525060200191505060405180910390fd5b600460009054906101000a900473ffffffffffffffffffffffffffffffffffffffff1673ffffffffffffffffffffffffffffffffffffffff16638dc10768846040518263ffffffff167c010000000000000000000000000000000000000000000000000000000002815260040180828152602001915050606060405180830381600087803b15801561099257600080fd5b505af11580156109a6573d6000803e3d6000fd5b505050506040513d60608110156109bc57600080fd5b8101908080519060200190929190805190602001909291908051906020019092919050505090915050809150506109f782600001518261164e565b1515610a91576040517f08c379a00000000000000000000000000000000000000000000000000000000081526004018080602001828103825260238152602001807f54686973206361726420697320696e76616c696420666f72207468697320676181526020017f6d652e000000000000000000000000000000000000000000000000000000000081525060400191505060405180910390fd5b82600260003373ffffffffffffffffffffffffffffffffffffffff1673ffffffffffffffffffffffffffffffffffffffff1681526020019081526020016000208560ff16600881101515610ae157fe5b01819055508360ff163373ffffffffffffffffffffffffffffffffffffffff167f4a91d4b4a3182fd8a3defa1bd2bcabb9baafd4f5176e1a32dc147dc4785b45a8856040518082815260200191505060405180910390a350505050565b600381815481101515610b4d57fe5b90600052602060002090600202016000915090508060010160009054906101000a900463ffffffff16908060010160049054906101000a900460ff16908060010160059054906101000a900460ff16905083565b60016020528060005260406000206000915054906101000a900460ff1681565b6000809054906101000a900473ffffffffffffffffffffffffffffffffffffffff1673ffffffffffffffffffffffffffffffffffffffff163373ffffffffffffffffffffffffffffffffffffffff16141515610c1c57600080fd5b6000809054906101000a900473ffffffffffffffffffffffffffffffffffffffff1673ffffffffffffffffffffffffffffffffffffffff167ff8df31144d9c2f0f6b59d69b8b98abd5459d07f2742c4df920b25aae33c6482060405160405180910390a260008060006101000a81548173ffffffffffffffffffffffffffffffffffffffff021916908373ffffffffffffffffffffffffffffffffffffffff160217905550565b600260205281600052604060002081600881101515610cde57fe5b01600091509150505481565b610cf26117d5565b610cfa6117d5565b60008090505b608460ff168160ff161015610e1257600460009054906101000a900473ffffffffffffffffffffffffffffffffffffffff1673ffffffffffffffffffffffffffffffffffffffff16637f791d05826040518263ffffffff167c0100000000000000000000000000000000000000000000000000000000028152600401808260ff1660ff168152602001915050602060405180830381600087803b158015610da657600080fd5b505af1158015610dba573d6000803e3d6000fd5b505050506040513d6020811015610dd057600080fd5b8101908080519060200190929190505050828260ff16608481101515610df257fe5b602002019061ffff16908161ffff16815250508080600101915050610d00565b819250505090565b60606000806000610e296117a0565b60038660ff16815481101515610e3b57fe5b90600052602060002090600202016080604051908101604052908160008201805480602002602001604051908101604052809291908181526020018280548015610eca57602002820191906000526020600020906000905b82829054906101000a900460ff1660ff1681526020019060010190602082600001049283019260010382029150808411610e935790505b505050505081526020016001820160009054906101000a900463ffffffff1663ffffffff1663ffffffff1681526020016001820160049054906101000a900460ff1660ff1660ff1681526020016001820160059054906101000a900460ff1660ff1660ff1681525050905080600001519450806020015193508060400151925080606001519150509193509193565b6000809054906101000a900473ffffffffffffffffffffffffffffffffffffffff1681565b610f866117f9565b600260008373ffffffffffffffffffffffffffffffffffffffff1673ffffffffffffffffffffffffffffffffffffffff168152602001908152602001600020600880602002604051908101604052809291908260088015610ffc576020028201915b815481526020019060010190808311610fe8575b50505050509050919050565b60008060008060009054906101000a900473ffffffffffffffffffffffffffffffffffffffff1673ffffffffffffffffffffffffffffffffffffffff163373ffffffffffffffffffffffffffffffffffffffff1614151561106857600080fd5b600092505b8484905083101561125857848484818110151561108657fe5b905060200201359150600460009054906101000a900473ffffffffffffffffffffffffffffffffffffffff1673ffffffffffffffffffffffffffffffffffffffff16636352211e836040518263ffffffff167c010000000000000000000000000000000000000000000000000000000002815260040180828152602001915050602060405180830381600087803b15801561112057600080fd5b505af1158015611134573d6000803e3d6000fd5b505050506040513d602081101561114a57600080fd5b8101908080519060200190929190505050905081600260008373ffffffffffffffffffffffffffffffffffffffff1673ffffffffffffffffffffffffffffffffffffffff1681526020019081526020016000208760ff166008811015156111ad57fe5b0154141561124b5760016000838152602001908152602001600020600081819054906101000a900460ff168092919060010191906101000a81548160ff021916908360ff160217905550508560ff168173ffffffffffffffffffffffffffffffffffffffff167fca26b888e4648e2d72b9661459dfa110b0b0549e47f8d3ade764ee3570337d27846040518082815260200191505060405180910390a35b828060010193505061106d565b505050505050565b60608060006060600080600460009054906101000a900473ffffffffffffffffffffffffffffffffffffffff1673ffffffffffffffffffffffffffffffffffffffff1663f7ce25bb886040518263ffffffff167c0100000000000000000000000000000000000000000000000000000000028152600401808273ffffffffffffffffffffffffffffffffffffffff1673ffffffffffffffffffffffffffffffffffffffff168152602001915050600060405180830381600087803b15801561132757600080fd5b505af115801561133b573d6000803e3d6000fd5b505050506040513d6000823e3d601f19601f82011682018060405250604081101561136557600080fd5b81019080805164010000000081111561137d57600080fd5b8281019050602081018481111561139357600080fd5b81518560208202830111640100000000821117156113b057600080fd5b505092919060200180516401000000008111156113cc57600080fd5b828101905060208101848111156113e257600080fd5b81518560208202830111640100000000821117156113ff57600080fd5b50509291905050505080955050845193508360405190808252806020026020018201604052801561143f5781602001602082028038833980820191505090505b509250600091505b838210156114bb57848281518110151561145d57fe5b9060200190602002015190506001600082815260200190815260200160002060009054906101000a900460ff16838381518110151561149857fe5b9060200190602002019060ff16908160ff16815250508180600101925050611447565b8295505050505050919050565b600460009054906101000a900473ffffffffffffffffffffffffffffffffffffffff1681565b60008060009054906101000a900473ffffffffffffffffffffffffffffffffffffffff1673ffffffffffffffffffffffffffffffffffffffff163373ffffffffffffffffffffffffffffffffffffffff1614151561154b57600080fd5b60038760ff1681548110151561155d57fe5b90600052602060002090600202019050858582600001919061158092919061181d565b50838160010160006101000a81548163ffffffff021916908363ffffffff160217905550828160010160046101000a81548160ff021916908360ff160217905550818160010160056101000a81548160ff021916908360ff16021790555050505050505050565b6000809054906101000a900473ffffffffffffffffffffffffffffffffffffffff1673ffffffffffffffffffffffffffffffffffffffff163373ffffffffffffffffffffffffffffffffffffffff1614151561164257600080fd5b61164b816116a6565b50565b600080600090505b835181101561169a578260ff16848281518110151561167157fe5b9060200190602002015160ff16141561168d576001915061169f565b8080600101915050611656565b600091505b5092915050565b600073ffffffffffffffffffffffffffffffffffffffff168173ffffffffffffffffffffffffffffffffffffffff16141515156116e257600080fd5b8073ffffffffffffffffffffffffffffffffffffffff166000809054906101000a900473ffffffffffffffffffffffffffffffffffffffff1673ffffffffffffffffffffffffffffffffffffffff167f8be0079c531659141344cd1fd0a4f28419497f9722a3daafe3b4186f6b6457e060405160405180910390a3806000806101000a81548173ffffffffffffffffffffffffffffffffffffffff021916908373ffffffffffffffffffffffffffffffffffffffff16021790555050565b60806040519081016040528060608152602001600063ffffffff168152602001600060ff168152602001600060ff1681525090565b61108060405190810160405280608490602082028038833980820191505090505090565b61010060405190810160405280600890602082028038833980820191505090505090565b82805482825590600052602060002090601f016020900481019282156118b65791602002820160005b8382111561188757833560ff1683826101000a81548160ff021916908360ff1602179055509260200192600101602081600001049283019260010302611846565b80156118b45782816101000a81549060ff0219169055600101602081600001049283019260010302611887565b505b5090506118c391906118c7565b5090565b6118f491905b808211156118f057600081816101000a81549060ff0219169055506001016118cd565b5090565b905600a165627a7a72305820fe9867c42614df64d66ae6d3acf4f0076aece27d83cf90e63332fee70d89bc260029",
  "source": "pragma solidity 0.4.24;\n\nimport \"openzeppelin-solidity/contracts/ownership/Ownable.sol\";\nimport \"./StrikersBase.sol\";\n\ncontract StrikersUpdate is Ownable {\n\n  event PickMade(address indexed user, uint8 indexed game, uint256 cardId);\n  event CardUpgraded(address indexed user, uint8 indexed game, uint256 cardId);\n\n  uint8 constant CHECKLIST_ITEM_COUNT = 132;\n  uint8 constant GAME_COUNT = 8;\n\n  mapping (uint256 => uint8) public starCountForCard;\n  mapping (address => uint256[GAME_COUNT]) public picksForUser;\n\n  struct Game {\n    uint8[] acceptedChecklistIds;\n    uint32 startTime;\n    uint8 homeTeam;\n    uint8 awayTeam;\n  }\n\n  Game[] public games;\n\n  StrikersBase public strikersBaseContract;\n\n  constructor(address _strikersBaseAddress) public {\n    strikersBaseContract = StrikersBase(_strikersBaseAddress);\n\n    /*** QUARTER-FINALS ***/\n\n    // 57 - FRIDAY JULY 6 2018 10:00 AM ET (URUGUAY / FRANCE)\n    Game memory game57;\n    game57.startTime = 1530885600;\n    game57.homeTeam = 31;\n    game57.awayTeam = 10;\n    games.push(game57);\n    games[0].acceptedChecklistIds = [10, 13, 16, 17, 18, 19, 37, 41, 51];\n\n    // 58 - FRIDAY JULY 6 2018 02:00 PM ET (BRAZIL / BELGIUM)\n    Game memory game58;\n    game58.startTime = 1530900000;\n    game58.homeTeam = 3;\n    game58.awayTeam = 2;\n    games.push(game58);\n    games[1].acceptedChecklistIds = [2, 5, 7, 21, 23, 28, 30, 31, 33, 34, 45, 50, 60, 62];\n\n    // 60 - SATURDAY JULY 7 2018 10:00 AM ET (SWEDEN / ENGLAND)\n    Game memory game60;\n    game60.startTime = 1530972000;\n    game60.homeTeam = 28;\n    game60.awayTeam = 9;\n    games.push(game60);\n    games[2].acceptedChecklistIds = [11, 40, 48, 63, 72, 79];\n\n    // 59 - SATURDAY JULY 7 2018 02:00 PM ET (RUSSIA / CROATIA)\n    Game memory game59;\n    game59.startTime = 1530986400;\n    game59.homeTeam = 22;\n    game59.awayTeam = 6;\n    games.push(game59);\n    games[3].acceptedChecklistIds = [6, 43, 64, 70, 81];\n\n    /*** SEMI-FINALS ***/\n\n    // 61 - TUESDAY JULY 10 2018 02:00 PM ET (W57 / W58)\n    Game memory game61;\n    game61.startTime = 1531245600;\n    games.push(game61);\n\n    // 62 - WEDNESDAY JULY 11 2018 02:00 PM ET (W59 / W60)\n    Game memory game62;\n    game62.startTime = 1531332000;\n    games.push(game62);\n\n    /*** THIRD PLACE ***/\n\n    // 63 - SATURDAY JULY 14 2018 11:00 AM ET (L61 / L62)\n    Game memory game63;\n    game63.startTime = 1531580400;\n    games.push(game63);\n\n    /*** FINAL ***/\n\n    // 64 - SUNDAY JULY 15 2018 11:00 AM ET (W61 / W62)\n    Game memory game64;\n    game64.startTime = 1531666800;\n    games.push(game64);\n  }\n\n  function updateGame(uint8 _game, uint8[] _acceptedChecklistIds, uint32 _startTime, uint8 _homeTeam, uint8 _awayTeam) external onlyOwner {\n    Game storage game = games[_game];\n    game.acceptedChecklistIds = _acceptedChecklistIds;\n    game.startTime = _startTime;\n    game.homeTeam = _homeTeam;\n    game.awayTeam = _awayTeam;\n  }\n\n  function getGame(uint8 _game)\n    external\n    view\n    returns (\n    uint8[] acceptedChecklistIds,\n    uint32 startTime,\n    uint8 homeTeam,\n    uint8 awayTeam\n  ) {\n    Game memory game = games[_game];\n    acceptedChecklistIds = game.acceptedChecklistIds;\n    startTime = game.startTime;\n    homeTeam = game.homeTeam;\n    awayTeam = game.awayTeam;\n  }\n\n  function makePick(uint8 _game, uint256 _cardId) external {\n    Game memory game = games[_game];\n    require(now < game.startTime, \"This game has already started.\");\n    require(strikersBaseContract.ownerOf(_cardId) == msg.sender, \"You don't own this card.\");\n    uint8 checklistId;\n    (,checklistId,) = strikersBaseContract.cards(_cardId);\n    require(_arrayContains(game.acceptedChecklistIds, checklistId), \"This card is invalid for this game.\");\n    picksForUser[msg.sender][_game] = _cardId;\n    emit PickMade(msg.sender, _game, _cardId);\n  }\n\n  function _arrayContains(uint8[] _array, uint8 _element) internal pure returns (bool) {\n    for (uint i = 0; i < _array.length; i++) {\n      if (_array[i] == _element) {\n        return true;\n      }\n    }\n\n    return false;\n  }\n\n  function updateCards(uint8 _game, uint256[] _cardIds) external onlyOwner {\n    for (uint256 i = 0; i < _cardIds.length; i++) {\n      uint256 cardId = _cardIds[i];\n      address owner = strikersBaseContract.ownerOf(cardId);\n      if (picksForUser[owner][_game] == cardId) {\n        starCountForCard[cardId]++;\n        emit CardUpgraded(owner, _game, cardId);\n      }\n    }\n  }\n\n  function getPicksForUser(address _user) external view returns (uint256[GAME_COUNT]) {\n    return picksForUser[_user];\n  }\n\n  function starCountsForOwner(address _owner) external view returns (uint8[]) {\n    uint256[] memory cardIds;\n    (cardIds,) = strikersBaseContract.cardAndChecklistIdsForOwner(_owner);\n    uint256 cardCount = cardIds.length;\n    uint8[] memory starCounts = new uint8[](cardCount);\n\n    for (uint256 i = 0; i < cardCount; i++) {\n      uint256 cardId = cardIds[i];\n      starCounts[i] = starCountForCard[cardId];\n    }\n\n    return starCounts;\n  }\n\n  function getMintedCounts() external view returns (uint16[CHECKLIST_ITEM_COUNT]) {\n    uint16[CHECKLIST_ITEM_COUNT] memory mintedCounts;\n\n    for (uint8 i = 0; i < CHECKLIST_ITEM_COUNT; i++) {\n      mintedCounts[i] = strikersBaseContract.mintedCountForChecklistId(i);\n    }\n\n    return mintedCounts;\n  }\n}\n",
  "sourcePath": "/Users/GiaSet/Desktop/Projects/cryptostrikers/contracts/StrikersUpdate.sol",
  "compiler": {
    "name": "solc",
    "version": "0.4.24+commit.e67f0147.Emscripten.clang"
  },
  "schemaVersion": "2.0.1",
  "updatedAt": "2018-07-06T10:28:51.878Z"
}