{
  "contractName": "StrikersChecklist",
  "abi": [
    {
      "constant": true,
      "inputs": [
        {
          "name": "",
          "type": "uint256"
        }
      ],
      "name": "iconicChecklistItems",
      "outputs": [
        {
          "name": "playerId",
          "type": "uint8"
        },
        {
          "name": "tier",
          "type": "uint8"
        }
      ],
      "payable": false,
      "stateMutability": "view",
      "type": "function"
    },
    {
      "constant": true,
      "inputs": [],
      "name": "playerCount",
      "outputs": [
        {
          "name": "",
          "type": "uint8"
        }
      ],
      "payable": false,
      "stateMutability": "view",
      "type": "function"
    },
    {
      "constant": true,
      "inputs": [
        {
          "name": "",
          "type": "uint256"
        }
      ],
      "name": "unreleasedChecklistItems",
      "outputs": [
        {
          "name": "playerId",
          "type": "uint8"
        },
        {
          "name": "tier",
          "type": "uint8"
        }
      ],
      "payable": false,
      "stateMutability": "view",
      "type": "function"
    },
    {
      "constant": true,
      "inputs": [],
      "name": "deployStep",
      "outputs": [
        {
          "name": "",
          "type": "uint8"
        }
      ],
      "payable": false,
      "stateMutability": "view",
      "type": "function"
    },
    {
      "constant": true,
      "inputs": [],
      "name": "owner",
      "outputs": [
        {
          "name": "",
          "type": "address"
        }
      ],
      "payable": false,
      "stateMutability": "view",
      "type": "function"
    },
    {
      "constant": true,
      "inputs": [
        {
          "name": "",
          "type": "uint256"
        }
      ],
      "name": "originalChecklistItems",
      "outputs": [
        {
          "name": "playerId",
          "type": "uint8"
        },
        {
          "name": "tier",
          "type": "uint8"
        }
      ],
      "payable": false,
      "stateMutability": "view",
      "type": "function"
    },
    {
      "constant": false,
      "inputs": [
        {
          "name": "newOwner",
          "type": "address"
        }
      ],
      "name": "transferOwnership",
      "outputs": [],
      "payable": false,
      "stateMutability": "nonpayable",
      "type": "function"
    },
    {
      "constant": false,
      "inputs": [
        {
          "name": "_name",
          "type": "string"
        }
      ],
      "name": "addPlayer",
      "outputs": [],
      "payable": false,
      "stateMutability": "nonpayable",
      "type": "function"
    },
    {
      "constant": true,
      "inputs": [
        {
          "name": "",
          "type": "uint256"
        }
      ],
      "name": "tierLimits",
      "outputs": [
        {
          "name": "",
          "type": "uint16"
        }
      ],
      "payable": false,
      "stateMutability": "view",
      "type": "function"
    },
    {
      "anonymous": false,
      "inputs": [
        {
          "indexed": true,
          "name": "id",
          "type": "uint8"
        },
        {
          "indexed": false,
          "name": "name",
          "type": "string"
        }
      ],
      "name": "PlayerAdded",
      "type": "event"
    },
    {
      "anonymous": false,
      "inputs": [
        {
          "indexed": true,
          "name": "previousOwner",
          "type": "address"
        },
        {
          "indexed": true,
          "name": "newOwner",
          "type": "address"
        }
      ],
      "name": "OwnershipTransferred",
      "type": "event"
    },
    {
      "constant": false,
      "inputs": [
        {
          "name": "_playerId",
          "type": "uint8"
        },
        {
          "name": "_tier",
          "type": "uint8"
        }
      ],
      "name": "addUnreleasedChecklistItem",
      "outputs": [],
      "payable": false,
      "stateMutability": "nonpayable",
      "type": "function"
    },
    {
      "constant": true,
      "inputs": [],
      "name": "originalsCount",
      "outputs": [
        {
          "name": "",
          "type": "uint256"
        }
      ],
      "payable": false,
      "stateMutability": "view",
      "type": "function"
    },
    {
      "constant": true,
      "inputs": [],
      "name": "iconicsCount",
      "outputs": [
        {
          "name": "",
          "type": "uint256"
        }
      ],
      "payable": false,
      "stateMutability": "view",
      "type": "function"
    },
    {
      "constant": true,
      "inputs": [],
      "name": "unreleasedCount",
      "outputs": [
        {
          "name": "",
          "type": "uint256"
        }
      ],
      "payable": false,
      "stateMutability": "view",
      "type": "function"
    },
    {
      "constant": false,
      "inputs": [],
      "name": "deployStepOne",
      "outputs": [],
      "payable": false,
      "stateMutability": "nonpayable",
      "type": "function"
    },
    {
      "constant": false,
      "inputs": [],
      "name": "deployStepTwo",
      "outputs": [],
      "payable": false,
      "stateMutability": "nonpayable",
      "type": "function"
    },
    {
      "constant": false,
      "inputs": [],
      "name": "deployStepThree",
      "outputs": [],
      "payable": false,
      "stateMutability": "nonpayable",
      "type": "function"
    },
    {
      "constant": false,
      "inputs": [],
      "name": "deployStepFour",
      "outputs": [],
      "payable": false,
      "stateMutability": "nonpayable",
      "type": "function"
    },
    {
      "constant": true,
      "inputs": [
        {
          "name": "_checklistId",
          "type": "uint8"
        }
      ],
      "name": "limitForChecklistId",
      "outputs": [
        {
          "name": "",
          "type": "uint16"
        }
      ],
      "payable": false,
      "stateMutability": "view",
      "type": "function"
    }
  ],
  "bytecode": "0x608060405260c060405190810160405280600061ffff168152602001606461ffff1681526020016103e861ffff16815260200161068061ffff168152602001610d0061ffff16815260200161110061ffff168152506001906006620000669291906200221b565b50336000806101000a81548173ffffffffffffffffffffffffffffffffffffffff021916908373ffffffffffffffffffffffffffffffffffffffff160217905550620000f66040805190810160405280600c81526020017f4c696f6e656c204d65737369000000000000000000000000000000000000000081525062002027640100000000026401000000009004565b620001456040805190810160405280601181526020017f437269737469616e6f20526f6e616c646f00000000000000000000000000000081525062002027640100000000026401000000009004565b620001946040805190810160405280600681526020017f4e65796d6172000000000000000000000000000000000000000000000000000081525062002027640100000000026401000000009004565b620001e36040805190810160405280600d81526020017f4d6f68616d65642053616c61680000000000000000000000000000000000000081525062002027640100000000026401000000009004565b620002326040805190810160405280601281526020017f526f62657274204c6577616e646f77736b69000000000000000000000000000081525062002027640100000000026401000000009004565b620002816040805190810160405280600f81526020017f4b6576696e20446520427275796e65000000000000000000000000000000000081525062002027640100000000026401000000009004565b620002d06040805190810160405280600c81526020017f4c756b61204d6f647269c487000000000000000000000000000000000000000081525062002027640100000000026401000000009004565b6200031f6040805190810160405280600b81526020017f4564656e2048617a61726400000000000000000000000000000000000000000081525062002027640100000000026401000000009004565b6200036e6040805190810160405280600c81526020017f53657267696f2052616d6f73000000000000000000000000000000000000000081525062002027640100000000026401000000009004565b620003bd6040805190810160405280600a81526020017f546f6e69204b726f6f730000000000000000000000000000000000000000000081525062002027640100000000026401000000009004565b6200040c6040805190810160405280600c81526020017f4c756973205375c3a172657a000000000000000000000000000000000000000081525062002027640100000000026401000000009004565b6200045b6040805190810160405280600a81526020017f4861727279204b616e650000000000000000000000000000000000000000000081525062002027640100000000026401000000009004565b620004aa6040805190810160405280600e81526020017f53657267696f204167c3bc65726f00000000000000000000000000000000000081525062002027640100000000026401000000009004565b620004f96040805190810160405280600e81526020017f4b796c69616e204d62617070c3a900000000000000000000000000000000000081525062002027640100000000026401000000009004565b620005486040805190810160405280601081526020017f476f6e7a616c6f204869677561c3ad6e0000000000000000000000000000000081525062002027640100000000026401000000009004565b620005976040805190810160405280600c81526020017f446176696420646520476561000000000000000000000000000000000000000081525062002027640100000000026401000000009004565b620005e66040805190810160405280601181526020017f416e746f696e6520477269657a6d616e6e00000000000000000000000000000081525062002027640100000000026401000000009004565b620006356040805190810160405280600d81526020017f4e27476f6c6f204b616e74c3a90000000000000000000000000000000000000081525062002027640100000000026401000000009004565b620006846040805190810160405280600e81526020017f4564696e736f6e20436176616e6900000000000000000000000000000000000081525062002027640100000000026401000000009004565b620006d36040805190810160405280600a81526020017f5061756c20506f6762610000000000000000000000000000000000000000000081525062002027640100000000026401000000009004565b620007226040805190810160405280600481526020017f4973636f0000000000000000000000000000000000000000000000000000000081525062002027640100000000026401000000009004565b620007716040805190810160405280600781526020017f4d617263656c6f0000000000000000000000000000000000000000000000000081525062002027640100000000026401000000009004565b620007c06040805190810160405280600c81526020017f4d616e75656c204e65756572000000000000000000000000000000000000000081525062002027640100000000026401000000009004565b6200080f6040805190810160405280600d81526020017f4472696573204d657274656e730000000000000000000000000000000000000081525062002027640100000000026401000000009004565b6200085e6040805190810160405280601081526020017f4a616d657320526f6472c3ad6775657a0000000000000000000000000000000081525062002027640100000000026401000000009004565b620008ad6040805190810160405280600c81526020017f5061756c6f20447962616c61000000000000000000000000000000000000000081525062002027640100000000026401000000009004565b620008fc6040805190810160405280601181526020017f43687269737469616e204572696b73656e00000000000000000000000000000081525062002027640100000000026401000000009004565b6200094b6040805190810160405280600b81526020017f44617669642053696c766100000000000000000000000000000000000000000081525062002027640100000000026401000000009004565b6200099a6040805190810160405280600d81526020017f4761627269656c204a657375730000000000000000000000000000000000000081525062002027640100000000026401000000009004565b620009e96040805190810160405280600681526020017f54686961676f000000000000000000000000000000000000000000000000000081525062002027640100000000026401000000009004565b62000a386040805190810160405280601081526020017f5468696261757420436f7572746f69730000000000000000000000000000000081525062002027640100000000026401000000009004565b62000a876040805190810160405280601181526020017f5068696c6970706520436f7574696e686f00000000000000000000000000000081525062002027640100000000026401000000009004565b62000ad66040805190810160405280600f81526020017f416e6472c3a97320496e6965737461000000000000000000000000000000000081525062002027640100000000026401000000009004565b62000b256040805190810160405280600881526020017f436173656d69726f00000000000000000000000000000000000000000000000081525062002027640100000000026401000000009004565b62000b746040805190810160405280600d81526020017f526f6d656c75204c756b616b750000000000000000000000000000000000000081525062002027640100000000026401000000009004565b62000bc36040805190810160405280600d81526020017f4765726172642050697175c3a90000000000000000000000000000000000000081525062002027640100000000026401000000009004565b62000c126040805190810160405280600c81526020017f4d6174732048756d6d656c73000000000000000000000000000000000000000081525062002027640100000000026401000000009004565b62000c616040805190810160405280600c81526020017f446965676f20476f64c3ad6e000000000000000000000000000000000000000081525062002027640100000000026401000000009004565b62000cb06040805190810160405280600b81526020017f4d6573757420c3967a696c00000000000000000000000000000000000000000081525062002027640100000000026401000000009004565b62000cff6040805190810160405280600d81526020017f536f6e204865756e672d6d696e0000000000000000000000000000000000000081525062002027640100000000026401000000009004565b62000d4e6040805190810160405280600f81526020017f52616865656d20537465726c696e67000000000000000000000000000000000081525062002027640100000000026401000000009004565b62000d9d6040805190810160405280600b81526020017f4875676f204c6c6f72697300000000000000000000000000000000000000000081525062002027640100000000026401000000009004565b62000dec6040805190810160405280600e81526020017f526164616d656c2046616c63616f00000000000000000000000000000000000081525062002027640100000000026401000000009004565b62000e3b6040805190810160405280600d81526020017f4976616e2052616b697469c4870000000000000000000000000000000000000081525062002027640100000000026401000000009004565b62000e8a6040805190810160405280600b81526020017f4c65726f792053616ec3a900000000000000000000000000000000000000000081525062002027640100000000026401000000009004565b62000ed96040805190810160405280600f81526020017f526f626572746f204669726d696e6f000000000000000000000000000000000081525062002027640100000000026401000000009004565b62000f286040805190810160405280600b81526020017f536164696f204d616ec3a900000000000000000000000000000000000000000081525062002027640100000000026401000000009004565b62000f776040805190810160405280600e81526020017f54686f6d6173204dc3bc6c6c657200000000000000000000000000000000000081525062002027640100000000026401000000009004565b62000fc66040805190810160405280600981526020017f44656c6520416c6c69000000000000000000000000000000000000000000000081525062002027640100000000026401000000009004565b620010156040805190810160405280600c81526020017f4b65796c6f72204e61766173000000000000000000000000000000000000000081525062002027640100000000026401000000009004565b620010646040805190810160405280600c81526020017f54686961676f2053696c7661000000000000000000000000000000000000000081525062002027640100000000026401000000009004565b620010b36040805190810160405280600f81526020017f5261706861c3ab6c20566172616e65000000000000000000000000000000000081525062002027640100000000026401000000009004565b620011026040805190810160405280601081526020017fc3816e67656c204469204d6172c3ad610000000000000000000000000000000081525062002027640100000000026401000000009004565b620011516040805190810160405280600a81526020017f4a6f72646920416c62610000000000000000000000000000000000000000000081525062002027640100000000026401000000009004565b620011a06040805190810160405280600d81526020017f4d656468692042656e617469610000000000000000000000000000000000000081525062002027640100000000026401000000009004565b620011ef6040805190810160405280600b81526020017f54696d6f205765726e657200000000000000000000000000000000000000000081525062002027640100000000026401000000009004565b6200123e6040805190810160405280601181526020017f47796c6669205369677572c3b073736f6e00000000000000000000000000000081525062002027640100000000026401000000009004565b6200128d6040805190810160405280600e81526020017f4e656d616e6a61204d617469c48700000000000000000000000000000000000081525062002027640100000000026401000000009004565b620012dc6040805190810160405280601181526020017f4b616c69646f75204b6f756c6962616c7900000000000000000000000000000081525062002027640100000000026401000000009004565b6200132b6040805190810160405280600e81526020017f4265726e6172646f2053696c766100000000000000000000000000000000000081525062002027640100000000026401000000009004565b6200137a6040805190810160405280600f81526020017f56696e63656e74204b6f6d70616e79000000000000000000000000000000000081525062002027640100000000026401000000009004565b620013c96040805190810160405280600e81526020017f4a6fc3a36f204d6f7574696e686f00000000000000000000000000000000000081525062002027640100000000026401000000009004565b620014186040805190810160405280601181526020017f546f627920416c64657277656972656c6400000000000000000000000000000081525062002027640100000000026401000000009004565b620014676040805190810160405280600d81526020017f456d696c20466f7273626572670000000000000000000000000000000000000081525062002027640100000000026401000000009004565b620014b66040805190810160405280601181526020017f4d6172696f204d616e64c5be756b69c48700000000000000000000000000000081525062002027640100000000026401000000009004565b620015056040805190810160405280601981526020017f53657267656a204d696c696e6b6f7669c4872d53617669c4870000000000000081525062002027640100000000026401000000009004565b620015546040805190810160405280600d81526020017f5368696e6a69204b61676177610000000000000000000000000000000000000081525062002027640100000000026401000000009004565b620015a36040805190810160405280600c81526020017f4772616e6974205868616b61000000000000000000000000000000000000000081525062002027640100000000026401000000009004565b620015f26040805190810160405280601381526020017f416e647265617320436872697374656e73656e0000000000000000000000000081525062002027640100000000026401000000009004565b620016416040805190810160405280601081526020017f50696f7472205a69656c69c584736b690000000000000000000000000000000081525062002027640100000000026401000000009004565b620016906040805190810160405280600d81526020017f46796f646f7220536d6f6c6f760000000000000000000000000000000000000081525062002027640100000000026401000000009004565b620016df6040805190810160405280600f81526020017f5868657264616e2053686171697269000000000000000000000000000000000081525062002027640100000000026401000000009004565b6200172e6040805190810160405280600f81526020017f4d61726375732052617368666f7264000000000000000000000000000000000081525062002027640100000000026401000000009004565b6200177d6040805190810160405280601181526020017f4a6176696572204865726ec3a16e64657a00000000000000000000000000000081525062002027640100000000026401000000009004565b620017cc6040805190810160405280600e81526020017f48697276696e67204c6f7a616e6f00000000000000000000000000000000000081525062002027640100000000026401000000009004565b6200181b6040805190810160405280600c81526020017f48616b696d205a6979656368000000000000000000000000000000000000000081525062002027640100000000026401000000009004565b6200186a6040805190810160405280600c81526020017f566963746f72204d6f736573000000000000000000000000000000000000000081525062002027640100000000026401000000009004565b620018b96040805190810160405280601181526020017f4a6566666572736f6e2046617266c3a16e00000000000000000000000000000081525062002027640100000000026401000000009004565b620019086040805190810160405280600e81526020017f4d6f68616d656420456c6e656e7900000000000000000000000000000000000081525062002027640100000000026401000000009004565b620019576040805190810160405280600b81526020017f4d6172637573204265726700000000000000000000000000000000000000000081525062002027640100000000026401000000009004565b620019a66040805190810160405280600f81526020017f4775696c6c65726d6f204f63686f61000000000000000000000000000000000081525062002027640100000000026401000000009004565b620019f56040805190810160405280600d81526020017f49676f7220416b696e666565760000000000000000000000000000000000000081525062002027640100000000026401000000009004565b62001a446040805190810160405280600d81526020017f53617264617220417a6d6f756e0000000000000000000000000000000000000081525062002027640100000000026401000000009004565b62001a936040805190810160405280600f81526020017f43687269737469616e204375657661000000000000000000000000000000000081525062002027640100000000026401000000009004565b62001ae26040805190810160405280600c81526020017f5761686269204b68617a7269000000000000000000000000000000000000000081525062002027640100000000026401000000009004565b62001b316040805190810160405280600d81526020017f4b656973756b6520486f6e64610000000000000000000000000000000000000081525062002027640100000000026401000000009004565b62001b806040805190810160405280600a81526020017f54696d20436168696c6c0000000000000000000000000000000000000000000081525062002027640100000000026401000000009004565b62001bcf6040805190810160405280600e81526020017f4a6f686e204f6269204d696b656c00000000000000000000000000000000000081525062002027640100000000026401000000009004565b62001c1e6040805190810160405280600d81526020017f4b692053756e672d7975656e670000000000000000000000000000000000000081525062002027640100000000026401000000009004565b62001c6d6040805190810160405280600a81526020017f427279616e205275697a0000000000000000000000000000000000000000000081525062002027640100000000026401000000009004565b62001cbc6040805190810160405280600c81526020017f4d61796120596f7368696461000000000000000000000000000000000000000081525062002027640100000000026401000000009004565b62001d0b6040805190810160405280600d81526020017f4e6177616620416c20416265640000000000000000000000000000000000000081525062002027640100000000026401000000009004565b62001d5a6040805190810160405280600e81526020017f4c6565204368756e672d796f6e6700000000000000000000000000000000000081525062002027640100000000026401000000009004565b62001da96040805190810160405280600e81526020017f4761627269656c2047c3b36d657a00000000000000000000000000000000000081525062002027640100000000026401000000009004565b62001df86040805190810160405280600b81526020017f4e61c3af6d20536c69746900000000000000000000000000000000000000000081525062002027640100000000026401000000009004565b62001e476040805190810160405280601381526020017f52657a612047686f6f6368616e6e656a6861640000000000000000000000000081525062002027640100000000026401000000009004565b62001e966040805190810160405280600c81526020017f4d696c65204a6564696e616b000000000000000000000000000000000000000081525062002027640100000000026401000000009004565b62001ee56040805190810160405280601381526020017f4d6f68616d6d616420416c2d5361686c6177690000000000000000000000000081525062002027640100000000026401000000009004565b62001f346040805190810160405280600f81526020017f41726f6e2047756e6e617273736f6e000000000000000000000000000000000081525062002027640100000000026401000000009004565b62001f836040805190810160405280600b81526020017f426c61732050c3a972657a00000000000000000000000000000000000000000081525062002027640100000000026401000000009004565b62001fd26040805190810160405280600a81526020017f44616e6920416c7665730000000000000000000000000000000000000000000081525062002027640100000000026401000000009004565b620020216040805190810160405280601381526020017f5a6c6174616e204962726168696d6f7669c4870000000000000000000000000081525062002027640100000000026401000000009004565b62002300565b6000809054906101000a900473ffffffffffffffffffffffffffffffffffffffff1673ffffffffffffffffffffffffffffffffffffffff163373ffffffffffffffffffffffffffffffffffffffff161415156200208357600080fd5b60ff600060149054906101000a900460ff1660ff1610151562002134576040517f08c379a00000000000000000000000000000000000000000000000000000000081526004018080602001828103825260338152602001807f596f7527766520616c726561647920616464656420746865206d6178696d756d81526020017f20616d6f756e74206f6620706c61796572732e0000000000000000000000000081525060400191505060405180910390fd5b600060149054906101000a900460ff1660ff167fe5a5150bee8f6f90d8057388876cdf080229399f84878abd5c34cc5bc50de0c5826040518080602001828103825283818151815260200191508051906020019080838360005b83811015620021ab5780820151818401526020810190506200218e565b50505050905090810190601f168015620021d95780820380516001836020036101000a031916815260200191505b509250505060405180910390a26000601481819054906101000a900460ff168092919060010191906101000a81548160ff021916908360ff1602179055505050565b82805482825590600052602060002090600f01601090048101928215620022b95791602002820160005b838211156200228757835183826101000a81548161ffff021916908361ffff160217905550926020019260020160208160010104928301926001030262002245565b8015620022b75782816101000a81549061ffff021916905560020160208160010104928301926001030262002287565b505b509050620022c89190620022cc565b5090565b620022fd91905b80821115620022f957600081816101000a81549061ffff021916905550600101620022d3565b5090565b90565b611c0780620023106000396000f3006080604052600436106100fc576000357c0100000000000000000000000000000000000000000000000000000000900463ffffffff1680631a03324e14610101578063234c4bd91461015d57806326965dad14610174578063302bcc571461018b578063303d0870146101bc5780633e85cccc146102085780634fb34523146102645780635836746d1461027b57806359c42f75146102b45780637887e518146102df578063839dbbb11461031c5780638da5cb5b14610347578063949e16341461039e578063c1d4bc64146103fa578063da75b90114610425578063f2fde38b1461043c578063f77e8b831461047f578063f9488735146104e8575b600080fd5b34801561010d57600080fd5b5061012c60048036038101908080359060200190929190505050610531565b604051808360ff1660ff16815260200182600581111561014857fe5b60ff1681526020019250505060405180910390f35b34801561016957600080fd5b5061017261057a565b005b34801561018057600080fd5b50610189610856565b005b34801561019757600080fd5b506101a0610b25565b604051808260ff1660ff16815260200191505060405180910390f35b3480156101c857600080fd5b506101ea600480360381019080803560ff169060200190929190505050610b38565b604051808261ffff1661ffff16815260200191505060405180910390f35b34801561021457600080fd5b5061023360048036038101908080359060200190929190505050610d92565b604051808360ff1660ff16815260200182600581111561024f57fe5b60ff1681526020019250505060405180910390f35b34801561027057600080fd5b50610279610ddb565b005b34801561028757600080fd5b5061029061109e565b604051808260048111156102a057fe5b60ff16815260200191505060405180910390f35b3480156102c057600080fd5b506102c96110b1565b6040518082815260200191505060405180910390f35b3480156102eb57600080fd5b5061031a600480360381019080803560ff169060200190929190803560ff1690602001909291905050506110be565b005b34801561032857600080fd5b506103316113cf565b6040518082815260200191505060405180910390f35b34801561035357600080fd5b5061035c6113dc565b604051808273ffffffffffffffffffffffffffffffffffffffff1673ffffffffffffffffffffffffffffffffffffffff16815260200191505060405180910390f35b3480156103aa57600080fd5b506103c960048036038101908080359060200190929190505050611401565b604051808360ff1660ff1681526020018260058111156103e557fe5b60ff1681526020019250505060405180910390f35b34801561040657600080fd5b5061040f61144a565b6040518082815260200191505060405180910390f35b34801561043157600080fd5b5061043a611457565b005b34801561044857600080fd5b5061047d600480360381019080803573ffffffffffffffffffffffffffffffffffffffff169060200190929190505050611726565b005b34801561048b57600080fd5b506104e6600480360381019080803590602001908201803590602001908080601f016020809104026020016040519081016040528093929190818152602001838380828437820191505050505050919291929050505061187b565b005b3480156104f457600080fd5b5061051360048036038101908080359060200190929190505050611a6a565b604051808261ffff1661ffff16815260200191505060405180910390f35b60048181548110151561054057fe5b906000526020600020016000915090508060000160009054906101000a900460ff16908060000160019054906101000a900460ff16905082565b6000809054906101000a900473ffffffffffffffffffffffffffffffffffffffff1673ffffffffffffffffffffffffffffffffffffffff163373ffffffffffffffffffffffffffffffffffffffff161415156105d557600080fd5b600260048111156105e257fe5b600260009054906101000a900460ff1660048111156105fd57fe5b141515610698576040517f08c379a000000000000000000000000000000000000000000000000000000000815260040180806020018281038252602a8152602001807f596f75277265206e6f7420666f6c6c6f77696e6720746865207374657073206981526020017f6e206f726465722e2e2e0000000000000000000000000000000000000000000081525060400191505060405180910390fd5b6106a460426005611aa1565b6106b060436005611aa1565b6106bc60446005611aa1565b6106c860456005611aa1565b6106d460466005611aa1565b6106e060476005611aa1565b6106ec60486005611aa1565b6106f860496005611aa1565b610704604a6005611aa1565b610710604b6005611aa1565b61071c604c6005611aa1565b610728604d6005611aa1565b610734604e6005611aa1565b610740604f6005611aa1565b61074c60506005611aa1565b61075860516005611aa1565b61076460526005611aa1565b61077060536005611aa1565b61077c60546005611aa1565b61078860556005611aa1565b61079460566005611aa1565b6107a060576005611aa1565b6107ac60586005611aa1565b6107b860596005611aa1565b6107c4605a6005611aa1565b6107d0605b6005611aa1565b6107dc605c6005611aa1565b6107e8605d6005611aa1565b6107f4605e6005611aa1565b610800605f6005611aa1565b61080c60606005611aa1565b61081860616005611aa1565b61082460626005611aa1565b61083060636005611aa1565b6003600260006101000a81548160ff0219169083600481111561084f57fe5b0217905550565b6000809054906101000a900473ffffffffffffffffffffffffffffffffffffffff1673ffffffffffffffffffffffffffffffffffffffff163373ffffffffffffffffffffffffffffffffffffffff161415156108b157600080fd5b600060048111156108be57fe5b600260009054906101000a900460ff1660048111156108d957fe5b141515610974576040517f08c379a000000000000000000000000000000000000000000000000000000000815260040180806020018281038252602a8152602001807f596f75277265206e6f7420666f6c6c6f77696e6720746865207374657073206981526020017f6e206f726465722e2e2e0000000000000000000000000000000000000000000081525060400191505060405180910390fd5b61098060006002611aa1565b61098c60016002611aa1565b610997600280611aa1565b6109a360036002611aa1565b6109af60046003611aa1565b6109bb60056003611aa1565b6109c760066003611aa1565b6109d360076003611aa1565b6109df60086003611aa1565b6109eb60096003611aa1565b6109f7600a6003611aa1565b610a03600b6003611aa1565b610a0f600c6003611aa1565b610a1b600d6003611aa1565b610a27600e6003611aa1565b610a33600f6003611aa1565b610a3f60106003611aa1565b610a4b60116003611aa1565b610a5760126003611aa1565b610a6360136003611aa1565b610a6f60146004611aa1565b610a7b60156004611aa1565b610a8760166004611aa1565b610a9360176004611aa1565b610a9f60186004611aa1565b610aab60196004611aa1565b610ab7601a6004611aa1565b610ac3601b6004611aa1565b610acf601c6004611aa1565b610adb601d6004611aa1565b610ae7601e6004611aa1565b610af3601f6004611aa1565b610aff60206004611aa1565b6001600260006101000a81548160ff02191690836004811115610b1e57fe5b0217905550565b600060149054906101000a900460ff1681565b600080600060648460ff161015610b7d5760038460ff16815481101515610b5b57fe5b9060005260206000200160000160019054906101000a900460ff169150610d48565b60c88460ff161015610c6a57606484039050610b976113cf565b8160ff16101515610c36576040517f08c379a000000000000000000000000000000000000000000000000000000000815260040180806020018281038252602a8152602001807f546869732049636f6e69637320636865636b6c697374206974656d20646f657381526020017f6e27742065786973742e0000000000000000000000000000000000000000000081525060400191505060405180910390fd5b60048160ff16815481101515610c4857fe5b9060005260206000200160000160019054906101000a900460ff169150610d47565b60c884039050610c786110b1565b8160ff16101515610d17576040517f08c379a000000000000000000000000000000000000000000000000000000000815260040180806020018281038252602d8152602001807f5468697320556e72656c656173656420636865636b6c697374206974656d206481526020017f6f65736e27742065786973742e0000000000000000000000000000000000000081525060400191505060405180910390fd5b60058160ff16815481101515610d2957fe5b9060005260206000200160000160019054906101000a900460ff1691505b5b6001826005811115610d5657fe5b60ff16815481101515610d6557fe5b90600052602060002090601091828204019190066002029054906101000a900461ffff1692505050919050565b600581815481101515610da157fe5b906000526020600020016000915090508060000160009054906101000a900460ff16908060000160019054906101000a900460ff16905082565b6000809054906101000a900473ffffffffffffffffffffffffffffffffffffffff1673ffffffffffffffffffffffffffffffffffffffff163373ffffffffffffffffffffffffffffffffffffffff16141515610e3657600080fd5b60036004811115610e4357fe5b600260009054906101000a900460ff166004811115610e5e57fe5b141515610ef9576040517f08c379a000000000000000000000000000000000000000000000000000000000815260040180806020018281038252602a8152602001807f596f75277265206e6f7420666f6c6c6f77696e6720746865207374657073206981526020017f6e206f726465722e2e2e0000000000000000000000000000000000000000000081525060400191505060405180910390fd5b610f0560006001611b3e565b610f10600180611b3e565b610f1c60026001611b3e565b610f2860036001611b3e565b610f3460046001611b3e565b610f4060056001611b3e565b610f4c60066001611b3e565b610f5860076001611b3e565b610f6460086001611b3e565b610f7060096001611b3e565b610f7c600a6001611b3e565b610f88600b6001611b3e565b610f94600c6001611b3e565b610fa0600f6001611b3e565b610fac60106001611b3e565b610fb860116000611b3e565b610fc460126000611b3e565b610fd060136001611b3e565b610fdc60156001611b3e565b610fe860186001611b3e565b610ff4601a6001611b3e565b611000601d6000611b3e565b61100c60246000611b3e565b61101860266000611b3e565b61102460276001611b3e565b611030602e6001611b3e565b61103c60306001611b3e565b61104860316000611b3e565b61105460496001611b3e565b61106060556001611b3e565b61106c60646000611b3e565b61107860656000611b3e565b6004600260006101000a81548160ff0219169083600481111561109757fe5b0217905550565b600260009054906101000a900460ff1681565b6000600580549050905090565b6000809054906101000a900473ffffffffffffffffffffffffffffffffffffffff1673ffffffffffffffffffffffffffffffffffffffff163373ffffffffffffffffffffffffffffffffffffffff1614151561111957600080fd5b60048081111561112557fe5b600260009054906101000a900460ff16600481111561114057fe5b1415156111db576040517f08c379a00000000000000000000000000000000000000000000000000000000081526004018080602001828103825260368152602001807f46696e697368206465706c6f79696e6720746865204f726967696e616c73206181526020017f6e642049636f6e69637320736574732066697273742e0000000000000000000081525060400191505060405180910390fd5b60386111e56110b1565b101515611280576040517f08c379a00000000000000000000000000000000000000000000000000000000081526004018080602001828103825260278152602001807f596f752063616e27742061646420616e79206d6f726520636865636b6c69737481526020017f206974656d732e0000000000000000000000000000000000000000000000000081525060400191505060405180910390fd5b600060149054906101000a900460ff1660ff168260ff16101515611332576040517f08c379a000000000000000000000000000000000000000000000000000000000815260040180806020018281038252602d8152602001807f5468697320706c6179657220646f65736e277420657869737420696e206f757281526020017f20706c61796572206c6973742e0000000000000000000000000000000000000081525060400191505060405180910390fd5b600560408051908101604052808460ff16815260200183600581111561135457fe5b81525090806001815401808255809150509060018203906000526020600020016000909192909190915060008201518160000160006101000a81548160ff021916908360ff16021790555060208201518160000160016101000a81548160ff021916908360058111156113c357fe5b02179055505050505050565b6000600480549050905090565b6000809054906101000a900473ffffffffffffffffffffffffffffffffffffffff1681565b60038181548110151561141057fe5b906000526020600020016000915090508060000160009054906101000a900460ff16908060000160019054906101000a900460ff16905082565b6000600380549050905090565b6000809054906101000a900473ffffffffffffffffffffffffffffffffffffffff1673ffffffffffffffffffffffffffffffffffffffff163373ffffffffffffffffffffffffffffffffffffffff161415156114b257600080fd5b600160048111156114bf57fe5b600260009054906101000a900460ff1660048111156114da57fe5b141515611575576040517f08c379a000000000000000000000000000000000000000000000000000000000815260040180806020018281038252602a8152602001807f596f75277265206e6f7420666f6c6c6f77696e6720746865207374657073206981526020017f6e206f726465722e2e2e0000000000000000000000000000000000000000000081525060400191505060405180910390fd5b61158160216004611aa1565b61158d60226004611aa1565b61159960236004611aa1565b6115a560246004611aa1565b6115b160256004611aa1565b6115bd60266004611aa1565b6115c960276004611aa1565b6115d560286004611aa1565b6115e160296004611aa1565b6115ed602a6004611aa1565b6115f9602b6004611aa1565b611605602c6004611aa1565b611611602d6004611aa1565b61161d602e6004611aa1565b611629602f6004611aa1565b61163560306004611aa1565b61164160316004611aa1565b61164d60326005611aa1565b61165960336005611aa1565b61166560346005611aa1565b61167160356005611aa1565b61167d60366005611aa1565b61168960376005611aa1565b61169560386005611aa1565b6116a160396005611aa1565b6116ad603a6005611aa1565b6116b9603b6005611aa1565b6116c5603c6005611aa1565b6116d1603d6005611aa1565b6116dd603e6005611aa1565b6116e9603f6005611aa1565b6116f560406005611aa1565b61170160416005611aa1565b60028060006101000a81548160ff0219169083600481111561171f57fe5b0217905550565b6000809054906101000a900473ffffffffffffffffffffffffffffffffffffffff1673ffffffffffffffffffffffffffffffffffffffff163373ffffffffffffffffffffffffffffffffffffffff1614151561178157600080fd5b600073ffffffffffffffffffffffffffffffffffffffff168173ffffffffffffffffffffffffffffffffffffffff16141515156117bd57600080fd5b8073ffffffffffffffffffffffffffffffffffffffff166000809054906101000a900473ffffffffffffffffffffffffffffffffffffffff1673ffffffffffffffffffffffffffffffffffffffff167f8be0079c531659141344cd1fd0a4f28419497f9722a3daafe3b4186f6b6457e060405160405180910390a3806000806101000a81548173ffffffffffffffffffffffffffffffffffffffff021916908373ffffffffffffffffffffffffffffffffffffffff16021790555050565b6000809054906101000a900473ffffffffffffffffffffffffffffffffffffffff1673ffffffffffffffffffffffffffffffffffffffff163373ffffffffffffffffffffffffffffffffffffffff161415156118d657600080fd5b60ff600060149054906101000a900460ff1660ff16101515611986576040517f08c379a00000000000000000000000000000000000000000000000000000000081526004018080602001828103825260338152602001807f596f7527766520616c726561647920616464656420746865206d6178696d756d81526020017f20616d6f756e74206f6620706c61796572732e0000000000000000000000000081525060400191505060405180910390fd5b600060149054906101000a900460ff1660ff167fe5a5150bee8f6f90d8057388876cdf080229399f84878abd5c34cc5bc50de0c5826040518080602001828103825283818151815260200191508051906020019080838360005b838110156119fb5780820151818401526020810190506119e0565b50505050905090810190601f168015611a285780820380516001836020036101000a031916815260200191505b509250505060405180910390a26000601481819054906101000a900460ff168092919060010191906101000a81548160ff021916908360ff1602179055505050565b600181815481101515611a7957fe5b9060005260206000209060109182820401919006600202915054906101000a900461ffff1681565b600360408051908101604052808460ff168152602001836005811115611ac357fe5b81525090806001815401808255809150509060018203906000526020600020016000909192909190915060008201518160000160006101000a81548160ff021916908360ff16021790555060208201518160000160016101000a81548160ff02191690836005811115611b3257fe5b02179055505050505050565b600460408051908101604052808460ff168152602001836005811115611b6057fe5b81525090806001815401808255809150509060018203906000526020600020016000909192909190915060008201518160000160006101000a81548160ff021916908360ff16021790555060208201518160000160016101000a81548160ff02191690836005811115611bcf57fe5b021790555050505050505600a165627a7a72305820f87c20fe7eb593456a65c383f65f6ca3a578031b9800b338b3629208d23ef2680029",
  "source": "pragma solidity 0.4.24;\n\nimport './StrikersPlayerList.sol';\n\n/// @title The contract that manages checklist items, sets, and rarity tiers.\n/// @author The CryptoStrikers Team\ncontract StrikersChecklist is StrikersPlayerList {\n  // High level overview of everything going on in this contract:\n  //\n  // ChecklistItem is the parent class to Card and has 3 properties:\n  //  - uint8 checklistId (000 to 255)\n  //  - uint8 playerId (see StrikersPlayerList.sol)\n  //  - RarityTier tier (more info below)\n  //\n  // Two things to note: the checklistId is not explicitly stored\n  // on the checklistItem struct, and it's composed of two parts.\n  // (For the following, assume it is left padded with zeros to reach\n  // three digits, such that checklistId 0 becomes 000)\n  //  - the first digit represents the setId\n  //      * 0 = Originals Set\n  //      * 1 = Iconics Set\n  //      * 2 = Unreleased Set\n  //  - the last two digits represent its index in the appropriate set arary\n  //\n  //  For example, checklist ID 100 would represent fhe first checklist item\n  //  in the iconicChecklistItems array (first digit = 1 = Iconics Set, last two\n  //  digits = 00 = first index of array)\n  //\n  // Because checklistId is represented as a uint8 throughout the app, the highest\n  // value it can take is 255, which means we can't add more than 56 items to our\n  // Unreleased Set's unreleasedChecklistItems array (setId 2). Also, once we've initialized\n  // this contract, it's impossible for us to add more checklist items to the Originals\n  // and Iconics set -- what you see here is what you get.\n  //\n  // Simple enough right?\n\n  /// @dev We initialize this contract with so much data that we have\n  ///   to stage it in 4 different steps, ~33 checklist items at a time.\n  enum DeployStep {\n    WaitingForStepOne,\n    WaitingForStepTwo,\n    WaitingForStepThree,\n    WaitingForStepFour,\n    DoneInitialDeploy\n  }\n\n  /// @dev Enum containing all our rarity tiers, just because\n  ///   it's cleaner dealing with these values than with uint8s.\n  enum RarityTier {\n    IconicReferral,\n    IconicInsert,\n    Diamond,\n    Gold,\n    Silver,\n    Bronze\n  }\n\n  /// @dev A lookup table indicating how limited the cards\n  ///   in each tier are. If this value is 0, it means\n  ///   that cards of this rarity tier are unlimited,\n  ///   which is only the case for the 8 Iconics cards\n  ///   we give away as part of our referral program.\n  uint16[] public tierLimits = [\n    0,    // Iconic - Referral Bonus (uncapped)\n    100,  // Iconic Inserts (\"Card of the Day\")\n    1000, // Diamond\n    1664, // Gold\n    3328, // Silver\n    4352  // Bronze\n  ];\n\n  /// @dev ChecklistItem is essentially the parent class to Card.\n  ///   It represents a given superclass of cards (eg Originals Messi),\n  ///   and then each Card is an instance of this ChecklistItem, with\n  ///   its own serial number, mint date, etc.\n  struct ChecklistItem {\n    uint8 playerId;\n    RarityTier tier;\n  }\n\n  /// @dev The deploy step we're at. Defaults to WaitingForStepOne.\n  DeployStep public deployStep;\n\n  /// @dev Array containing all the Originals checklist items (000 - 099)\n  ChecklistItem[] public originalChecklistItems;\n\n  /// @dev Array containing all the Iconics checklist items (100 - 131)\n  ChecklistItem[] public iconicChecklistItems;\n\n  /// @dev Array containing all the unreleased checklist items (200 - 255 max)\n  ChecklistItem[] public unreleasedChecklistItems;\n\n  /// @dev Internal function to add a checklist item to the Originals set.\n  /// @param _playerId The player represented by this checklist item. (see StrikersPlayerList.sol)\n  /// @param _tier This checklist item's rarity tier. (see Rarity Tier enum and corresponding tierLimits)\n  function _addOriginalChecklistItem(uint8 _playerId, RarityTier _tier) internal {\n    originalChecklistItems.push(ChecklistItem({\n      playerId: _playerId,\n      tier: _tier\n    }));\n  }\n\n  /// @dev Internal function to add a checklist item to the Iconics set.\n  /// @param _playerId The player represented by this checklist item. (see StrikersPlayerList.sol)\n  /// @param _tier This checklist item's rarity tier. (see Rarity Tier enum and corresponding tierLimits)\n  function _addIconicChecklistItem(uint8 _playerId, RarityTier _tier) internal {\n    iconicChecklistItems.push(ChecklistItem({\n      playerId: _playerId,\n      tier: _tier\n    }));\n  }\n\n  /// @dev External function to add a checklist item to our mystery set.\n  ///   Must have completed initial deploy, and can't add more than 56 items (because checklistId is a uint8).\n  /// @param _playerId The player represented by this checklist item. (see StrikersPlayerList.sol)\n  /// @param _tier This checklist item's rarity tier. (see Rarity Tier enum and corresponding tierLimits)\n  function addUnreleasedChecklistItem(uint8 _playerId, RarityTier _tier) external onlyOwner {\n    require(deployStep == DeployStep.DoneInitialDeploy, \"Finish deploying the Originals and Iconics sets first.\");\n    require(unreleasedCount() < 56, \"You can't add any more checklist items.\");\n    require(_playerId < playerCount, \"This player doesn't exist in our player list.\");\n    unreleasedChecklistItems.push(ChecklistItem({\n      playerId: _playerId,\n      tier: _tier\n    }));\n  }\n\n  /// @dev Returns how many Original checklist items we've added.\n  function originalsCount() external view returns (uint256) {\n    return originalChecklistItems.length;\n  }\n\n  /// @dev Returns how many Iconic checklist items we've added.\n  function iconicsCount() public view returns (uint256) {\n    return iconicChecklistItems.length;\n  }\n\n  /// @dev Returns how many Unreleased checklist items we've added.\n  function unreleasedCount() public view returns (uint256) {\n    return unreleasedChecklistItems.length;\n  }\n\n  // In the next four functions, we initialize this contract with our\n  // 132 initial checklist items (100 Originals, 32 Iconics). Because\n  // of how much data we need to store, it has to be broken up into\n  // four different function calls, which need to be called in sequence.\n  // The ordering of the checklist items we add determines their\n  // checklist ID, which is left-padded in our frontend to be a\n  // 3-digit identifier where the first digit is the setId and the last\n  // 2 digits represents the checklist items index in the appropriate ___ChecklistItems array.\n  // For example, Originals Messi is the first item for set ID 0, and this\n  // is displayed as #000 throughout the app. Our Card struct declare its\n  // checklistId property as uint8, so we have\n  // to be mindful that we can only have 256 total checklist items.\n\n  /// @dev Deploys Originals #000 through #032.\n  function deployStepOne() external onlyOwner {\n    require(deployStep == DeployStep.WaitingForStepOne, \"You're not following the steps in order...\");\n\n    /* ORIGINALS - DIAMOND */\n    _addOriginalChecklistItem(0, RarityTier.Diamond); // 000 Messi\n    _addOriginalChecklistItem(1, RarityTier.Diamond); // 001 Ronaldo\n    _addOriginalChecklistItem(2, RarityTier.Diamond); // 002 Neymar\n    _addOriginalChecklistItem(3, RarityTier.Diamond); // 003 Salah\n\n    /* ORIGINALS - GOLD */\n    _addOriginalChecklistItem(4, RarityTier.Gold); // 004 Lewandowski\n    _addOriginalChecklistItem(5, RarityTier.Gold); // 005 De Bruyne\n    _addOriginalChecklistItem(6, RarityTier.Gold); // 006 Modri\n    _addOriginalChecklistItem(7, RarityTier.Gold); // 007 Hazard\n    _addOriginalChecklistItem(8, RarityTier.Gold); // 008 Ramos\n    _addOriginalChecklistItem(9, RarityTier.Gold); // 009 Kroos\n    _addOriginalChecklistItem(10, RarityTier.Gold); // 010 Surez\n    _addOriginalChecklistItem(11, RarityTier.Gold); // 011 Kane\n    _addOriginalChecklistItem(12, RarityTier.Gold); // 012 Agero\n    _addOriginalChecklistItem(13, RarityTier.Gold); // 013 Mbapp\n    _addOriginalChecklistItem(14, RarityTier.Gold); // 014 Higuan\n    _addOriginalChecklistItem(15, RarityTier.Gold); // 015 de Gea\n    _addOriginalChecklistItem(16, RarityTier.Gold); // 016 Griezmann\n    _addOriginalChecklistItem(17, RarityTier.Gold); // 017 Kant\n    _addOriginalChecklistItem(18, RarityTier.Gold); // 018 Cavani\n    _addOriginalChecklistItem(19, RarityTier.Gold); // 019 Pogba\n\n    /* ORIGINALS - SILVER (020 to 032) */\n    _addOriginalChecklistItem(20, RarityTier.Silver); // 020 Isco\n    _addOriginalChecklistItem(21, RarityTier.Silver); // 021 Marcelo\n    _addOriginalChecklistItem(22, RarityTier.Silver); // 022 Neuer\n    _addOriginalChecklistItem(23, RarityTier.Silver); // 023 Mertens\n    _addOriginalChecklistItem(24, RarityTier.Silver); // 024 James\n    _addOriginalChecklistItem(25, RarityTier.Silver); // 025 Dybala\n    _addOriginalChecklistItem(26, RarityTier.Silver); // 026 Eriksen\n    _addOriginalChecklistItem(27, RarityTier.Silver); // 027 David Silva\n    _addOriginalChecklistItem(28, RarityTier.Silver); // 028 Gabriel Jesus\n    _addOriginalChecklistItem(29, RarityTier.Silver); // 029 Thiago\n    _addOriginalChecklistItem(30, RarityTier.Silver); // 030 Courtois\n    _addOriginalChecklistItem(31, RarityTier.Silver); // 031 Coutinho\n    _addOriginalChecklistItem(32, RarityTier.Silver); // 032 Iniesta\n\n    // Move to the next deploy step.\n    deployStep = DeployStep.WaitingForStepTwo;\n  }\n\n  /// @dev Deploys Originals #033 through #065.\n  function deployStepTwo() external onlyOwner {\n    require(deployStep == DeployStep.WaitingForStepTwo, \"You're not following the steps in order...\");\n\n    /* ORIGINALS - SILVER (033 to 049) */\n    _addOriginalChecklistItem(33, RarityTier.Silver); // 033 Casemiro\n    _addOriginalChecklistItem(34, RarityTier.Silver); // 034 Lukaku\n    _addOriginalChecklistItem(35, RarityTier.Silver); // 035 Piqu\n    _addOriginalChecklistItem(36, RarityTier.Silver); // 036 Hummels\n    _addOriginalChecklistItem(37, RarityTier.Silver); // 037 Godn\n    _addOriginalChecklistItem(38, RarityTier.Silver); // 038 zil\n    _addOriginalChecklistItem(39, RarityTier.Silver); // 039 Son\n    _addOriginalChecklistItem(40, RarityTier.Silver); // 040 Sterling\n    _addOriginalChecklistItem(41, RarityTier.Silver); // 041 Lloris\n    _addOriginalChecklistItem(42, RarityTier.Silver); // 042 Falcao\n    _addOriginalChecklistItem(43, RarityTier.Silver); // 043 Rakiti\n    _addOriginalChecklistItem(44, RarityTier.Silver); // 044 San\n    _addOriginalChecklistItem(45, RarityTier.Silver); // 045 Firmino\n    _addOriginalChecklistItem(46, RarityTier.Silver); // 046 Man\n    _addOriginalChecklistItem(47, RarityTier.Silver); // 047 Mller\n    _addOriginalChecklistItem(48, RarityTier.Silver); // 048 Alli\n    _addOriginalChecklistItem(49, RarityTier.Silver); // 049 Navas\n\n    /* ORIGINALS - BRONZE (050 to 065) */\n    _addOriginalChecklistItem(50, RarityTier.Bronze); // 050 Thiago Silva\n    _addOriginalChecklistItem(51, RarityTier.Bronze); // 051 Varane\n    _addOriginalChecklistItem(52, RarityTier.Bronze); // 052 Di Mara\n    _addOriginalChecklistItem(53, RarityTier.Bronze); // 053 Alba\n    _addOriginalChecklistItem(54, RarityTier.Bronze); // 054 Benatia\n    _addOriginalChecklistItem(55, RarityTier.Bronze); // 055 Werner\n    _addOriginalChecklistItem(56, RarityTier.Bronze); // 056 Sigursson\n    _addOriginalChecklistItem(57, RarityTier.Bronze); // 057 Mati\n    _addOriginalChecklistItem(58, RarityTier.Bronze); // 058 Koulibaly\n    _addOriginalChecklistItem(59, RarityTier.Bronze); // 059 Bernardo Silva\n    _addOriginalChecklistItem(60, RarityTier.Bronze); // 060 Kompany\n    _addOriginalChecklistItem(61, RarityTier.Bronze); // 061 Moutinho\n    _addOriginalChecklistItem(62, RarityTier.Bronze); // 062 Alderweireld\n    _addOriginalChecklistItem(63, RarityTier.Bronze); // 063 Forsberg\n    _addOriginalChecklistItem(64, RarityTier.Bronze); // 064 Manduki\n    _addOriginalChecklistItem(65, RarityTier.Bronze); // 065 Milinkovi-Savi\n\n    // Move to the next deploy step.\n    deployStep = DeployStep.WaitingForStepThree;\n  }\n\n  /// @dev Deploys Originals #066 through #099.\n  function deployStepThree() external onlyOwner {\n    require(deployStep == DeployStep.WaitingForStepThree, \"You're not following the steps in order...\");\n\n    /* ORIGINALS - BRONZE (066 to 099) */\n    _addOriginalChecklistItem(66, RarityTier.Bronze); // 066 Kagawa\n    _addOriginalChecklistItem(67, RarityTier.Bronze); // 067 Xhaka\n    _addOriginalChecklistItem(68, RarityTier.Bronze); // 068 Christensen\n    _addOriginalChecklistItem(69, RarityTier.Bronze); // 069 Zieliski\n    _addOriginalChecklistItem(70, RarityTier.Bronze); // 070 Smolov\n    _addOriginalChecklistItem(71, RarityTier.Bronze); // 071 Shaqiri\n    _addOriginalChecklistItem(72, RarityTier.Bronze); // 072 Rashford\n    _addOriginalChecklistItem(73, RarityTier.Bronze); // 073 Hernndez\n    _addOriginalChecklistItem(74, RarityTier.Bronze); // 074 Lozano\n    _addOriginalChecklistItem(75, RarityTier.Bronze); // 075 Ziyech\n    _addOriginalChecklistItem(76, RarityTier.Bronze); // 076 Moses\n    _addOriginalChecklistItem(77, RarityTier.Bronze); // 077 Farfn\n    _addOriginalChecklistItem(78, RarityTier.Bronze); // 078 Elneny\n    _addOriginalChecklistItem(79, RarityTier.Bronze); // 079 Berg\n    _addOriginalChecklistItem(80, RarityTier.Bronze); // 080 Ochoa\n    _addOriginalChecklistItem(81, RarityTier.Bronze); // 081 Akinfeev\n    _addOriginalChecklistItem(82, RarityTier.Bronze); // 082 Azmoun\n    _addOriginalChecklistItem(83, RarityTier.Bronze); // 083 Cueva\n    _addOriginalChecklistItem(84, RarityTier.Bronze); // 084 Khazri\n    _addOriginalChecklistItem(85, RarityTier.Bronze); // 085 Honda\n    _addOriginalChecklistItem(86, RarityTier.Bronze); // 086 Cahill\n    _addOriginalChecklistItem(87, RarityTier.Bronze); // 087 Mikel\n    _addOriginalChecklistItem(88, RarityTier.Bronze); // 088 Sung-yueng\n    _addOriginalChecklistItem(89, RarityTier.Bronze); // 089 Ruiz\n    _addOriginalChecklistItem(90, RarityTier.Bronze); // 090 Yoshida\n    _addOriginalChecklistItem(91, RarityTier.Bronze); // 091 Al Abed\n    _addOriginalChecklistItem(92, RarityTier.Bronze); // 092 Chung-yong\n    _addOriginalChecklistItem(93, RarityTier.Bronze); // 093 Gmez\n    _addOriginalChecklistItem(94, RarityTier.Bronze); // 094 Sliti\n    _addOriginalChecklistItem(95, RarityTier.Bronze); // 095 Ghoochannejhad\n    _addOriginalChecklistItem(96, RarityTier.Bronze); // 096 Jedinak\n    _addOriginalChecklistItem(97, RarityTier.Bronze); // 097 Al-Sahlawi\n    _addOriginalChecklistItem(98, RarityTier.Bronze); // 098 Gunnarsson\n    _addOriginalChecklistItem(99, RarityTier.Bronze); // 099 Prez\n\n    // Move to the next deploy step.\n    deployStep = DeployStep.WaitingForStepFour;\n  }\n\n  /// @dev Deploys all Iconics and marks the deploy as complete!\n  function deployStepFour() external onlyOwner {\n    require(deployStep == DeployStep.WaitingForStepFour, \"You're not following the steps in order...\");\n\n    /* ICONICS */\n    _addIconicChecklistItem(0, RarityTier.IconicInsert); // 100 Messi\n    _addIconicChecklistItem(1, RarityTier.IconicInsert); // 101 Ronaldo\n    _addIconicChecklistItem(2, RarityTier.IconicInsert); // 102 Neymar\n    _addIconicChecklistItem(3, RarityTier.IconicInsert); // 103 Salah\n    _addIconicChecklistItem(4, RarityTier.IconicInsert); // 104 Lewandowski\n    _addIconicChecklistItem(5, RarityTier.IconicInsert); // 105 De Bruyne\n    _addIconicChecklistItem(6, RarityTier.IconicInsert); // 106 Modri\n    _addIconicChecklistItem(7, RarityTier.IconicInsert); // 107 Hazard\n    _addIconicChecklistItem(8, RarityTier.IconicInsert); // 108 Ramos\n    _addIconicChecklistItem(9, RarityTier.IconicInsert); // 109 Kroos\n    _addIconicChecklistItem(10, RarityTier.IconicInsert); // 110 Surez\n    _addIconicChecklistItem(11, RarityTier.IconicInsert); // 111 Kane\n    _addIconicChecklistItem(12, RarityTier.IconicInsert); // 112 Agero\n    _addIconicChecklistItem(15, RarityTier.IconicInsert); // 113 de Gea\n    _addIconicChecklistItem(16, RarityTier.IconicInsert); // 114 Griezmann\n    _addIconicChecklistItem(17, RarityTier.IconicReferral); // 115 Kant\n    _addIconicChecklistItem(18, RarityTier.IconicReferral); // 116 Cavani\n    _addIconicChecklistItem(19, RarityTier.IconicInsert); // 117 Pogba\n    _addIconicChecklistItem(21, RarityTier.IconicInsert); // 118 Marcelo\n    _addIconicChecklistItem(24, RarityTier.IconicInsert); // 119 James\n    _addIconicChecklistItem(26, RarityTier.IconicInsert); // 120 Eriksen\n    _addIconicChecklistItem(29, RarityTier.IconicReferral); // 121 Thiago\n    _addIconicChecklistItem(36, RarityTier.IconicReferral); // 122 Hummels\n    _addIconicChecklistItem(38, RarityTier.IconicReferral); // 123 zil\n    _addIconicChecklistItem(39, RarityTier.IconicInsert); // 124 Son\n    _addIconicChecklistItem(46, RarityTier.IconicInsert); // 125 Man\n    _addIconicChecklistItem(48, RarityTier.IconicInsert); // 126 Alli\n    _addIconicChecklistItem(49, RarityTier.IconicReferral); // 127 Navas\n    _addIconicChecklistItem(73, RarityTier.IconicInsert); // 128 Hernndez\n    _addIconicChecklistItem(85, RarityTier.IconicInsert); // 129 Honda\n    _addIconicChecklistItem(100, RarityTier.IconicReferral); // 130 Alves\n    _addIconicChecklistItem(101, RarityTier.IconicReferral); // 131 Zlatan\n\n    // Mark the initial deploy as complete.\n    deployStep = DeployStep.DoneInitialDeploy;\n  }\n\n  /// @dev Returns the mint limit for a given checklist item, based on its tier.\n  /// @param _checklistId Which checklist item we need to get the limit for.\n  /// @return How much of this checklist item we are allowed to mint.\n  function limitForChecklistId(uint8 _checklistId) external view returns (uint16) {\n    RarityTier rarityTier;\n    uint8 index;\n    if (_checklistId < 100) { // Originals = #000 to #099\n      rarityTier = originalChecklistItems[_checklistId].tier;\n    } else if (_checklistId < 200) { // Iconics = #100 to #131\n      index = _checklistId - 100;\n      require(index < iconicsCount(), \"This Iconics checklist item doesn't exist.\");\n      rarityTier = iconicChecklistItems[index].tier;\n    } else { // Unreleased = #200 to max #255\n      index = _checklistId - 200;\n      require(index < unreleasedCount(), \"This Unreleased checklist item doesn't exist.\");\n      rarityTier = unreleasedChecklistItems[index].tier;\n    }\n    return tierLimits[uint8(rarityTier)];\n  }\n}\n",
  "sourcePath": "/Users/GiaSet/Desktop/Projects/cryptostrikers/contracts/StrikersChecklist.sol",
  "compiler": {
    "name": "solc",
    "version": "0.4.24+commit.e67f0147.Emscripten.clang"
  },
  "schemaVersion": "2.0.0",
  "updatedAt": "2018-06-09T04:30:53.842Z"
}