{
  "contractName": "StrikersPackSale",
  "abi": [
    {
      "constant": false,
      "inputs": [
        {
          "name": "_premium",
          "type": "bool"
        },
        {
          "name": "_addrs",
          "type": "address[]"
        }
      ],
      "name": "addAddressesToWhitelist",
      "outputs": [],
      "payable": false,
      "stateMutability": "nonpayable",
      "type": "function"
    },
    {
      "constant": false,
      "inputs": [],
      "name": "claimBonusCard",
      "outputs": [],
      "payable": false,
      "stateMutability": "nonpayable",
      "type": "function"
    },
    {
      "constant": true,
      "inputs": [
        {
          "name": "",
          "type": "address"
        }
      ],
      "name": "hasBurnedKitty",
      "outputs": [
        {
          "name": "",
          "type": "bool"
        }
      ],
      "payable": false,
      "stateMutability": "view",
      "type": "function"
    },
    {
      "constant": true,
      "inputs": [
        {
          "name": "",
          "type": "uint256"
        }
      ],
      "name": "currentWhitelistCounts",
      "outputs": [
        {
          "name": "",
          "type": "uint16"
        }
      ],
      "payable": false,
      "stateMutability": "view",
      "type": "function"
    },
    {
      "constant": false,
      "inputs": [
        {
          "name": "_premium",
          "type": "bool"
        },
        {
          "name": "_addr",
          "type": "address"
        },
        {
          "name": "_additionalPacks",
          "type": "uint8"
        }
      ],
      "name": "addToWhitelistAllocation",
      "outputs": [],
      "payable": false,
      "stateMutability": "nonpayable",
      "type": "function"
    },
    {
      "constant": false,
      "inputs": [
        {
          "name": "_featuredChecklistItem",
          "type": "uint8"
        },
        {
          "name": "_packPrice",
          "type": "uint256"
        }
      ],
      "name": "modifyNextPremiumSale",
      "outputs": [],
      "payable": false,
      "stateMutability": "nonpayable",
      "type": "function"
    },
    {
      "constant": true,
      "inputs": [],
      "name": "PERCENT_COMMISSION",
      "outputs": [
        {
          "name": "",
          "type": "uint256"
        }
      ],
      "payable": false,
      "stateMutability": "view",
      "type": "function"
    },
    {
      "constant": true,
      "inputs": [],
      "name": "kittiesContract",
      "outputs": [
        {
          "name": "",
          "type": "address"
        }
      ],
      "payable": false,
      "stateMutability": "view",
      "type": "function"
    },
    {
      "constant": false,
      "inputs": [],
      "name": "claimFreeReferralPack",
      "outputs": [],
      "payable": false,
      "stateMutability": "nonpayable",
      "type": "function"
    },
    {
      "constant": true,
      "inputs": [],
      "name": "PACK_SIZE",
      "outputs": [
        {
          "name": "",
          "type": "uint8"
        }
      ],
      "payable": false,
      "stateMutability": "view",
      "type": "function"
    },
    {
      "constant": false,
      "inputs": [],
      "name": "withdrawCommission",
      "outputs": [],
      "payable": false,
      "stateMutability": "nonpayable",
      "type": "function"
    },
    {
      "constant": false,
      "inputs": [],
      "name": "unpause",
      "outputs": [],
      "payable": false,
      "stateMutability": "nonpayable",
      "type": "function"
    },
    {
      "constant": true,
      "inputs": [],
      "name": "freeReferralPacksClaimed",
      "outputs": [
        {
          "name": "",
          "type": "uint16"
        }
      ],
      "payable": false,
      "stateMutability": "view",
      "type": "function"
    },
    {
      "constant": true,
      "inputs": [],
      "name": "KITTY_BURN_LIMIT",
      "outputs": [
        {
          "name": "",
          "type": "uint16"
        }
      ],
      "payable": false,
      "stateMutability": "view",
      "type": "function"
    },
    {
      "constant": false,
      "inputs": [
        {
          "name": "_premium",
          "type": "bool"
        }
      ],
      "name": "claimWhitelistPack",
      "outputs": [],
      "payable": false,
      "stateMutability": "nonpayable",
      "type": "function"
    },
    {
      "constant": true,
      "inputs": [
        {
          "name": "",
          "type": "address"
        }
      ],
      "name": "referrers",
      "outputs": [
        {
          "name": "",
          "type": "address"
        }
      ],
      "payable": false,
      "stateMutability": "view",
      "type": "function"
    },
    {
      "constant": true,
      "inputs": [],
      "name": "totalWeiRaised",
      "outputs": [
        {
          "name": "",
          "type": "uint256"
        }
      ],
      "payable": false,
      "stateMutability": "view",
      "type": "function"
    },
    {
      "constant": true,
      "inputs": [
        {
          "name": "",
          "type": "address"
        }
      ],
      "name": "bonusCardsClaimed",
      "outputs": [
        {
          "name": "",
          "type": "uint8"
        }
      ],
      "payable": false,
      "stateMutability": "view",
      "type": "function"
    },
    {
      "constant": true,
      "inputs": [],
      "name": "currentPremiumSale",
      "outputs": [
        {
          "name": "id",
          "type": "uint8"
        },
        {
          "name": "featuredChecklistItem",
          "type": "uint8"
        },
        {
          "name": "packPrice",
          "type": "uint256"
        },
        {
          "name": "packsLoaded",
          "type": "uint32"
        },
        {
          "name": "packsSold",
          "type": "uint32"
        }
      ],
      "payable": false,
      "stateMutability": "view",
      "type": "function"
    },
    {
      "constant": true,
      "inputs": [],
      "name": "paused",
      "outputs": [
        {
          "name": "",
          "type": "bool"
        }
      ],
      "payable": false,
      "stateMutability": "view",
      "type": "function"
    },
    {
      "constant": true,
      "inputs": [
        {
          "name": "",
          "type": "uint256"
        }
      ],
      "name": "whitelistLimits",
      "outputs": [
        {
          "name": "",
          "type": "uint16"
        }
      ],
      "payable": false,
      "stateMutability": "view",
      "type": "function"
    },
    {
      "constant": true,
      "inputs": [
        {
          "name": "",
          "type": "address"
        }
      ],
      "name": "referralSaleCount",
      "outputs": [
        {
          "name": "",
          "type": "uint16"
        }
      ],
      "payable": false,
      "stateMutability": "view",
      "type": "function"
    },
    {
      "constant": false,
      "inputs": [
        {
          "name": "_packPrice",
          "type": "uint256"
        }
      ],
      "name": "setStandardPackPrice",
      "outputs": [],
      "payable": false,
      "stateMutability": "nonpayable",
      "type": "function"
    },
    {
      "constant": false,
      "inputs": [],
      "name": "pause",
      "outputs": [],
      "payable": false,
      "stateMutability": "nonpayable",
      "type": "function"
    },
    {
      "constant": true,
      "inputs": [],
      "name": "MAX_NUMBER_OF_PREMIUM_SALES",
      "outputs": [
        {
          "name": "",
          "type": "uint8"
        }
      ],
      "payable": false,
      "stateMutability": "view",
      "type": "function"
    },
    {
      "constant": true,
      "inputs": [],
      "name": "owner",
      "outputs": [
        {
          "name": "",
          "type": "address"
        }
      ],
      "payable": false,
      "stateMutability": "view",
      "type": "function"
    },
    {
      "constant": true,
      "inputs": [
        {
          "name": "",
          "type": "address"
        }
      ],
      "name": "referralCommissionClaimed",
      "outputs": [
        {
          "name": "",
          "type": "uint256"
        }
      ],
      "payable": false,
      "stateMutability": "view",
      "type": "function"
    },
    {
      "constant": true,
      "inputs": [],
      "name": "totalCommissionOwed",
      "outputs": [
        {
          "name": "",
          "type": "uint256"
        }
      ],
      "payable": false,
      "stateMutability": "view",
      "type": "function"
    },
    {
      "constant": true,
      "inputs": [
        {
          "name": "",
          "type": "address"
        }
      ],
      "name": "packsBought",
      "outputs": [
        {
          "name": "",
          "type": "uint16"
        }
      ],
      "payable": false,
      "stateMutability": "view",
      "type": "function"
    },
    {
      "constant": true,
      "inputs": [
        {
          "name": "_addr",
          "type": "address"
        }
      ],
      "name": "isOwedFreeReferralPack",
      "outputs": [
        {
          "name": "",
          "type": "bool"
        }
      ],
      "payable": false,
      "stateMutability": "view",
      "type": "function"
    },
    {
      "constant": false,
      "inputs": [
        {
          "name": "_newPacks",
          "type": "uint32[]"
        }
      ],
      "name": "addPacksToNextPremiumSale",
      "outputs": [],
      "payable": false,
      "stateMutability": "nonpayable",
      "type": "function"
    },
    {
      "constant": true,
      "inputs": [],
      "name": "saleCount",
      "outputs": [
        {
          "name": "",
          "type": "uint8"
        }
      ],
      "payable": false,
      "stateMutability": "view",
      "type": "function"
    },
    {
      "constant": true,
      "inputs": [],
      "name": "nextPremiumSale",
      "outputs": [
        {
          "name": "id",
          "type": "uint8"
        },
        {
          "name": "featuredChecklistItem",
          "type": "uint8"
        },
        {
          "name": "packPrice",
          "type": "uint256"
        },
        {
          "name": "packsLoaded",
          "type": "uint32"
        },
        {
          "name": "packsSold",
          "type": "uint32"
        }
      ],
      "payable": false,
      "stateMutability": "view",
      "type": "function"
    },
    {
      "constant": true,
      "inputs": [],
      "name": "MAX_STANDARD_SALE_PACKS",
      "outputs": [
        {
          "name": "",
          "type": "uint32"
        }
      ],
      "payable": false,
      "stateMutability": "view",
      "type": "function"
    },
    {
      "constant": true,
      "inputs": [],
      "name": "PREMIUM_SALE_PACK_COUNT",
      "outputs": [
        {
          "name": "",
          "type": "uint16"
        }
      ],
      "payable": false,
      "stateMutability": "view",
      "type": "function"
    },
    {
      "constant": false,
      "inputs": [],
      "name": "startStandardSale",
      "outputs": [],
      "payable": false,
      "stateMutability": "nonpayable",
      "type": "function"
    },
    {
      "constant": false,
      "inputs": [
        {
          "name": "_for",
          "type": "address"
        },
        {
          "name": "_referrer",
          "type": "address"
        }
      ],
      "name": "setReferrer",
      "outputs": [],
      "payable": false,
      "stateMutability": "nonpayable",
      "type": "function"
    },
    {
      "constant": true,
      "inputs": [
        {
          "name": "",
          "type": "uint256"
        }
      ],
      "name": "bonusCards",
      "outputs": [
        {
          "name": "",
          "type": "uint8"
        }
      ],
      "payable": false,
      "stateMutability": "view",
      "type": "function"
    },
    {
      "constant": true,
      "inputs": [
        {
          "name": "",
          "type": "uint256"
        },
        {
          "name": "",
          "type": "address"
        }
      ],
      "name": "whitelists",
      "outputs": [
        {
          "name": "",
          "type": "uint8"
        }
      ],
      "payable": false,
      "stateMutability": "view",
      "type": "function"
    },
    {
      "constant": false,
      "inputs": [
        {
          "name": "_featuredChecklistItem",
          "type": "uint8"
        },
        {
          "name": "_packPrice",
          "type": "uint256"
        }
      ],
      "name": "createNextPremiumSale",
      "outputs": [],
      "payable": false,
      "stateMutability": "nonpayable",
      "type": "function"
    },
    {
      "constant": true,
      "inputs": [],
      "name": "mintingContract",
      "outputs": [
        {
          "name": "",
          "type": "address"
        }
      ],
      "payable": false,
      "stateMutability": "view",
      "type": "function"
    },
    {
      "constant": true,
      "inputs": [
        {
          "name": "",
          "type": "address"
        }
      ],
      "name": "referralCommissionEarned",
      "outputs": [
        {
          "name": "",
          "type": "uint256"
        }
      ],
      "payable": false,
      "stateMutability": "view",
      "type": "function"
    },
    {
      "constant": true,
      "inputs": [],
      "name": "standardSale",
      "outputs": [
        {
          "name": "id",
          "type": "uint8"
        },
        {
          "name": "featuredChecklistItem",
          "type": "uint8"
        },
        {
          "name": "packPrice",
          "type": "uint256"
        },
        {
          "name": "packsLoaded",
          "type": "uint32"
        },
        {
          "name": "packsSold",
          "type": "uint32"
        }
      ],
      "payable": false,
      "stateMutability": "view",
      "type": "function"
    },
    {
      "constant": true,
      "inputs": [
        {
          "name": "",
          "type": "address"
        }
      ],
      "name": "hasClaimedFreeReferralPack",
      "outputs": [
        {
          "name": "",
          "type": "bool"
        }
      ],
      "payable": false,
      "stateMutability": "view",
      "type": "function"
    },
    {
      "constant": false,
      "inputs": [],
      "name": "startNextPremiumSale",
      "outputs": [],
      "payable": false,
      "stateMutability": "nonpayable",
      "type": "function"
    },
    {
      "constant": false,
      "inputs": [
        {
          "name": "_newPacks",
          "type": "uint32[]"
        }
      ],
      "name": "addPacksToStandardSale",
      "outputs": [],
      "payable": false,
      "stateMutability": "nonpayable",
      "type": "function"
    },
    {
      "constant": true,
      "inputs": [],
      "name": "totalKittiesBurned",
      "outputs": [
        {
          "name": "",
          "type": "uint16"
        }
      ],
      "payable": false,
      "stateMutability": "view",
      "type": "function"
    },
    {
      "constant": false,
      "inputs": [
        {
          "name": "newOwner",
          "type": "address"
        }
      ],
      "name": "transferOwnership",
      "outputs": [],
      "payable": false,
      "stateMutability": "nonpayable",
      "type": "function"
    },
    {
      "constant": true,
      "inputs": [],
      "name": "MAX_FREE_REFERRAL_PACKS",
      "outputs": [
        {
          "name": "",
          "type": "uint16"
        }
      ],
      "payable": false,
      "stateMutability": "view",
      "type": "function"
    },
    {
      "inputs": [
        {
          "name": "_standardPackPrice",
          "type": "uint256"
        },
        {
          "name": "_kittiesContractAddress",
          "type": "address"
        },
        {
          "name": "_mintingContractAddress",
          "type": "address"
        }
      ],
      "payable": false,
      "stateMutability": "nonpayable",
      "type": "constructor"
    },
    {
      "anonymous": false,
      "inputs": [
        {
          "indexed": false,
          "name": "user",
          "type": "address"
        },
        {
          "indexed": false,
          "name": "kittyId",
          "type": "uint256"
        }
      ],
      "name": "KittyBurned",
      "type": "event"
    },
    {
      "anonymous": false,
      "inputs": [
        {
          "indexed": true,
          "name": "referrer",
          "type": "address"
        },
        {
          "indexed": false,
          "name": "buyer",
          "type": "address"
        },
        {
          "indexed": false,
          "name": "amount",
          "type": "uint256"
        }
      ],
      "name": "SaleAttributed",
      "type": "event"
    },
    {
      "anonymous": false,
      "inputs": [
        {
          "indexed": true,
          "name": "user",
          "type": "address"
        },
        {
          "indexed": false,
          "name": "amount",
          "type": "uint16"
        },
        {
          "indexed": false,
          "name": "premium",
          "type": "bool"
        }
      ],
      "name": "WhitelistAllocationIncreased",
      "type": "event"
    },
    {
      "anonymous": false,
      "inputs": [
        {
          "indexed": true,
          "name": "user",
          "type": "address"
        },
        {
          "indexed": false,
          "name": "premium",
          "type": "bool"
        }
      ],
      "name": "WhitelistAllocationUsed",
      "type": "event"
    },
    {
      "anonymous": false,
      "inputs": [
        {
          "indexed": true,
          "name": "buyer",
          "type": "address"
        },
        {
          "indexed": false,
          "name": "pack",
          "type": "uint256[]"
        }
      ],
      "name": "PackBought",
      "type": "event"
    },
    {
      "anonymous": false,
      "inputs": [
        {
          "indexed": true,
          "name": "saleId",
          "type": "uint8"
        },
        {
          "indexed": false,
          "name": "packs",
          "type": "uint32[]"
        }
      ],
      "name": "PacksLoaded",
      "type": "event"
    },
    {
      "anonymous": false,
      "inputs": [
        {
          "indexed": false,
          "name": "saleId",
          "type": "uint8"
        },
        {
          "indexed": false,
          "name": "packPrice",
          "type": "uint256"
        },
        {
          "indexed": false,
          "name": "featuredChecklistItem",
          "type": "uint8"
        }
      ],
      "name": "SaleStarted",
      "type": "event"
    },
    {
      "anonymous": false,
      "inputs": [
        {
          "indexed": false,
          "name": "packPrice",
          "type": "uint256"
        }
      ],
      "name": "StandardPackPriceChanged",
      "type": "event"
    },
    {
      "anonymous": false,
      "inputs": [],
      "name": "Pause",
      "type": "event"
    },
    {
      "anonymous": false,
      "inputs": [],
      "name": "Unpause",
      "type": "event"
    },
    {
      "anonymous": false,
      "inputs": [
        {
          "indexed": true,
          "name": "previousOwner",
          "type": "address"
        },
        {
          "indexed": true,
          "name": "newOwner",
          "type": "address"
        }
      ],
      "name": "OwnershipTransferred",
      "type": "event"
    },
    {
      "constant": false,
      "inputs": [
        {
          "name": "_referrer",
          "type": "address"
        },
        {
          "name": "_premium",
          "type": "bool"
        }
      ],
      "name": "buyFirstPackFromReferral",
      "outputs": [],
      "payable": true,
      "stateMutability": "payable",
      "type": "function"
    },
    {
      "constant": false,
      "inputs": [
        {
          "name": "_premium",
          "type": "bool"
        }
      ],
      "name": "buyPackWithETH",
      "outputs": [],
      "payable": true,
      "stateMutability": "payable",
      "type": "function"
    },
    {
      "constant": false,
      "inputs": [
        {
          "name": "_kittyId",
          "type": "uint256"
        }
      ],
      "name": "buyPackWithKitty",
      "outputs": [],
      "payable": false,
      "stateMutability": "nonpayable",
      "type": "function"
    },
    {
      "constant": false,
      "inputs": [],
      "name": "withdrawBalance",
      "outputs": [],
      "payable": false,
      "stateMutability": "nonpayable",
      "type": "function"
    }
  ],
  "bytecode": "0x608060405260008060146101000a81548160ff02191690831515021790555060408051908101604052806103e861ffff1681526020016101f461ffff168152506010906002620000519291906200037a565b5061010060405190810160405280607360ff168152602001607f60ff168152602001607a60ff168152602001608260ff168152602001607460ff168152602001607b60ff168152602001607960ff168152602001608360ff168152506014906008620000bf9291906200041e565b50348015620000cd57600080fd5b5060405160608062004c5d83398101806040528101908080519060200190929190805190602001909291908051906020019092919050505082336000806101000a81548173ffffffffffffffffffffffffffffffffffffffff021916908373ffffffffffffffffffffffffffffffffffffffff1602179055506001600060146101000a81548160ff0219169083151502179055506200017b8162000239640100000000026401000000009004565b600e600081819054906101000a900460ff168092919060010191906101000a81548160ff021916908360ff160217905550505081601f60006101000a81548173ffffffffffffffffffffffffffffffffffffffff021916908373ffffffffffffffffffffffffffffffffffffffff16021790555080600160006101000a81548173ffffffffffffffffffffffffffffffffffffffff021916908373ffffffffffffffffffffffffffffffffffffffff16021790555050505062000533565b6000809054906101000a900473ffffffffffffffffffffffffffffffffffffffff1673ffffffffffffffffffffffffffffffffffffffff163373ffffffffffffffffffffffffffffffffffffffff161415156200029557600080fd5b8060008111151562000335576040517f08c379a00000000000000000000000000000000000000000000000000000000081526004018080602001828103825260348152602001807f46726565207061636b7320617265206f6e6c7920617661696c61626c6520746881526020017f726f756768207468652077686974656c6973742e00000000000000000000000081525060400191505060405180910390fd5b816002600101819055507ff5e9907ba672c6a37e1d3b463a333cd517a16fd547860bc43eaabf0e03bdd9c6826040518082815260200191505060405180910390a15050565b826002600f016010900481019282156200040b5791602002820160005b83821115620003d957835183826101000a81548161ffff021916908361ffff160217905550926020019260020160208160010104928301926001030262000397565b8015620004095782816101000a81549061ffff0219169055600201602081600101049283019260010302620003d9565b505b5090506200041a9190620004cc565b5090565b82805482825590600052602060002090601f01602090048101928215620004b95791602002820160005b838211156200048857835183826101000a81548160ff021916908360ff160217905550926020019260010160208160000104928301926001030262000448565b8015620004b75782816101000a81549060ff021916905560010160208160000104928301926001030262000488565b505b509050620004c8919062000500565b5090565b620004fd91905b80821115620004f957600081816101000a81549061ffff021916905550600101620004d3565b5090565b90565b6200053091905b808211156200052c57600081816101000a81549060ff02191690555060010162000507565b5090565b90565b61471a80620005436000396000f30060806040526004361061027d576000357c0100000000000000000000000000000000000000000000000000000000900463ffffffff1680630c34f8a514610282578063155f1861146102c9578063193cc6b5146102e0578063273fa8d81461033b5780632c511788146103845780632c6e38d0146103e05780632f0042181461041a5780633432000c14610445578063374bfba71461049c5780633d0c9cc4146104b35780633e25e837146104e45780633f4ba83a146104fb57806342974b1e14610512578063437b1a1d146105455780634425c0eb146105785780634a3b68cc146105a757806353f4db011461062a57806356e103ed1461065557806358c75136146106b25780635c975abb1461071d5780635fd8c7101461074c57806367aa08031461076357806378ec47aa146107ac5780638328e0321461080b5780638456cb59146108385780638c02d13f1461084f5780638da5cb5b146108805780638e7dd88f146108d75780638fbea5c91461092e578063970267cc146109595780639af4b5c8146109b8578063a0b31d5814610a13578063a1e89aec14610a4e578063a1f54adf14610a7f578063ac280cb914610aea578063b49593fe14610b21578063b6c32d7114610b54578063bbddaca314610b6b578063c2d7f17f14610bce578063c456847214610c15578063c61c3c4b14610c7c578063ce4e8c1a14610c9e578063d2f6f67d14610cd8578063d57b09ab14610d2f578063dc1eab8314610d86578063e018c36c14610df1578063e1745e0614610e33578063e22ad51814610e8e578063e3a94e9f14610ea5578063e470ddf814610ee0578063e927da3f14610f13578063f2fde38b14610f40578063f6f9173714610f83575b600080fd5b34801561028e57600080fd5b506102c7600480360381019080803515159060200190929190803590602001908201803590602001919091929391929390505050610fb6565b005b3480156102d557600080fd5b506102de61106c565b005b3480156102ec57600080fd5b50610321600480360381019080803573ffffffffffffffffffffffffffffffffffffffff169060200190929190505050611408565b604051808215151515815260200191505060405180910390f35b34801561034757600080fd5b5061036660048036038101908080359060200190929190505050611428565b604051808261ffff1661ffff16815260200191505060405180910390f35b34801561039057600080fd5b506103de600480360381019080803515159060200190929190803573ffffffffffffffffffffffffffffffffffffffff169060200190929190803560ff169060200190929190505050611455565b005b3480156103ec57600080fd5b50610418600480360381019080803560ff16906020019092919080359060200190929190505050611665565b005b34801561042657600080fd5b5061042f61182f565b6040518082815260200191505060405180910390f35b34801561045157600080fd5b5061045a611834565b604051808273ffffffffffffffffffffffffffffffffffffffff1673ffffffffffffffffffffffffffffffffffffffff16815260200191505060405180910390f35b3480156104a857600080fd5b506104b161185a565b005b3480156104bf57600080fd5b506104c8611a4d565b604051808260ff1660ff16815260200191505060405180910390f35b3480156104f057600080fd5b506104f9611a52565b005b34801561050757600080fd5b50610510611c1c565b005b34801561051e57600080fd5b50610527611cda565b604051808261ffff1661ffff16815260200191505060405180910390f35b34801561055157600080fd5b5061055a611cee565b604051808261ffff1661ffff16815260200191505060405180910390f35b34801561058457600080fd5b506105a5600480360381019080803515159060200190929190505050611cf4565b005b3480156105b357600080fd5b506105e8600480360381019080803573ffffffffffffffffffffffffffffffffffffffff169060200190929190505050611ef8565b604051808273ffffffffffffffffffffffffffffffffffffffff1673ffffffffffffffffffffffffffffffffffffffff16815260200191505060405180910390f35b34801561063657600080fd5b5061063f611f2b565b6040518082815260200191505060405180910390f35b34801561066157600080fd5b50610696600480360381019080803573ffffffffffffffffffffffffffffffffffffffff169060200190929190505050611f31565b604051808260ff1660ff16815260200191505060405180910390f35b3480156106be57600080fd5b506106c7611f51565b604051808660ff1660ff1681526020018560ff1660ff1681526020018481526020018363ffffffff1663ffffffff1681526020018263ffffffff1663ffffffff1681526020019550505050505060405180910390f35b34801561072957600080fd5b50610732611faf565b604051808215151515815260200191505060405180910390f35b34801561075857600080fd5b50610761611fc2565b005b34801561076f57600080fd5b5061078e60048036038101908080359060200190929190505050612147565b604051808261ffff1661ffff16815260200191505060405180910390f35b3480156107b857600080fd5b506107ed600480360381019080803573ffffffffffffffffffffffffffffffffffffffff169060200190929190505050612174565b604051808261ffff1661ffff16815260200191505060405180910390f35b34801561081757600080fd5b5061083660048036038101908080359060200190929190505050612195565b005b34801561084457600080fd5b5061084d6122d4565b005b34801561085b57600080fd5b50610864612394565b604051808260ff1660ff16815260200191505060405180910390f35b34801561088c57600080fd5b50610895612399565b604051808273ffffffffffffffffffffffffffffffffffffffff1673ffffffffffffffffffffffffffffffffffffffff16815260200191505060405180910390f35b3480156108e357600080fd5b50610918600480360381019080803573ffffffffffffffffffffffffffffffffffffffff1690602001909291905050506123be565b6040518082815260200191505060405180910390f35b34801561093a57600080fd5b506109436123d6565b6040518082815260200191505060405180910390f35b34801561096557600080fd5b5061099a600480360381019080803573ffffffffffffffffffffffffffffffffffffffff1690602001909291905050506123dc565b604051808261ffff1661ffff16815260200191505060405180910390f35b3480156109c457600080fd5b506109f9600480360381019080803573ffffffffffffffffffffffffffffffffffffffff1690602001909291905050506123fd565b604051808215151515815260200191505060405180910390f35b348015610a1f57600080fd5b50610a4c60048036038101908080359060200190820180359060200191909192939192939050505061251b565b005b348015610a5a57600080fd5b50610a6361271b565b604051808260ff1660ff16815260200191505060405180910390f35b348015610a8b57600080fd5b50610a9461272e565b604051808660ff1660ff1681526020018560ff1660ff1681526020018481526020018363ffffffff1663ffffffff1681526020018263ffffffff1663ffffffff1681526020019550505050505060405180910390f35b348015610af657600080fd5b50610aff61278c565b604051808263ffffffff1663ffffffff16815260200191505060405180910390f35b348015610b2d57600080fd5b50610b36612793565b604051808261ffff1661ffff16815260200191505060405180910390f35b348015610b6057600080fd5b50610b69612799565b005b348015610b7757600080fd5b50610bcc600480360381019080803573ffffffffffffffffffffffffffffffffffffffff169060200190929190803573ffffffffffffffffffffffffffffffffffffffff169060200190929190505050612933565b005b348015610bda57600080fd5b50610bf960048036038101908080359060200190929190505050612a10565b604051808260ff1660ff16815260200191505060405180910390f35b348015610c2157600080fd5b50610c6060048036038101908080359060200190929190803573ffffffffffffffffffffffffffffffffffffffff169060200190929190505050612a43565b604051808260ff1660ff16815260200191505060405180910390f35b610c9c600480360381019080803515159060200190929190505050612a74565b005b348015610caa57600080fd5b50610cd6600480360381019080803560ff16906020019092919080359060200190929190505050612c10565b005b348015610ce457600080fd5b50610ced612f8f565b604051808273ffffffffffffffffffffffffffffffffffffffff1673ffffffffffffffffffffffffffffffffffffffff16815260200191505060405180910390f35b348015610d3b57600080fd5b50610d70600480360381019080803573ffffffffffffffffffffffffffffffffffffffff169060200190929190505050612fb5565b6040518082815260200191505060405180910390f35b348015610d9257600080fd5b50610d9b612fcd565b604051808660ff1660ff1681526020018560ff1660ff1681526020018481526020018363ffffffff1663ffffffff1681526020018263ffffffff1663ffffffff1681526020019550505050505060405180910390f35b610e31600480360381019080803573ffffffffffffffffffffffffffffffffffffffff16906020019092919080351515906020019092919050505061302b565b005b348015610e3f57600080fd5b50610e74600480360381019080803573ffffffffffffffffffffffffffffffffffffffff1690602001909291905050506131a5565b604051808215151515815260200191505060405180910390f35b348015610e9a57600080fd5b50610ea36131c5565b005b348015610eb157600080fd5b50610ede60048036038101908080359060200190820180359060200191909192939192939050505061354c565b005b348015610eec57600080fd5b50610ef56136b2565b604051808261ffff1661ffff16815260200191505060405180910390f35b348015610f1f57600080fd5b50610f3e600480360381019080803590602001909291905050506136c6565b005b348015610f4c57600080fd5b50610f81600480360381019080803573ffffffffffffffffffffffffffffffffffffffff169060200190929190505050613a2f565b005b348015610f8f57600080fd5b50610f98613b84565b604051808261ffff1661ffff16815260200191505060405180910390f35b60008060009054906101000a900473ffffffffffffffffffffffffffffffffffffffff1673ffffffffffffffffffffffffffffffffffffffff163373ffffffffffffffffffffffffffffffffffffffff1614151561101357600080fd5b600090505b828290508110156110665761105984848484818110151561103557fe5b9050602002013573ffffffffffffffffffffffffffffffffffffffff166001611455565b8080600101915050611018565b50505050565b6000806000601b60003373ffffffffffffffffffffffffffffffffffffffff1673ffffffffffffffffffffffffffffffffffffffff16815260200190815260200160002060009054906101000a900461ffff169250601560003373ffffffffffffffffffffffffffffffffffffffff1673ffffffffffffffffffffffffffffffffffffffff16815260200190815260200160002060009054906101000a900460ff1691508160ff168361ffff161115156111b4576040517f08c379a00000000000000000000000000000000000000000000000000000000081526004018080602001828103825260228152602001807f596f752068617665206e6f20756e636c61696d656420626f6e7573206361726481526020017f732e00000000000000000000000000000000000000000000000000000000000081525060400191505060405180910390fd5b6014805490508260ff16101515611259576040517f08c379a00000000000000000000000000000000000000000000000000000000081526004018080602001828103825260258152602001807f596f75206861766520636c61696d656420616c6c2074686520626f6e7573206381526020017f617264732e00000000000000000000000000000000000000000000000000000081525060400191505060405180910390fd5b601560003373ffffffffffffffffffffffffffffffffffffffff1673ffffffffffffffffffffffffffffffffffffffff168152602001908152602001600020600081819054906101000a900460ff168092919060010191906101000a81548160ff021916908360ff1602179055505060148260ff168154811015156112da57fe5b90600052602060002090602091828204019190069054906101000a900460ff169050600160009054906101000a900473ffffffffffffffffffffffffffffffffffffffff1673ffffffffffffffffffffffffffffffffffffffff16637579fcb382336040518363ffffffff167c0100000000000000000000000000000000000000000000000000000000028152600401808360ff1660ff1681526020018273ffffffffffffffffffffffffffffffffffffffff1673ffffffffffffffffffffffffffffffffffffffff16815260200192505050602060405180830381600087803b1580156113c757600080fd5b505af11580156113db573d6000803e3d6000fd5b505050506040513d60208110156113f157600080fd5b810190808051906020019092919050505050505050565b601e6020528060005260406000206000915054906101000a900460ff1681565b60118160028110151561143757fe5b60109182820401919006600202915054906101000a900461ffff1681565b60008060009054906101000a900473ffffffffffffffffffffffffffffffffffffffff1673ffffffffffffffffffffffffffffffffffffffff163373ffffffffffffffffffffffffffffffffffffffff161415156114b257600080fd5b836114be5760006114c1565b60015b905060108160ff166002811015156114d557fe5b601091828204019190066002029054906101000a900461ffff1661ffff168260ff1660118360ff1660028110151561150957fe5b601091828204019190066002029054906101000a900461ffff160161ffff161115151561153557600080fd5b8160ff1660118260ff1660028110151561154b57fe5b601091828204019190066002028282829054906101000a900461ffff160192506101000a81548161ffff021916908361ffff1602179055508160128260ff1660028110151561159657fe5b0160008573ffffffffffffffffffffffffffffffffffffffff1673ffffffffffffffffffffffffffffffffffffffff16815260200190815260200160002060008282829054906101000a900460ff160192506101000a81548160ff021916908360ff1602179055508273ffffffffffffffffffffffffffffffffffffffff167f182403595f03b09451f01855ea93548e0b4c9dd92a772ee25da4824e89b9eb5f8386604051808360ff1661ffff168152602001821515151581526020019250505060405180910390a250505050565b6000809054906101000a900473ffffffffffffffffffffffffffffffffffffffff1673ffffffffffffffffffffffffffffffffffffffff163373ffffffffffffffffffffffffffffffffffffffff161415156116c057600080fd5b8060008111151561175f576040517f08c379a00000000000000000000000000000000000000000000000000000000081526004018080602001828103825260348152602001807f46726565207061636b7320617265206f6e6c7920617661696c61626c6520746881526020017f726f756768207468652077686974656c6973742e00000000000000000000000081525060400191505060405180910390fd5b6000600a60010154111515611802576040517f08c379a00000000000000000000000000000000000000000000000000000000081526004018080602001828103825260288152602001807f596f75206d757374206669727374206372656174652061206e6578745072656d81526020017f69756d53616c652e00000000000000000000000000000000000000000000000081525060400191505060405180910390fd5b82600a60000160016101000a81548160ff021916908360ff16021790555081600a60010181905550505050565b600a81565b601f60009054906101000a900473ffffffffffffffffffffffffffffffffffffffff1681565b611863336123fd565b15156118fd576040517f08c379a000000000000000000000000000000000000000000000000000000000815260040180806020018281038252602e8152602001807f596f7520617265206e6f7420656c696769626c6520666f72206120667265652081526020017f726566657272616c207061636b2e00000000000000000000000000000000000081525060400191505060405180910390fd5b61138861ffff16601760009054906101000a900461ffff1661ffff161015156119b4576040517f08c379a00000000000000000000000000000000000000000000000000000000081526004018080602001828103825260378152602001807f576527766520616c726561647920676976656e206177617920616c6c2074686581526020017f206672656520726566657272616c207061636b732e2e2e00000000000000000081525060400191505060405180910390fd5b6017600081819054906101000a900461ffff168092919060010191906101000a81548161ffff021916908361ffff160217905550506001601860003373ffffffffffffffffffffffffffffffffffffffff1673ffffffffffffffffffffffffffffffffffffffff16815260200190815260200160002060006101000a81548160ff021916908315150217905550611a4b6002613b8a565b565b600481565b6000601960003373ffffffffffffffffffffffffffffffffffffffff1673ffffffffffffffffffffffffffffffffffffffff16815260200190815260200160002054601a60003373ffffffffffffffffffffffffffffffffffffffff1673ffffffffffffffffffffffffffffffffffffffff16815260200190815260200160002054039050600081111515611b75576040517f08c379a00000000000000000000000000000000000000000000000000000000081526004018080602001828103825260298152602001807f596f7520617265206e6f74206f77656420616e7920726566657272616c20636f81526020017f6d6d697373696f6e2e000000000000000000000000000000000000000000000081525060400191505060405180910390fd5b80601d6000828254039250508190555080601960003373ffffffffffffffffffffffffffffffffffffffff1673ffffffffffffffffffffffffffffffffffffffff168152602001908152602001600020600082825401925050819055503373ffffffffffffffffffffffffffffffffffffffff166108fc829081150290604051600060405180830381858888f19350505050158015611c18573d6000803e3d6000fd5b5050565b6000809054906101000a900473ffffffffffffffffffffffffffffffffffffffff1673ffffffffffffffffffffffffffffffffffffffff163373ffffffffffffffffffffffffffffffffffffffff16141515611c7757600080fd5b600060149054906101000a900460ff161515611c9257600080fd5b60008060146101000a81548160ff0219169083151502179055507f7805862f689e2f13df9f062ff482ad3ad112aca9e0847911ed832e158c525b3360405160405180910390a1565b601760009054906101000a900461ffff1681565b6103e881565b60008082611d03576000611d06565b60015b9150600060128360ff16600281101515611d1c57fe5b0160003373ffffffffffffffffffffffffffffffffffffffff1673ffffffffffffffffffffffffffffffffffffffff16815260200190815260200160002060009054906101000a900460ff1660ff16111515611e06576040517f08c379a00000000000000000000000000000000000000000000000000000000081526004018080602001828103825260218152602001807f596f752068617665206e6f2077686974656c69737420616c6c6f636174696f6e81526020017f2e0000000000000000000000000000000000000000000000000000000000000081525060400191505060405180910390fd5b60128260ff16600281101515611e1857fe5b0160003373ffffffffffffffffffffffffffffffffffffffff1673ffffffffffffffffffffffffffffffffffffffff168152602001908152602001600020600081819054906101000a900460ff16809291906001900391906101000a81548160ff021916908360ff1602179055505082611e93576002611e96565b60065b9050611ea181613b8a565b3373ffffffffffffffffffffffffffffffffffffffff167fc87bda92828214b95d41ddff14835f330d955845b925a72fdefcb48a615c602e84604051808215151515815260200191505060405180910390a2505050565b601c6020528060005260406000206000915054906101000a900473ffffffffffffffffffffffffffffffffffffffff1681565b60205481565b60156020528060005260406000206000915054906101000a900460ff1681565b60068060000160009054906101000a900460ff16908060000160019054906101000a900460ff16908060010154908060030160009054906101000a900463ffffffff16908060030160049054906101000a900463ffffffff16905085565b600060149054906101000a900460ff1681565b60008060009054906101000a900473ffffffffffffffffffffffffffffffffffffffff1673ffffffffffffffffffffffffffffffffffffffff163373ffffffffffffffffffffffffffffffffffffffff1614151561201f57600080fd5b3073ffffffffffffffffffffffffffffffffffffffff16319050601d54811115156120d8576040517f08c379a00000000000000000000000000000000000000000000000000000000081526004018080602001828103825260278152602001807f5468657265206973206e6f2045544820666f7220746865206f776e657220746f81526020017f20636c61696d2e0000000000000000000000000000000000000000000000000081525060400191505060405180910390fd5b6000809054906101000a900473ffffffffffffffffffffffffffffffffffffffff1673ffffffffffffffffffffffffffffffffffffffff166108fc601d5483039081150290604051600060405180830381858888f19350505050158015612143573d6000803e3d6000fd5b5050565b60108160028110151561215657fe5b60109182820401919006600202915054906101000a900461ffff1681565b601b6020528060005260406000206000915054906101000a900461ffff1681565b6000809054906101000a900473ffffffffffffffffffffffffffffffffffffffff1673ffffffffffffffffffffffffffffffffffffffff163373ffffffffffffffffffffffffffffffffffffffff161415156121f057600080fd5b8060008111151561228f576040517f08c379a00000000000000000000000000000000000000000000000000000000081526004018080602001828103825260348152602001807f46726565207061636b7320617265206f6e6c7920617661696c61626c6520746881526020017f726f756768207468652077686974656c6973742e00000000000000000000000081525060400191505060405180910390fd5b816002600101819055507ff5e9907ba672c6a37e1d3b463a333cd517a16fd547860bc43eaabf0e03bdd9c6826040518082815260200191505060405180910390a15050565b6000809054906101000a900473ffffffffffffffffffffffffffffffffffffffff1673ffffffffffffffffffffffffffffffffffffffff163373ffffffffffffffffffffffffffffffffffffffff1614151561232f57600080fd5b600060149054906101000a900460ff1615151561234b57600080fd5b6001600060146101000a81548160ff0219169083151502179055507f6985a02210a168e66602d3235cb6db0e70f92b3ba4d376a33c0f3d9434bff62560405160405180910390a1565b601881565b6000809054906101000a900473ffffffffffffffffffffffffffffffffffffffff1681565b60196020528060005260406000206000915090505481565b601d5481565b60166020528060005260406000206000915054906101000a900461ffff1681565b6000806000601c60008573ffffffffffffffffffffffffffffffffffffffff1673ffffffffffffffffffffffffffffffffffffffff16815260200190815260200160002060009054906101000a900473ffffffffffffffffffffffffffffffffffffffff1691506000601660008473ffffffffffffffffffffffffffffffffffffffff1673ffffffffffffffffffffffffffffffffffffffff16815260200190815260200160002060009054906101000a900461ffff1661ffff161190508080156125125750601860008573ffffffffffffffffffffffffffffffffffffffff1673ffffffffffffffffffffffffffffffffffffffff16815260200190815260200160002060009054906101000a900460ff16155b92505050919050565b6000809054906101000a900473ffffffffffffffffffffffffffffffffffffffff1673ffffffffffffffffffffffffffffffffffffffff163373ffffffffffffffffffffffffffffffffffffffff1614151561257657600080fd5b6000600a60010154111515612619576040517f08c379a00000000000000000000000000000000000000000000000000000000081526004018080602001828103825260288152602001807f596f75206d757374206669727374206372656174652061206e6578745072656d81526020017f69756d53616c652e00000000000000000000000000000000000000000000000081525060400191505060405180910390fd5b6101f461ffff1682829050600a60030160009054906101000a900463ffffffff1663ffffffff1601111515156126dd576040517f08c379a00000000000000000000000000000000000000000000000000000000081526004018080602001828103825260348152602001807f596f752063616e277420616464206d6f7265207468616e20353030207061636b81526020017f7320746f2061205072656d69756d2073616c652e00000000000000000000000081525060400191505060405180910390fd5b612717828280806020026020016040519081016040528093929190818152602001838360200280828437820191505050505050600a613e02565b5050565b600e60009054906101000a900460ff1681565b600a8060000160009054906101000a900460ff16908060000160019054906101000a900460ff16908060010154908060030160009054906101000a900463ffffffff16908060030160049054906101000a900463ffffffff16905085565b6201276081565b6101f481565b6000809054906101000a900473ffffffffffffffffffffffffffffffffffffffff1673ffffffffffffffffffffffffffffffffffffffff163373ffffffffffffffffffffffffffffffffffffffff161415156127f457600080fd5b6000600260030160009054906101000a900463ffffffff1663ffffffff161115156128ad576040517f08c379a00000000000000000000000000000000000000000000000000000000081526004018080602001828103825260368152602001807f596f75206d757374206669727374206c6f616420736f6d65207061636b73206981526020017f6e746f20746865205374616e646172642073616c652e0000000000000000000081525060400191505060405180910390fd5b6128b5611c1c565b7f49b5a104df37543df7eecddafee8eec8da453b3c03b42881d383d08f37591695600260000160009054906101000a900460ff16600260010154600260000160019054906101000a900460ff16604051808460ff1660ff1681526020018381526020018260ff1660ff168152602001935050505060405180910390a1565b6000809054906101000a900473ffffffffffffffffffffffffffffffffffffffff1673ffffffffffffffffffffffffffffffffffffffff163373ffffffffffffffffffffffffffffffffffffffff1614151561298e57600080fd5b80601c60008473ffffffffffffffffffffffffffffffffffffffff1673ffffffffffffffffffffffffffffffffffffffff16815260200190815260200160002060006101000a81548173ffffffffffffffffffffffffffffffffffffffff021916908373ffffffffffffffffffffffffffffffffffffffff1602179055505050565b601481815481101515612a1f57fe5b9060005260206000209060209182820401919006915054906101000a900460ff1681565b601282600281101515612a5257fe5b016020528060005260406000206000915091509054906101000a900460ff1681565b60008082612a83576002612a86565b60065b915081600101549050803410151515612b2d576040517f08c379a00000000000000000000000000000000000000000000000000000000081526004018080602001828103825260278152602001807f496e73756666696369656e74204554482073656e7420746f206275792074686981526020017f73207061636b2e0000000000000000000000000000000000000000000000000081525060400191505060405180910390fd5b612b3682613b8a565b601660003373ffffffffffffffffffffffffffffffffffffffff1673ffffffffffffffffffffffffffffffffffffffff168152602001908152602001600020600081819054906101000a900461ffff168092919060010191906101000a81548161ffff021916908361ffff16021790555050806020600082825401925050819055503373ffffffffffffffffffffffffffffffffffffffff166108fc8234039081150290604051600060405180830381858888f19350505050158015612c00573d6000803e3d6000fd5b50612c0b3382613f53565b505050565b6000809054906101000a900473ffffffffffffffffffffffffffffffffffffffff1673ffffffffffffffffffffffffffffffffffffffff163373ffffffffffffffffffffffffffffffffffffffff16141515612c6b57600080fd5b80600081111515612d0a576040517f08c379a00000000000000000000000000000000000000000000000000000000081526004018080602001828103825260348152602001807f46726565207061636b7320617265206f6e6c7920617661696c61626c6520746881526020017f726f756768207468652077686974656c6973742e00000000000000000000000081525060400191505060405180910390fd5b6000600a60010154141515612dad576040517f08c379a00000000000000000000000000000000000000000000000000000000081526004018080602001828103825260218152602001807f4e657874205072656d69756d2053616c6520616c72656164792065786973747381526020017f2e0000000000000000000000000000000000000000000000000000000000000081525060400191505060405180910390fd5b60648360ff1610151515612e4f576040517f08c379a00000000000000000000000000000000000000000000000000000000081526004018080602001828103825260398152602001807f596f752063616e2774206861766520616e204f726967696e616c73206173206181526020017f20666561747572656420636865636b6c697374206974656d2e0000000000000081525060400191505060405180910390fd5b601860ff16600e60009054906101000a900460ff1660ff1611151515612f03576040517f08c379a00000000000000000000000000000000000000000000000000000000081526004018080602001828103825260288152602001807f596f752063616e206f6e6c792072756e20323420746f74616c205072656d697581526020017f6d2073616c65732e00000000000000000000000000000000000000000000000081525060400191505060405180910390fd5b600e60009054906101000a900460ff16600a60000160006101000a81548160ff021916908360ff16021790555082600a60000160016101000a81548160ff021916908360ff16021790555081600a60010181905550600e600081819054906101000a900460ff168092919060010191906101000a81548160ff021916908360ff16021790555050505050565b600160009054906101000a900473ffffffffffffffffffffffffffffffffffffffff1681565b601a6020528060005260406000206000915090505481565b60028060000160009054906101000a900460ff16908060000160019054906101000a900460ff16908060010154908060030160009054906101000a900463ffffffff16908060030160049054906101000a900463ffffffff16905085565b6000601660003373ffffffffffffffffffffffffffffffffffffffff1673ffffffffffffffffffffffffffffffffffffffff16815260200190815260200160002060009054906101000a900461ffff1661ffff1614151561311a576040517f08c379a00000000000000000000000000000000000000000000000000000000081526004018080602001828103825260328152602001807f4f6e6c792061737369676e2061207265666572726572206f6e2061207573657281526020017f27732066697273742070757263686173652e000000000000000000000000000081525060400191505060405180910390fd5b81601c60003373ffffffffffffffffffffffffffffffffffffffff1673ffffffffffffffffffffffffffffffffffffffff16815260200190815260200160002060006101000a81548173ffffffffffffffffffffffffffffffffffffffff021916908373ffffffffffffffffffffffffffffffffffffffff1602179055506131a181612a74565b5050565b60186020528060005260406000206000915054906101000a900460ff1681565b6000809054906101000a900473ffffffffffffffffffffffffffffffffffffffff1673ffffffffffffffffffffffffffffffffffffffff163373ffffffffffffffffffffffffffffffffffffffff1614151561322057600080fd5b6101f461ffff16600a60030160009054906101000a900463ffffffff1663ffffffff16141515613304576040517f08c379a00000000000000000000000000000000000000000000000000000000081526004018080602001828103825260418152602001807f596f75206d757374206164642065786163746c7920353030207061636b73206281526020017f65666f7265207374617274696e672074686973205072656d69756d2073616c6581526020017f2e0000000000000000000000000000000000000000000000000000000000000081525060600191505060405180910390fd5b6064600660000160019054906101000a900460ff1660ff161015156133e557600160009054906101000a900473ffffffffffffffffffffffffffffffffffffffff1673ffffffffffffffffffffffffffffffffffffffff16632b232741600660000160019054906101000a900460ff166040518263ffffffff167c0100000000000000000000000000000000000000000000000000000000028152600401808260ff1660ff168152602001915050600060405180830381600087803b1580156133cc57600080fd5b505af11580156133e0573d6000803e3d6000fd5b505050505b600a60066000820160009054906101000a900460ff168160000160006101000a81548160ff021916908360ff1602179055506000820160019054906101000a900460ff168160000160016101000a81548160ff021916908360ff1602179055506001820154816001015560028201816002019080546134659291906145d4565b506003820160009054906101000a900463ffffffff168160030160006101000a81548163ffffffff021916908363ffffffff1602179055506003820160049054906101000a900463ffffffff168160030160046101000a81548163ffffffff021916908363ffffffff160217905550905050600a600080820160006101000a81549060ff02191690556000820160016101000a81549060ff0219169055600182016000905560028201600061351a9190614634565b6003820160006101000a81549063ffffffff02191690556003820160046101000a81549063ffffffff02191690555050565b60008060009054906101000a900473ffffffffffffffffffffffffffffffffffffffff1673ffffffffffffffffffffffffffffffffffffffff163373ffffffffffffffffffffffffffffffffffffffff161415156135a957600080fd5b6201276063ffffffff1683839050600260030160009054906101000a900463ffffffff1663ffffffff160111905080151515613673576040517f08c379a000000000000000000000000000000000000000000000000000000000815260040180806020018281038252603a8152602001807f596f752063616e277420616464206d6f7265207468616e2037352c363136207081526020017f61636b7320746f20746865205374616e646172642073616c652e00000000000081525060400191505060405180910390fd5b6136ad8383808060200260200160405190810160405280939291908181526020018383602002808284378201915050505050506002613e02565b505050565b601f60149054906101000a900461ffff1681565b6103e861ffff16601f60149054906101000a900461ffff1661ffff16101515613757576040517f08c379a00000000000000000000000000000000000000000000000000000000081526004018080602001828103825260188152602001807f53746f7021205468696e6b206f6620746865206361747321000000000000000081525060200191505060405180910390fd5b601e60003373ffffffffffffffffffffffffffffffffffffffff1673ffffffffffffffffffffffffffffffffffffffff16815260200190815260200160002060009054906101000a900460ff16151515613819576040517f08c379a000000000000000000000000000000000000000000000000000000000815260040180806020018281038252601e8152602001807f596f7527766520616c7265616479206275726e65642061206b697474792e000081525060200191505060405180910390fd5b601f601481819054906101000a900461ffff168092919060010191906101000a81548161ffff021916908361ffff160217905550506001601e60003373ffffffffffffffffffffffffffffffffffffffff1673ffffffffffffffffffffffffffffffffffffffff16815260200190815260200160002060006101000a81548160ff021916908315150217905550601f60009054906101000a900473ffffffffffffffffffffffffffffffffffffffff1673ffffffffffffffffffffffffffffffffffffffff166323b872dd3330846040518463ffffffff167c0100000000000000000000000000000000000000000000000000000000028152600401808473ffffffffffffffffffffffffffffffffffffffff1673ffffffffffffffffffffffffffffffffffffffff1681526020018373ffffffffffffffffffffffffffffffffffffffff1673ffffffffffffffffffffffffffffffffffffffff1681526020018281526020019350505050600060405180830381600087803b15801561399f57600080fd5b505af11580156139b3573d6000803e3d6000fd5b505050506139c16002613b8a565b7feb71dabeb0f93a742759462b5704866833c281deb9dea88412154d7ec7e7370c3382604051808373ffffffffffffffffffffffffffffffffffffffff1673ffffffffffffffffffffffffffffffffffffffff1681526020018281526020019250505060405180910390a150565b6000809054906101000a900473ffffffffffffffffffffffffffffffffffffffff1673ffffffffffffffffffffffffffffffffffffffff163373ffffffffffffffffffffffffffffffffffffffff16141515613a8a57600080fd5b600073ffffffffffffffffffffffffffffffffffffffff168173ffffffffffffffffffffffffffffffffffffffff1614151515613ac657600080fd5b8073ffffffffffffffffffffffffffffffffffffffff166000809054906101000a900473ffffffffffffffffffffffffffffffffffffffff1673ffffffffffffffffffffffffffffffffffffffff167f8be0079c531659141344cd1fd0a4f28419497f9722a3daafe3b4186f6b6457e060405160405180910390a3806000806101000a81548173ffffffffffffffffffffffffffffffffffffffff021916908373ffffffffffffffffffffffffffffffffffffffff16021790555050565b61138881565b60006060600060149054906101000a900460ff16151515613baa57600080fd5b3273ffffffffffffffffffffffffffffffffffffffff163373ffffffffffffffffffffffffffffffffffffffff16141515613c73576040517f08c379a00000000000000000000000000000000000000000000000000000000081526004018080602001828103825260308152602001807f4f6e6c7920454f41732061726520616c6c6f77656420746f206275792066726f81526020017f6d20746865207061636b2073616c652e0000000000000000000000000000000081525060400191505060405180910390fd5b60008360020180549050111515613d18576040517f08c379a00000000000000000000000000000000000000000000000000000000081526004018080602001828103825260298152602001807f5468652073616c6520686173206e6f207061636b7320617661696c61626c652081526020017f666f722073616c652e000000000000000000000000000000000000000000000081525060400191505060405180910390fd5b613d2483600201614217565b9150613d2f82614329565b905082600301600481819054906101000a900463ffffffff168092919060010191906101000a81548163ffffffff021916908363ffffffff160217905550503373ffffffffffffffffffffffffffffffffffffffff167f1947a407fc738aebf73559f82e681274d64efa878ea80c083c5c081d4e9833a0826040518080602001828103825283818151815260200191508051906020019060200280838360005b83811015613dea578082015181840152602081019050613dcf565b505050509050019250505060405180910390a2505050565b60008090505b8251811015613e8857816002018382815181101515613e2357fe5b90602001906020020151908060018154018082558091505090600182039060005260206000209060089182820401919006600402909192909190916101000a81548163ffffffff021916908363ffffffff160217905550508080600101915050613e08565b82518260030160008282829054906101000a900463ffffffff160192506101000a81548163ffffffff021916908363ffffffff1602179055508160000160009054906101000a900460ff1660ff167f6785a08d643117337b6cae6465390f9f22ae34088a05a84d89b3c78632eb7d44846040518080602001828103825283818151815260200191508051906020019060200280838360005b83811015613f3b578082015181840152602081019050613f20565b505050509050019250505060405180910390a2505050565b600080601c60008573ffffffffffffffffffffffffffffffffffffffff1673ffffffffffffffffffffffffffffffffffffffff16815260200190815260200160002060009054906101000a900473ffffffffffffffffffffffffffffffffffffffff169150600073ffffffffffffffffffffffffffffffffffffffff168273ffffffffffffffffffffffffffffffffffffffff16148061404457506000601660008473ffffffffffffffffffffffffffffffffffffffff1673ffffffffffffffffffffffffffffffffffffffff16815260200190815260200160002060009054906101000a900461ffff1661ffff16145b1561404e57614211565b601b60008373ffffffffffffffffffffffffffffffffffffffff1673ffffffffffffffffffffffffffffffffffffffff168152602001908152602001600020600081819054906101000a900461ffff168092919060010191906101000a81548161ffff021916908361ffff16021790555050601480549050601b60008473ffffffffffffffffffffffffffffffffffffffff1673ffffffffffffffffffffffffffffffffffffffff16815260200190815260200160002060009054906101000a900461ffff1661ffff16111561418e576064600a840281151561412d57fe5b04905080601d6000828254019250508190555080601a60008473ffffffffffffffffffffffffffffffffffffffff1673ffffffffffffffffffffffffffffffffffffffff168152602001908152602001600020600082825401925050819055505b8173ffffffffffffffffffffffffffffffffffffffff167f3ebb49b18b4f44644a51e25d20e6c257ceba7ee8ec5cb88ac374fca33766b6968585604051808373ffffffffffffffffffffffffffffffffffffffff1673ffffffffffffffffffffffffffffffffffffffff1681526020018281526020019250505060405180910390a25b50505050565b600060606000600f600081548092919060010191905055504233600f54604051602001808481526020018373ffffffffffffffffffffffffffffffffffffffff1673ffffffffffffffffffffffffffffffffffffffff166c01000000000000000000000000028152601401828152602001935050505060405160208183030381529060405291508380549050826040518082805190602001908083835b6020831015156142d957805182526020820191506020810190506020830392506142b4565b6001836020036101000a03801982511681845116808217855250505050505090500191505060405180910390206001900481151561431357fe5b06905061432081856144eb565b92505050919050565b60606000606060008060008060ff9550600460ff1660405190808252806020026020018201604052801561436c5781602001602082028038833980820191505090505b509450600193505b600460ff168460ff161115156144dd576008840260200392508560ff168360ff168963ffffffff169060020a9004169150600160009054906101000a900473ffffffffffffffffffffffffffffffffffffffff1673ffffffffffffffffffffffffffffffffffffffff16637579fcb383336040518363ffffffff167c0100000000000000000000000000000000000000000000000000000000028152600401808360ff1660ff1681526020018273ffffffffffffffffffffffffffffffffffffffff1673ffffffffffffffffffffffffffffffffffffffff16815260200192505050602060405180830381600087803b15801561447057600080fd5b505af1158015614484573d6000803e3d6000fd5b505050506040513d602081101561449a57600080fd5b8101908080519060200190929190505050905080856001860360ff168151811015156144c257fe5b90602001906020020181815250508380600101945050614374565b849650505050505050919050565b60008060006001848054905003915081851115151561450957600080fd5b838581548110151561451757fe5b90600052602060002090600891828204019190066004029054906101000a900463ffffffff169050838281548110151561454d57fe5b90600052602060002090600891828204019190066004029054906101000a900463ffffffff16848681548110151561458157fe5b90600052602060002090600891828204019190066004026101000a81548163ffffffff021916908363ffffffff160217905550838054809190600190036145c8919061465c565b50809250505092915050565b82805482825590600052602060002090600701600890048101928215614623576000526020600020916007016008900482015b82811115614622578254825591600101919060010190614607565b5b5090506146309190614696565b5090565b50805460008255600701600890049060005260206000209081019061465991906146c9565b50565b81548183558181111561469157600701600890048160070160089004836000526020600020918201910161469091906146c9565b5b505050565b6146c691905b808211156146c257600081816101000a81549063ffffffff02191690555060010161469c565b5090565b90565b6146eb91905b808211156146e75760008160009055506001016146cf565b5090565b905600a165627a7a7230582078a13b6d5a9d8ebeecca48eba3faf3aceace95a76462dcfc8deae28a2b88164c0029",
  "source": "pragma solidity 0.4.24;\n\nimport \"./StrikersReferral.sol\";\nimport \"openzeppelin-solidity/contracts/token/ERC721/ERC721Basic.sol\";\n\n/// @title The main sale contract, allowing users to purchase packs of CryptoStrikers cards.\n/// @author The CryptoStrikers Team\ncontract StrikersPackSale is StrikersReferral {\n\n  /// @dev The max number of kitties we are allowed to burn.\n  uint16 public constant KITTY_BURN_LIMIT = 1000;\n\n  /// @dev Emit this whenever someone sacrifices a cat for a free pack of cards.\n  event KittyBurned(address user, uint256 kittyId);\n\n  /// @dev Users are only allowed to burn 1 cat each, so keep track of that here.\n  mapping (address => bool) public hasBurnedKitty;\n\n  /// @dev A reference to the CryptoKitties contract so we can transfer cats\n  ERC721Basic public kittiesContract;\n\n  /// @dev How many kitties we have burned so far. Think of the cats, make sure we don't go over KITTY_BURN_LIMIT!\n  uint16 public totalKittiesBurned;\n\n  /// @dev Keeps track of our sale volume, in wei.\n  uint256 public totalWeiRaised;\n\n  /// @dev Constructor. Can't change minting and kitties contracts once they've been initialized.\n  constructor(\n    uint256 _standardPackPrice,\n    address _kittiesContractAddress,\n    address _mintingContractAddress\n  )\n  StrikersPackFactory(_standardPackPrice)\n  public\n  {\n    kittiesContract = ERC721Basic(_kittiesContractAddress);\n    mintingContract = StrikersMinting(_mintingContractAddress);\n  }\n\n  /// @dev For a user who was referred, use this function to buy your first back so we can attribute the referral.\n  /// @param _referrer The user who invited msg.sender to CryptoStrikers.\n  /// @param _premium True if we're buying from Premium sale, false if we're buying from Standard sale.\n  function buyFirstPackFromReferral(address _referrer, bool _premium) external payable {\n    require(packsBought[msg.sender] == 0, \"Only assign a referrer on a user's first purchase.\");\n    referrers[msg.sender] = _referrer;\n    buyPackWithETH(_premium);\n  }\n\n  /// @dev Allows a user to buy a pack of cards with enough ETH to cover the packPrice.\n  /// @param _premium True if we're buying from Premium sale, false if we're buying from Standard sale.\n  function buyPackWithETH(bool _premium) public payable {\n    PackSale storage sale = _premium ? currentPremiumSale : standardSale;\n    uint256 packPrice = sale.packPrice;\n    require(msg.value >= packPrice, \"Insufficient ETH sent to buy this pack.\");\n    _buyPack(sale);\n    packsBought[msg.sender]++;\n    totalWeiRaised += packPrice;\n    // Refund excess funds\n    msg.sender.transfer(msg.value - packPrice);\n    _attributeSale(msg.sender, packPrice);\n  }\n\n  /// @notice Magically transform a CryptoKitty into a free pack of cards!\n  /// @param _kittyId The cat we are giving up.\n  /// @dev Note that the user must first give this contract approval by\n  ///   calling approve(address(this), _kittyId) on the CK contract.\n  ///   Otherwise, buyPackWithKitty() throws on transferFrom().\n  function buyPackWithKitty(uint256 _kittyId) external {\n    require(totalKittiesBurned < KITTY_BURN_LIMIT, \"Stop! Think of the cats!\");\n    require(!hasBurnedKitty[msg.sender], \"You've already burned a kitty.\");\n    totalKittiesBurned++;\n    hasBurnedKitty[msg.sender] = true;\n    // Will throw/revert if this contract hasn't been given approval first.\n    // Also, with no way of retrieving kitties from this contract,\n    // transferring to \"this\" burns the cat! (desired behaviour)\n    kittiesContract.transferFrom(msg.sender, this, _kittyId);\n    _buyPack(standardSale);\n    emit KittyBurned(msg.sender, _kittyId);\n  }\n\n  /// @dev Allows the contract owner to withdraw the ETH raised from selling packs.\n  function withdrawBalance() external onlyOwner {\n    uint256 totalBalance = address(this).balance;\n    require(totalBalance > totalCommissionOwed, \"There is no ETH for the owner to claim.\");\n    owner.transfer(totalBalance - totalCommissionOwed);\n  }\n}\n",
  "sourcePath": "/Users/GiaSet/Desktop/Projects/cryptostrikers/contracts/StrikersPackSale.sol",
  "compiler": {
    "name": "solc",
    "version": "0.4.24+commit.e67f0147.Emscripten.clang"
  },
  "schemaVersion": "2.0.0",
  "updatedAt": "2018-06-09T04:30:53.852Z"
}