{
  "contractName": "StrikersPackSale",
  "abi": [
    {
      "constant": false,
      "inputs": [
        {
          "name": "_saleId",
          "type": "uint8"
        }
      ],
      "name": "resumeSale",
      "outputs": [],
      "payable": false,
      "stateMutability": "nonpayable",
      "type": "function"
    },
    {
      "constant": true,
      "inputs": [],
      "name": "kittiesContract",
      "outputs": [
        {
          "name": "",
          "type": "address"
        }
      ],
      "payable": false,
      "stateMutability": "view",
      "type": "function"
    },
    {
      "constant": true,
      "inputs": [],
      "name": "PACK_SIZE",
      "outputs": [
        {
          "name": "",
          "type": "uint8"
        }
      ],
      "payable": false,
      "stateMutability": "view",
      "type": "function"
    },
    {
      "constant": true,
      "inputs": [],
      "name": "NORMAL_SALE_PACK_LIMIT",
      "outputs": [
        {
          "name": "",
          "type": "uint32"
        }
      ],
      "payable": false,
      "stateMutability": "view",
      "type": "function"
    },
    {
      "constant": false,
      "inputs": [
        {
          "name": "_saleId",
          "type": "uint8"
        }
      ],
      "name": "pauseSale",
      "outputs": [],
      "payable": false,
      "stateMutability": "nonpayable",
      "type": "function"
    },
    {
      "constant": true,
      "inputs": [],
      "name": "totalFlashSalePacksOffered",
      "outputs": [
        {
          "name": "",
          "type": "uint32"
        }
      ],
      "payable": false,
      "stateMutability": "view",
      "type": "function"
    },
    {
      "constant": true,
      "inputs": [],
      "name": "salesCount",
      "outputs": [
        {
          "name": "",
          "type": "uint256"
        }
      ],
      "payable": false,
      "stateMutability": "view",
      "type": "function"
    },
    {
      "constant": false,
      "inputs": [
        {
          "name": "_saleId",
          "type": "uint8"
        },
        {
          "name": "_packPrice",
          "type": "uint256"
        }
      ],
      "name": "setPackPriceForSale",
      "outputs": [],
      "payable": false,
      "stateMutability": "nonpayable",
      "type": "function"
    },
    {
      "constant": true,
      "inputs": [],
      "name": "owner",
      "outputs": [
        {
          "name": "",
          "type": "address"
        }
      ],
      "payable": false,
      "stateMutability": "view",
      "type": "function"
    },
    {
      "constant": true,
      "inputs": [],
      "name": "totalNormalSalePacksOffered",
      "outputs": [
        {
          "name": "",
          "type": "uint32"
        }
      ],
      "payable": false,
      "stateMutability": "view",
      "type": "function"
    },
    {
      "constant": true,
      "inputs": [
        {
          "name": "",
          "type": "uint256"
        }
      ],
      "name": "sales",
      "outputs": [
        {
          "name": "startTime",
          "type": "uint64"
        },
        {
          "name": "duration",
          "type": "uint64"
        },
        {
          "name": "packPrice",
          "type": "uint256"
        },
        {
          "name": "packsOffered",
          "type": "uint16"
        },
        {
          "name": "packsSold",
          "type": "uint16"
        },
        {
          "name": "state",
          "type": "uint8"
        }
      ],
      "payable": false,
      "stateMutability": "view",
      "type": "function"
    },
    {
      "constant": true,
      "inputs": [
        {
          "name": "_saleId",
          "type": "uint8"
        }
      ],
      "name": "saleInProgress",
      "outputs": [
        {
          "name": "",
          "type": "bool"
        }
      ],
      "payable": false,
      "stateMutability": "view",
      "type": "function"
    },
    {
      "constant": true,
      "inputs": [],
      "name": "FLASH_SALE_PACK_LIMIT",
      "outputs": [
        {
          "name": "",
          "type": "uint32"
        }
      ],
      "payable": false,
      "stateMutability": "view",
      "type": "function"
    },
    {
      "constant": true,
      "inputs": [],
      "name": "mintingContract",
      "outputs": [
        {
          "name": "",
          "type": "address"
        }
      ],
      "payable": false,
      "stateMutability": "view",
      "type": "function"
    },
    {
      "constant": false,
      "inputs": [
        {
          "name": "_saleId",
          "type": "uint8"
        }
      ],
      "name": "startSale",
      "outputs": [],
      "payable": false,
      "stateMutability": "nonpayable",
      "type": "function"
    },
    {
      "constant": false,
      "inputs": [
        {
          "name": "_saleId",
          "type": "uint8"
        },
        {
          "name": "_batch",
          "type": "uint32[]"
        }
      ],
      "name": "addBatchToSale",
      "outputs": [],
      "payable": false,
      "stateMutability": "nonpayable",
      "type": "function"
    },
    {
      "constant": false,
      "inputs": [
        {
          "name": "_duration",
          "type": "uint64"
        },
        {
          "name": "_packPrice",
          "type": "uint256"
        }
      ],
      "name": "createSale",
      "outputs": [],
      "payable": false,
      "stateMutability": "nonpayable",
      "type": "function"
    },
    {
      "constant": false,
      "inputs": [
        {
          "name": "newOwner",
          "type": "address"
        }
      ],
      "name": "transferOwnership",
      "outputs": [],
      "payable": false,
      "stateMutability": "nonpayable",
      "type": "function"
    },
    {
      "inputs": [
        {
          "name": "_kittiesContractAddress",
          "type": "address"
        },
        {
          "name": "_mintingContractAddress",
          "type": "address"
        }
      ],
      "payable": false,
      "stateMutability": "nonpayable",
      "type": "constructor"
    },
    {
      "anonymous": false,
      "inputs": [
        {
          "indexed": true,
          "name": "buyer",
          "type": "address"
        },
        {
          "indexed": false,
          "name": "pack",
          "type": "uint256[]"
        }
      ],
      "name": "PackBought",
      "type": "event"
    },
    {
      "anonymous": false,
      "inputs": [
        {
          "indexed": true,
          "name": "saleId",
          "type": "uint8"
        },
        {
          "indexed": false,
          "name": "packs",
          "type": "uint32[]"
        }
      ],
      "name": "PacksLoaded",
      "type": "event"
    },
    {
      "anonymous": false,
      "inputs": [
        {
          "indexed": false,
          "name": "saleId",
          "type": "uint8"
        },
        {
          "indexed": false,
          "name": "packPrice",
          "type": "uint256"
        }
      ],
      "name": "PackPriceChanged",
      "type": "event"
    },
    {
      "anonymous": false,
      "inputs": [
        {
          "indexed": false,
          "name": "saleId",
          "type": "uint8"
        },
        {
          "indexed": false,
          "name": "duration",
          "type": "uint64"
        },
        {
          "indexed": false,
          "name": "packPrice",
          "type": "uint256"
        }
      ],
      "name": "SaleCreated",
      "type": "event"
    },
    {
      "anonymous": false,
      "inputs": [
        {
          "indexed": false,
          "name": "saleId",
          "type": "uint8"
        }
      ],
      "name": "SaleStarted",
      "type": "event"
    },
    {
      "anonymous": false,
      "inputs": [
        {
          "indexed": false,
          "name": "saleId",
          "type": "uint8"
        }
      ],
      "name": "SalePaused",
      "type": "event"
    },
    {
      "anonymous": false,
      "inputs": [
        {
          "indexed": false,
          "name": "saleId",
          "type": "uint8"
        }
      ],
      "name": "SaleResumed",
      "type": "event"
    },
    {
      "anonymous": false,
      "inputs": [
        {
          "indexed": true,
          "name": "previousOwner",
          "type": "address"
        },
        {
          "indexed": true,
          "name": "newOwner",
          "type": "address"
        }
      ],
      "name": "OwnershipTransferred",
      "type": "event"
    },
    {
      "constant": false,
      "inputs": [
        {
          "name": "_saleId",
          "type": "uint8"
        }
      ],
      "name": "buyPackWithETH",
      "outputs": [],
      "payable": true,
      "stateMutability": "payable",
      "type": "function"
    },
    {
      "constant": false,
      "inputs": [
        {
          "name": "_saleId",
          "type": "uint8"
        },
        {
          "name": "_kittyId",
          "type": "uint256"
        }
      ],
      "name": "buyPackWithKitty",
      "outputs": [],
      "payable": false,
      "stateMutability": "nonpayable",
      "type": "function"
    }
  ],
  "bytecode": "0x6080604052600060045534801561001557600080fd5b506040516040806126178339810180604052810190808051906020019092919080519060200190929190505050336000806101000a81548173ffffffffffffffffffffffffffffffffffffffff021916908373ffffffffffffffffffffffffffffffffffffffff16021790555081600560006101000a81548173ffffffffffffffffffffffffffffffffffffffff021916908373ffffffffffffffffffffffffffffffffffffffff16021790555080600660006101000a81548173ffffffffffffffffffffffffffffffffffffffff021916908373ffffffffffffffffffffffffffffffffffffffff1602179055505050612502806101156000396000f300608060405260043610610112576000357c0100000000000000000000000000000000000000000000000000000000900463ffffffff168063092851bb146101175780633432000c146101475780633d0c9cc41461019e5780633fe24ad1146101cf57806344663bfa14610206578063458a6efa14610229578063570ab32014610259578063682789a81461029057806376719228146102bb5780638da5cb5b146102f5578063a348c0b81461034c578063ad69cbe214610383578063b5f522f7146103bd578063b64855f714610467578063b81b6df8146104af578063d2f6f67d146104e6578063d60d93601461053d578063e7be4d6c1461056d578063ed9333cc146105b5578063f2fde38b146105f6575b600080fd5b34801561012357600080fd5b50610145600480360381019080803560ff169060200190929190505050610639565b005b34801561015357600080fd5b5061015c610800565b604051808273ffffffffffffffffffffffffffffffffffffffff1673ffffffffffffffffffffffffffffffffffffffff16815260200191505060405180910390f35b3480156101aa57600080fd5b506101b3610826565b604051808260ff1660ff16815260200191505060405180910390f35b3480156101db57600080fd5b506101e461082b565b604051808263ffffffff1663ffffffff16815260200191505060405180910390f35b610227600480360381019080803560ff169060200190929190505050610832565b005b34801561023557600080fd5b50610257600480360381019080803560ff1690602001909291905050506109ed565b005b34801561026557600080fd5b5061026e610bb5565b604051808263ffffffff1663ffffffff16815260200191505060405180910390f35b34801561029c57600080fd5b506102a5610bcb565b6040518082815260200191505060405180910390f35b3480156102c757600080fd5b506102f3600480360381019080803560ff16906020019092919080359060200190929190505050610bd8565b005b34801561030157600080fd5b5061030a610dea565b604051808273ffffffffffffffffffffffffffffffffffffffff1673ffffffffffffffffffffffffffffffffffffffff16815260200191505060405180910390f35b34801561035857600080fd5b50610361610e0f565b604051808263ffffffff1663ffffffff16815260200191505060405180910390f35b34801561038f57600080fd5b506103bb600480360381019080803560ff16906020019092919080359060200190929190505050610e25565b005b3480156103c957600080fd5b506103e860048036038101908080359060200190929190505050611005565b604051808767ffffffffffffffff1667ffffffffffffffff1681526020018667ffffffffffffffff1667ffffffffffffffff1681526020018581526020018461ffff1661ffff1681526020018361ffff1661ffff16815260200182600281111561044e57fe5b60ff168152602001965050505050505060405180910390f35b34801561047357600080fd5b50610495600480360381019080803560ff1690602001909291905050506110a1565b604051808215151515815260200191505060405180910390f35b3480156104bb57600080fd5b506104c4611218565b604051808263ffffffff1663ffffffff16815260200191505060405180910390f35b3480156104f257600080fd5b506104fb61121e565b604051808273ffffffffffffffffffffffffffffffffffffffff1673ffffffffffffffffffffffffffffffffffffffff16815260200191505060405180910390f35b34801561054957600080fd5b5061056b600480360381019080803560ff169060200190929190505050611244565b005b34801561057957600080fd5b506105b3600480360381019080803560ff16906020019092919080359060200190820180359060200191909192939192939050505061143d565b005b3480156105c157600080fd5b506105f4600480360381019080803567ffffffffffffffff169060200190929190803590602001909291905050506117ab565b005b34801561060257600080fd5b50610637600480360381019080803573ffffffffffffffffffffffffffffffffffffffff1690602001909291905050506119dd565b005b6000809054906101000a900473ffffffffffffffffffffffffffffffffffffffff1673ffffffffffffffffffffffffffffffffffffffff163373ffffffffffffffffffffffffffffffffffffffff1614151561069457600080fd5b8060028060028111156106a357fe5b60018360ff168154811015156106b557fe5b906000526020600020906003020160020160049054906101000a900460ff1660028111156106df57fe5b14151561077a576040517f08c379a00000000000000000000000000000000000000000000000000000000081526004018080602001828103825260268152602001807f546869732073616c65206973206e6f7420696e2074686520636f72726563742081526020017f73746174652e000000000000000000000000000000000000000000000000000081525060400191505060405180910390fd5b6001808460ff1681548110151561078d57fe5b906000526020600020906003020160020160046101000a81548160ff021916908360028111156107b957fe5b02179055507ffa00485dc9843cb5d5b0a08de1685a80eff766726f467de66ff8bd2de4d5ca8e83604051808260ff1660ff16815260200191505060405180910390a1505050565b600560009054906101000a900473ffffffffffffffffffffffffffffffffffffffff1681565b600481565b6202710081565b600060018260ff1681548110151561084657fe5b90600052602060002090600302016001015490506000811115156108f8576040517f08c379a00000000000000000000000000000000000000000000000000000000081526004018080602001828103825260338152602001807f596f752061726520747279696e6720746f207573652045544820746f2062757981526020017f2066726f6d2061204b697474792053616c652e0000000000000000000000000081525060400191505060405180910390fd5b803410151515610996576040517f08c379a00000000000000000000000000000000000000000000000000000000081526004018080602001828103825260278152602001807f496e73756666696369656e74204554482073656e7420746f206275792074686981526020017f73207061636b2e0000000000000000000000000000000000000000000000000081525060400191505060405180910390fd5b61099f82611b32565b503373ffffffffffffffffffffffffffffffffffffffff166108fc8234039081150290604051600060405180830381858888f193505050501580156109e8573d6000803e3d6000fd5b505050565b6000809054906101000a900473ffffffffffffffffffffffffffffffffffffffff1673ffffffffffffffffffffffffffffffffffffffff163373ffffffffffffffffffffffffffffffffffffffff16141515610a4857600080fd5b806001806002811115610a5757fe5b60018360ff16815481101515610a6957fe5b906000526020600020906003020160020160049054906101000a900460ff166002811115610a9357fe5b141515610b2e576040517f08c379a00000000000000000000000000000000000000000000000000000000081526004018080602001828103825260268152602001807f546869732073616c65206973206e6f7420696e2074686520636f72726563742081526020017f73746174652e000000000000000000000000000000000000000000000000000081525060400191505060405180910390fd5b600260018460ff16815481101515610b4257fe5b906000526020600020906003020160020160046101000a81548160ff02191690836002811115610b6e57fe5b02179055507f29ff1a53b611d4e01a3c5daa5de3acd49316a453101da665b8e6fe2832eed4d283604051808260ff1660ff16815260200191505060405180910390a1505050565b600260049054906101000a900463ffffffff1681565b6000600180549050905090565b60008060009054906101000a900473ffffffffffffffffffffffffffffffffffffffff1673ffffffffffffffffffffffffffffffffffffffff163373ffffffffffffffffffffffffffffffffffffffff16141515610c3557600080fd5b60018360ff16815481101515610c4757fe5b9060005260206000209060030201905060008160010154111515610cf9576040517f08c379a000000000000000000000000000000000000000000000000000000000815260040180806020018281038252602d8152602001807f596f752063616e2774207475726e2061204b697474792053616c6520696e746f81526020017f20616e204554482053616c652e0000000000000000000000000000000000000081525060400191505060405180910390fd5b600082111515610d97576040517f08c379a000000000000000000000000000000000000000000000000000000000815260040180806020018281038252602d8152602001807f596f752063616e2774207475726e20616e204554482053616c6520696e746f2081526020017f61204b697474792053616c652e0000000000000000000000000000000000000081525060400191505060405180910390fd5b8181600101819055507f48d853d35578b628e98629b8e92da6a404d2df5b1ec4f6048bc2dcbc037ee15b8383604051808360ff1660ff1681526020018281526020019250505060405180910390a1505050565b6000809054906101000a900473ffffffffffffffffffffffffffffffffffffffff1681565b600260009054906101000a900463ffffffff1681565b600060018360ff16815481101515610e3957fe5b906000526020600020906003020160010154141515610ee6576040517f08c379a00000000000000000000000000000000000000000000000000000000081526004018080602001828103825260368152602001807f596f752061726520747279696e6720746f207573652061204b6974747920746f81526020017f206275792066726f6d20616e204554482053616c652e0000000000000000000081525060400191505060405180910390fd5b600560009054906101000a900473ffffffffffffffffffffffffffffffffffffffff1673ffffffffffffffffffffffffffffffffffffffff166323b872dd3330846040518463ffffffff167c0100000000000000000000000000000000000000000000000000000000028152600401808473ffffffffffffffffffffffffffffffffffffffff1673ffffffffffffffffffffffffffffffffffffffff1681526020018373ffffffffffffffffffffffffffffffffffffffff1673ffffffffffffffffffffffffffffffffffffffff1681526020018281526020019350505050600060405180830381600087803b158015610fdf57600080fd5b505af1158015610ff3573d6000803e3d6000fd5b5050505061100082611b32565b505050565b60018181548110151561101457fe5b90600052602060002090600302016000915090508060000160009054906101000a900467ffffffffffffffff16908060000160089054906101000a900467ffffffffffffffff16908060010154908060020160009054906101000a900461ffff16908060020160029054906101000a900461ffff16908060020160049054906101000a900460ff16905086565b60006110ab612250565b600060018460ff168154811015156110bf57fe5b906000526020600020906003020160c060405190810160405290816000820160009054906101000a900467ffffffffffffffff1667ffffffffffffffff1667ffffffffffffffff1681526020016000820160089054906101000a900467ffffffffffffffff1667ffffffffffffffff1667ffffffffffffffff168152602001600182015481526020016002820160009054906101000a900461ffff1661ffff1661ffff1681526020016002820160029054906101000a900461ffff1661ffff1661ffff1681526020016002820160049054906101000a900460ff1660028111156111a557fe5b60028111156111b057fe5b8152505091506000826020015167ffffffffffffffff1614806111e65750816020015182600001510167ffffffffffffffff1642105b905080801561120f5750600160028111156111fd57fe5b8260a00151600281111561120d57fe5b145b92505050919050565b619c4081565b600660009054906101000a900473ffffffffffffffffffffffffffffffffffffffff1681565b60008060009054906101000a900473ffffffffffffffffffffffffffffffffffffffff1673ffffffffffffffffffffffffffffffffffffffff163373ffffffffffffffffffffffffffffffffffffffff161415156112a157600080fd5b8160008060028111156112b057fe5b60018360ff168154811015156112c257fe5b906000526020600020906003020160020160049054906101000a900460ff1660028111156112ec57fe5b141515611387576040517f08c379a00000000000000000000000000000000000000000000000000000000081526004018080602001828103825260268152602001807f546869732073616c65206973206e6f7420696e2074686520636f72726563742081526020017f73746174652e000000000000000000000000000000000000000000000000000081525060400191505060405180910390fd5b60018460ff1681548110151561139957fe5b90600052602060002090600302019250428360000160006101000a81548167ffffffffffffffff021916908367ffffffffffffffff16021790555060018360020160046101000a81548160ff021916908360028111156113f557fe5b02179055507fdecaab47a6deb3a967cfc52307eccfe7f69b86882fa116ab5ed9041eab26acf484604051808260ff1660ff16815260200191505060405180910390a150505050565b60008060008060009054906101000a900473ffffffffffffffffffffffffffffffffffffffff1673ffffffffffffffffffffffffffffffffffffffff163373ffffffffffffffffffffffffffffffffffffffff1614151561149d57600080fd5b8560008060028111156114ac57fe5b60018360ff168154811015156114be57fe5b906000526020600020906003020160020160049054906101000a900460ff1660028111156114e857fe5b141515611583576040517f08c379a00000000000000000000000000000000000000000000000000000000081526004018080602001828103825260268152602001807f546869732073616c65206973206e6f7420696e2074686520636f72726563742081526020017f73746174652e000000000000000000000000000000000000000000000000000081525060400191505060405180910390fd5b60018860ff1681548110151561159557fe5b9060005260206000209060030201945060008560000160089054906101000a900467ffffffffffffffff1667ffffffffffffffff16119350868690509250831561164d57619c4063ffffffff168361ffff16600260049054906101000a900463ffffffff160163ffffffff161115151561160e57600080fd5b8261ffff16600260048282829054906101000a900463ffffffff160192506101000a81548163ffffffff021916908363ffffffff1602179055506116be565b6202710063ffffffff168361ffff16600260009054906101000a900463ffffffff160163ffffffff161115151561168357600080fd5b8261ffff16600260008282829054906101000a900463ffffffff160192506101000a81548163ffffffff021916908363ffffffff1602179055505b600360008960ff1660ff1681526020019081526020016000208787909180600181540180825580915050906001820390600052602060002001600090919293909192939091929091925091906117159291906122ae565b5050828560020160008282829054906101000a900461ffff160192506101000a81548161ffff021916908361ffff1602179055508760ff167f6785a08d643117337b6cae6465390f9f22ae34088a05a84d89b3c78632eb7d448888604051808060200182810382528484828181526020019250602002808284378201915050935050505060405180910390a25050505050505050565b6117b3612250565b60008060009054906101000a900473ffffffffffffffffffffffffffffffffffffffff1673ffffffffffffffffffffffffffffffffffffffff163373ffffffffffffffffffffffffffffffffffffffff1614151561181057600080fd5b60c060405190810160405280600067ffffffffffffffff1681526020018567ffffffffffffffff168152602001848152602001600061ffff168152602001600061ffff1681526020016000600281111561186657fe5b8152509150600180839080600181540180825580915050906001820390600052602060002090600302016000909192909190915060008201518160000160006101000a81548167ffffffffffffffff021916908367ffffffffffffffff16021790555060208201518160000160086101000a81548167ffffffffffffffff021916908367ffffffffffffffff1602179055506040820151816001015560608201518160020160006101000a81548161ffff021916908361ffff16021790555060808201518160020160026101000a81548161ffff021916908361ffff16021790555060a08201518160020160046101000a81548160ff0219169083600281111561196c57fe5b021790555050500390507f16e2f41c48cead8cf0d32b8f64fa97bf962ee98caab07cb740501a5782bf9c97818585604051808460ff1660ff1681526020018367ffffffffffffffff1667ffffffffffffffff168152602001828152602001935050505060405180910390a150505050565b6000809054906101000a900473ffffffffffffffffffffffffffffffffffffffff1673ffffffffffffffffffffffffffffffffffffffff163373ffffffffffffffffffffffffffffffffffffffff16141515611a3857600080fd5b600073ffffffffffffffffffffffffffffffffffffffff168173ffffffffffffffffffffffffffffffffffffffff1614151515611a7457600080fd5b8073ffffffffffffffffffffffffffffffffffffffff166000809054906101000a900473ffffffffffffffffffffffffffffffffffffffff1673ffffffffffffffffffffffffffffffffffffffff167f8be0079c531659141344cd1fd0a4f28419497f9722a3daafe3b4186f6b6457e060405160405180910390a3806000806101000a81548173ffffffffffffffffffffffffffffffffffffffff021916908373ffffffffffffffffffffffffffffffffffffffff16021790555050565b60008060006060611b42856110a1565b1515611bdc576040517f08c379a00000000000000000000000000000000000000000000000000000000081526004018080602001828103825260278152602001807f546869732073616c65206973206e6f742063757272656e746c7920696e20707281526020017f6f67726573732e0000000000000000000000000000000000000000000000000081525060400191505060405180910390fd5b611be585611cef565b9250611bf083611ef7565b9150611bfc8286611f96565b905060018560ff16815481101515611c1057fe5b9060005260206000209060030201600201600281819054906101000a900461ffff168092919060010191906101000a81548161ffff021916908361ffff160217905550503373ffffffffffffffffffffffffffffffffffffffff167f1947a407fc738aebf73559f82e681274d64efa878ea80c083c5c081d4e9833a0826040518080602001828103825283818151815260200191508051906020019060200280838360005b83811015611cd0578082015181840152602081019050611cb5565b505050509050019250505060405180910390a260019350505050919050565b600080600360008460ff1660ff168152602001908152602001600020905060008180549050111515611daf576040517f08c379a00000000000000000000000000000000000000000000000000000000081526004018080602001828103825260388152602001807f53616e69747920636865636b206661696c65643a20746865726520617265206e81526020017f6f206261746368657320666f7220746869732073616c652e000000000000000081525060400191505060405180910390fd5b6000816000815481101515611dc057fe5b906000526020600020018054905011158015611de0575060018180549050115b15611e4257806001828054905003815481101515611dfa57fe5b90600052602060002001816000815481101515611e1357fe5b90600052602060002001908054611e2b929190612364565b5080805480919060019003611e4091906123c4565b505b6000816000815481101515611e5357fe5b9060005260206000200180549050111515611ed6576040517f08c379a00000000000000000000000000000000000000000000000000000000081526004018080602001828103825260168152602001807f546869732073616c6520697320736f6c64206f7574210000000000000000000081525060200191505060405180910390fd5b806000815481101515611ee557fe5b90600052602060002001915050919050565b60008060046000815480929190600101919050555082805490504233600454604051808481526020018373ffffffffffffffffffffffffffffffffffffffff1673ffffffffffffffffffffffffffffffffffffffff166c010000000000000000000000000281526014018281526020019350505050604051809103902060019004811515611f8157fe5b069050611f8e8184612167565b915050919050565b60606000606060008060008060ff9550600460ff16604051908082528060200260200182016040528015611fd95781602001602082028038833980820191505090505b509450600193505b600460ff168460ff16111515612158576008840260200392508560ff168360ff168a63ffffffff169060020a9004169150600660009054906101000a900473ffffffffffffffffffffffffffffffffffffffff1673ffffffffffffffffffffffffffffffffffffffff1663d53f9ea8838a336040518463ffffffff167c0100000000000000000000000000000000000000000000000000000000028152600401808460ff1660ff1681526020018360ff1660ff1681526020018273ffffffffffffffffffffffffffffffffffffffff1673ffffffffffffffffffffffffffffffffffffffff1681526020019350505050602060405180830381600087803b1580156120eb57600080fd5b505af11580156120ff573d6000803e3d6000fd5b505050506040513d602081101561211557600080fd5b8101908080519060200190929190505050905080856001860360ff1681518110151561213d57fe5b90602001906020020181815250508380600101945050611fe1565b84965050505050505092915050565b60008060006001848054905003915081851115151561218557600080fd5b838581548110151561219357fe5b90600052602060002090600891828204019190066004029054906101000a900463ffffffff16905083828154811015156121c957fe5b90600052602060002090600891828204019190066004029054906101000a900463ffffffff1684868154811015156121fd57fe5b90600052602060002090600891828204019190066004026101000a81548163ffffffff021916908363ffffffff1602179055508380548091906001900361224491906123f0565b50809250505092915050565b60c060405190810160405280600067ffffffffffffffff168152602001600067ffffffffffffffff16815260200160008152602001600061ffff168152602001600061ffff168152602001600060028111156122a857fe5b81525090565b828054828255906000526020600020906007016008900481019282156123535791602002820160005b8382111561232157833563ffffffff1683826101000a81548163ffffffff021916908363ffffffff16021790555092602001926004016020816003010492830192600103026122d7565b80156123515782816101000a81549063ffffffff0219169055600401602081600301049283019260010302612321565b505b509050612360919061242a565b5090565b828054828255906000526020600020906007016008900481019282156123b3576000526020600020916007016008900482015b828111156123b2578254825591600101919060010190612397565b5b5090506123c0919061242a565b5090565b8154818355818111156123eb578183600052602060002091820191016123ea919061245d565b5b505050565b8154818355818111156124255760070160089004816007016008900483600052602060002091820191016124249190612489565b5b505050565b61245a91905b8082111561245657600081816101000a81549063ffffffff021916905550600101612430565b5090565b90565b61248691905b80821115612482576000818161247991906124ae565b50600101612463565b5090565b90565b6124ab91905b808211156124a757600081600090555060010161248f565b5090565b90565b5080546000825560070160089004906000526020600020908101906124d39190612489565b505600a165627a7a72305820cf48945fb6a47156e785706eeca14d053abf9640ee4b31d322c09fe96402d24a0029",
  "source": "pragma solidity ^0.4.23;\n\nimport \"./PackSaleFactory.sol\";\nimport \"./StrikersMinting.sol\";\nimport \"openzeppelin-solidity/contracts/token/ERC721/ERC721Basic.sol\";\n\ncontract StrikersPackSale is PackSaleFactory {\n  /*** EVENTS ***/\n\n  // TODO: maybe track packID with a counter?\n  event PackBought(address indexed buyer, uint256[] pack);\n\n  /*** STORAGE ***/\n\n  /// @dev We use/increment this nonce when grabbing a random pack in _removeRandomPack()\n  uint256 randNonce = 0;\n\n  /// @dev A reference to the CryptoKitties contract so we can transfer cats\n  ERC721Basic public kittiesContract;\n\n  /// @dev A reference to the contract where the cards are actually minted\n  StrikersMinting public mintingContract;\n\n  /// @dev Constructor. Can't change mintingContract address once it's been initialized\n  constructor(address _kittiesContractAddress, address _mintingContractAddress) public {\n    kittiesContract = ERC721Basic(_kittiesContractAddress);\n    mintingContract = StrikersMinting(_mintingContractAddress);\n  }\n\n  // TODO: buyPack for someone else (giftPack?)\n  function buyPackWithETH(uint8 _saleId) external payable {\n    uint256 packPrice = sales[_saleId].packPrice;\n    require(packPrice > 0, \"You are trying to use ETH to buy from a Kitty Sale.\");\n    require(msg.value >= packPrice, \"Insufficient ETH sent to buy this pack.\");\n    _buyPack(_saleId);\n    // Return excess funds\n    msg.sender.transfer(msg.value - packPrice);\n  }\n\n  /// @dev Note: User needs to have given approval for this contract to transfer their cat.\n  function buyPackWithKitty(uint8 _saleId, uint256 _kittyId) external {\n    require(sales[_saleId].packPrice == 0, \"You are trying to use a Kitty to buy from an ETH Sale.\");\n\n    // Will throw/revert if this contract hasn't been given approval first.\n    // Also, with no way of retrieving kitties from this contract,\n    // transferring to \"this\" burns the cat! (desired behaviour)\n    kittiesContract.transferFrom(msg.sender, this, _kittyId);\n    _buyPack(_saleId);\n  }\n\n  function _buyPack(uint8 _saleId) internal returns (bool) {\n    require(saleInProgress(_saleId), \"This sale is not currently in progress.\");\n\n    uint32[] storage nextBatch = _getNextBatch(_saleId);\n    uint32 pack = _removeRandomPack(nextBatch);\n    uint256[] memory cards = _mintCards(pack, _saleId);\n    sales[_saleId].packsSold++;\n    emit PackBought(msg.sender, cards);\n    return true;\n  }\n\n  function _mintCards(uint32 _pack, uint8 _saleId) internal returns (uint256[]) {\n    uint8 mask = 255;\n    uint256[] memory newCards = new uint256[](PACK_SIZE);\n\n    for (uint8 i = 1; i <= PACK_SIZE; i++) {\n      uint8 shift = 32 - (i * 8);\n      uint8 checklistId = uint8((_pack >> shift) & mask);\n      uint256 cardId = mintingContract.mintBaseCard(checklistId, _saleId, msg.sender);\n      newCards[i-1] = cardId;\n    }\n\n    return newCards;\n  }\n\n  function _getNextBatch(uint8 _saleId) internal returns (uint32[] storage) {\n    uint32[][] storage batches = batchesForSale[_saleId];\n    require(batches.length > 0, \"Sanity check failed: there are no batches for this sale.\");\n\n    // If we've sold all the packs in the first batch, move the last batch to the front!\n    if (batches[0].length <= 0 && batches.length > 1) {\n      batches[0] = batches[batches.length - 1];\n      batches.length--;\n    }\n\n    require(batches[0].length > 0, \"This sale is sold out!\");\n    return batches[0];\n  }\n\n  function _removeRandomPack(uint32[] storage _packs) internal returns (uint32) {\n    randNonce++;\n    uint256 randomIndex = uint256(keccak256(now, msg.sender, randNonce)) % _packs.length;\n    return _removePackAtIndex(randomIndex, _packs);\n  }\n\n  function _removePackAtIndex(uint256 _index, uint32[] storage _packs) internal returns (uint32) {\n    uint256 lastIndex = _packs.length - 1;\n    require(_index <= lastIndex);\n    uint32 pack = _packs[_index];\n    _packs[_index] = _packs[lastIndex];\n    _packs.length--;\n    return pack;\n  }\n}\n",
  "sourcePath": "/Users/GiaSet/Desktop/Projects/cryptostrikers/contracts/StrikersPackSale.sol",
  "compiler": {
    "name": "solc",
    "version": "0.4.23+commit.124ca40d.Emscripten.clang"
  },
  "schemaVersion": "2.0.0",
  "updatedAt": "2018-05-15T14:38:19.389Z"
}