{
  "contractName": "StrikersCore",
  "abi": [
    {
      "constant": true,
      "inputs": [],
      "name": "name",
      "outputs": [
        {
          "name": "",
          "type": "string"
        }
      ],
      "payable": false,
      "stateMutability": "view",
      "type": "function"
    },
    {
      "constant": true,
      "inputs": [
        {
          "name": "_tokenId",
          "type": "uint256"
        }
      ],
      "name": "getApproved",
      "outputs": [
        {
          "name": "",
          "type": "address"
        }
      ],
      "payable": false,
      "stateMutability": "view",
      "type": "function"
    },
    {
      "constant": false,
      "inputs": [
        {
          "name": "_to",
          "type": "address"
        },
        {
          "name": "_tokenId",
          "type": "uint256"
        }
      ],
      "name": "approve",
      "outputs": [],
      "payable": false,
      "stateMutability": "nonpayable",
      "type": "function"
    },
    {
      "constant": true,
      "inputs": [],
      "name": "totalSupply",
      "outputs": [
        {
          "name": "",
          "type": "uint256"
        }
      ],
      "payable": false,
      "stateMutability": "view",
      "type": "function"
    },
    {
      "constant": true,
      "inputs": [
        {
          "name": "",
          "type": "bytes32"
        }
      ],
      "name": "tradeStates",
      "outputs": [
        {
          "name": "",
          "type": "uint8"
        }
      ],
      "payable": false,
      "stateMutability": "view",
      "type": "function"
    },
    {
      "constant": false,
      "inputs": [
        {
          "name": "_from",
          "type": "address"
        },
        {
          "name": "_to",
          "type": "address"
        },
        {
          "name": "_tokenId",
          "type": "uint256"
        }
      ],
      "name": "transferFrom",
      "outputs": [],
      "payable": false,
      "stateMutability": "nonpayable",
      "type": "function"
    },
    {
      "constant": true,
      "inputs": [],
      "name": "strikersChecklist",
      "outputs": [
        {
          "name": "",
          "type": "address"
        }
      ],
      "payable": false,
      "stateMutability": "view",
      "type": "function"
    },
    {
      "constant": false,
      "inputs": [
        {
          "name": "_checklistId",
          "type": "uint8"
        }
      ],
      "name": "pullFromCirculation",
      "outputs": [],
      "payable": false,
      "stateMutability": "nonpayable",
      "type": "function"
    },
    {
      "constant": true,
      "inputs": [
        {
          "name": "_owner",
          "type": "address"
        },
        {
          "name": "_index",
          "type": "uint256"
        }
      ],
      "name": "tokenOfOwnerByIndex",
      "outputs": [
        {
          "name": "",
          "type": "uint256"
        }
      ],
      "payable": false,
      "stateMutability": "view",
      "type": "function"
    },
    {
      "constant": false,
      "inputs": [],
      "name": "unpause",
      "outputs": [],
      "payable": false,
      "stateMutability": "nonpayable",
      "type": "function"
    },
    {
      "constant": true,
      "inputs": [
        {
          "name": "",
          "type": "uint8"
        }
      ],
      "name": "outOfCirculation",
      "outputs": [
        {
          "name": "",
          "type": "bool"
        }
      ],
      "payable": false,
      "stateMutability": "view",
      "type": "function"
    },
    {
      "constant": false,
      "inputs": [
        {
          "name": "_from",
          "type": "address"
        },
        {
          "name": "_to",
          "type": "address"
        },
        {
          "name": "_tokenId",
          "type": "uint256"
        }
      ],
      "name": "safeTransferFrom",
      "outputs": [],
      "payable": false,
      "stateMutability": "nonpayable",
      "type": "function"
    },
    {
      "constant": true,
      "inputs": [
        {
          "name": "_tokenId",
          "type": "uint256"
        }
      ],
      "name": "exists",
      "outputs": [
        {
          "name": "",
          "type": "bool"
        }
      ],
      "payable": false,
      "stateMutability": "view",
      "type": "function"
    },
    {
      "constant": true,
      "inputs": [
        {
          "name": "_index",
          "type": "uint256"
        }
      ],
      "name": "tokenByIndex",
      "outputs": [
        {
          "name": "",
          "type": "uint256"
        }
      ],
      "payable": false,
      "stateMutability": "view",
      "type": "function"
    },
    {
      "constant": true,
      "inputs": [],
      "name": "paused",
      "outputs": [
        {
          "name": "",
          "type": "bool"
        }
      ],
      "payable": false,
      "stateMutability": "view",
      "type": "function"
    },
    {
      "constant": false,
      "inputs": [
        {
          "name": "_maker",
          "type": "address"
        },
        {
          "name": "_makerCardId",
          "type": "uint256"
        },
        {
          "name": "_taker",
          "type": "address"
        },
        {
          "name": "_takerCardOrChecklistId",
          "type": "uint256"
        },
        {
          "name": "_salt",
          "type": "uint256"
        }
      ],
      "name": "cancelTrade",
      "outputs": [],
      "payable": false,
      "stateMutability": "nonpayable",
      "type": "function"
    },
    {
      "constant": true,
      "inputs": [
        {
          "name": "_tokenId",
          "type": "uint256"
        }
      ],
      "name": "ownerOf",
      "outputs": [
        {
          "name": "",
          "type": "address"
        }
      ],
      "payable": false,
      "stateMutability": "view",
      "type": "function"
    },
    {
      "constant": false,
      "inputs": [
        {
          "name": "_checklistId",
          "type": "uint8"
        },
        {
          "name": "_owner",
          "type": "address"
        }
      ],
      "name": "mintUnreleasedCard",
      "outputs": [],
      "payable": false,
      "stateMutability": "nonpayable",
      "type": "function"
    },
    {
      "constant": true,
      "inputs": [
        {
          "name": "_owner",
          "type": "address"
        }
      ],
      "name": "balanceOf",
      "outputs": [
        {
          "name": "",
          "type": "uint256"
        }
      ],
      "payable": false,
      "stateMutability": "view",
      "type": "function"
    },
    {
      "constant": false,
      "inputs": [
        {
          "name": "_checklistId",
          "type": "uint8"
        },
        {
          "name": "_owner",
          "type": "address"
        }
      ],
      "name": "mintPackSaleCard",
      "outputs": [
        {
          "name": "",
          "type": "uint256"
        }
      ],
      "payable": false,
      "stateMutability": "nonpayable",
      "type": "function"
    },
    {
      "constant": true,
      "inputs": [
        {
          "name": "",
          "type": "uint8"
        }
      ],
      "name": "mintedCountForChecklistId",
      "outputs": [
        {
          "name": "",
          "type": "uint16"
        }
      ],
      "payable": false,
      "stateMutability": "view",
      "type": "function"
    },
    {
      "constant": true,
      "inputs": [
        {
          "name": "_signer",
          "type": "address"
        },
        {
          "name": "_tradeHash",
          "type": "bytes32"
        },
        {
          "name": "_v",
          "type": "uint8"
        },
        {
          "name": "_r",
          "type": "bytes32"
        },
        {
          "name": "_s",
          "type": "bytes32"
        }
      ],
      "name": "isValidSignature",
      "outputs": [
        {
          "name": "",
          "type": "bool"
        }
      ],
      "payable": false,
      "stateMutability": "pure",
      "type": "function"
    },
    {
      "constant": false,
      "inputs": [],
      "name": "pause",
      "outputs": [],
      "payable": false,
      "stateMutability": "nonpayable",
      "type": "function"
    },
    {
      "constant": true,
      "inputs": [],
      "name": "owner",
      "outputs": [
        {
          "name": "",
          "type": "address"
        }
      ],
      "payable": false,
      "stateMutability": "view",
      "type": "function"
    },
    {
      "constant": true,
      "inputs": [
        {
          "name": "",
          "type": "uint256"
        }
      ],
      "name": "cards",
      "outputs": [
        {
          "name": "mintTime",
          "type": "uint64"
        },
        {
          "name": "checklistId",
          "type": "uint8"
        },
        {
          "name": "serialNumber",
          "type": "uint16"
        }
      ],
      "payable": false,
      "stateMutability": "view",
      "type": "function"
    },
    {
      "constant": false,
      "inputs": [
        {
          "name": "_address",
          "type": "address"
        }
      ],
      "name": "setPackSaleAddress",
      "outputs": [],
      "payable": false,
      "stateMutability": "nonpayable",
      "type": "function"
    },
    {
      "constant": true,
      "inputs": [],
      "name": "symbol",
      "outputs": [
        {
          "name": "",
          "type": "string"
        }
      ],
      "payable": false,
      "stateMutability": "view",
      "type": "function"
    },
    {
      "constant": true,
      "inputs": [
        {
          "name": "_maker",
          "type": "address"
        },
        {
          "name": "_makerCardId",
          "type": "uint256"
        },
        {
          "name": "_taker",
          "type": "address"
        },
        {
          "name": "_takerCardOrChecklistId",
          "type": "uint256"
        },
        {
          "name": "_salt",
          "type": "uint256"
        }
      ],
      "name": "getTradeHash",
      "outputs": [
        {
          "name": "",
          "type": "bytes32"
        }
      ],
      "payable": false,
      "stateMutability": "view",
      "type": "function"
    },
    {
      "constant": false,
      "inputs": [
        {
          "name": "_to",
          "type": "address"
        },
        {
          "name": "_approved",
          "type": "bool"
        }
      ],
      "name": "setApprovalForAll",
      "outputs": [],
      "payable": false,
      "stateMutability": "nonpayable",
      "type": "function"
    },
    {
      "constant": false,
      "inputs": [
        {
          "name": "_from",
          "type": "address"
        },
        {
          "name": "_to",
          "type": "address"
        },
        {
          "name": "_tokenId",
          "type": "uint256"
        },
        {
          "name": "_data",
          "type": "bytes"
        }
      ],
      "name": "safeTransferFrom",
      "outputs": [],
      "payable": false,
      "stateMutability": "nonpayable",
      "type": "function"
    },
    {
      "constant": true,
      "inputs": [],
      "name": "packSaleAddress",
      "outputs": [
        {
          "name": "",
          "type": "address"
        }
      ],
      "payable": false,
      "stateMutability": "view",
      "type": "function"
    },
    {
      "constant": true,
      "inputs": [],
      "name": "strikersMetadata",
      "outputs": [
        {
          "name": "",
          "type": "address"
        }
      ],
      "payable": false,
      "stateMutability": "view",
      "type": "function"
    },
    {
      "constant": true,
      "inputs": [
        {
          "name": "_owner",
          "type": "address"
        },
        {
          "name": "_operator",
          "type": "address"
        }
      ],
      "name": "isApprovedForAll",
      "outputs": [
        {
          "name": "",
          "type": "bool"
        }
      ],
      "payable": false,
      "stateMutability": "view",
      "type": "function"
    },
    {
      "constant": false,
      "inputs": [
        {
          "name": "newOwner",
          "type": "address"
        }
      ],
      "name": "transferOwnership",
      "outputs": [],
      "payable": false,
      "stateMutability": "nonpayable",
      "type": "function"
    },
    {
      "constant": true,
      "inputs": [
        {
          "name": "_owner",
          "type": "address"
        }
      ],
      "name": "cardAndChecklistIdsForOwner",
      "outputs": [
        {
          "name": "",
          "type": "uint256[]"
        },
        {
          "name": "",
          "type": "uint8[]"
        }
      ],
      "payable": false,
      "stateMutability": "view",
      "type": "function"
    },
    {
      "constant": false,
      "inputs": [
        {
          "name": "_maker",
          "type": "address"
        },
        {
          "name": "_makerCardId",
          "type": "uint256"
        },
        {
          "name": "_taker",
          "type": "address"
        },
        {
          "name": "_takerCardOrChecklistId",
          "type": "uint256"
        },
        {
          "name": "_salt",
          "type": "uint256"
        },
        {
          "name": "_submittedCardId",
          "type": "uint256"
        },
        {
          "name": "_v",
          "type": "uint8"
        },
        {
          "name": "_r",
          "type": "bytes32"
        },
        {
          "name": "_s",
          "type": "bytes32"
        }
      ],
      "name": "fillTrade",
      "outputs": [],
      "payable": false,
      "stateMutability": "nonpayable",
      "type": "function"
    },
    {
      "inputs": [
        {
          "name": "_checklistAddress",
          "type": "address"
        }
      ],
      "payable": false,
      "stateMutability": "nonpayable",
      "type": "constructor"
    },
    {
      "anonymous": false,
      "inputs": [
        {
          "indexed": true,
          "name": "tradeHash",
          "type": "bytes32"
        },
        {
          "indexed": true,
          "name": "maker",
          "type": "address"
        },
        {
          "indexed": false,
          "name": "taker",
          "type": "address"
        },
        {
          "indexed": false,
          "name": "submittedCardId",
          "type": "uint256"
        }
      ],
      "name": "TradeFilled",
      "type": "event"
    },
    {
      "anonymous": false,
      "inputs": [
        {
          "indexed": true,
          "name": "tradeHash",
          "type": "bytes32"
        },
        {
          "indexed": true,
          "name": "maker",
          "type": "address"
        }
      ],
      "name": "TradeCancelled",
      "type": "event"
    },
    {
      "anonymous": false,
      "inputs": [],
      "name": "Pause",
      "type": "event"
    },
    {
      "anonymous": false,
      "inputs": [],
      "name": "Unpause",
      "type": "event"
    },
    {
      "anonymous": false,
      "inputs": [
        {
          "indexed": false,
          "name": "checklistId",
          "type": "uint8"
        }
      ],
      "name": "PulledFromCirculation",
      "type": "event"
    },
    {
      "anonymous": false,
      "inputs": [
        {
          "indexed": true,
          "name": "previousOwner",
          "type": "address"
        },
        {
          "indexed": true,
          "name": "newOwner",
          "type": "address"
        }
      ],
      "name": "OwnershipTransferred",
      "type": "event"
    },
    {
      "anonymous": false,
      "inputs": [
        {
          "indexed": false,
          "name": "cardId",
          "type": "uint256"
        }
      ],
      "name": "CardMinted",
      "type": "event"
    },
    {
      "anonymous": false,
      "inputs": [
        {
          "indexed": true,
          "name": "_from",
          "type": "address"
        },
        {
          "indexed": true,
          "name": "_to",
          "type": "address"
        },
        {
          "indexed": false,
          "name": "_tokenId",
          "type": "uint256"
        }
      ],
      "name": "Transfer",
      "type": "event"
    },
    {
      "anonymous": false,
      "inputs": [
        {
          "indexed": true,
          "name": "_owner",
          "type": "address"
        },
        {
          "indexed": true,
          "name": "_approved",
          "type": "address"
        },
        {
          "indexed": false,
          "name": "_tokenId",
          "type": "uint256"
        }
      ],
      "name": "Approval",
      "type": "event"
    },
    {
      "anonymous": false,
      "inputs": [
        {
          "indexed": true,
          "name": "_owner",
          "type": "address"
        },
        {
          "indexed": true,
          "name": "_operator",
          "type": "address"
        },
        {
          "indexed": false,
          "name": "_approved",
          "type": "bool"
        }
      ],
      "name": "ApprovalForAll",
      "type": "event"
    },
    {
      "constant": false,
      "inputs": [
        {
          "name": "_contractAddress",
          "type": "address"
        }
      ],
      "name": "setMetadataContract",
      "outputs": [],
      "payable": false,
      "stateMutability": "nonpayable",
      "type": "function"
    },
    {
      "constant": true,
      "inputs": [
        {
          "name": "_tokenId",
          "type": "uint256"
        }
      ],
      "name": "tokenURI",
      "outputs": [
        {
          "name": "",
          "type": "string"
        }
      ],
      "payable": false,
      "stateMutability": "view",
      "type": "function"
    }
  ],
  "bytecode": "0x60806040526000601060146101000a81548160ff0219169083151502179055503480156200002c57600080fd5b50604051602080620044fc833981018060405281019080805190602001909291905050506040805190810160405280600e81526020017f43727970746f537472696b6572730000000000000000000000000000000000008152506040805190810160405280600481526020017f5354524b000000000000000000000000000000000000000000000000000000008152508160049080519060200190620000d492919062000179565b508060059080519060200190620000ed92919062000179565b50505033600e60006101000a81548173ffffffffffffffffffffffffffffffffffffffff021916908373ffffffffffffffffffffffffffffffffffffffff16021790555080600d60006101000a81548173ffffffffffffffffffffffffffffffffffffffff021916908373ffffffffffffffffffffffffffffffffffffffff1602179055505062000228565b828054600181600116156101000203166002900490600052602060002090601f016020900481019282601f10620001bc57805160ff1916838001178555620001ed565b82800160010185558215620001ed579182015b82811115620001ec578251825591602001919060010190620001cf565b5b509050620001fc919062000200565b5090565b6200022591905b808211156200022157600081600090555060010162000207565b5090565b90565b6142c480620002386000396000f3006080604052600436106101d8576000357c0100000000000000000000000000000000000000000000000000000000900463ffffffff16806306fdde03146101dd578063081812fc1461026d578063095ea7b3146102da57806318160ddd146103275780631b9ad2391461035257806323b872dd146103a55780632a571b15146104125780632b232741146104695780632f745c59146104995780633f4ba83a146104fa5780633ff25c641461051157806342842e0e146105595780634f558e79146105c65780634f6ccce71461060b5780635c975abb1461064c5780636280382a1461067b5780636352211e146106fc5780636977aa621461076957806370a08231146107b95780637579fcb3146108105780637f791d05146108745780638163681e146108c05780638456cb59146109525780638da5cb5b146109695780638dc10768146109c0578063914e45d014610a3157806395d89b4114610a74578063a1490d5014610b04578063a22cb46514610ba1578063b88d4fde14610bf0578063c4a3155714610ca3578063c87b56dd14610cfa578063c8a2cc0314610da0578063e5187f4314610df7578063e985e9c514610e3a578063f2fde38b14610eb5578063f7ce25bb14610ef8578063fdd3af8f14610fd8575b600080fd5b3480156101e957600080fd5b506101f261108c565b6040518080602001828103825283818151815260200191508051906020019080838360005b83811015610232578082015181840152602081019050610217565b50505050905090810190601f16801561025f5780820380516001836020036101000a031916815260200191505b509250505060405180910390f35b34801561027957600080fd5b506102986004803603810190808035906020019092919050505061112e565b604051808273ffffffffffffffffffffffffffffffffffffffff1673ffffffffffffffffffffffffffffffffffffffff16815260200191505060405180910390f35b3480156102e657600080fd5b50610325600480360381019080803573ffffffffffffffffffffffffffffffffffffffff1690602001909291908035906020019092919050505061116b565b005b34801561033357600080fd5b5061033c611331565b6040518082815260200191505060405180910390f35b34801561035e57600080fd5b50610381600480360381019080803560001916906020019092919050505061133e565b6040518082600281111561039157fe5b60ff16815260200191505060405180910390f35b3480156103b157600080fd5b50610410600480360381019080803573ffffffffffffffffffffffffffffffffffffffff169060200190929190803573ffffffffffffffffffffffffffffffffffffffff1690602001909291908035906020019092919050505061135e565b005b34801561041e57600080fd5b50610427611475565b604051808273ffffffffffffffffffffffffffffffffffffffff1673ffffffffffffffffffffffffffffffffffffffff16815260200191505060405180910390f35b34801561047557600080fd5b50610497600480360381019080803560ff16906020019092919050505061149b565b005b3480156104a557600080fd5b506104e4600480360381019080803573ffffffffffffffffffffffffffffffffffffffff1690602001909291908035906020019092919050505061171e565b6040518082815260200191505060405180910390f35b34801561050657600080fd5b5061050f611795565b005b34801561051d57600080fd5b5061053f600480360381019080803560ff169060200190929190505050611855565b604051808215151515815260200191505060405180910390f35b34801561056557600080fd5b506105c4600480360381019080803573ffffffffffffffffffffffffffffffffffffffff169060200190929190803573ffffffffffffffffffffffffffffffffffffffff16906020019092919080359060200190929190505050611875565b005b3480156105d257600080fd5b506105f1600480360381019080803590602001909291905050506118ad565b604051808215151515815260200191505060405180910390f35b34801561061757600080fd5b506106366004803603810190808035906020019092919050505061191e565b6040518082815260200191505060405180910390f35b34801561065857600080fd5b50610661611956565b604051808215151515815260200191505060405180910390f35b34801561068757600080fd5b506106fa600480360381019080803573ffffffffffffffffffffffffffffffffffffffff16906020019092919080359060200190929190803573ffffffffffffffffffffffffffffffffffffffff1690602001909291908035906020019092919080359060200190929190505050611969565b005b34801561070857600080fd5b5061072760048036038101908080359060200190929190505050611bac565b604051808273ffffffffffffffffffffffffffffffffffffffff1673ffffffffffffffffffffffffffffffffffffffff16815260200191505060405180910390f35b34801561077557600080fd5b506107b7600480360381019080803560ff169060200190929190803573ffffffffffffffffffffffffffffffffffffffff169060200190929190505050611c29565b005b3480156107c557600080fd5b506107fa600480360381019080803573ffffffffffffffffffffffffffffffffffffffff169060200190929190505050611df8565b6040518082815260200191505060405180910390f35b34801561081c57600080fd5b5061085e600480360381019080803560ff169060200190929190803573ffffffffffffffffffffffffffffffffffffffff169060200190929190505050611e7c565b6040518082815260200191505060405180910390f35b34801561088057600080fd5b506108a2600480360381019080803560ff16906020019092919050505061203d565b604051808261ffff1661ffff16815260200191505060405180910390f35b3480156108cc57600080fd5b50610938600480360381019080803573ffffffffffffffffffffffffffffffffffffffff1690602001909291908035600019169060200190929190803560ff1690602001909291908035600019169060200190929190803560001916906020019092919050505061205e565b604051808215151515815260200191505060405180910390f35b34801561095e57600080fd5b506109676121d1565b005b34801561097557600080fd5b5061097e612292565b604051808273ffffffffffffffffffffffffffffffffffffffff1673ffffffffffffffffffffffffffffffffffffffff16815260200191505060405180910390f35b3480156109cc57600080fd5b506109eb600480360381019080803590602001909291905050506122b8565b604051808467ffffffffffffffff1667ffffffffffffffff1681526020018360ff1660ff1681526020018261ffff1661ffff168152602001935050505060405180910390f35b348015610a3d57600080fd5b50610a72600480360381019080803573ffffffffffffffffffffffffffffffffffffffff16906020019092919050505061231c565b005b348015610a8057600080fd5b50610a896123bc565b6040518080602001828103825283818151815260200191508051906020019080838360005b83811015610ac9578082015181840152602081019050610aae565b50505050905090810190601f168015610af65780820380516001836020036101000a031916815260200191505b509250505060405180910390f35b348015610b1057600080fd5b50610b83600480360381019080803573ffffffffffffffffffffffffffffffffffffffff16906020019092919080359060200190929190803573ffffffffffffffffffffffffffffffffffffffff169060200190929190803590602001909291908035906020019092919050505061245e565b60405180826000191660001916815260200191505060405180910390f35b348015610bad57600080fd5b50610bee600480360381019080803573ffffffffffffffffffffffffffffffffffffffff1690602001909291908035151590602001909291905050506125cc565b005b348015610bfc57600080fd5b50610ca1600480360381019080803573ffffffffffffffffffffffffffffffffffffffff169060200190929190803573ffffffffffffffffffffffffffffffffffffffff16906020019092919080359060200190929190803590602001908201803590602001908080601f0160208091040260200160405190810160405280939291908181526020018383808284378201915050505050509192919290505050612708565b005b348015610caf57600080fd5b50610cb8612747565b604051808273ffffffffffffffffffffffffffffffffffffffff1673ffffffffffffffffffffffffffffffffffffffff16815260200191505060405180910390f35b348015610d0657600080fd5b50610d256004803603810190808035906020019092919050505061276d565b6040518080602001828103825283818151815260200191508051906020019080838360005b83811015610d65578082015181840152602081019050610d4a565b50505050905090810190601f168015610d925780820380516001836020036101000a031916815260200191505b509250505060405180910390f35b348015610dac57600080fd5b50610db561297d565b604051808273ffffffffffffffffffffffffffffffffffffffff1673ffffffffffffffffffffffffffffffffffffffff16815260200191505060405180910390f35b348015610e0357600080fd5b50610e38600480360381019080803573ffffffffffffffffffffffffffffffffffffffff1690602001909291905050506129a3565b005b348015610e4657600080fd5b50610e9b600480360381019080803573ffffffffffffffffffffffffffffffffffffffff169060200190929190803573ffffffffffffffffffffffffffffffffffffffff169060200190929190505050612a43565b604051808215151515815260200191505060405180910390f35b348015610ec157600080fd5b50610ef6600480360381019080803573ffffffffffffffffffffffffffffffffffffffff169060200190929190505050612ad7565b005b348015610f0457600080fd5b50610f39600480360381019080803573ffffffffffffffffffffffffffffffffffffffff169060200190929190505050612c2f565b604051808060200180602001838103835285818151815260200191508051906020019060200280838360005b83811015610f80578082015181840152602081019050610f65565b50505050905001838103825284818151815260200191508051906020019060200280838360005b83811015610fc2578082015181840152602081019050610fa7565b5050505090500194505050505060405180910390f35b348015610fe457600080fd5b5061108a600480360381019080803573ffffffffffffffffffffffffffffffffffffffff16906020019092919080359060200190929190803573ffffffffffffffffffffffffffffffffffffffff169060200190929190803590602001909291908035906020019092919080359060200190929190803560ff16906020019092919080356000191690602001909291908035600019169060200190929190505050612d93565b005b606060048054600181600116156101000203166002900480601f0160208091040260200160405190810160405280929190818152602001828054600181600116156101000203166002900480156111245780601f106110f957610100808354040283529160200191611124565b820191906000526020600020905b81548152906001019060200180831161110757829003601f168201915b5050505050905090565b60006001600083815260200190815260200160002060009054906101000a900473ffffffffffffffffffffffffffffffffffffffff169050919050565b600061117682611bac565b90508073ffffffffffffffffffffffffffffffffffffffff168373ffffffffffffffffffffffffffffffffffffffff16141515156111b357600080fd5b8073ffffffffffffffffffffffffffffffffffffffff163373ffffffffffffffffffffffffffffffffffffffff1614806111f357506111f28133612a43565b5b15156111fe57600080fd5b600073ffffffffffffffffffffffffffffffffffffffff1661121f8361112e565b73ffffffffffffffffffffffffffffffffffffffff1614158061126f5750600073ffffffffffffffffffffffffffffffffffffffff168373ffffffffffffffffffffffffffffffffffffffff1614155b1561132c57826001600084815260200190815260200160002060006101000a81548173ffffffffffffffffffffffffffffffffffffffff021916908373ffffffffffffffffffffffffffffffffffffffff1602179055508273ffffffffffffffffffffffffffffffffffffffff168173ffffffffffffffffffffffffffffffffffffffff167f8c5be1e5ebec7d5bd14f71427d1e84f3dd0314c0f7b2291e5b200ac8c7c3b925846040518082815260200191505060405180910390a35b505050565b6000600880549050905090565b60116020528060005260406000206000915054906101000a900460ff1681565b806113693382613374565b151561137457600080fd5b600073ffffffffffffffffffffffffffffffffffffffff168473ffffffffffffffffffffffffffffffffffffffff16141515156113b057600080fd5b600073ffffffffffffffffffffffffffffffffffffffff168373ffffffffffffffffffffffffffffffffffffffff16141515156113ec57600080fd5b6113f68483613409565b6114008483613572565b61140a838361378a565b8273ffffffffffffffffffffffffffffffffffffffff168473ffffffffffffffffffffffffffffffffffffffff167fddf252ad1be2c89b69c2b068fc378daa952ba7f163c4a11628f55a4df523b3ef846040518082815260200191505060405180910390a350505050565b600d60009054906101000a900473ffffffffffffffffffffffffffffffffffffffff1681565b6000600e60009054906101000a900473ffffffffffffffffffffffffffffffffffffffff1673ffffffffffffffffffffffffffffffffffffffff163373ffffffffffffffffffffffffffffffffffffffff1614806115465750601060009054906101000a900473ffffffffffffffffffffffffffffffffffffffff1673ffffffffffffffffffffffffffffffffffffffff163373ffffffffffffffffffffffffffffffffffffffff16145b9050801515611609576040517f08c379a00000000000000000000000000000000000000000000000000000000081526004018080602001828103825260488152602001807f4f6e6c7920746865206f776e6572206f72207061636b2073616c652063616e2081526020017f74616b6520636865636b6c697374206974656d73206f7574206f66206369726381526020017f756c6174696f6e2e00000000000000000000000000000000000000000000000081525060600191505060405180910390fd5b60648260ff16101515156116ab576040517f08c379a000000000000000000000000000000000000000000000000000000000815260040180806020018281038252603a8152602001807f546869732066756e6374696f6e20697320726573657276656420666f7220496381526020017f6f6e69637320616e6420556e72656c656173656420736574732e00000000000081525060400191505060405180910390fd5b6001600f60008460ff1660ff16815260200190815260200160002060006101000a81548160ff0219169083151502179055507fca2965a599f9007a8bc0a636d12c9edea5f8c5af10209eaed37a86d44e0d7b8382604051808260ff1660ff16815260200191505060405180910390a15050565b600061172983611df8565b8210151561173657600080fd5b600660008473ffffffffffffffffffffffffffffffffffffffff1673ffffffffffffffffffffffffffffffffffffffff1681526020019081526020016000208281548110151561178257fe5b9060005260206000200154905092915050565b600e60009054906101000a900473ffffffffffffffffffffffffffffffffffffffff1673ffffffffffffffffffffffffffffffffffffffff163373ffffffffffffffffffffffffffffffffffffffff161415156117f157600080fd5b601060149054906101000a900460ff16151561180c57600080fd5b6000601060146101000a81548160ff0219169083151502179055507f7805862f689e2f13df9f062ff482ad3ad112aca9e0847911ed832e158c525b3360405160405180910390a1565b600f6020528060005260406000206000915054906101000a900460ff1681565b806118803382613374565b151561188b57600080fd5b6118a78484846020604051908101604052806000815250612708565b50505050565b60008060008084815260200190815260200160002060009054906101000a900473ffffffffffffffffffffffffffffffffffffffff169050600073ffffffffffffffffffffffffffffffffffffffff168173ffffffffffffffffffffffffffffffffffffffff161415915050919050565b6000611928611331565b8210151561193557600080fd5b60088281548110151561194457fe5b90600052602060002001549050919050565b601060149054906101000a900460ff1681565b60003373ffffffffffffffffffffffffffffffffffffffff168673ffffffffffffffffffffffffffffffffffffffff16141515611a34576040517f08c379a000000000000000000000000000000000000000000000000000000000815260040180806020018281038252602d8152602001807f4f6e6c79207468652074726164652063726561746f722063616e2063616e636581526020017f6c20746869732074726164652e0000000000000000000000000000000000000081525060400191505060405180910390fd5b611a41868686868661245e565b905060006002811115611a5057fe5b60116000836000191660001916815260200190815260200160002060009054906101000a900460ff166002811115611a8457fe5b141515611b1f576040517f08c379a00000000000000000000000000000000000000000000000000000000081526004018080602001828103825260308152602001807f546869732074726164652068617320616c7265616479206265656e2063616e6381526020017f656c6c6564206f722066696c6c65642e0000000000000000000000000000000081525060400191505060405180910390fd5b600260116000836000191660001916815260200190815260200160002060006101000a81548160ff02191690836002811115611b5757fe5b02179055508573ffffffffffffffffffffffffffffffffffffffff1681600019167f37bea1bad72947bbe287e44f80432b090eef483a8ae55f2bca77cd212beb54c960405160405180910390a3505050505050565b60008060008084815260200190815260200160002060009054906101000a900473ffffffffffffffffffffffffffffffffffffffff169050600073ffffffffffffffffffffffffffffffffffffffff168173ffffffffffffffffffffffffffffffffffffffff1614151515611c2057600080fd5b80915050919050565b600e60009054906101000a900473ffffffffffffffffffffffffffffffffffffffff1673ffffffffffffffffffffffffffffffffffffffff163373ffffffffffffffffffffffffffffffffffffffff16141515611c8557600080fd5b60c88260ff1610151515611d27576040517f08c379a000000000000000000000000000000000000000000000000000000000815260040180806020018281038252602f8152602001807f596f752063616e206f6e6c7920757365207468697320746f206d696e7420756e81526020017f72656c65617365642063617264732e000000000000000000000000000000000081525060400191505060405180910390fd5b600f60008360ff1660ff16815260200190815260200160002060009054906101000a900460ff16151515611de9576040517f08c379a000000000000000000000000000000000000000000000000000000000815260040180806020018281038252602d8152602001807f43616e2774206d696e7420616e79206d6f7265206f662074686973206368656381526020017f6b6c697374206974656d2e2e2e0000000000000000000000000000000000000081525060400191505060405180910390fd5b611df38282613861565b505050565b60008073ffffffffffffffffffffffffffffffffffffffff168273ffffffffffffffffffffffffffffffffffffffff1614151515611e3557600080fd5b600260008373ffffffffffffffffffffffffffffffffffffffff1673ffffffffffffffffffffffffffffffffffffffff168152602001908152602001600020549050919050565b6000601060009054906101000a900473ffffffffffffffffffffffffffffffffffffffff1673ffffffffffffffffffffffffffffffffffffffff163373ffffffffffffffffffffffffffffffffffffffff16141515611f69576040517f08c379a000000000000000000000000000000000000000000000000000000000815260040180806020018281038252602a8152602001807f4f6e6c7920746865207061636b2073616c6520636f6e74726163742063616e2081526020017f6d696e7420686572652e0000000000000000000000000000000000000000000081525060400191505060405180910390fd5b600f60008460ff1660ff16815260200190815260200160002060009054906101000a900460ff1615151561202b576040517f08c379a000000000000000000000000000000000000000000000000000000000815260040180806020018281038252602d8152602001807f43616e2774206d696e7420616e79206d6f7265206f662074686973206368656381526020017f6b6c697374206974656d2e2e2e0000000000000000000000000000000000000081525060400191505060405180910390fd5b6120358383613861565b905092915050565b600c6020528060005260406000206000915054906101000a900461ffff1681565b600060608560405160200180807f19457468657265756d205369676e6564204d6573736167653a0a333200000000815250601c01826000191660001916815260200191505060405160208183030381529060405290506001816040518082805190602001908083835b6020831015156120ec57805182526020820191506020810190506020830392506120c7565b6001836020036101000a0380198251168184511680821785525050505050509050019150506040518091039020868686604051600081526020016040526040518085600019166000191681526020018460ff1660ff1681526020018360001916600019168152602001826000191660001916815260200194505050505060206040516020810390808403906000865af115801561218d573d6000803e3d6000fd5b5050506020604051035173ffffffffffffffffffffffffffffffffffffffff168773ffffffffffffffffffffffffffffffffffffffff161491505095945050505050565b600e60009054906101000a900473ffffffffffffffffffffffffffffffffffffffff1673ffffffffffffffffffffffffffffffffffffffff163373ffffffffffffffffffffffffffffffffffffffff1614151561222d57600080fd5b601060149054906101000a900460ff1615151561224957600080fd5b6001601060146101000a81548160ff0219169083151502179055507f6985a02210a168e66602d3235cb6db0e70f92b3ba4d376a33c0f3d9434bff62560405160405180910390a1565b600e60009054906101000a900473ffffffffffffffffffffffffffffffffffffffff1681565b600b818154811015156122c757fe5b906000526020600020016000915090508060000160009054906101000a900467ffffffffffffffff16908060000160089054906101000a900460ff16908060000160099054906101000a900461ffff16905083565b600e60009054906101000a900473ffffffffffffffffffffffffffffffffffffffff1673ffffffffffffffffffffffffffffffffffffffff163373ffffffffffffffffffffffffffffffffffffffff1614151561237857600080fd5b80601060006101000a81548173ffffffffffffffffffffffffffffffffffffffff021916908373ffffffffffffffffffffffffffffffffffffffff16021790555050565b606060058054600181600116156101000203166002900480601f0160208091040260200160405190810160405280929190818152602001828054600181600116156101000203166002900480156124545780601f1061242957610100808354040283529160200191612454565b820191906000526020600020905b81548152906001019060200180831161243757829003601f168201915b5050505050905090565b60006060308787878787604051602001808773ffffffffffffffffffffffffffffffffffffffff1673ffffffffffffffffffffffffffffffffffffffff166c010000000000000000000000000281526014018673ffffffffffffffffffffffffffffffffffffffff1673ffffffffffffffffffffffffffffffffffffffff166c010000000000000000000000000281526014018581526020018473ffffffffffffffffffffffffffffffffffffffff1673ffffffffffffffffffffffffffffffffffffffff166c0100000000000000000000000002815260140183815260200182815260200196505050505050506040516020818303038152906040529050806040518082805190602001908083835b602083101515612593578051825260208201915060208101905060208303925061256e565b6001836020036101000a038019825116818451168082178552505050505050905001915050604051809103902091505095945050505050565b3373ffffffffffffffffffffffffffffffffffffffff168273ffffffffffffffffffffffffffffffffffffffff161415151561260757600080fd5b80600360003373ffffffffffffffffffffffffffffffffffffffff1673ffffffffffffffffffffffffffffffffffffffff16815260200190815260200160002060008473ffffffffffffffffffffffffffffffffffffffff1673ffffffffffffffffffffffffffffffffffffffff16815260200190815260200160002060006101000a81548160ff0219169083151502179055508173ffffffffffffffffffffffffffffffffffffffff163373ffffffffffffffffffffffffffffffffffffffff167f17307eab39ab6107e8899845ad3d59bd9653f200f220920489ca2b5937696c3183604051808215151515815260200191505060405180910390a35050565b816127133382613374565b151561271e57600080fd5b61272985858561135e565b61273585858585613b88565b151561274057600080fd5b5050505050565b601060009054906101000a900473ffffffffffffffffffffffffffffffffffffffff1681565b6060600073ffffffffffffffffffffffffffffffffffffffff16601260009054906101000a900473ffffffffffffffffffffffffffffffffffffffff1673ffffffffffffffffffffffffffffffffffffffff1614156127d6576127cf82613d76565b9050612978565b6127df826118ad565b1515612853576040517f08c379a00000000000000000000000000000000000000000000000000000000081526004018080602001828103825260148152602001807f4361726420646f6573206e6f742065786973742e00000000000000000000000081525060200191505060405180910390fd5b601260009054906101000a900473ffffffffffffffffffffffffffffffffffffffff1673ffffffffffffffffffffffffffffffffffffffff1663c87b56dd836040518263ffffffff167c010000000000000000000000000000000000000000000000000000000002815260040180828152602001915050600060405180830381600087803b1580156128e457600080fd5b505af11580156128f8573d6000803e3d6000fd5b505050506040513d6000823e3d601f19601f82011682018060405250602081101561292257600080fd5b81019080805164010000000081111561293a57600080fd5b8281019050602081018481111561295057600080fd5b815185600182028301116401000000008211171561296d57600080fd5b505092919050505090505b919050565b601260009054906101000a900473ffffffffffffffffffffffffffffffffffffffff1681565b600e60009054906101000a900473ffffffffffffffffffffffffffffffffffffffff1673ffffffffffffffffffffffffffffffffffffffff163373ffffffffffffffffffffffffffffffffffffffff161415156129ff57600080fd5b80601260006101000a81548173ffffffffffffffffffffffffffffffffffffffff021916908373ffffffffffffffffffffffffffffffffffffffff16021790555050565b6000600360008473ffffffffffffffffffffffffffffffffffffffff1673ffffffffffffffffffffffffffffffffffffffff16815260200190815260200160002060008373ffffffffffffffffffffffffffffffffffffffff1673ffffffffffffffffffffffffffffffffffffffff16815260200190815260200160002060009054906101000a900460ff16905092915050565b600e60009054906101000a900473ffffffffffffffffffffffffffffffffffffffff1673ffffffffffffffffffffffffffffffffffffffff163373ffffffffffffffffffffffffffffffffffffffff16141515612b3357600080fd5b600073ffffffffffffffffffffffffffffffffffffffff168173ffffffffffffffffffffffffffffffffffffffff1614151515612b6f57600080fd5b8073ffffffffffffffffffffffffffffffffffffffff16600e60009054906101000a900473ffffffffffffffffffffffffffffffffffffffff1673ffffffffffffffffffffffffffffffffffffffff167f8be0079c531659141344cd1fd0a4f28419497f9722a3daafe3b4186f6b6457e060405160405180910390a380600e60006101000a81548173ffffffffffffffffffffffffffffffffffffffff021916908373ffffffffffffffffffffffffffffffffffffffff16021790555050565b606080606060006060600080600660008973ffffffffffffffffffffffffffffffffffffffff1673ffffffffffffffffffffffffffffffffffffffff168152602001908152602001600020805480602002602001604051908101604052809291908181526020018280548015612cc457602002820191906000526020600020905b815481526020019060010190808311612cb0575b505050505094508451935083604051908082528060200260200182016040528015612cfe5781602001602082028038833980820191505090505b509250600091505b83821015612d83578482815181101515612d1c57fe5b906020019060200201519050600b81815481101515612d3757fe5b9060005260206000200160000160089054906101000a900460ff168383815181101515612d6057fe5b9060200190602002019060ff16908160ff16815250508180600101925050612d06565b8483965096505050505050915091565b6000601060149054906101000a900460ff16151515612db157600080fd5b3373ffffffffffffffffffffffffffffffffffffffff168a73ffffffffffffffffffffffffffffffffffffffff1614151515612e55576040517f08c379a000000000000000000000000000000000000000000000000000000000815260040180806020018281038252601e8152602001807f596f752063616e27742066696c6c20796f7572206f776e2074726164652e000081525060200191505060405180910390fd5b600073ffffffffffffffffffffffffffffffffffffffff168873ffffffffffffffffffffffffffffffffffffffff161480612ebb57503373ffffffffffffffffffffffffffffffffffffffff168873ffffffffffffffffffffffffffffffffffffffff16145b1515612f55576040517f08c379a000000000000000000000000000000000000000000000000000000000815260040180806020018281038252602a8152602001807f596f7520617265206e6f7420617574686f72697a656420746f2066696c6c207481526020017f6869732074726164652e0000000000000000000000000000000000000000000081525060400191505060405180910390fd5b600073ffffffffffffffffffffffffffffffffffffffff168873ffffffffffffffffffffffffffffffffffffffff1614156130585786600b86815481101515612f9a57fe5b9060005260206000200160000160089054906101000a900460ff1660ff16141515613053576040517f08c379a00000000000000000000000000000000000000000000000000000000081526004018080602001828103825260338152602001807f546865206361726420796f75207375626d6974746564206973206e6f7420766181526020017f6c696420666f7220746869732074726164652e0000000000000000000000000081525060400191505060405180910390fd5b6130f6565b86851415156130f5576040517f08c379a00000000000000000000000000000000000000000000000000000000081526004018080602001828103825260338152602001807f546865206361726420796f75207375626d6974746564206973206e6f7420766181526020017f6c696420666f7220746869732074726164652e0000000000000000000000000081525060400191505060405180910390fd5b5b6131038a8a8a8a8a61245e565b90506000600281111561311257fe5b60116000836000191660001916815260200190815260200160002060009054906101000a900460ff16600281111561314657fe5b1415156131bb576040517f08c379a000000000000000000000000000000000000000000000000000000000815260040180806020018281038252601e8152602001807f54686973207472616465206973206e6f206c6f6e6765722076616c69642e000081525060200191505060405180910390fd5b6131c88a8286868661205e565b151561323c576040517f08c379a00000000000000000000000000000000000000000000000000000000081526004018080602001828103825260118152602001807f496e76616c6964207369676e617475726500000000000000000000000000000081525060200191505060405180910390fd5b600160116000836000191660001916815260200190815260200160002060006101000a81548160ff0219169083600281111561327457fe5b021790555033600160008b815260200190815260200160002060006101000a81548173ffffffffffffffffffffffffffffffffffffffff021916908373ffffffffffffffffffffffffffffffffffffffff1602179055506132d68a338b611875565b6132e1338b87611875565b8973ffffffffffffffffffffffffffffffffffffffff1681600019167f1f8170be7599fb625e49243a6a16f5928d870c55a724bd212e3532eea8bf82c33388604051808373ffffffffffffffffffffffffffffffffffffffff1673ffffffffffffffffffffffffffffffffffffffff1681526020018281526020019250505060405180910390a350505050505050505050565b60008061338083611bac565b90508073ffffffffffffffffffffffffffffffffffffffff168473ffffffffffffffffffffffffffffffffffffffff1614806133ef57508373ffffffffffffffffffffffffffffffffffffffff166133d78461112e565b73ffffffffffffffffffffffffffffffffffffffff16145b8061340057506133ff8185612a43565b5b91505092915050565b8173ffffffffffffffffffffffffffffffffffffffff1661342982611bac565b73ffffffffffffffffffffffffffffffffffffffff1614151561344b57600080fd5b600073ffffffffffffffffffffffffffffffffffffffff166001600083815260200190815260200160002060009054906101000a900473ffffffffffffffffffffffffffffffffffffffff1673ffffffffffffffffffffffffffffffffffffffff1614151561356e5760006001600083815260200190815260200160002060006101000a81548173ffffffffffffffffffffffffffffffffffffffff021916908373ffffffffffffffffffffffffffffffffffffffff160217905550600073ffffffffffffffffffffffffffffffffffffffff168273ffffffffffffffffffffffffffffffffffffffff167f8c5be1e5ebec7d5bd14f71427d1e84f3dd0314c0f7b2291e5b200ac8c7c3b925836040518082815260200191505060405180910390a35b5050565b60008060006135818585613e3f565b600760008581526020019081526020016000205492506135ed6001600660008873ffffffffffffffffffffffffffffffffffffffff1673ffffffffffffffffffffffffffffffffffffffff16815260200190815260200160002080549050613f6d90919063ffffffff16565b9150600660008673ffffffffffffffffffffffffffffffffffffffff1673ffffffffffffffffffffffffffffffffffffffff1681526020019081526020016000208281548110151561363b57fe5b9060005260206000200154905080600660008773ffffffffffffffffffffffffffffffffffffffff1673ffffffffffffffffffffffffffffffffffffffff1681526020019081526020016000208481548110151561369557fe5b90600052602060002001819055506000600660008773ffffffffffffffffffffffffffffffffffffffff1673ffffffffffffffffffffffffffffffffffffffff168152602001908152602001600020838154811015156136f157fe5b9060005260206000200181905550600660008673ffffffffffffffffffffffffffffffffffffffff1673ffffffffffffffffffffffffffffffffffffffff1681526020019081526020016000208054809190600190036137519190614214565b50600060076000868152602001908152602001600020819055508260076000838152602001908152602001600020819055505050505050565b60006137968383613f86565b600660008473ffffffffffffffffffffffffffffffffffffffff1673ffffffffffffffffffffffffffffffffffffffff168152602001908152602001600020805490509050600660008473ffffffffffffffffffffffffffffffffffffffff1673ffffffffffffffffffffffffffffffffffffffff168152602001908152602001600020829080600181540180825580915050906001820390600052602060002001600090919290919091505550806007600084815260200190815260200160002081905550505050565b600080600061386e614240565b6000600d60009054906101000a900473ffffffffffffffffffffffffffffffffffffffff1673ffffffffffffffffffffffffffffffffffffffff1663303d0870886040518263ffffffff167c0100000000000000000000000000000000000000000000000000000000028152600401808260ff1660ff168152602001915050602060405180830381600087803b15801561390757600080fd5b505af115801561391b573d6000803e3d6000fd5b505050506040513d602081101561393157600080fd5b8101908080519060200190929190505050935060008461ffff16148061398557508361ffff16600c60008960ff1660ff16815260200190815260200160002060009054906101000a900461ffff1661ffff16105b1515613a1f576040517f08c379a00000000000000000000000000000000000000000000000000000000081526004018080602001828103825260218152602001807f43616e2774206d696e7420616e79206d6f7265206f662074686973206361726481526020017f210000000000000000000000000000000000000000000000000000000000000081525060400191505060405180910390fd5b600c60008860ff1660ff168152602001908152602001600020600081819054906101000a900461ffff1660010191906101000a81548161ffff021916908361ffff160217905592506060604051908101604052804267ffffffffffffffff1681526020018860ff1681526020018461ffff1681525091506001600b8390806001815401808255809150509060018203906000526020600020016000909192909190915060008201518160000160006101000a81548167ffffffffffffffff021916908367ffffffffffffffff16021790555060208201518160000160086101000a81548160ff021916908360ff16021790555060408201518160000160096101000a81548161ffff021916908361ffff16021790555050500390507f220b53d3db6f7694ac363d118b95866fad85b0e6b18b77cbe36eb044996994a0816040518082815260200191505060405180910390a1613b7b86826140de565b8094505050505092915050565b600080613baa8573ffffffffffffffffffffffffffffffffffffffff16614135565b1515613bb95760019150613d6d565b8473ffffffffffffffffffffffffffffffffffffffff1663f0b9e5ba8786866040518463ffffffff167c0100000000000000000000000000000000000000000000000000000000028152600401808473ffffffffffffffffffffffffffffffffffffffff1673ffffffffffffffffffffffffffffffffffffffff16815260200183815260200180602001828103825283818151815260200191508051906020019080838360005b83811015613c7b578082015181840152602081019050613c60565b50505050905090810190601f168015613ca85780820380516001836020036101000a031916815260200191505b50945050505050602060405180830381600087803b158015613cc957600080fd5b505af1158015613cdd573d6000803e3d6000fd5b505050506040513d6020811015613cf357600080fd5b8101908080519060200190929190505050905063f0b9e5ba7c0100000000000000000000000000000000000000000000000000000000027bffffffffffffffffffffffffffffffffffffffffffffffffffffffff1916817bffffffffffffffffffffffffffffffffffffffffffffffffffffffff19161491505b50949350505050565b6060613d81826118ad565b1515613d8c57600080fd5b600a60008381526020019081526020016000208054600181600116156101000203166002900480601f016020809104026020016040519081016040528092919081815260200182805460018160011615610100020316600290048015613e335780601f10613e0857610100808354040283529160200191613e33565b820191906000526020600020905b815481529060010190602001808311613e1657829003601f168201915b50505050509050919050565b8173ffffffffffffffffffffffffffffffffffffffff16613e5f82611bac565b73ffffffffffffffffffffffffffffffffffffffff16141515613e8157600080fd5b613ed46001600260008573ffffffffffffffffffffffffffffffffffffffff1673ffffffffffffffffffffffffffffffffffffffff16815260200190815260200160002054613f6d90919063ffffffff16565b600260008473ffffffffffffffffffffffffffffffffffffffff1673ffffffffffffffffffffffffffffffffffffffff16815260200190815260200160002081905550600080600083815260200190815260200160002060006101000a81548173ffffffffffffffffffffffffffffffffffffffff021916908373ffffffffffffffffffffffffffffffffffffffff1602179055505050565b6000828211151515613f7b57fe5b818303905092915050565b600073ffffffffffffffffffffffffffffffffffffffff1660008083815260200190815260200160002060009054906101000a900473ffffffffffffffffffffffffffffffffffffffff1673ffffffffffffffffffffffffffffffffffffffff16141515613ff357600080fd5b8160008083815260200190815260200160002060006101000a81548173ffffffffffffffffffffffffffffffffffffffff021916908373ffffffffffffffffffffffffffffffffffffffff1602179055506140976001600260008573ffffffffffffffffffffffffffffffffffffffff1673ffffffffffffffffffffffffffffffffffffffff1681526020019081526020016000205461414890919063ffffffff16565b600260008473ffffffffffffffffffffffffffffffffffffffff1673ffffffffffffffffffffffffffffffffffffffff168152602001908152602001600020819055505050565b6140e88282614164565b600880549050600960008381526020019081526020016000208190555060088190806001815401808255809150509060018203906000526020600020016000909192909190915055505050565b600080823b905060008111915050919050565b6000818301905082811015151561415b57fe5b80905092915050565b600073ffffffffffffffffffffffffffffffffffffffff168273ffffffffffffffffffffffffffffffffffffffff16141515156141a057600080fd5b6141aa828261378a565b8173ffffffffffffffffffffffffffffffffffffffff16600073ffffffffffffffffffffffffffffffffffffffff167fddf252ad1be2c89b69c2b068fc378daa952ba7f163c4a11628f55a4df523b3ef836040518082815260200191505060405180910390a35050565b81548183558181111561423b5781836000526020600020918201910161423a9190614273565b5b505050565b606060405190810160405280600067ffffffffffffffff168152602001600060ff168152602001600061ffff1681525090565b61429591905b80821115614291576000816000905550600101614279565b5090565b905600a165627a7a72305820a36b2528ef89f26ee6412821dd0b29527463b1b3220f5f647d857e3d622b47a00029",
  "source": "pragma solidity ^0.4.24;\n\nimport \"./StrikersMetadata.sol\";\nimport \"./StrikersTrading.sol\";\n\n/// @title The main, ERC721-compliant CryptoStrikers contract.\n/// @author The CryptoStrikers Team\ncontract StrikersCore is StrikersTrading {\n\n  /// @dev An external metadata contract that the owner can upgrade.\n  StrikersMetadata public strikersMetadata;\n\n  /// @dev We initialize the CryptoStrikers game with an immutable checklist that oversees card rarity.\n  constructor(address _checklistAddress) public {\n    strikersChecklist = StrikersChecklist(_checklistAddress);\n  }\n\n  /// @dev Allows the contract owner to update the metadata contract.\n  function setMetadataContract(address _contractAddress) external onlyOwner {\n    strikersMetadata = StrikersMetadata(_contractAddress);\n  }\n\n  /// @dev If we've set an external metadata contract, use that.\n  function tokenURI(uint256 _tokenId) public view returns (string) {\n    if (strikersMetadata == address(0)) {\n      return super.tokenURI(_tokenId);\n    }\n\n    require(exists(_tokenId), \"Card does not exist.\");\n    return strikersMetadata.tokenURI(_tokenId);\n  }\n}\n",
  "sourcePath": "/Users/GiaSet/Desktop/Projects/cryptostrikers/contracts/StrikersCore.sol",
  "compiler": {
    "name": "solc",
    "version": "0.4.24+commit.e67f0147.Emscripten.clang"
  },
  "schemaVersion": "2.0.0",
  "updatedAt": "2018-06-01T11:55:53.963Z"
}