{
  "contractName": "StrikersPackSale",
  "abi": [
    {
      "constant": false,
      "inputs": [
        {
          "name": "_premium",
          "type": "bool"
        },
        {
          "name": "_addrs",
          "type": "address[]"
        }
      ],
      "name": "addAddressesToWhitelist",
      "outputs": [],
      "payable": false,
      "stateMutability": "nonpayable",
      "type": "function"
    },
    {
      "constant": false,
      "inputs": [],
      "name": "claimBonusCard",
      "outputs": [],
      "payable": false,
      "stateMutability": "nonpayable",
      "type": "function"
    },
    {
      "constant": true,
      "inputs": [
        {
          "name": "",
          "type": "uint256"
        }
      ],
      "name": "currentWhitelistCounts",
      "outputs": [
        {
          "name": "",
          "type": "uint16"
        }
      ],
      "payable": false,
      "stateMutability": "view",
      "type": "function"
    },
    {
      "constant": false,
      "inputs": [
        {
          "name": "_premium",
          "type": "bool"
        },
        {
          "name": "_addr",
          "type": "address"
        },
        {
          "name": "_additionalPacks",
          "type": "uint8"
        }
      ],
      "name": "addToWhitelistAllocation",
      "outputs": [],
      "payable": false,
      "stateMutability": "nonpayable",
      "type": "function"
    },
    {
      "constant": false,
      "inputs": [
        {
          "name": "_featuredChecklistItem",
          "type": "uint8"
        },
        {
          "name": "_packPrice",
          "type": "uint256"
        }
      ],
      "name": "modifyNextPremiumSale",
      "outputs": [],
      "payable": false,
      "stateMutability": "nonpayable",
      "type": "function"
    },
    {
      "constant": true,
      "inputs": [],
      "name": "PERCENT_COMMISSION",
      "outputs": [
        {
          "name": "",
          "type": "uint256"
        }
      ],
      "payable": false,
      "stateMutability": "view",
      "type": "function"
    },
    {
      "constant": true,
      "inputs": [],
      "name": "kittiesContract",
      "outputs": [
        {
          "name": "",
          "type": "address"
        }
      ],
      "payable": false,
      "stateMutability": "view",
      "type": "function"
    },
    {
      "constant": false,
      "inputs": [],
      "name": "claimFreeReferralPack",
      "outputs": [],
      "payable": false,
      "stateMutability": "nonpayable",
      "type": "function"
    },
    {
      "constant": true,
      "inputs": [],
      "name": "PACK_SIZE",
      "outputs": [
        {
          "name": "",
          "type": "uint8"
        }
      ],
      "payable": false,
      "stateMutability": "view",
      "type": "function"
    },
    {
      "constant": false,
      "inputs": [],
      "name": "withdrawCommission",
      "outputs": [],
      "payable": false,
      "stateMutability": "nonpayable",
      "type": "function"
    },
    {
      "constant": false,
      "inputs": [],
      "name": "unpause",
      "outputs": [],
      "payable": false,
      "stateMutability": "nonpayable",
      "type": "function"
    },
    {
      "constant": true,
      "inputs": [],
      "name": "freeReferralPacksClaimed",
      "outputs": [
        {
          "name": "",
          "type": "uint16"
        }
      ],
      "payable": false,
      "stateMutability": "view",
      "type": "function"
    },
    {
      "constant": true,
      "inputs": [],
      "name": "KITTY_BURN_LIMIT",
      "outputs": [
        {
          "name": "",
          "type": "uint16"
        }
      ],
      "payable": false,
      "stateMutability": "view",
      "type": "function"
    },
    {
      "constant": false,
      "inputs": [
        {
          "name": "_premium",
          "type": "bool"
        }
      ],
      "name": "claimWhitelistPack",
      "outputs": [],
      "payable": false,
      "stateMutability": "nonpayable",
      "type": "function"
    },
    {
      "constant": true,
      "inputs": [
        {
          "name": "",
          "type": "address"
        }
      ],
      "name": "referrers",
      "outputs": [
        {
          "name": "",
          "type": "address"
        }
      ],
      "payable": false,
      "stateMutability": "view",
      "type": "function"
    },
    {
      "constant": true,
      "inputs": [],
      "name": "totalWeiRaised",
      "outputs": [
        {
          "name": "",
          "type": "uint256"
        }
      ],
      "payable": false,
      "stateMutability": "view",
      "type": "function"
    },
    {
      "constant": true,
      "inputs": [
        {
          "name": "",
          "type": "address"
        }
      ],
      "name": "bonusCardsClaimed",
      "outputs": [
        {
          "name": "",
          "type": "uint8"
        }
      ],
      "payable": false,
      "stateMutability": "view",
      "type": "function"
    },
    {
      "constant": true,
      "inputs": [],
      "name": "currentPremiumSale",
      "outputs": [
        {
          "name": "id",
          "type": "uint8"
        },
        {
          "name": "featuredChecklistItem",
          "type": "uint8"
        },
        {
          "name": "packPrice",
          "type": "uint256"
        },
        {
          "name": "packsLoaded",
          "type": "uint32"
        },
        {
          "name": "packsSold",
          "type": "uint32"
        }
      ],
      "payable": false,
      "stateMutability": "view",
      "type": "function"
    },
    {
      "constant": true,
      "inputs": [],
      "name": "paused",
      "outputs": [
        {
          "name": "",
          "type": "bool"
        }
      ],
      "payable": false,
      "stateMutability": "view",
      "type": "function"
    },
    {
      "constant": true,
      "inputs": [
        {
          "name": "",
          "type": "uint256"
        }
      ],
      "name": "whitelistLimits",
      "outputs": [
        {
          "name": "",
          "type": "uint16"
        }
      ],
      "payable": false,
      "stateMutability": "view",
      "type": "function"
    },
    {
      "constant": true,
      "inputs": [
        {
          "name": "",
          "type": "address"
        }
      ],
      "name": "referralSaleCount",
      "outputs": [
        {
          "name": "",
          "type": "uint16"
        }
      ],
      "payable": false,
      "stateMutability": "view",
      "type": "function"
    },
    {
      "constant": false,
      "inputs": [
        {
          "name": "_packPrice",
          "type": "uint256"
        }
      ],
      "name": "setStandardPackPrice",
      "outputs": [],
      "payable": false,
      "stateMutability": "nonpayable",
      "type": "function"
    },
    {
      "constant": false,
      "inputs": [],
      "name": "pause",
      "outputs": [],
      "payable": false,
      "stateMutability": "nonpayable",
      "type": "function"
    },
    {
      "constant": true,
      "inputs": [],
      "name": "MAX_NUMBER_OF_PREMIUM_SALES",
      "outputs": [
        {
          "name": "",
          "type": "uint8"
        }
      ],
      "payable": false,
      "stateMutability": "view",
      "type": "function"
    },
    {
      "constant": true,
      "inputs": [],
      "name": "owner",
      "outputs": [
        {
          "name": "",
          "type": "address"
        }
      ],
      "payable": false,
      "stateMutability": "view",
      "type": "function"
    },
    {
      "constant": true,
      "inputs": [
        {
          "name": "",
          "type": "address"
        }
      ],
      "name": "referralCommissionClaimed",
      "outputs": [
        {
          "name": "",
          "type": "uint256"
        }
      ],
      "payable": false,
      "stateMutability": "view",
      "type": "function"
    },
    {
      "constant": true,
      "inputs": [],
      "name": "totalCommissionOwed",
      "outputs": [
        {
          "name": "",
          "type": "uint256"
        }
      ],
      "payable": false,
      "stateMutability": "view",
      "type": "function"
    },
    {
      "constant": true,
      "inputs": [
        {
          "name": "",
          "type": "address"
        }
      ],
      "name": "packsBought",
      "outputs": [
        {
          "name": "",
          "type": "uint16"
        }
      ],
      "payable": false,
      "stateMutability": "view",
      "type": "function"
    },
    {
      "constant": false,
      "inputs": [
        {
          "name": "_newPacks",
          "type": "uint32[]"
        }
      ],
      "name": "addPacksToNextPremiumSale",
      "outputs": [],
      "payable": false,
      "stateMutability": "nonpayable",
      "type": "function"
    },
    {
      "constant": true,
      "inputs": [],
      "name": "saleCount",
      "outputs": [
        {
          "name": "",
          "type": "uint8"
        }
      ],
      "payable": false,
      "stateMutability": "view",
      "type": "function"
    },
    {
      "constant": true,
      "inputs": [],
      "name": "nextPremiumSale",
      "outputs": [
        {
          "name": "id",
          "type": "uint8"
        },
        {
          "name": "featuredChecklistItem",
          "type": "uint8"
        },
        {
          "name": "packPrice",
          "type": "uint256"
        },
        {
          "name": "packsLoaded",
          "type": "uint32"
        },
        {
          "name": "packsSold",
          "type": "uint32"
        }
      ],
      "payable": false,
      "stateMutability": "view",
      "type": "function"
    },
    {
      "constant": true,
      "inputs": [],
      "name": "MAX_STANDARD_SALE_PACKS",
      "outputs": [
        {
          "name": "",
          "type": "uint32"
        }
      ],
      "payable": false,
      "stateMutability": "view",
      "type": "function"
    },
    {
      "constant": true,
      "inputs": [],
      "name": "PREMIUM_SALE_PACK_COUNT",
      "outputs": [
        {
          "name": "",
          "type": "uint16"
        }
      ],
      "payable": false,
      "stateMutability": "view",
      "type": "function"
    },
    {
      "constant": false,
      "inputs": [],
      "name": "startStandardSale",
      "outputs": [],
      "payable": false,
      "stateMutability": "nonpayable",
      "type": "function"
    },
    {
      "constant": true,
      "inputs": [
        {
          "name": "",
          "type": "uint256"
        }
      ],
      "name": "bonusCards",
      "outputs": [
        {
          "name": "",
          "type": "uint8"
        }
      ],
      "payable": false,
      "stateMutability": "view",
      "type": "function"
    },
    {
      "constant": true,
      "inputs": [
        {
          "name": "",
          "type": "uint256"
        },
        {
          "name": "",
          "type": "address"
        }
      ],
      "name": "whitelists",
      "outputs": [
        {
          "name": "",
          "type": "uint8"
        }
      ],
      "payable": false,
      "stateMutability": "view",
      "type": "function"
    },
    {
      "constant": false,
      "inputs": [
        {
          "name": "_featuredChecklistItem",
          "type": "uint8"
        },
        {
          "name": "_packPrice",
          "type": "uint256"
        }
      ],
      "name": "createNextPremiumSale",
      "outputs": [],
      "payable": false,
      "stateMutability": "nonpayable",
      "type": "function"
    },
    {
      "constant": true,
      "inputs": [],
      "name": "mintingContract",
      "outputs": [
        {
          "name": "",
          "type": "address"
        }
      ],
      "payable": false,
      "stateMutability": "view",
      "type": "function"
    },
    {
      "constant": true,
      "inputs": [
        {
          "name": "",
          "type": "address"
        }
      ],
      "name": "referralCommissionEarned",
      "outputs": [
        {
          "name": "",
          "type": "uint256"
        }
      ],
      "payable": false,
      "stateMutability": "view",
      "type": "function"
    },
    {
      "constant": true,
      "inputs": [],
      "name": "standardSale",
      "outputs": [
        {
          "name": "id",
          "type": "uint8"
        },
        {
          "name": "featuredChecklistItem",
          "type": "uint8"
        },
        {
          "name": "packPrice",
          "type": "uint256"
        },
        {
          "name": "packsLoaded",
          "type": "uint32"
        },
        {
          "name": "packsSold",
          "type": "uint32"
        }
      ],
      "payable": false,
      "stateMutability": "view",
      "type": "function"
    },
    {
      "constant": true,
      "inputs": [
        {
          "name": "",
          "type": "address"
        }
      ],
      "name": "hasClaimedFreeReferralPack",
      "outputs": [
        {
          "name": "",
          "type": "bool"
        }
      ],
      "payable": false,
      "stateMutability": "view",
      "type": "function"
    },
    {
      "constant": false,
      "inputs": [],
      "name": "startNextPremiumSale",
      "outputs": [],
      "payable": false,
      "stateMutability": "nonpayable",
      "type": "function"
    },
    {
      "constant": false,
      "inputs": [
        {
          "name": "_newPacks",
          "type": "uint32[]"
        }
      ],
      "name": "addPacksToStandardSale",
      "outputs": [],
      "payable": false,
      "stateMutability": "nonpayable",
      "type": "function"
    },
    {
      "constant": true,
      "inputs": [],
      "name": "totalKittiesBurned",
      "outputs": [
        {
          "name": "",
          "type": "uint16"
        }
      ],
      "payable": false,
      "stateMutability": "view",
      "type": "function"
    },
    {
      "constant": false,
      "inputs": [
        {
          "name": "newOwner",
          "type": "address"
        }
      ],
      "name": "transferOwnership",
      "outputs": [],
      "payable": false,
      "stateMutability": "nonpayable",
      "type": "function"
    },
    {
      "constant": true,
      "inputs": [],
      "name": "MAX_FREE_REFERRAL_PACKS",
      "outputs": [
        {
          "name": "",
          "type": "uint16"
        }
      ],
      "payable": false,
      "stateMutability": "view",
      "type": "function"
    },
    {
      "inputs": [
        {
          "name": "_standardPackPrice",
          "type": "uint256"
        },
        {
          "name": "_kittiesContractAddress",
          "type": "address"
        },
        {
          "name": "_mintingContractAddress",
          "type": "address"
        }
      ],
      "payable": false,
      "stateMutability": "nonpayable",
      "type": "constructor"
    },
    {
      "anonymous": false,
      "inputs": [
        {
          "indexed": false,
          "name": "user",
          "type": "address"
        },
        {
          "indexed": false,
          "name": "kittyId",
          "type": "uint256"
        }
      ],
      "name": "KittyBurned",
      "type": "event"
    },
    {
      "anonymous": false,
      "inputs": [
        {
          "indexed": true,
          "name": "referrer",
          "type": "address"
        },
        {
          "indexed": false,
          "name": "buyer",
          "type": "address"
        },
        {
          "indexed": false,
          "name": "amount",
          "type": "uint256"
        }
      ],
      "name": "SaleAttributed",
      "type": "event"
    },
    {
      "anonymous": false,
      "inputs": [
        {
          "indexed": true,
          "name": "user",
          "type": "address"
        },
        {
          "indexed": false,
          "name": "amount",
          "type": "uint16"
        },
        {
          "indexed": false,
          "name": "premium",
          "type": "bool"
        }
      ],
      "name": "WhitelistAllocationIncreased",
      "type": "event"
    },
    {
      "anonymous": false,
      "inputs": [
        {
          "indexed": true,
          "name": "user",
          "type": "address"
        },
        {
          "indexed": false,
          "name": "premium",
          "type": "bool"
        }
      ],
      "name": "WhitelistAllocationUsed",
      "type": "event"
    },
    {
      "anonymous": false,
      "inputs": [
        {
          "indexed": true,
          "name": "buyer",
          "type": "address"
        },
        {
          "indexed": false,
          "name": "pack",
          "type": "uint256[]"
        }
      ],
      "name": "PackBought",
      "type": "event"
    },
    {
      "anonymous": false,
      "inputs": [
        {
          "indexed": true,
          "name": "saleId",
          "type": "uint8"
        },
        {
          "indexed": false,
          "name": "packs",
          "type": "uint32[]"
        }
      ],
      "name": "PacksLoaded",
      "type": "event"
    },
    {
      "anonymous": false,
      "inputs": [
        {
          "indexed": false,
          "name": "saleId",
          "type": "uint8"
        },
        {
          "indexed": false,
          "name": "packPrice",
          "type": "uint256"
        },
        {
          "indexed": false,
          "name": "featuredChecklistItem",
          "type": "uint8"
        }
      ],
      "name": "SaleStarted",
      "type": "event"
    },
    {
      "anonymous": false,
      "inputs": [
        {
          "indexed": false,
          "name": "packPrice",
          "type": "uint256"
        }
      ],
      "name": "StandardPackPriceChanged",
      "type": "event"
    },
    {
      "anonymous": false,
      "inputs": [],
      "name": "Pause",
      "type": "event"
    },
    {
      "anonymous": false,
      "inputs": [],
      "name": "Unpause",
      "type": "event"
    },
    {
      "anonymous": false,
      "inputs": [
        {
          "indexed": true,
          "name": "previousOwner",
          "type": "address"
        },
        {
          "indexed": true,
          "name": "newOwner",
          "type": "address"
        }
      ],
      "name": "OwnershipTransferred",
      "type": "event"
    },
    {
      "constant": false,
      "inputs": [
        {
          "name": "_referrer",
          "type": "address"
        },
        {
          "name": "_premium",
          "type": "bool"
        }
      ],
      "name": "buyFirstPackFromReferral",
      "outputs": [],
      "payable": true,
      "stateMutability": "payable",
      "type": "function"
    },
    {
      "constant": false,
      "inputs": [
        {
          "name": "_premium",
          "type": "bool"
        }
      ],
      "name": "buyPackWithETH",
      "outputs": [],
      "payable": true,
      "stateMutability": "payable",
      "type": "function"
    },
    {
      "constant": false,
      "inputs": [
        {
          "name": "_kittyId",
          "type": "uint256"
        }
      ],
      "name": "buyPackWithKitty",
      "outputs": [],
      "payable": false,
      "stateMutability": "nonpayable",
      "type": "function"
    },
    {
      "constant": false,
      "inputs": [],
      "name": "withdrawBalance",
      "outputs": [],
      "payable": false,
      "stateMutability": "nonpayable",
      "type": "function"
    }
  ],
  "bytecode": "0x608060405260008060146101000a81548160ff021916908315150217905550604080519081016040528061138861ffff1681526020016101f461ffff168152506010906002620000519291906200037a565b5061010060405190810160405280607360ff168152602001607f60ff168152602001607a60ff168152602001608260ff168152602001607460ff168152602001607b60ff168152602001607960ff168152602001608360ff168152506014906008620000bf9291906200041e565b50348015620000cd57600080fd5b50604051606080620049d683398101806040528101908080519060200190929190805190602001909291908051906020019092919050505082336000806101000a81548173ffffffffffffffffffffffffffffffffffffffff021916908373ffffffffffffffffffffffffffffffffffffffff1602179055506001600060146101000a81548160ff0219169083151502179055506200017b8162000239640100000000026401000000009004565b600e600081819054906101000a900460ff168092919060010191906101000a81548160ff021916908360ff160217905550505081601e60006101000a81548173ffffffffffffffffffffffffffffffffffffffff021916908373ffffffffffffffffffffffffffffffffffffffff16021790555080600160006101000a81548173ffffffffffffffffffffffffffffffffffffffff021916908373ffffffffffffffffffffffffffffffffffffffff16021790555050505062000533565b6000809054906101000a900473ffffffffffffffffffffffffffffffffffffffff1673ffffffffffffffffffffffffffffffffffffffff163373ffffffffffffffffffffffffffffffffffffffff161415156200029557600080fd5b8060008111151562000335576040517f08c379a00000000000000000000000000000000000000000000000000000000081526004018080602001828103825260348152602001807f46726565207061636b7320617265206f6e6c7920617661696c61626c6520746881526020017f726f756768207468652077686974656c6973742e00000000000000000000000081525060400191505060405180910390fd5b816002600101819055507ff5e9907ba672c6a37e1d3b463a333cd517a16fd547860bc43eaabf0e03bdd9c6826040518082815260200191505060405180910390a15050565b826002600f016010900481019282156200040b5791602002820160005b83821115620003d957835183826101000a81548161ffff021916908361ffff160217905550926020019260020160208160010104928301926001030262000397565b8015620004095782816101000a81549061ffff0219169055600201602081600101049283019260010302620003d9565b505b5090506200041a9190620004cc565b5090565b82805482825590600052602060002090601f01602090048101928215620004b95791602002820160005b838211156200048857835183826101000a81548160ff021916908360ff160217905550926020019260010160208160000104928301926001030262000448565b8015620004b75782816101000a81549060ff021916905560010160208160000104928301926001030262000488565b505b509050620004c8919062000500565b5090565b620004fd91905b80821115620004f957600081816101000a81549061ffff021916905550600101620004d3565b5090565b90565b6200053091905b808211156200052c57600081816101000a81549060ff02191690555060010162000507565b5090565b90565b61449380620005436000396000f30060806040526004361061025c576000357c0100000000000000000000000000000000000000000000000000000000900463ffffffff1680630c34f8a514610261578063155f1861146102a8578063273fa8d8146102bf5780632c511788146103085780632c6e38d0146103645780632f0042181461039e5780633432000c146103c9578063374bfba7146104205780633d0c9cc4146104375780633e25e837146104685780633f4ba83a1461047f57806342974b1e14610496578063437b1a1d146104c95780634425c0eb146104fc5780634a3b68cc1461052b57806353f4db01146105ae57806356e103ed146105d957806358c75136146106365780635c975abb146106a15780635fd8c710146106d057806367aa0803146106e757806378ec47aa146107305780638328e0321461078f5780638456cb59146107bc5780638c02d13f146107d35780638da5cb5b146108045780638e7dd88f1461085b5780638fbea5c9146108b2578063970267cc146108dd578063a0b31d581461093c578063a1e89aec14610977578063a1f54adf146109a8578063ac280cb914610a13578063b49593fe14610a4a578063b6c32d7114610a7d578063c2d7f17f14610a94578063c456847214610adb578063c61c3c4b14610b42578063ce4e8c1a14610b64578063d2f6f67d14610b9e578063d57b09ab14610bf5578063dc1eab8314610c4c578063e018c36c14610cb7578063e1745e0614610cf9578063e22ad51814610d54578063e3a94e9f14610d6b578063e470ddf814610da6578063e927da3f14610dd9578063f2fde38b14610e06578063f6f9173714610e49575b600080fd5b34801561026d57600080fd5b506102a6600480360381019080803515159060200190929190803590602001908201803590602001919091929391929390505050610e7c565b005b3480156102b457600080fd5b506102bd610f32565b005b3480156102cb57600080fd5b506102ea600480360381019080803590602001909291905050506112cf565b604051808261ffff1661ffff16815260200191505060405180910390f35b34801561031457600080fd5b50610362600480360381019080803515159060200190929190803573ffffffffffffffffffffffffffffffffffffffff169060200190929190803560ff1690602001909291905050506112fc565b005b34801561037057600080fd5b5061039c600480360381019080803560ff1690602001909291908035906020019092919050505061150c565b005b3480156103aa57600080fd5b506103b36116d6565b6040518082815260200191505060405180910390f35b3480156103d557600080fd5b506103de6116db565b604051808273ffffffffffffffffffffffffffffffffffffffff1673ffffffffffffffffffffffffffffffffffffffff16815260200191505060405180910390f35b34801561042c57600080fd5b50610435611701565b005b34801561044357600080fd5b5061044c611ba4565b604051808260ff1660ff16815260200191505060405180910390f35b34801561047457600080fd5b5061047d611ba9565b005b34801561048b57600080fd5b50610494611d73565b005b3480156104a257600080fd5b506104ab611e31565b604051808261ffff1661ffff16815260200191505060405180910390f35b3480156104d557600080fd5b506104de611e45565b604051808261ffff1661ffff16815260200191505060405180910390f35b34801561050857600080fd5b50610529600480360381019080803515159060200190929190505050611e4b565b005b34801561053757600080fd5b5061056c600480360381019080803573ffffffffffffffffffffffffffffffffffffffff16906020019092919050505061204f565b604051808273ffffffffffffffffffffffffffffffffffffffff1673ffffffffffffffffffffffffffffffffffffffff16815260200191505060405180910390f35b3480156105ba57600080fd5b506105c3612082565b6040518082815260200191505060405180910390f35b3480156105e557600080fd5b5061061a600480360381019080803573ffffffffffffffffffffffffffffffffffffffff169060200190929190505050612088565b604051808260ff1660ff16815260200191505060405180910390f35b34801561064257600080fd5b5061064b6120a8565b604051808660ff1660ff1681526020018560ff1660ff1681526020018481526020018363ffffffff1663ffffffff1681526020018263ffffffff1663ffffffff1681526020019550505050505060405180910390f35b3480156106ad57600080fd5b506106b6612106565b604051808215151515815260200191505060405180910390f35b3480156106dc57600080fd5b506106e5612119565b005b3480156106f357600080fd5b506107126004803603810190808035906020019092919050505061229e565b604051808261ffff1661ffff16815260200191505060405180910390f35b34801561073c57600080fd5b50610771600480360381019080803573ffffffffffffffffffffffffffffffffffffffff1690602001909291905050506122cb565b604051808261ffff1661ffff16815260200191505060405180910390f35b34801561079b57600080fd5b506107ba600480360381019080803590602001909291905050506122ec565b005b3480156107c857600080fd5b506107d161242b565b005b3480156107df57600080fd5b506107e86124eb565b604051808260ff1660ff16815260200191505060405180910390f35b34801561081057600080fd5b506108196124f0565b604051808273ffffffffffffffffffffffffffffffffffffffff1673ffffffffffffffffffffffffffffffffffffffff16815260200191505060405180910390f35b34801561086757600080fd5b5061089c600480360381019080803573ffffffffffffffffffffffffffffffffffffffff169060200190929190505050612515565b6040518082815260200191505060405180910390f35b3480156108be57600080fd5b506108c761252d565b6040518082815260200191505060405180910390f35b3480156108e957600080fd5b5061091e600480360381019080803573ffffffffffffffffffffffffffffffffffffffff169060200190929190505050612533565b604051808261ffff1661ffff16815260200191505060405180910390f35b34801561094857600080fd5b50610975600480360381019080803590602001908201803590602001919091929391929390505050612554565b005b34801561098357600080fd5b5061098c612754565b604051808260ff1660ff16815260200191505060405180910390f35b3480156109b457600080fd5b506109bd612767565b604051808660ff1660ff1681526020018560ff1660ff1681526020018481526020018363ffffffff1663ffffffff1681526020018263ffffffff1663ffffffff1681526020019550505050505060405180910390f35b348015610a1f57600080fd5b50610a286127c5565b604051808263ffffffff1663ffffffff16815260200191505060405180910390f35b348015610a5657600080fd5b50610a5f6127cc565b604051808261ffff1661ffff16815260200191505060405180910390f35b348015610a8957600080fd5b50610a926127d2565b005b348015610aa057600080fd5b50610abf6004803603810190808035906020019092919050505061296c565b604051808260ff1660ff16815260200191505060405180910390f35b348015610ae757600080fd5b50610b2660048036038101908080359060200190929190803573ffffffffffffffffffffffffffffffffffffffff16906020019092919050505061299f565b604051808260ff1660ff16815260200191505060405180910390f35b610b626004803603810190808035151590602001909291905050506129d0565b005b348015610b7057600080fd5b50610b9c600480360381019080803560ff16906020019092919080359060200190929190505050612b6c565b005b348015610baa57600080fd5b50610bb3612eeb565b604051808273ffffffffffffffffffffffffffffffffffffffff1673ffffffffffffffffffffffffffffffffffffffff16815260200191505060405180910390f35b348015610c0157600080fd5b50610c36600480360381019080803573ffffffffffffffffffffffffffffffffffffffff169060200190929190505050612f11565b6040518082815260200191505060405180910390f35b348015610c5857600080fd5b50610c61612f29565b604051808660ff1660ff1681526020018560ff1660ff1681526020018481526020018363ffffffff1663ffffffff1681526020018263ffffffff1663ffffffff1681526020019550505050505060405180910390f35b610cf7600480360381019080803573ffffffffffffffffffffffffffffffffffffffff169060200190929190803515159060200190929190505050612f87565b005b348015610d0557600080fd5b50610d3a600480360381019080803573ffffffffffffffffffffffffffffffffffffffff169060200190929190505050613101565b604051808215151515815260200191505060405180910390f35b348015610d6057600080fd5b50610d69613121565b005b348015610d7757600080fd5b50610da46004803603810190808035906020019082018035906020019190919293919293905050506134a8565b005b348015610db257600080fd5b50610dbb61360e565b604051808261ffff1661ffff16815260200191505060405180910390f35b348015610de557600080fd5b50610e0460048036038101908080359060200190929190505050613622565b005b348015610e1257600080fd5b50610e47600480360381019080803573ffffffffffffffffffffffffffffffffffffffff169060200190929190505050613871565b005b348015610e5557600080fd5b50610e5e6139c6565b604051808261ffff1661ffff16815260200191505060405180910390f35b60008060009054906101000a900473ffffffffffffffffffffffffffffffffffffffff1673ffffffffffffffffffffffffffffffffffffffff163373ffffffffffffffffffffffffffffffffffffffff16141515610ed957600080fd5b600090505b82829050811015610f2c57610f1f848484848181101515610efb57fe5b9050602002013573ffffffffffffffffffffffffffffffffffffffff1660016112fc565b8080600101915050610ede565b50505050565b6000806000601b60003373ffffffffffffffffffffffffffffffffffffffff1673ffffffffffffffffffffffffffffffffffffffff16815260200190815260200160002060009054906101000a900461ffff169250601560003373ffffffffffffffffffffffffffffffffffffffff1673ffffffffffffffffffffffffffffffffffffffff16815260200190815260200160002060009054906101000a900460ff1691508160ff168361ffff1611151561107a576040517f08c379a00000000000000000000000000000000000000000000000000000000081526004018080602001828103825260228152602001807f596f752068617665206e6f20756e636c61696d656420626f6e7573206361726481526020017f732e00000000000000000000000000000000000000000000000000000000000081525060400191505060405180910390fd5b6014805490508260ff1611151515611120576040517f08c379a00000000000000000000000000000000000000000000000000000000081526004018080602001828103825260258152602001807f596f75206861766520636c61696d656420616c6c2074686520626f6e7573206381526020017f617264732e00000000000000000000000000000000000000000000000000000081525060400191505060405180910390fd5b60148260ff1681548110151561113257fe5b90600052602060002090602091828204019190069054906101000a900460ff169050601560003373ffffffffffffffffffffffffffffffffffffffff1673ffffffffffffffffffffffffffffffffffffffff168152602001908152602001600020600081819054906101000a900460ff168092919060010191906101000a81548160ff021916908360ff16021790555050600160009054906101000a900473ffffffffffffffffffffffffffffffffffffffff1673ffffffffffffffffffffffffffffffffffffffff16637579fcb382336040518363ffffffff167c0100000000000000000000000000000000000000000000000000000000028152600401808360ff1660ff1681526020018273ffffffffffffffffffffffffffffffffffffffff1673ffffffffffffffffffffffffffffffffffffffff16815260200192505050602060405180830381600087803b15801561128e57600080fd5b505af11580156112a2573d6000803e3d6000fd5b505050506040513d60208110156112b857600080fd5b810190808051906020019092919050505050505050565b6011816002811015156112de57fe5b60109182820401919006600202915054906101000a900461ffff1681565b60008060009054906101000a900473ffffffffffffffffffffffffffffffffffffffff1673ffffffffffffffffffffffffffffffffffffffff163373ffffffffffffffffffffffffffffffffffffffff1614151561135957600080fd5b83611365576000611368565b60015b905060108160ff1660028110151561137c57fe5b601091828204019190066002029054906101000a900461ffff1661ffff168260ff1660118360ff166002811015156113b057fe5b601091828204019190066002029054906101000a900461ffff160161ffff16111515156113dc57600080fd5b8160ff1660118260ff166002811015156113f257fe5b601091828204019190066002028282829054906101000a900461ffff160192506101000a81548161ffff021916908361ffff1602179055508160128260ff1660028110151561143d57fe5b0160008573ffffffffffffffffffffffffffffffffffffffff1673ffffffffffffffffffffffffffffffffffffffff16815260200190815260200160002060008282829054906101000a900460ff160192506101000a81548160ff021916908360ff1602179055508273ffffffffffffffffffffffffffffffffffffffff167f182403595f03b09451f01855ea93548e0b4c9dd92a772ee25da4824e89b9eb5f8386604051808360ff1661ffff168152602001821515151581526020019250505060405180910390a250505050565b6000809054906101000a900473ffffffffffffffffffffffffffffffffffffffff1673ffffffffffffffffffffffffffffffffffffffff163373ffffffffffffffffffffffffffffffffffffffff1614151561156757600080fd5b80600081111515611606576040517f08c379a00000000000000000000000000000000000000000000000000000000081526004018080602001828103825260348152602001807f46726565207061636b7320617265206f6e6c7920617661696c61626c6520746881526020017f726f756768207468652077686974656c6973742e00000000000000000000000081525060400191505060405180910390fd5b6000600a600101541115156116a9576040517f08c379a00000000000000000000000000000000000000000000000000000000081526004018080602001828103825260288152602001807f596f75206d757374206669727374206372656174652061206e6578745072656d81526020017f69756d53616c652e00000000000000000000000000000000000000000000000081525060400191505060405180910390fd5b82600a60000160016101000a81548160ff021916908360ff16021790555081600a60010181905550505050565b600a81565b601e60009054906101000a900473ffffffffffffffffffffffffffffffffffffffff1681565b6000601c60003373ffffffffffffffffffffffffffffffffffffffff1673ffffffffffffffffffffffffffffffffffffffff16815260200190815260200160002060009054906101000a900473ffffffffffffffffffffffffffffffffffffffff169050600073ffffffffffffffffffffffffffffffffffffffff168173ffffffffffffffffffffffffffffffffffffffff1614151515611856576040517f08c379a00000000000000000000000000000000000000000000000000000000081526004018080602001828103825260468152602001807f596f7520686176656e2774206174747269627574656420796f7572207265666581526020017f72726572207573696e672062757946697273745061636b46726f6d526566657281526020017f72616c28292e000000000000000000000000000000000000000000000000000081525060600191505060405180910390fd5b6000601660008373ffffffffffffffffffffffffffffffffffffffff1673ffffffffffffffffffffffffffffffffffffffff16815260200190815260200160002060009054906101000a900461ffff1661ffff1611151561196b576040517f08c379a00000000000000000000000000000000000000000000000000000000081526004018080602001828103825260498152602001807f546f2061766f69642061627573652c2074686520706572736f6e2077686f207281526020017f6566657272656420796f75206d75737420616c736f206861766520626f75676881526020017f742061207061636b2e000000000000000000000000000000000000000000000081525060600191505060405180910390fd5b601860003373ffffffffffffffffffffffffffffffffffffffff1673ffffffffffffffffffffffffffffffffffffffff16815260200190815260200160002060009054906101000a900460ff16151515611a53576040517f08c379a00000000000000000000000000000000000000000000000000000000081526004018080602001828103825260318152602001807f596f75206861766520616c726561647920636c61696d656420796f757220667281526020017f656520726566657272616c207061636b2100000000000000000000000000000081525060400191505060405180910390fd5b6103e861ffff16601760009054906101000a900461ffff1661ffff16101515611b0a576040517f08c379a00000000000000000000000000000000000000000000000000000000081526004018080602001828103825260378152602001807f576527766520616c726561647920676976656e206177617920616c6c2074686581526020017f206672656520726566657272616c207061636b732e2e2e00000000000000000081525060400191505060405180910390fd5b6017600081819054906101000a900461ffff168092919060010191906101000a81548161ffff021916908361ffff160217905550506001601860003373ffffffffffffffffffffffffffffffffffffffff1673ffffffffffffffffffffffffffffffffffffffff16815260200190815260200160002060006101000a81548160ff021916908315150217905550611ba160026139cc565b50565b600481565b6000601960003373ffffffffffffffffffffffffffffffffffffffff1673ffffffffffffffffffffffffffffffffffffffff16815260200190815260200160002054601a60003373ffffffffffffffffffffffffffffffffffffffff1673ffffffffffffffffffffffffffffffffffffffff16815260200190815260200160002054039050600081111515611ccc576040517f08c379a00000000000000000000000000000000000000000000000000000000081526004018080602001828103825260298152602001807f596f7520617265206e6f74206f77656420616e7920726566657272616c20636f81526020017f6d6d697373696f6e2e000000000000000000000000000000000000000000000081525060400191505060405180910390fd5b80601d6000828254039250508190555080601960003373ffffffffffffffffffffffffffffffffffffffff1673ffffffffffffffffffffffffffffffffffffffff168152602001908152602001600020600082825401925050819055503373ffffffffffffffffffffffffffffffffffffffff166108fc829081150290604051600060405180830381858888f19350505050158015611d6f573d6000803e3d6000fd5b5050565b6000809054906101000a900473ffffffffffffffffffffffffffffffffffffffff1673ffffffffffffffffffffffffffffffffffffffff163373ffffffffffffffffffffffffffffffffffffffff16141515611dce57600080fd5b600060149054906101000a900460ff161515611de957600080fd5b60008060146101000a81548160ff0219169083151502179055507f7805862f689e2f13df9f062ff482ad3ad112aca9e0847911ed832e158c525b3360405160405180910390a1565b601760009054906101000a900461ffff1681565b6103e881565b60008082611e5a576000611e5d565b60015b9150600060128360ff16600281101515611e7357fe5b0160003373ffffffffffffffffffffffffffffffffffffffff1673ffffffffffffffffffffffffffffffffffffffff16815260200190815260200160002060009054906101000a900460ff1660ff16111515611f5d576040517f08c379a00000000000000000000000000000000000000000000000000000000081526004018080602001828103825260218152602001807f596f752068617665206e6f2077686974656c69737420616c6c6f636174696f6e81526020017f2e0000000000000000000000000000000000000000000000000000000000000081525060400191505060405180910390fd5b60128260ff16600281101515611f6f57fe5b0160003373ffffffffffffffffffffffffffffffffffffffff1673ffffffffffffffffffffffffffffffffffffffff168152602001908152602001600020600081819054906101000a900460ff16809291906001900391906101000a81548160ff021916908360ff1602179055505082611fea576002611fed565b60065b9050611ff8816139cc565b3373ffffffffffffffffffffffffffffffffffffffff167fc87bda92828214b95d41ddff14835f330d955845b925a72fdefcb48a615c602e84604051808215151515815260200191505060405180910390a2505050565b601c6020528060005260406000206000915054906101000a900473ffffffffffffffffffffffffffffffffffffffff1681565b601f5481565b60156020528060005260406000206000915054906101000a900460ff1681565b60068060000160009054906101000a900460ff16908060000160019054906101000a900460ff16908060010154908060030160009054906101000a900463ffffffff16908060030160049054906101000a900463ffffffff16905085565b600060149054906101000a900460ff1681565b60008060009054906101000a900473ffffffffffffffffffffffffffffffffffffffff1673ffffffffffffffffffffffffffffffffffffffff163373ffffffffffffffffffffffffffffffffffffffff1614151561217657600080fd5b3073ffffffffffffffffffffffffffffffffffffffff16319050601d548111151561222f576040517f08c379a00000000000000000000000000000000000000000000000000000000081526004018080602001828103825260278152602001807f5468657265206973206e6f2045544820666f7220746865206f776e657220746f81526020017f20636c61696d2e0000000000000000000000000000000000000000000000000081525060400191505060405180910390fd5b6000809054906101000a900473ffffffffffffffffffffffffffffffffffffffff1673ffffffffffffffffffffffffffffffffffffffff166108fc601d5483039081150290604051600060405180830381858888f1935050505015801561229a573d6000803e3d6000fd5b5050565b6010816002811015156122ad57fe5b60109182820401919006600202915054906101000a900461ffff1681565b601b6020528060005260406000206000915054906101000a900461ffff1681565b6000809054906101000a900473ffffffffffffffffffffffffffffffffffffffff1673ffffffffffffffffffffffffffffffffffffffff163373ffffffffffffffffffffffffffffffffffffffff1614151561234757600080fd5b806000811115156123e6576040517f08c379a00000000000000000000000000000000000000000000000000000000081526004018080602001828103825260348152602001807f46726565207061636b7320617265206f6e6c7920617661696c61626c6520746881526020017f726f756768207468652077686974656c6973742e00000000000000000000000081525060400191505060405180910390fd5b816002600101819055507ff5e9907ba672c6a37e1d3b463a333cd517a16fd547860bc43eaabf0e03bdd9c6826040518082815260200191505060405180910390a15050565b6000809054906101000a900473ffffffffffffffffffffffffffffffffffffffff1673ffffffffffffffffffffffffffffffffffffffff163373ffffffffffffffffffffffffffffffffffffffff1614151561248657600080fd5b600060149054906101000a900460ff161515156124a257600080fd5b6001600060146101000a81548160ff0219169083151502179055507f6985a02210a168e66602d3235cb6db0e70f92b3ba4d376a33c0f3d9434bff62560405160405180910390a1565b601881565b6000809054906101000a900473ffffffffffffffffffffffffffffffffffffffff1681565b60196020528060005260406000206000915090505481565b601d5481565b60166020528060005260406000206000915054906101000a900461ffff1681565b6000809054906101000a900473ffffffffffffffffffffffffffffffffffffffff1673ffffffffffffffffffffffffffffffffffffffff163373ffffffffffffffffffffffffffffffffffffffff161415156125af57600080fd5b6000600a60010154111515612652576040517f08c379a00000000000000000000000000000000000000000000000000000000081526004018080602001828103825260288152602001807f596f75206d757374206669727374206372656174652061206e6578745072656d81526020017f69756d53616c652e00000000000000000000000000000000000000000000000081525060400191505060405180910390fd5b6101f461ffff1682829050600a60030160009054906101000a900463ffffffff1663ffffffff160111151515612716576040517f08c379a00000000000000000000000000000000000000000000000000000000081526004018080602001828103825260348152602001807f596f752063616e277420616464206d6f7265207468616e20353030207061636b81526020017f7320746f2061205072656d69756d2073616c652e00000000000000000000000081525060400191505060405180910390fd5b612750828280806020026020016040519081016040528093929190818152602001838360200280828437820191505050505050600a613b7b565b5050565b600e60009054906101000a900460ff1681565b600a8060000160009054906101000a900460ff16908060000160019054906101000a900460ff16908060010154908060030160009054906101000a900463ffffffff16908060030160049054906101000a900463ffffffff16905085565b6201276081565b6101f481565b6000809054906101000a900473ffffffffffffffffffffffffffffffffffffffff1673ffffffffffffffffffffffffffffffffffffffff163373ffffffffffffffffffffffffffffffffffffffff1614151561282d57600080fd5b6000600260030160009054906101000a900463ffffffff1663ffffffff161115156128e6576040517f08c379a00000000000000000000000000000000000000000000000000000000081526004018080602001828103825260368152602001807f596f75206d757374206669727374206c6f616420736f6d65207061636b73206981526020017f6e746f20746865205374616e646172642073616c652e0000000000000000000081525060400191505060405180910390fd5b6128ee611d73565b7f49b5a104df37543df7eecddafee8eec8da453b3c03b42881d383d08f37591695600260000160009054906101000a900460ff16600260010154600260000160019054906101000a900460ff16604051808460ff1660ff1681526020018381526020018260ff1660ff168152602001935050505060405180910390a1565b60148181548110151561297b57fe5b9060005260206000209060209182820401919006915054906101000a900460ff1681565b6012826002811015156129ae57fe5b016020528060005260406000206000915091509054906101000a900460ff1681565b600080826129df5760026129e2565b60065b915081600101549050803410151515612a89576040517f08c379a00000000000000000000000000000000000000000000000000000000081526004018080602001828103825260278152602001807f496e73756666696369656e74204554482073656e7420746f206275792074686981526020017f73207061636b2e0000000000000000000000000000000000000000000000000081525060400191505060405180910390fd5b612a92826139cc565b601660003373ffffffffffffffffffffffffffffffffffffffff1673ffffffffffffffffffffffffffffffffffffffff168152602001908152602001600020600081819054906101000a900461ffff168092919060010191906101000a81548161ffff021916908361ffff1602179055505080601f600082825401925050819055503373ffffffffffffffffffffffffffffffffffffffff166108fc8234039081150290604051600060405180830381858888f19350505050158015612b5c573d6000803e3d6000fd5b50612b673382613ccc565b505050565b6000809054906101000a900473ffffffffffffffffffffffffffffffffffffffff1673ffffffffffffffffffffffffffffffffffffffff163373ffffffffffffffffffffffffffffffffffffffff16141515612bc757600080fd5b80600081111515612c66576040517f08c379a00000000000000000000000000000000000000000000000000000000081526004018080602001828103825260348152602001807f46726565207061636b7320617265206f6e6c7920617661696c61626c6520746881526020017f726f756768207468652077686974656c6973742e00000000000000000000000081525060400191505060405180910390fd5b6000600a60010154141515612d09576040517f08c379a00000000000000000000000000000000000000000000000000000000081526004018080602001828103825260218152602001807f4e657874205072656d69756d2053616c6520616c72656164792065786973747381526020017f2e0000000000000000000000000000000000000000000000000000000000000081525060400191505060405180910390fd5b60648360ff1610151515612dab576040517f08c379a00000000000000000000000000000000000000000000000000000000081526004018080602001828103825260398152602001807f596f752063616e2774206861766520616e204f726967696e616c73206173206181526020017f20666561747572656420636865636b6c697374206974656d2e0000000000000081525060400191505060405180910390fd5b601860ff16600e60009054906101000a900460ff1660ff1611151515612e5f576040517f08c379a00000000000000000000000000000000000000000000000000000000081526004018080602001828103825260288152602001807f596f752063616e206f6e6c792072756e20323420746f74616c205072656d697581526020017f6d2073616c65732e00000000000000000000000000000000000000000000000081525060400191505060405180910390fd5b600e60009054906101000a900460ff16600a60000160006101000a81548160ff021916908360ff16021790555082600a60000160016101000a81548160ff021916908360ff16021790555081600a60010181905550600e600081819054906101000a900460ff168092919060010191906101000a81548160ff021916908360ff16021790555050505050565b600160009054906101000a900473ffffffffffffffffffffffffffffffffffffffff1681565b601a6020528060005260406000206000915090505481565b60028060000160009054906101000a900460ff16908060000160019054906101000a900460ff16908060010154908060030160009054906101000a900463ffffffff16908060030160049054906101000a900463ffffffff16905085565b6000601660003373ffffffffffffffffffffffffffffffffffffffff1673ffffffffffffffffffffffffffffffffffffffff16815260200190815260200160002060009054906101000a900461ffff1661ffff16141515613076576040517f08c379a00000000000000000000000000000000000000000000000000000000081526004018080602001828103825260358152602001807f4f6e6c79206174747269627574652061207265666572726572206f6e2061207581526020017f73657227732066697273742070757263686173652e000000000000000000000081525060400191505060405180910390fd5b81601c60003373ffffffffffffffffffffffffffffffffffffffff1673ffffffffffffffffffffffffffffffffffffffff16815260200190815260200160002060006101000a81548173ffffffffffffffffffffffffffffffffffffffff021916908373ffffffffffffffffffffffffffffffffffffffff1602179055506130fd816129d0565b5050565b60186020528060005260406000206000915054906101000a900460ff1681565b6000809054906101000a900473ffffffffffffffffffffffffffffffffffffffff1673ffffffffffffffffffffffffffffffffffffffff163373ffffffffffffffffffffffffffffffffffffffff1614151561317c57600080fd5b6101f461ffff16600a60030160009054906101000a900463ffffffff1663ffffffff16141515613260576040517f08c379a00000000000000000000000000000000000000000000000000000000081526004018080602001828103825260418152602001807f596f75206d757374206164642065786163746c7920353030207061636b73206281526020017f65666f7265207374617274696e672074686973205072656d69756d2073616c6581526020017f2e0000000000000000000000000000000000000000000000000000000000000081525060600191505060405180910390fd5b6064600660000160019054906101000a900460ff1660ff1610151561334157600160009054906101000a900473ffffffffffffffffffffffffffffffffffffffff1673ffffffffffffffffffffffffffffffffffffffff16632b232741600660000160019054906101000a900460ff166040518263ffffffff167c0100000000000000000000000000000000000000000000000000000000028152600401808260ff1660ff168152602001915050600060405180830381600087803b15801561332857600080fd5b505af115801561333c573d6000803e3d6000fd5b505050505b600a60066000820160009054906101000a900460ff168160000160006101000a81548160ff021916908360ff1602179055506000820160019054906101000a900460ff168160000160016101000a81548160ff021916908360ff1602179055506001820154816001015560028201816002019080546133c192919061434d565b506003820160009054906101000a900463ffffffff168160030160006101000a81548163ffffffff021916908363ffffffff1602179055506003820160049054906101000a900463ffffffff168160030160046101000a81548163ffffffff021916908363ffffffff160217905550905050600a600080820160006101000a81549060ff02191690556000820160016101000a81549060ff0219169055600182016000905560028201600061347691906143ad565b6003820160006101000a81549063ffffffff02191690556003820160046101000a81549063ffffffff02191690555050565b60008060009054906101000a900473ffffffffffffffffffffffffffffffffffffffff1673ffffffffffffffffffffffffffffffffffffffff163373ffffffffffffffffffffffffffffffffffffffff1614151561350557600080fd5b6201276063ffffffff1683839050600260030160009054906101000a900463ffffffff1663ffffffff1601119050801515156135cf576040517f08c379a000000000000000000000000000000000000000000000000000000000815260040180806020018281038252603a8152602001807f596f752063616e277420616464206d6f7265207468616e2037352c363136207081526020017f61636b7320746f20746865205374616e646172642073616c652e00000000000081525060400191505060405180910390fd5b6136098383808060200260200160405190810160405280939291908181526020018383602002808284378201915050505050506002613b7b565b505050565b601e60149054906101000a900461ffff1681565b6103e861ffff16601e60149054906101000a900461ffff1661ffff161015156136b3576040517f08c379a00000000000000000000000000000000000000000000000000000000081526004018080602001828103825260188152602001807f53746f7021205468696e6b206f6620746865206361747321000000000000000081525060200191505060405180910390fd5b601e601481819054906101000a900461ffff168092919060010191906101000a81548161ffff021916908361ffff16021790555050601e60009054906101000a900473ffffffffffffffffffffffffffffffffffffffff1673ffffffffffffffffffffffffffffffffffffffff166323b872dd3330846040518463ffffffff167c0100000000000000000000000000000000000000000000000000000000028152600401808473ffffffffffffffffffffffffffffffffffffffff1673ffffffffffffffffffffffffffffffffffffffff1681526020018373ffffffffffffffffffffffffffffffffffffffff1673ffffffffffffffffffffffffffffffffffffffff1681526020018281526020019350505050600060405180830381600087803b1580156137e157600080fd5b505af11580156137f5573d6000803e3d6000fd5b5050505061380360026139cc565b7feb71dabeb0f93a742759462b5704866833c281deb9dea88412154d7ec7e7370c3382604051808373ffffffffffffffffffffffffffffffffffffffff1673ffffffffffffffffffffffffffffffffffffffff1681526020018281526020019250505060405180910390a150565b6000809054906101000a900473ffffffffffffffffffffffffffffffffffffffff1673ffffffffffffffffffffffffffffffffffffffff163373ffffffffffffffffffffffffffffffffffffffff161415156138cc57600080fd5b600073ffffffffffffffffffffffffffffffffffffffff168173ffffffffffffffffffffffffffffffffffffffff161415151561390857600080fd5b8073ffffffffffffffffffffffffffffffffffffffff166000809054906101000a900473ffffffffffffffffffffffffffffffffffffffff1673ffffffffffffffffffffffffffffffffffffffff167f8be0079c531659141344cd1fd0a4f28419497f9722a3daafe3b4186f6b6457e060405160405180910390a3806000806101000a81548173ffffffffffffffffffffffffffffffffffffffff021916908373ffffffffffffffffffffffffffffffffffffffff16021790555050565b6103e881565b60006060600060149054906101000a900460ff161515156139ec57600080fd5b60008360020180549050111515613a91576040517f08c379a00000000000000000000000000000000000000000000000000000000081526004018080602001828103825260298152602001807f5468652073616c6520686173206e6f207061636b7320617661696c61626c652081526020017f666f722073616c652e000000000000000000000000000000000000000000000081525060400191505060405180910390fd5b613a9d83600201613f90565b9150613aa8826140a2565b905082600301600481819054906101000a900463ffffffff168092919060010191906101000a81548163ffffffff021916908363ffffffff160217905550503373ffffffffffffffffffffffffffffffffffffffff167f1947a407fc738aebf73559f82e681274d64efa878ea80c083c5c081d4e9833a0826040518080602001828103825283818151815260200191508051906020019060200280838360005b83811015613b63578082015181840152602081019050613b48565b505050509050019250505060405180910390a2505050565b60008090505b8251811015613c0157816002018382815181101515613b9c57fe5b90602001906020020151908060018154018082558091505090600182039060005260206000209060089182820401919006600402909192909190916101000a81548163ffffffff021916908363ffffffff160217905550508080600101915050613b81565b82518260030160008282829054906101000a900463ffffffff160192506101000a81548163ffffffff021916908363ffffffff1602179055508160000160009054906101000a900460ff1660ff167f6785a08d643117337b6cae6465390f9f22ae34088a05a84d89b3c78632eb7d44846040518080602001828103825283818151815260200191508051906020019060200280838360005b83811015613cb4578082015181840152602081019050613c99565b505050509050019250505060405180910390a2505050565b600080601c60008573ffffffffffffffffffffffffffffffffffffffff1673ffffffffffffffffffffffffffffffffffffffff16815260200190815260200160002060009054906101000a900473ffffffffffffffffffffffffffffffffffffffff169150600073ffffffffffffffffffffffffffffffffffffffff168273ffffffffffffffffffffffffffffffffffffffff161480613dbd57506000601660008473ffffffffffffffffffffffffffffffffffffffff1673ffffffffffffffffffffffffffffffffffffffff16815260200190815260200160002060009054906101000a900461ffff1661ffff16145b15613dc757613f8a565b601b60008373ffffffffffffffffffffffffffffffffffffffff1673ffffffffffffffffffffffffffffffffffffffff168152602001908152602001600020600081819054906101000a900461ffff168092919060010191906101000a81548161ffff021916908361ffff16021790555050601480549050601b60008473ffffffffffffffffffffffffffffffffffffffff1673ffffffffffffffffffffffffffffffffffffffff16815260200190815260200160002060009054906101000a900461ffff1661ffff161115613f07576064600a8402811515613ea657fe5b04905080601d6000828254019250508190555080601a60008473ffffffffffffffffffffffffffffffffffffffff1673ffffffffffffffffffffffffffffffffffffffff168152602001908152602001600020600082825401925050819055505b8173ffffffffffffffffffffffffffffffffffffffff167f3ebb49b18b4f44644a51e25d20e6c257ceba7ee8ec5cb88ac374fca33766b6968585604051808373ffffffffffffffffffffffffffffffffffffffff1673ffffffffffffffffffffffffffffffffffffffff1681526020018281526020019250505060405180910390a25b50505050565b600060606000600f600081548092919060010191905055504233600f54604051602001808481526020018373ffffffffffffffffffffffffffffffffffffffff1673ffffffffffffffffffffffffffffffffffffffff166c01000000000000000000000000028152601401828152602001935050505060405160208183030381529060405291508380549050826040518082805190602001908083835b602083101515614052578051825260208201915060208101905060208303925061402d565b6001836020036101000a03801982511681845116808217855250505050505090500191505060405180910390206001900481151561408c57fe5b0690506140998185614264565b92505050919050565b60606000606060008060008060ff9550600460ff166040519080825280602002602001820160405280156140e55781602001602082028038833980820191505090505b509450600193505b600460ff168460ff16111515614256576008840260200392508560ff168360ff168963ffffffff169060020a9004169150600160009054906101000a900473ffffffffffffffffffffffffffffffffffffffff1673ffffffffffffffffffffffffffffffffffffffff16637579fcb383336040518363ffffffff167c0100000000000000000000000000000000000000000000000000000000028152600401808360ff1660ff1681526020018273ffffffffffffffffffffffffffffffffffffffff1673ffffffffffffffffffffffffffffffffffffffff16815260200192505050602060405180830381600087803b1580156141e957600080fd5b505af11580156141fd573d6000803e3d6000fd5b505050506040513d602081101561421357600080fd5b8101908080519060200190929190505050905080856001860360ff1681518110151561423b57fe5b906020019060200201818152505083806001019450506140ed565b849650505050505050919050565b60008060006001848054905003915081851115151561428257600080fd5b838581548110151561429057fe5b90600052602060002090600891828204019190066004029054906101000a900463ffffffff16905083828154811015156142c657fe5b90600052602060002090600891828204019190066004029054906101000a900463ffffffff1684868154811015156142fa57fe5b90600052602060002090600891828204019190066004026101000a81548163ffffffff021916908363ffffffff1602179055508380548091906001900361434191906143d5565b50809250505092915050565b8280548282559060005260206000209060070160089004810192821561439c576000526020600020916007016008900482015b8281111561439b578254825591600101919060010190614380565b5b5090506143a9919061440f565b5090565b5080546000825560070160089004906000526020600020908101906143d29190614442565b50565b81548183558181111561440a5760070160089004816007016008900483600052602060002091820191016144099190614442565b5b505050565b61443f91905b8082111561443b57600081816101000a81549063ffffffff021916905550600101614415565b5090565b90565b61446491905b80821115614460576000816000905550600101614448565b5090565b905600a165627a7a72305820e24c7a4951dd405e2b04f908f716996a636f3446a77582b1af7eb30546ca6de50029",
  "source": "pragma solidity ^0.4.24;\n\nimport \"./StrikersReferral.sol\";\nimport \"openzeppelin-solidity/contracts/token/ERC721/ERC721Basic.sol\";\n\n/// @title The main sale contract, allowing users to purchase packs of CryptoStrikers cards.\n/// @author The CryptoStrikers Team\ncontract StrikersPackSale is StrikersReferral {\n\n  /// @dev The max number of kitties we are allowed to burn.\n  uint16 public constant KITTY_BURN_LIMIT = 1000;\n\n  /// @dev Emit this whenever someone sacrifices a cat for a free pack of cards.\n  event KittyBurned(address user, uint256 kittyId);\n\n  /// @dev A reference to the CryptoKitties contract so we can transfer cats\n  ERC721Basic public kittiesContract;\n\n  /// @dev How many kitties we have burned so far. Think of the cats, make sure we don't go over KITTY_BURN_LIMIT!\n  uint16 public totalKittiesBurned;\n\n  /// @dev Keeps track of our sale volume, in wei.\n  uint256 public totalWeiRaised;\n\n  /// @dev Constructor. Can't change minting and kitties contracts once they've been initialized.\n  constructor(\n    uint256 _standardPackPrice,\n    address _kittiesContractAddress,\n    address _mintingContractAddress\n  )\n  StrikersPackFactory(_standardPackPrice)\n  public\n  {\n    kittiesContract = ERC721Basic(_kittiesContractAddress);\n    mintingContract = StrikersMinting(_mintingContractAddress);\n  }\n\n  /// @dev For a user who was referred, use this function to buy your first back so we can attribute the referral.\n  /// @param _referrer The user who invited msg.sender to CryptoStrikers.\n  /// @param _premium True if we're buying from Premium sale, false if we're buying from Standard sale.\n  function buyFirstPackFromReferral(address _referrer, bool _premium) external payable {\n    require(packsBought[msg.sender] == 0, \"Only attribute a referrer on a user's first purchase.\");\n    referrers[msg.sender] = _referrer;\n    buyPackWithETH(_premium);\n  }\n\n  /// @dev Allows a user to buy a pack of cards with enough ETH to cover the packPrice.\n  /// @param _premium True if we're buying from Premium sale, false if we're buying from Standard sale.\n  function buyPackWithETH(bool _premium) public payable {\n    PackSale storage sale = _premium ? currentPremiumSale : standardSale;\n    uint256 packPrice = sale.packPrice;\n    require(msg.value >= packPrice, \"Insufficient ETH sent to buy this pack.\");\n    _buyPack(sale);\n    packsBought[msg.sender]++;\n    totalWeiRaised += packPrice;\n    // Refund excess funds\n    msg.sender.transfer(msg.value - packPrice);\n    _attributeSale(msg.sender, packPrice);\n  }\n\n  /// @notice Magically transform a CryptoKitty into a free pack of cards!\n  /// @param _kittyId The cat we are giving up.\n  /// @dev Note that the user must first give this contract approval by\n  ///   calling approve(address(this), _kittyId) on the CK contract.\n  ///   Otherwise, buyPackWithKitty() throws on transferFrom().\n  function buyPackWithKitty(uint256 _kittyId) external {\n    require(totalKittiesBurned < KITTY_BURN_LIMIT, \"Stop! Think of the cats!\");\n    totalKittiesBurned++;\n    // Will throw/revert if this contract hasn't been given approval first.\n    // Also, with no way of retrieving kitties from this contract,\n    // transferring to \"this\" burns the cat! (desired behaviour)\n    kittiesContract.transferFrom(msg.sender, this, _kittyId);\n    _buyPack(standardSale);\n    emit KittyBurned(msg.sender, _kittyId);\n  }\n\n  /// @dev Allows the contract owner to withdraw the ETH raised from selling packs.\n  function withdrawBalance() external onlyOwner {\n    uint256 totalBalance = address(this).balance;\n    require(totalBalance > totalCommissionOwed, \"There is no ETH for the owner to claim.\");\n    owner.transfer(totalBalance - totalCommissionOwed);\n  }\n}\n",
  "sourcePath": "/Users/GiaSet/Desktop/Projects/cryptostrikers/contracts/StrikersPackSale.sol",
  "compiler": {
    "name": "solc",
    "version": "0.4.24+commit.e67f0147.Emscripten.clang"
  },
  "schemaVersion": "2.0.0",
  "updatedAt": "2018-06-01T11:55:53.970Z"
}