{
  "contractName": "StrikersPackSale",
  "abi": [
    {
      "constant": false,
      "inputs": [
        {
          "name": "_saleId",
          "type": "uint8"
        }
      ],
      "name": "resumeSale",
      "outputs": [],
      "payable": false,
      "stateMutability": "nonpayable",
      "type": "function"
    },
    {
      "constant": true,
      "inputs": [],
      "name": "kittiesContract",
      "outputs": [
        {
          "name": "",
          "type": "address"
        }
      ],
      "payable": false,
      "stateMutability": "view",
      "type": "function"
    },
    {
      "constant": true,
      "inputs": [],
      "name": "PACK_SIZE",
      "outputs": [
        {
          "name": "",
          "type": "uint8"
        }
      ],
      "payable": false,
      "stateMutability": "view",
      "type": "function"
    },
    {
      "constant": true,
      "inputs": [],
      "name": "NORMAL_SALE_PACK_LIMIT",
      "outputs": [
        {
          "name": "",
          "type": "uint32"
        }
      ],
      "payable": false,
      "stateMutability": "view",
      "type": "function"
    },
    {
      "constant": false,
      "inputs": [
        {
          "name": "_saleId",
          "type": "uint8"
        }
      ],
      "name": "pauseSale",
      "outputs": [],
      "payable": false,
      "stateMutability": "nonpayable",
      "type": "function"
    },
    {
      "constant": true,
      "inputs": [],
      "name": "totalFlashSalePacksOffered",
      "outputs": [
        {
          "name": "",
          "type": "uint32"
        }
      ],
      "payable": false,
      "stateMutability": "view",
      "type": "function"
    },
    {
      "constant": true,
      "inputs": [],
      "name": "salesCount",
      "outputs": [
        {
          "name": "",
          "type": "uint256"
        }
      ],
      "payable": false,
      "stateMutability": "view",
      "type": "function"
    },
    {
      "constant": false,
      "inputs": [
        {
          "name": "_saleId",
          "type": "uint8"
        },
        {
          "name": "_packPrice",
          "type": "uint256"
        }
      ],
      "name": "setPackPriceForSale",
      "outputs": [],
      "payable": false,
      "stateMutability": "nonpayable",
      "type": "function"
    },
    {
      "constant": true,
      "inputs": [],
      "name": "owner",
      "outputs": [
        {
          "name": "",
          "type": "address"
        }
      ],
      "payable": false,
      "stateMutability": "view",
      "type": "function"
    },
    {
      "constant": false,
      "inputs": [
        {
          "name": "_saleId",
          "type": "uint8"
        },
        {
          "name": "_shuffledPacks",
          "type": "uint32[]"
        }
      ],
      "name": "loadShuffledPacks",
      "outputs": [],
      "payable": false,
      "stateMutability": "nonpayable",
      "type": "function"
    },
    {
      "constant": true,
      "inputs": [],
      "name": "totalNormalSalePacksOffered",
      "outputs": [
        {
          "name": "",
          "type": "uint32"
        }
      ],
      "payable": false,
      "stateMutability": "view",
      "type": "function"
    },
    {
      "constant": true,
      "inputs": [],
      "name": "isPackSaleContract",
      "outputs": [
        {
          "name": "",
          "type": "bool"
        }
      ],
      "payable": false,
      "stateMutability": "view",
      "type": "function"
    },
    {
      "constant": true,
      "inputs": [
        {
          "name": "",
          "type": "uint256"
        }
      ],
      "name": "sales",
      "outputs": [
        {
          "name": "startTime",
          "type": "uint64"
        },
        {
          "name": "duration",
          "type": "uint64"
        },
        {
          "name": "packPrice",
          "type": "uint256"
        },
        {
          "name": "packsOffered",
          "type": "uint16"
        },
        {
          "name": "packsSold",
          "type": "uint16"
        },
        {
          "name": "state",
          "type": "uint8"
        }
      ],
      "payable": false,
      "stateMutability": "view",
      "type": "function"
    },
    {
      "constant": true,
      "inputs": [
        {
          "name": "_saleId",
          "type": "uint8"
        }
      ],
      "name": "saleInProgress",
      "outputs": [
        {
          "name": "",
          "type": "bool"
        }
      ],
      "payable": false,
      "stateMutability": "view",
      "type": "function"
    },
    {
      "constant": true,
      "inputs": [],
      "name": "FLASH_SALE_PACK_LIMIT",
      "outputs": [
        {
          "name": "",
          "type": "uint32"
        }
      ],
      "payable": false,
      "stateMutability": "view",
      "type": "function"
    },
    {
      "constant": false,
      "inputs": [
        {
          "name": "_saleId",
          "type": "uint8"
        }
      ],
      "name": "startSale",
      "outputs": [],
      "payable": false,
      "stateMutability": "nonpayable",
      "type": "function"
    },
    {
      "constant": true,
      "inputs": [],
      "name": "strikersMinting",
      "outputs": [
        {
          "name": "",
          "type": "address"
        }
      ],
      "payable": false,
      "stateMutability": "view",
      "type": "function"
    },
    {
      "constant": false,
      "inputs": [
        {
          "name": "_duration",
          "type": "uint64"
        },
        {
          "name": "_packPrice",
          "type": "uint256"
        }
      ],
      "name": "createSale",
      "outputs": [],
      "payable": false,
      "stateMutability": "nonpayable",
      "type": "function"
    },
    {
      "constant": false,
      "inputs": [
        {
          "name": "newOwner",
          "type": "address"
        }
      ],
      "name": "transferOwnership",
      "outputs": [],
      "payable": false,
      "stateMutability": "nonpayable",
      "type": "function"
    },
    {
      "inputs": [
        {
          "name": "_kittiesContractAddress",
          "type": "address"
        },
        {
          "name": "_strikersMintingAddress",
          "type": "address"
        }
      ],
      "payable": false,
      "stateMutability": "nonpayable",
      "type": "constructor"
    },
    {
      "anonymous": false,
      "inputs": [
        {
          "indexed": true,
          "name": "buyer",
          "type": "address"
        },
        {
          "indexed": false,
          "name": "pack",
          "type": "uint256[]"
        }
      ],
      "name": "PackBought",
      "type": "event"
    },
    {
      "anonymous": false,
      "inputs": [
        {
          "indexed": true,
          "name": "saleId",
          "type": "uint8"
        },
        {
          "indexed": false,
          "name": "packs",
          "type": "uint32[]"
        }
      ],
      "name": "PacksLoaded",
      "type": "event"
    },
    {
      "anonymous": false,
      "inputs": [
        {
          "indexed": false,
          "name": "saleId",
          "type": "uint8"
        },
        {
          "indexed": false,
          "name": "packPrice",
          "type": "uint256"
        }
      ],
      "name": "PackPriceChanged",
      "type": "event"
    },
    {
      "anonymous": false,
      "inputs": [
        {
          "indexed": false,
          "name": "saleId",
          "type": "uint8"
        },
        {
          "indexed": false,
          "name": "duration",
          "type": "uint64"
        },
        {
          "indexed": false,
          "name": "packPrice",
          "type": "uint256"
        }
      ],
      "name": "SaleCreated",
      "type": "event"
    },
    {
      "anonymous": false,
      "inputs": [
        {
          "indexed": false,
          "name": "saleId",
          "type": "uint8"
        }
      ],
      "name": "SaleStarted",
      "type": "event"
    },
    {
      "anonymous": false,
      "inputs": [
        {
          "indexed": false,
          "name": "saleId",
          "type": "uint8"
        }
      ],
      "name": "SalePaused",
      "type": "event"
    },
    {
      "anonymous": false,
      "inputs": [
        {
          "indexed": false,
          "name": "saleId",
          "type": "uint8"
        }
      ],
      "name": "SaleResumed",
      "type": "event"
    },
    {
      "anonymous": false,
      "inputs": [
        {
          "indexed": true,
          "name": "previousOwner",
          "type": "address"
        },
        {
          "indexed": true,
          "name": "newOwner",
          "type": "address"
        }
      ],
      "name": "OwnershipTransferred",
      "type": "event"
    },
    {
      "constant": false,
      "inputs": [
        {
          "name": "_saleId",
          "type": "uint8"
        }
      ],
      "name": "buyPacksWithETH",
      "outputs": [],
      "payable": true,
      "stateMutability": "payable",
      "type": "function"
    },
    {
      "constant": false,
      "inputs": [
        {
          "name": "_saleId",
          "type": "uint8"
        },
        {
          "name": "_kittyId",
          "type": "uint256"
        }
      ],
      "name": "buyPackWithKitty",
      "outputs": [],
      "payable": false,
      "stateMutability": "nonpayable",
      "type": "function"
    }
  ],
  "bytecode": "0x60806040526001600060146101000a81548160ff021916908315150217905550600060045534801561003057600080fd5b506040516040806124868339810180604052810190808051906020019092919080519060200190929190505050336000806101000a81548173ffffffffffffffffffffffffffffffffffffffff021916908373ffffffffffffffffffffffffffffffffffffffff16021790555081600560006101000a81548173ffffffffffffffffffffffffffffffffffffffff021916908373ffffffffffffffffffffffffffffffffffffffff16021790555080600660006101000a81548173ffffffffffffffffffffffffffffffffffffffff021916908373ffffffffffffffffffffffffffffffffffffffff1602179055505050612356806101306000396000f30060806040526004361061011d576000357c0100000000000000000000000000000000000000000000000000000000900463ffffffff168063092851bb146101225780633432000c146101525780633d0c9cc4146101a95780633fe24ad1146101da578063458a6efa146102115780634914923614610241578063570ab32014610264578063682789a81461029b57806376719228146102c65780638da5cb5b1461030057806395e6518414610357578063a348c0b81461039f578063ad69cbe2146103d6578063b303df3714610410578063b5f522f71461043f578063b64855f7146104e9578063b81b6df814610531578063d60d936014610568578063e99ff1f514610598578063ed9333cc146105ef578063f2fde38b14610630575b600080fd5b34801561012e57600080fd5b50610150600480360381019080803560ff169060200190929190505050610673565b005b34801561015e57600080fd5b5061016761083a565b604051808273ffffffffffffffffffffffffffffffffffffffff1673ffffffffffffffffffffffffffffffffffffffff16815260200191505060405180910390f35b3480156101b557600080fd5b506101be610860565b604051808260ff1660ff16815260200191505060405180910390f35b3480156101e657600080fd5b506101ef610865565b604051808263ffffffff1663ffffffff16815260200191505060405180910390f35b34801561021d57600080fd5b5061023f600480360381019080803560ff16906020019092919050505061086c565b005b610262600480360381019080803560ff169060200190929190505050610a34565b005b34801561027057600080fd5b50610279610b72565b604051808263ffffffff1663ffffffff16815260200191505060405180910390f35b3480156102a757600080fd5b506102b0610b88565b6040518082815260200191505060405180910390f35b3480156102d257600080fd5b506102fe600480360381019080803560ff16906020019092919080359060200190929190505050610b95565b005b34801561030c57600080fd5b50610315610da7565b604051808273ffffffffffffffffffffffffffffffffffffffff1673ffffffffffffffffffffffffffffffffffffffff16815260200191505060405180910390f35b34801561036357600080fd5b5061039d600480360381019080803560ff169060200190929190803590602001908201803590602001919091929391929390505050610dcc565b005b3480156103ab57600080fd5b506103b461113a565b604051808263ffffffff1663ffffffff16815260200191505060405180910390f35b3480156103e257600080fd5b5061040e600480360381019080803560ff16906020019092919080359060200190929190505050611150565b005b34801561041c57600080fd5b50610425611335565b604051808215151515815260200191505060405180910390f35b34801561044b57600080fd5b5061046a60048036038101908080359060200190929190505050611348565b604051808767ffffffffffffffff1667ffffffffffffffff1681526020018667ffffffffffffffff1667ffffffffffffffff1681526020018581526020018461ffff1661ffff1681526020018361ffff1661ffff1681526020018260028111156104d057fe5b60ff168152602001965050505050505060405180910390f35b3480156104f557600080fd5b50610517600480360381019080803560ff1690602001909291905050506113e4565b604051808215151515815260200191505060405180910390f35b34801561053d57600080fd5b5061054661155b565b604051808263ffffffff1663ffffffff16815260200191505060405180910390f35b34801561057457600080fd5b50610596600480360381019080803560ff169060200190929190505050611561565b005b3480156105a457600080fd5b506105ad61175a565b604051808273ffffffffffffffffffffffffffffffffffffffff1673ffffffffffffffffffffffffffffffffffffffff16815260200191505060405180910390f35b3480156105fb57600080fd5b5061062e600480360381019080803567ffffffffffffffff16906020019092919080359060200190929190505050611780565b005b34801561063c57600080fd5b50610671600480360381019080803573ffffffffffffffffffffffffffffffffffffffff1690602001909291905050506119b2565b005b6000809054906101000a900473ffffffffffffffffffffffffffffffffffffffff1673ffffffffffffffffffffffffffffffffffffffff163373ffffffffffffffffffffffffffffffffffffffff161415156106ce57600080fd5b8060028060028111156106dd57fe5b60018360ff168154811015156106ef57fe5b906000526020600020906003020160020160049054906101000a900460ff16600281111561071957fe5b1415156107b4576040517f08c379a00000000000000000000000000000000000000000000000000000000081526004018080602001828103825260268152602001807f546869732073616c65206973206e6f7420696e2074686520636f72726563742081526020017f73746174652e000000000000000000000000000000000000000000000000000081525060400191505060405180910390fd5b6001808460ff168154811015156107c757fe5b906000526020600020906003020160020160046101000a81548160ff021916908360028111156107f357fe5b02179055507ffa00485dc9843cb5d5b0a08de1685a80eff766726f467de66ff8bd2de4d5ca8e83604051808260ff1660ff16815260200191505060405180910390a1505050565b600560009054906101000a900473ffffffffffffffffffffffffffffffffffffffff1681565b600481565b6202710081565b6000809054906101000a900473ffffffffffffffffffffffffffffffffffffffff1673ffffffffffffffffffffffffffffffffffffffff163373ffffffffffffffffffffffffffffffffffffffff161415156108c757600080fd5b8060018060028111156108d657fe5b60018360ff168154811015156108e857fe5b906000526020600020906003020160020160049054906101000a900460ff16600281111561091257fe5b1415156109ad576040517f08c379a00000000000000000000000000000000000000000000000000000000081526004018080602001828103825260268152602001807f546869732073616c65206973206e6f7420696e2074686520636f72726563742081526020017f73746174652e000000000000000000000000000000000000000000000000000081525060400191505060405180910390fd5b600260018460ff168154811015156109c157fe5b906000526020600020906003020160020160046101000a81548160ff021916908360028111156109ed57fe5b02179055507f29ff1a53b611d4e01a3c5daa5de3acd49316a453101da665b8e6fe2832eed4d283604051808260ff1660ff16815260200191505060405180910390a1505050565b60008060018360ff16815481101515610a4957fe5b9060005260206000209060030201600101549150600082111515610afb576040517f08c379a00000000000000000000000000000000000000000000000000000000081526004018080602001828103825260338152602001807f596f752061726520747279696e6720746f207573652045544820746f2062757981526020017f2066726f6d2061204b697474792053616c652e0000000000000000000000000081525060400191505060405180910390fd5b3490505b8181101515610b2657610b1183611b07565b1515610b1c57610b26565b8181039050610aff565b3373ffffffffffffffffffffffffffffffffffffffff166108fc829081150290604051600060405180830381858888f19350505050158015610b6c573d6000803e3d6000fd5b50505050565b600260049054906101000a900463ffffffff1681565b6000600180549050905090565b60008060009054906101000a900473ffffffffffffffffffffffffffffffffffffffff1673ffffffffffffffffffffffffffffffffffffffff163373ffffffffffffffffffffffffffffffffffffffff16141515610bf257600080fd5b60018360ff16815481101515610c0457fe5b9060005260206000209060030201905060008160010154111515610cb6576040517f08c379a000000000000000000000000000000000000000000000000000000000815260040180806020018281038252602d8152602001807f596f752063616e2774207475726e2061204b697474792053616c6520696e746f81526020017f20616e204554482053616c652e0000000000000000000000000000000000000081525060400191505060405180910390fd5b600082111515610d54576040517f08c379a000000000000000000000000000000000000000000000000000000000815260040180806020018281038252602d8152602001807f596f752063616e2774207475726e20616e204554482053616c6520696e746f2081526020017f61204b697474792053616c652e0000000000000000000000000000000000000081525060400191505060405180910390fd5b8181600101819055507f48d853d35578b628e98629b8e92da6a404d2df5b1ec4f6048bc2dcbc037ee15b8383604051808360ff1660ff1681526020018281526020019250505060405180910390a1505050565b6000809054906101000a900473ffffffffffffffffffffffffffffffffffffffff1681565b60008060008060009054906101000a900473ffffffffffffffffffffffffffffffffffffffff1673ffffffffffffffffffffffffffffffffffffffff163373ffffffffffffffffffffffffffffffffffffffff16141515610e2c57600080fd5b856000806002811115610e3b57fe5b60018360ff16815481101515610e4d57fe5b906000526020600020906003020160020160049054906101000a900460ff166002811115610e7757fe5b141515610f12576040517f08c379a00000000000000000000000000000000000000000000000000000000081526004018080602001828103825260268152602001807f546869732073616c65206973206e6f7420696e2074686520636f72726563742081526020017f73746174652e000000000000000000000000000000000000000000000000000081525060400191505060405180910390fd5b60018860ff16815481101515610f2457fe5b9060005260206000209060030201945060008560000160089054906101000a900467ffffffffffffffff1667ffffffffffffffff161193508686905092508315610fdc57619c4063ffffffff168361ffff16600260049054906101000a900463ffffffff160163ffffffff1611151515610f9d57600080fd5b8261ffff16600260048282829054906101000a900463ffffffff160192506101000a81548163ffffffff021916908363ffffffff16021790555061104d565b6202710063ffffffff168361ffff16600260009054906101000a900463ffffffff160163ffffffff161115151561101257600080fd5b8261ffff16600260008282829054906101000a900463ffffffff160192506101000a81548163ffffffff021916908363ffffffff1602179055505b600360008960ff1660ff1681526020019081526020016000208787909180600181540180825580915050906001820390600052602060002001600090919293909192939091929091925091906110a49291906120a4565b5050828560020160008282829054906101000a900461ffff160192506101000a81548161ffff021916908361ffff1602179055508760ff167f6785a08d643117337b6cae6465390f9f22ae34088a05a84d89b3c78632eb7d448888604051808060200182810382528484828181526020019250602002808284378201915050935050505060405180910390a25050505050505050565b600260009054906101000a900463ffffffff1681565b600060018360ff1681548110151561116457fe5b906000526020600020906003020160010154141515611211576040517f08c379a00000000000000000000000000000000000000000000000000000000081526004018080602001828103825260368152602001807f596f752061726520747279696e6720746f207573652061204b6974747920746f81526020017f206275792066726f6d20616e204554482053616c652e0000000000000000000081525060400191505060405180910390fd5b61121a82611b07565b1561133157600560009054906101000a900473ffffffffffffffffffffffffffffffffffffffff1673ffffffffffffffffffffffffffffffffffffffff166323b872dd3330846040518463ffffffff167c0100000000000000000000000000000000000000000000000000000000028152600401808473ffffffffffffffffffffffffffffffffffffffff1673ffffffffffffffffffffffffffffffffffffffff1681526020018373ffffffffffffffffffffffffffffffffffffffff1673ffffffffffffffffffffffffffffffffffffffff1681526020018281526020019350505050600060405180830381600087803b15801561131857600080fd5b505af115801561132c573d6000803e3d6000fd5b505050505b5050565b600060149054906101000a900460ff1681565b60018181548110151561135757fe5b90600052602060002090600302016000915090508060000160009054906101000a900467ffffffffffffffff16908060000160089054906101000a900467ffffffffffffffff16908060010154908060020160009054906101000a900461ffff16908060020160029054906101000a900461ffff16908060020160049054906101000a900460ff16905086565b60006113ee61215a565b600060018460ff1681548110151561140257fe5b906000526020600020906003020160c060405190810160405290816000820160009054906101000a900467ffffffffffffffff1667ffffffffffffffff1667ffffffffffffffff1681526020016000820160089054906101000a900467ffffffffffffffff1667ffffffffffffffff1667ffffffffffffffff168152602001600182015481526020016002820160009054906101000a900461ffff1661ffff1661ffff1681526020016002820160029054906101000a900461ffff1661ffff1661ffff1681526020016002820160049054906101000a900460ff1660028111156114e857fe5b60028111156114f357fe5b8152505091506000826020015167ffffffffffffffff1614806115295750816020015182600001510167ffffffffffffffff1642105b905080801561155257506001600281111561154057fe5b8260a00151600281111561155057fe5b145b92505050919050565b619c4081565b60008060009054906101000a900473ffffffffffffffffffffffffffffffffffffffff1673ffffffffffffffffffffffffffffffffffffffff163373ffffffffffffffffffffffffffffffffffffffff161415156115be57600080fd5b8160008060028111156115cd57fe5b60018360ff168154811015156115df57fe5b906000526020600020906003020160020160049054906101000a900460ff16600281111561160957fe5b1415156116a4576040517f08c379a00000000000000000000000000000000000000000000000000000000081526004018080602001828103825260268152602001807f546869732073616c65206973206e6f7420696e2074686520636f72726563742081526020017f73746174652e000000000000000000000000000000000000000000000000000081525060400191505060405180910390fd5b60018460ff168154811015156116b657fe5b90600052602060002090600302019250428360000160006101000a81548167ffffffffffffffff021916908367ffffffffffffffff16021790555060018360020160046101000a81548160ff0219169083600281111561171257fe5b02179055507fdecaab47a6deb3a967cfc52307eccfe7f69b86882fa116ab5ed9041eab26acf484604051808260ff1660ff16815260200191505060405180910390a150505050565b600660009054906101000a900473ffffffffffffffffffffffffffffffffffffffff1681565b61178861215a565b60008060009054906101000a900473ffffffffffffffffffffffffffffffffffffffff1673ffffffffffffffffffffffffffffffffffffffff163373ffffffffffffffffffffffffffffffffffffffff161415156117e557600080fd5b60c060405190810160405280600067ffffffffffffffff1681526020018567ffffffffffffffff168152602001848152602001600061ffff168152602001600061ffff1681526020016000600281111561183b57fe5b8152509150600180839080600181540180825580915050906001820390600052602060002090600302016000909192909190915060008201518160000160006101000a81548167ffffffffffffffff021916908367ffffffffffffffff16021790555060208201518160000160086101000a81548167ffffffffffffffff021916908367ffffffffffffffff1602179055506040820151816001015560608201518160020160006101000a81548161ffff021916908361ffff16021790555060808201518160020160026101000a81548161ffff021916908361ffff16021790555060a08201518160020160046101000a81548160ff0219169083600281111561194157fe5b021790555050500390507f16e2f41c48cead8cf0d32b8f64fa97bf962ee98caab07cb740501a5782bf9c97818585604051808460ff1660ff1681526020018367ffffffffffffffff1667ffffffffffffffff168152602001828152602001935050505060405180910390a150505050565b6000809054906101000a900473ffffffffffffffffffffffffffffffffffffffff1673ffffffffffffffffffffffffffffffffffffffff163373ffffffffffffffffffffffffffffffffffffffff16141515611a0d57600080fd5b600073ffffffffffffffffffffffffffffffffffffffff168173ffffffffffffffffffffffffffffffffffffffff1614151515611a4957600080fd5b8073ffffffffffffffffffffffffffffffffffffffff166000809054906101000a900473ffffffffffffffffffffffffffffffffffffffff1673ffffffffffffffffffffffffffffffffffffffff167f8be0079c531659141344cd1fd0a4f28419497f9722a3daafe3b4186f6b6457e060405160405180910390a3806000806101000a81548173ffffffffffffffffffffffffffffffffffffffff021916908373ffffffffffffffffffffffffffffffffffffffff16021790555050565b60008060006060611b17856113e4565b1580611b4057506000600360008760ff1660ff1681526020019081526020016000208054905011155b15611b4e5760009350611c71565b611b5785611c79565b925060008380549050111515611b705760009350611c71565b611b7983611d4b565b9150611b858286611dea565b905060018560ff16815481101515611b9957fe5b9060005260206000209060030201600201600281819054906101000a900461ffff168092919060010191906101000a81548161ffff021916908361ffff160217905550503373ffffffffffffffffffffffffffffffffffffffff167f1947a407fc738aebf73559f82e681274d64efa878ea80c083c5c081d4e9833a0826040518080602001828103825283818151815260200191508051906020019060200280838360005b83811015611c59578082015181840152602081019050611c3e565b505050509050019250505060405180910390a2600193505b505050919050565b600080600360008460ff1660ff16815260200190815260200160002090506000816000815481101515611ca857fe5b906000526020600020018054905011158015611cc8575060018180549050115b15611d2a57806001828054905003815481101515611ce257fe5b90600052602060002001816000815481101515611cfb57fe5b90600052602060002001908054611d139291906121b8565b5080805480919060019003611d289190612218565b505b806000815481101515611d3957fe5b90600052602060002001915050919050565b60008060046000815480929190600101919050555082805490504233600454604051808481526020018373ffffffffffffffffffffffffffffffffffffffff1673ffffffffffffffffffffffffffffffffffffffff166c010000000000000000000000000281526014018281526020019350505050604051809103902060019004811515611dd557fe5b069050611de28184611fbb565b915050919050565b60606000606060008060008060ff9550600460ff16604051908082528060200260200182016040528015611e2d5781602001602082028038833980820191505090505b509450600193505b600460ff168460ff16111515611fac576008840260200392508560ff168360ff168a63ffffffff169060020a9004169150600660009054906101000a900473ffffffffffffffffffffffffffffffffffffffff1673ffffffffffffffffffffffffffffffffffffffff1663d53f9ea8838a336040518463ffffffff167c0100000000000000000000000000000000000000000000000000000000028152600401808460ff1660ff1681526020018360ff1660ff1681526020018273ffffffffffffffffffffffffffffffffffffffff1673ffffffffffffffffffffffffffffffffffffffff1681526020019350505050602060405180830381600087803b158015611f3f57600080fd5b505af1158015611f53573d6000803e3d6000fd5b505050506040513d6020811015611f6957600080fd5b8101908080519060200190929190505050905080856001860360ff16815181101515611f9157fe5b90602001906020020181815250508380600101945050611e35565b84965050505050505092915050565b600080600060018480549050039150818511151515611fd957600080fd5b8385815481101515611fe757fe5b90600052602060002090600891828204019190066004029054906101000a900463ffffffff169050838281548110151561201d57fe5b90600052602060002090600891828204019190066004029054906101000a900463ffffffff16848681548110151561205157fe5b90600052602060002090600891828204019190066004026101000a81548163ffffffff021916908363ffffffff160217905550838054809190600190036120989190612244565b50809250505092915050565b828054828255906000526020600020906007016008900481019282156121495791602002820160005b8382111561211757833563ffffffff1683826101000a81548163ffffffff021916908363ffffffff16021790555092602001926004016020816003010492830192600103026120cd565b80156121475782816101000a81549063ffffffff0219169055600401602081600301049283019260010302612117565b505b509050612156919061227e565b5090565b60c060405190810160405280600067ffffffffffffffff168152602001600067ffffffffffffffff16815260200160008152602001600061ffff168152602001600061ffff168152602001600060028111156121b257fe5b81525090565b82805482825590600052602060002090600701600890048101928215612207576000526020600020916007016008900482015b828111156122065782548255916001019190600101906121eb565b5b509050612214919061227e565b5090565b81548183558181111561223f5781836000526020600020918201910161223e91906122b1565b5b505050565b81548183558181111561227957600701600890048160070160089004836000526020600020918201910161227891906122dd565b5b505050565b6122ae91905b808211156122aa57600081816101000a81549063ffffffff021916905550600101612284565b5090565b90565b6122da91905b808211156122d657600081816122cd9190612302565b506001016122b7565b5090565b90565b6122ff91905b808211156122fb5760008160009055506001016122e3565b5090565b90565b50805460008255600701600890049060005260206000209081019061232791906122dd565b505600a165627a7a72305820d8538c7883bac746ff11f85bc9724a525f33f9d7a20e63931085020f1f49774e0029",
  "source": "pragma solidity ^0.4.23;\n\nimport \"./PackSaleFactory.sol\";\nimport \"openzeppelin-solidity/contracts/token/ERC721/ERC721Basic.sol\";\n\n/// @dev We use the interface here (instead of importing StrikersMinting) to avoid circular imports\n///   (StrikersMinting already imports StrikersPackSale to make sure only it can call mintBaseCard)\ncontract StrikersMintingInterface {\n  function mintBaseCard(uint8 _checklistId, uint8 _saleId, address _owner) external returns (uint256);\n}\n\ncontract StrikersPackSale is PackSaleFactory {\n  /*** EVENTS ***/\n  // TODO: maybe track packID with a counter?\n  event PackBought(address indexed buyer, uint256[] pack);\n\n  /*** STORAGE ***/\n\n  /// @dev We use/increment this nonce when grabbing a random pack in _removeRandomPack()\n  uint256 randNonce = 0;\n\n  /// @dev A reference to the CryptoKitties contract so we can transfer cats\n  ERC721Basic public kittiesContract;\n\n  /// @dev A reference to the contract where the cards are actually minted\n  StrikersMintingInterface public strikersMinting;\n\n\n  /// @dev Constructor. Can't change strikersMinting address once it's been initialized\n  constructor(address _kittiesContractAddress, address _strikersMintingAddress) public {\n    kittiesContract = ERC721Basic(_kittiesContractAddress);\n    strikersMinting = StrikersMintingInterface(_strikersMintingAddress);\n  }\n\n  // TODO: buyPack for someone else (giftPack?)\n  // TODO: handle return false better\n  function buyPacksWithETH(uint8 _saleId) external payable {\n    uint256 packPrice = sales[_saleId].packPrice;\n    require(packPrice > 0, \"You are trying to use ETH to buy from a Kitty Sale.\");\n\n    uint256 balanceLeft = msg.value;\n    while (balanceLeft >= packPrice) {\n      if (!_buyPack(_saleId)) {\n        break;\n      }\n\n      // NOTE: impossible for this to underflow because\n      // we only enter the while loop if balanceLeft >= packPrice\n      balanceLeft -= packPrice;\n    }\n\n    // Return excess funds\n    msg.sender.transfer(balanceLeft);\n  }\n\n  /// @dev Needs prior approval!!!\n  function buyPackWithKitty(uint8 _saleId, uint256 _kittyId) external {\n    require(sales[_saleId].packPrice == 0, \"You are trying to use a Kitty to buy from an ETH Sale.\");\n\n    if (_buyPack(_saleId)) {\n      // Will throw/revert if this contract hasn't been approved first.\n      // Transferring to \"this\" burns the cat!\n      kittiesContract.transferFrom(msg.sender, this, _kittyId);\n    }\n  }\n\n  function _buyPack(uint8 _saleId) internal returns (bool) {\n    if (!saleInProgress(_saleId) || shuffledPacksForSale[_saleId].length <= 0) {\n      return false;\n    }\n\n    uint32[] storage nextPacks = _getNextPacks(_saleId);\n    if (nextPacks.length <= 0) {\n      return false;\n    }\n\n    // TODO: this could throw and we need to return true/false for our external buy functions... bad?\n    uint32 pack = _removeRandomPack(nextPacks);\n    uint256[] memory cards = _mintCards(pack, _saleId);\n    sales[_saleId].packsSold++;\n    emit PackBought(msg.sender, cards);\n    return true;\n  }\n\n  function _mintCards(uint32 _pack, uint8 _saleId) internal returns (uint256[]) {\n    uint8 mask = 255;\n    uint256[] memory newCards = new uint256[](PACK_SIZE);\n\n    for (uint8 i = 1; i <= PACK_SIZE; i++) {\n      uint8 shift = 32 - (i * 8);\n      uint8 checklistId = uint8((_pack >> shift) & mask);\n      uint256 cardId = strikersMinting.mintBaseCard(checklistId, _saleId, msg.sender);\n      newCards[i-1] = cardId;\n    }\n\n    return newCards;\n  }\n\n  function _getNextPacks(uint8 _saleId) internal returns (uint32[] storage) {\n    uint32[][] storage packsForSale = shuffledPacksForSale[_saleId];\n\n    if (packsForSale[0].length <= 0 && packsForSale.length > 1) {\n      packsForSale[0] = packsForSale[packsForSale.length - 1];\n      packsForSale.length--;\n    }\n\n    return packsForSale[0];\n  }\n\n  function _removeRandomPack(uint32[] storage _packs) internal returns (uint32) {\n    randNonce++;\n    uint256 randomIndex = uint256(keccak256(now, msg.sender, randNonce)) % _packs.length;\n    return _removePackAtIndex(randomIndex, _packs);\n  }\n\n  function _removePackAtIndex(uint256 _index, uint32[] storage _packs) internal returns (uint32) {\n    uint256 lastIndex = _packs.length - 1;\n    require(_index <= lastIndex);\n    uint32 pack = _packs[_index];\n    _packs[_index] = _packs[lastIndex];\n    _packs.length--;\n    return pack;\n  }\n}\n",
  "sourcePath": "/Users/GiaSet/Desktop/Projects/cryptostrikers/contracts/StrikersPackSale.sol",
  "compiler": {
    "name": "solc",
    "version": "0.4.23+commit.124ca40d.Emscripten.clang"
  },
  "schemaVersion": "2.0.0",
  "updatedAt": "2018-05-07T07:10:49.938Z"
}