{
  "contractName": "Checklist",
  "abi": [
    {
      "constant": true,
      "inputs": [
        {
          "name": "",
          "type": "uint256"
        }
      ],
      "name": "countries",
      "outputs": [
        {
          "name": "",
          "type": "string"
        }
      ],
      "payable": false,
      "stateMutability": "view",
      "type": "function"
    },
    {
      "constant": true,
      "inputs": [
        {
          "name": "",
          "type": "uint8"
        },
        {
          "name": "",
          "type": "uint256"
        }
      ],
      "name": "setIdToChecklistItems",
      "outputs": [
        {
          "name": "playerId",
          "type": "uint8"
        },
        {
          "name": "totalIssuance",
          "type": "uint16"
        }
      ],
      "payable": false,
      "stateMutability": "view",
      "type": "function"
    },
    {
      "constant": true,
      "inputs": [],
      "name": "owner",
      "outputs": [
        {
          "name": "",
          "type": "address"
        }
      ],
      "payable": false,
      "stateMutability": "view",
      "type": "function"
    },
    {
      "constant": false,
      "inputs": [
        {
          "name": "newOwner",
          "type": "address"
        }
      ],
      "name": "transferOwnership",
      "outputs": [],
      "payable": false,
      "stateMutability": "nonpayable",
      "type": "function"
    },
    {
      "constant": true,
      "inputs": [
        {
          "name": "",
          "type": "uint256"
        }
      ],
      "name": "players",
      "outputs": [
        {
          "name": "fullName",
          "type": "string"
        },
        {
          "name": "countryId",
          "type": "uint8"
        }
      ],
      "payable": false,
      "stateMutability": "view",
      "type": "function"
    },
    {
      "inputs": [],
      "payable": false,
      "stateMutability": "nonpayable",
      "type": "constructor"
    },
    {
      "anonymous": false,
      "inputs": [
        {
          "indexed": true,
          "name": "previousOwner",
          "type": "address"
        },
        {
          "indexed": true,
          "name": "newOwner",
          "type": "address"
        }
      ],
      "name": "OwnershipTransferred",
      "type": "event"
    },
    {
      "constant": false,
      "inputs": [
        {
          "name": "_setId",
          "type": "uint8"
        },
        {
          "name": "_playerId",
          "type": "uint8"
        },
        {
          "name": "_totalIssuance",
          "type": "uint16"
        }
      ],
      "name": "addChecklistItem",
      "outputs": [],
      "payable": false,
      "stateMutability": "nonpayable",
      "type": "function"
    }
  ],
  "bytecode": "0x6080604052610400604051908101604052806040805190810160405280600981526020017f417267656e74696e61000000000000000000000000000000000000000000000081525081526020016040805190810160405280600981526020017f4175737472616c6961000000000000000000000000000000000000000000000081525081526020016040805190810160405280600781526020017f42656c6769756d0000000000000000000000000000000000000000000000000081525081526020016040805190810160405280600681526020017f4272617a696c000000000000000000000000000000000000000000000000000081525081526020016040805190810160405280600881526020017f436f6c6f6d62696100000000000000000000000000000000000000000000000081525081526020016040805190810160405280600a81526020017f436f73746120526963610000000000000000000000000000000000000000000081525081526020016040805190810160405280600781526020017f43726f617469610000000000000000000000000000000000000000000000000081525081526020016040805190810160405280600781526020017f44656e6d61726b0000000000000000000000000000000000000000000000000081525081526020016040805190810160405280600581526020017f456779707400000000000000000000000000000000000000000000000000000081525081526020016040805190810160405280600781526020017f456e676c616e640000000000000000000000000000000000000000000000000081525081526020016040805190810160405280600681526020017f4672616e6365000000000000000000000000000000000000000000000000000081525081526020016040805190810160405280600781526020017f4765726d616e790000000000000000000000000000000000000000000000000081525081526020016040805190810160405280600781526020017f4963656c616e640000000000000000000000000000000000000000000000000081525081526020016040805190810160405280600481526020017f4972616e0000000000000000000000000000000000000000000000000000000081525081526020016040805190810160405280600581526020017f4a6170616e00000000000000000000000000000000000000000000000000000081525081526020016040805190810160405280600681526020017f4d657869636f000000000000000000000000000000000000000000000000000081525081526020016040805190810160405280600781526020017f4d6f726f63636f0000000000000000000000000000000000000000000000000081525081526020016040805190810160405280600781526020017f4e6967657269610000000000000000000000000000000000000000000000000081525081526020016040805190810160405280600681526020017f50616e616d61000000000000000000000000000000000000000000000000000081525081526020016040805190810160405280600481526020017f506572750000000000000000000000000000000000000000000000000000000081525081526020016040805190810160405280600681526020017f506f6c616e64000000000000000000000000000000000000000000000000000081525081526020016040805190810160405280600881526020017f506f72747567616c00000000000000000000000000000000000000000000000081525081526020016040805190810160405280600681526020017f527573736961000000000000000000000000000000000000000000000000000081525081526020016040805190810160405280600c81526020017f536175646920417261626961000000000000000000000000000000000000000081525081526020016040805190810160405280600781526020017f53656e6567616c0000000000000000000000000000000000000000000000000081525081526020016040805190810160405280600681526020017f536572626961000000000000000000000000000000000000000000000000000081525081526020016040805190810160405280600b81526020017f536f757468204b6f72656100000000000000000000000000000000000000000081525081526020016040805190810160405280600581526020017f537061696e00000000000000000000000000000000000000000000000000000081525081526020016040805190810160405280600681526020017f53776564656e000000000000000000000000000000000000000000000000000081525081526020016040805190810160405280600b81526020017f537769747a65726c616e6400000000000000000000000000000000000000000081525081526020016040805190810160405280600781526020017f54756e697369610000000000000000000000000000000000000000000000000081525081526020016040805190810160405280600781526020017f557275677561790000000000000000000000000000000000000000000000000081525081525060019060206200078192919062003cdd565b503480156200078f57600080fd5b50336000806101000a81548173ffffffffffffffffffffffffffffffffffffffff021916908373ffffffffffffffffffffffffffffffffffffffff160217905550600260408051908101604052806040805190810160405280600c81526020017f4c696f6e656c204d6573736900000000000000000000000000000000000000008152508152602001600060ff168152509080600181540180825580915050906001820390600052602060002090600202016000909192909190915060008201518160000190805190602001906200086992919062003d44565b5060208201518160010160006101000a81548160ff021916908360ff160217905550505050600260408051908101604052806040805190810160405280601181526020017f437269737469616e6f20526f6e616c646f0000000000000000000000000000008152508152602001601560ff168152509080600181540180825580915050906001820390600052602060002090600202016000909192909190915060008201518160000190805190602001906200092792919062003d44565b5060208201518160010160006101000a81548160ff021916908360ff160217905550505050600260408051908101604052806040805190810160405280600681526020017f4e65796d617200000000000000000000000000000000000000000000000000008152508152602001600360ff16815250908060018154018082558091505090600182039060005260206000209060020201600090919290919091506000820151816000019080519060200190620009e592919062003d44565b5060208201518160010160006101000a81548160ff021916908360ff160217905550505050600260408051908101604052806040805190810160405280600d81526020017f4d6f68616d65642053616c6168000000000000000000000000000000000000008152508152602001600860ff1681525090806001815401808255809150509060018203906000526020600020906002020160009091929091909150600082015181600001908051906020019062000aa392919062003d44565b5060208201518160010160006101000a81548160ff021916908360ff160217905550505050600260408051908101604052806040805190810160405280601281526020017f526f62657274204c6577616e646f77736b6900000000000000000000000000008152508152602001601460ff1681525090806001815401808255809150509060018203906000526020600020906002020160009091929091909150600082015181600001908051906020019062000b6192919062003d44565b5060208201518160010160006101000a81548160ff021916908360ff160217905550505050600260408051908101604052806040805190810160405280600f81526020017f4b6576696e20446520427275796e6500000000000000000000000000000000008152508152602001600260ff1681525090806001815401808255809150509060018203906000526020600020906002020160009091929091909150600082015181600001908051906020019062000c1f92919062003d44565b5060208201518160010160006101000a81548160ff021916908360ff160217905550505050600260408051908101604052806040805190810160405280600c81526020017f4c756b61204d6f647269c48700000000000000000000000000000000000000008152508152602001600660ff1681525090806001815401808255809150509060018203906000526020600020906002020160009091929091909150600082015181600001908051906020019062000cdd92919062003d44565b5060208201518160010160006101000a81548160ff021916908360ff160217905550505050600260408051908101604052806040805190810160405280600b81526020017f4564656e2048617a6172640000000000000000000000000000000000000000008152508152602001600260ff1681525090806001815401808255809150509060018203906000526020600020906002020160009091929091909150600082015181600001908051906020019062000d9b92919062003d44565b5060208201518160010160006101000a81548160ff021916908360ff160217905550505050600260408051908101604052806040805190810160405280600c81526020017f53657267696f2052616d6f7300000000000000000000000000000000000000008152508152602001601b60ff1681525090806001815401808255809150509060018203906000526020600020906002020160009091929091909150600082015181600001908051906020019062000e5992919062003d44565b5060208201518160010160006101000a81548160ff021916908360ff160217905550505050600260408051908101604052806040805190810160405280600a81526020017f546f6e69204b726f6f73000000000000000000000000000000000000000000008152508152602001600b60ff1681525090806001815401808255809150509060018203906000526020600020906002020160009091929091909150600082015181600001908051906020019062000f1792919062003d44565b5060208201518160010160006101000a81548160ff021916908360ff160217905550505050600260408051908101604052806040805190810160405280600c81526020017f4c756973205375c3a172657a00000000000000000000000000000000000000008152508152602001601f60ff1681525090806001815401808255809150509060018203906000526020600020906002020160009091929091909150600082015181600001908051906020019062000fd592919062003d44565b5060208201518160010160006101000a81548160ff021916908360ff160217905550505050600260408051908101604052806040805190810160405280600a81526020017f4861727279204b616e65000000000000000000000000000000000000000000008152508152602001600960ff168152509080600181540180825580915050906001820390600052602060002090600202016000909192909190915060008201518160000190805190602001906200109392919062003d44565b5060208201518160010160006101000a81548160ff021916908360ff160217905550505050600260408051908101604052806040805190810160405280600e81526020017f53657267696f204167c3bc65726f0000000000000000000000000000000000008152508152602001600060ff168152509080600181540180825580915050906001820390600052602060002090600202016000909192909190915060008201518160000190805190602001906200115192919062003d44565b5060208201518160010160006101000a81548160ff021916908360ff160217905550505050600260408051908101604052806040805190810160405280600e81526020017f4b796c69616e204d62617070c3a90000000000000000000000000000000000008152508152602001600a60ff168152509080600181540180825580915050906001820390600052602060002090600202016000909192909190915060008201518160000190805190602001906200120f92919062003d44565b5060208201518160010160006101000a81548160ff021916908360ff160217905550505050600260408051908101604052806040805190810160405280601081526020017f476f6e7a616c6f204869677561c3ad6e000000000000000000000000000000008152508152602001600060ff16815250908060018154018082558091505090600182039060005260206000209060020201600090919290919091506000820151816000019080519060200190620012cd92919062003d44565b5060208201518160010160006101000a81548160ff021916908360ff160217905550505050600260408051908101604052806040805190810160405280600c81526020017f44617669642044652047656100000000000000000000000000000000000000008152508152602001601b60ff168152509080600181540180825580915050906001820390600052602060002090600202016000909192909190915060008201518160000190805190602001906200138b92919062003d44565b5060208201518160010160006101000a81548160ff021916908360ff160217905550505050600260408051908101604052806040805190810160405280601181526020017f416e746f696e6520477269657a6d616e6e0000000000000000000000000000008152508152602001600a60ff168152509080600181540180825580915050906001820390600052602060002090600202016000909192909190915060008201518160000190805190602001906200144992919062003d44565b5060208201518160010160006101000a81548160ff021916908360ff160217905550505050600260408051908101604052806040805190810160405280600d81526020017f4e27476f6c6f204b616e74c3a9000000000000000000000000000000000000008152508152602001600a60ff168152509080600181540180825580915050906001820390600052602060002090600202016000909192909190915060008201518160000190805190602001906200150792919062003d44565b5060208201518160010160006101000a81548160ff021916908360ff160217905550505050600260408051908101604052806040805190810160405280600e81526020017f4564696e736f6e20436176616e690000000000000000000000000000000000008152508152602001601f60ff16815250908060018154018082558091505090600182039060005260206000209060020201600090919290919091506000820151816000019080519060200190620015c592919062003d44565b5060208201518160010160006101000a81548160ff021916908360ff160217905550505050600260408051908101604052806040805190810160405280600a81526020017f5061756c20506f676261000000000000000000000000000000000000000000008152508152602001600a60ff168152509080600181540180825580915050906001820390600052602060002090600202016000909192909190915060008201518160000190805190602001906200168392919062003d44565b5060208201518160010160006101000a81548160ff021916908360ff160217905550505050600260408051908101604052806040805190810160405280600481526020017f4973636f000000000000000000000000000000000000000000000000000000008152508152602001601b60ff168152509080600181540180825580915050906001820390600052602060002090600202016000909192909190915060008201518160000190805190602001906200174192919062003d44565b5060208201518160010160006101000a81548160ff021916908360ff160217905550505050600260408051908101604052806040805190810160405280600781526020017f4d617263656c6f000000000000000000000000000000000000000000000000008152508152602001600360ff16815250908060018154018082558091505090600182039060005260206000209060020201600090919290919091506000820151816000019080519060200190620017ff92919062003d44565b5060208201518160010160006101000a81548160ff021916908360ff160217905550505050600260408051908101604052806040805190810160405280600c81526020017f4d616e75656c204e6575657200000000000000000000000000000000000000008152508152602001600b60ff16815250908060018154018082558091505090600182039060005260206000209060020201600090919290919091506000820151816000019080519060200190620018bd92919062003d44565b5060208201518160010160006101000a81548160ff021916908360ff160217905550505050600260408051908101604052806040805190810160405280600d81526020017f4472696573204d657274656e73000000000000000000000000000000000000008152508152602001600260ff168152509080600181540180825580915050906001820390600052602060002090600202016000909192909190915060008201518160000190805190602001906200197b92919062003d44565b5060208201518160010160006101000a81548160ff021916908360ff160217905550505050600260408051908101604052806040805190810160405280601081526020017f4a616d657320526f6472c3ad6775657a000000000000000000000000000000008152508152602001600460ff1681525090806001815401808255809150509060018203906000526020600020906002020160009091929091909150600082015181600001908051906020019062001a3992919062003d44565b5060208201518160010160006101000a81548160ff021916908360ff160217905550505050600260408051908101604052806040805190810160405280600c81526020017f54686961676f2053696c766100000000000000000000000000000000000000008152508152602001600360ff1681525090806001815401808255809150509060018203906000526020600020906002020160009091929091909150600082015181600001908051906020019062001af792919062003d44565b5060208201518160010160006101000a81548160ff021916908360ff160217905550505050600260408051908101604052806040805190810160405280600b81526020017f44617669642053696c76610000000000000000000000000000000000000000008152508152602001601b60ff1681525090806001815401808255809150509060018203906000526020600020906002020160009091929091909150600082015181600001908051906020019062001bb592919062003d44565b5060208201518160010160006101000a81548160ff021916908360ff160217905550505050600260408051908101604052806040805190810160405280601081526020017f5468696261757420436f7572746f6973000000000000000000000000000000008152508152602001600260ff1681525090806001815401808255809150509060018203906000526020600020906002020160009091929091909150600082015181600001908051906020019062001c7392919062003d44565b5060208201518160010160006101000a81548160ff021916908360ff160217905550505050600260408051908101604052806040805190810160405280601181526020017f43687269737469616e204572696b73656e0000000000000000000000000000008152508152602001600760ff1681525090806001815401808255809150509060018203906000526020600020906002020160009091929091909150600082015181600001908051906020019062001d3192919062003d44565b5060208201518160010160006101000a81548160ff021916908360ff160217905550505050600260408051908101604052806040805190810160405280601081526020017fc3816e67656c204469204d6172c3ad61000000000000000000000000000000008152508152602001600060ff1681525090806001815401808255809150509060018203906000526020600020906002020160009091929091909150600082015181600001908051906020019062001def92919062003d44565b5060208201518160010160006101000a81548160ff021916908360ff160217905550505050600260408051908101604052806040805190810160405280600d81526020017f4976616e2052616b697469c487000000000000000000000000000000000000008152508152602001600660ff1681525090806001815401808255809150509060018203906000526020600020906002020160009091929091909150600082015181600001908051906020019062001ead92919062003d44565b5060208201518160010160006101000a81548160ff021916908360ff160217905550505050600260408051908101604052806040805190810160405280600981526020017f44656c6520416c6c6900000000000000000000000000000000000000000000008152508152602001600960ff1681525090806001815401808255809150509060018203906000526020600020906002020160009091929091909150600082015181600001908051906020019062001f6b92919062003d44565b5060208201518160010160006101000a81548160ff021916908360ff160217905550505050600260408051908101604052806040805190810160405280601181526020017f5068696c6970706520436f7574696e686f0000000000000000000000000000008152508152602001600360ff168152509080600181540180825580915050906001820390600052602060002090600202016000909192909190915060008201518160000190805190602001906200202992919062003d44565b5060208201518160010160006101000a81548160ff021916908360ff160217905550505050600260408051908101604052806040805190810160405280600681526020017f54686961676f00000000000000000000000000000000000000000000000000008152508152602001601b60ff16815250908060018154018082558091505090600182039060005260206000209060020201600090919290919091506000820151816000019080519060200190620020e792919062003d44565b5060208201518160010160006101000a81548160ff021916908360ff160217905550505050600260408051908101604052806040805190810160405280600b81526020017f4d6573757420c3967a696c0000000000000000000000000000000000000000008152508152602001600b60ff16815250908060018154018082558091505090600182039060005260206000209060020201600090919290919091506000820151816000019080519060200190620021a592919062003d44565b5060208201518160010160006101000a81548160ff021916908360ff160217905550505050600260408051908101604052806040805190810160405280600b81526020017f4875676f204c6c6f7269730000000000000000000000000000000000000000008152508152602001600a60ff168152509080600181540180825580915050906001820390600052602060002090600202016000909192909190915060008201518160000190805190602001906200226392919062003d44565b5060208201518160010160006101000a81548160ff021916908360ff160217905550505050600260408051908101604052806040805190810160405280600a81526020017f44616e6920416c766573000000000000000000000000000000000000000000008152508152602001600360ff168152509080600181540180825580915050906001820390600052602060002090600202016000909192909190915060008201518160000190805190602001906200232192919062003d44565b5060208201518160010160006101000a81548160ff021916908360ff160217905550505050600260408051908101604052806040805190810160405280600e81526020017f526164616d656c2046616c63616f0000000000000000000000000000000000008152508152602001600460ff16815250908060018154018082558091505090600182039060005260206000209060020201600090919290919091506000820151816000019080519060200190620023df92919062003d44565b5060208201518160010160006101000a81548160ff021916908360ff160217905550505050600260408051908101604052806040805190810160405280600c81526020017f4d6174732048756d6d656c7300000000000000000000000000000000000000008152508152602001600b60ff168152509080600181540180825580915050906001820390600052602060002090600202016000909192909190915060008201518160000190805190602001906200249d92919062003d44565b5060208201518160010160006101000a81548160ff021916908360ff160217905550505050600260408051908101604052806040805190810160405280600f81526020017f416e6472c3a97320496e696573746100000000000000000000000000000000008152508152602001601b60ff168152509080600181540180825580915050906001820390600052602060002090600202016000909192909190915060008201518160000190805190602001906200255b92919062003d44565b5060208201518160010160006101000a81548160ff021916908360ff160217905550505050600260408051908101604052806040805190810160405280600d81526020017f526f6d656c75204c756b616b75000000000000000000000000000000000000008152508152602001600260ff168152509080600181540180825580915050906001820390600052602060002090600202016000909192909190915060008201518160000190805190602001906200261992919062003d44565b5060208201518160010160006101000a81548160ff021916908360ff160217905550505050600260408051908101604052806040805190810160405280600b81526020017f536164696f204d616ec3a90000000000000000000000000000000000000000008152508152602001601860ff16815250908060018154018082558091505090600182039060005260206000209060020201600090919290919091506000820151816000019080519060200190620026d792919062003d44565b5060208201518160010160006101000a81548160ff021916908360ff160217905550505050600260408051908101604052806040805190810160405280600d81526020017f536f6e204865756e672d6d696e000000000000000000000000000000000000008152508152602001601a60ff168152509080600181540180825580915050906001820390600052602060002090600202016000909192909190915060008201518160000190805190602001906200279592919062003d44565b5060208201518160010160006101000a81548160ff021916908360ff160217905550505050600260408051908101604052806040805190810160405280601181526020017f4a6176696572204865726ec3a16e64657a0000000000000000000000000000008152508152602001600f60ff168152509080600181540180825580915050906001820390600052602060002090600202016000909192909190915060008201518160000190805190602001906200285392919062003d44565b5060208201518160010160006101000a81548160ff021916908360ff160217905550505050600260408051908101604052806040805190810160405280600881526020017f436173656d69726f0000000000000000000000000000000000000000000000008152508152602001600360ff168152509080600181540180825580915050906001820390600052602060002090600202016000909192909190915060008201518160000190805190602001906200291192919062003d44565b5060208201518160010160006101000a81548160ff021916908360ff160217905550505050600260408051908101604052806040805190810160405280600c81526020017f446965676f20476f64c3ad6e00000000000000000000000000000000000000008152508152602001601f60ff16815250908060018154018082558091505090600182039060005260206000209060020201600090919290919091506000820151816000019080519060200190620029cf92919062003d44565b5060208201518160010160006101000a81548160ff021916908360ff160217905550505050600260408051908101604052806040805190810160405280601181526020017f4b616c69646f75204b6f756c6962616c790000000000000000000000000000008152508152602001601860ff1681525090806001815401808255809150509060018203906000526020600020906002020160009091929091909150600082015181600001908051906020019062002a8d92919062003d44565b5060208201518160010160006101000a81548160ff021916908360ff160217905550505050600260408051908101604052806040805190810160405280600c81526020017f4b65796c6f72204e6176617300000000000000000000000000000000000000008152508152602001600560ff1681525090806001815401808255809150509060018203906000526020600020906002020160009091929091909150600082015181600001908051906020019062002b4b92919062003d44565b5060208201518160010160006101000a81548160ff021916908360ff160217905550505050600260408051908101604052806040805190810160405280600f81526020017f52616865656d20537465726c696e6700000000000000000000000000000000008152508152602001600960ff1681525090806001815401808255809150509060018203906000526020600020906002020160009091929091909150600082015181600001908051906020019062002c0992919062003d44565b5060208201518160010160006101000a81548160ff021916908360ff160217905550505050600260408051908101604052806040805190810160405280600d81526020017f4765726172642050697175c3a9000000000000000000000000000000000000008152508152602001601b60ff1681525090806001815401808255809150509060018203906000526020600020906002020160009091929091909150600082015181600001908051906020019062002cc792919062003d44565b5060208201518160010160006101000a81548160ff021916908360ff160217905550505050600360008060ff1681526020019081526020016000206040805190810160405280600060ff168152602001611f4061ffff1681525090806001815401808255809150509060018203906000526020600020016000909192909190915060008201518160000160006101000a81548160ff021916908360ff16021790555060208201518160000160016101000a81548161ffff021916908361ffff160217905550505050600360008060ff1681526020019081526020016000206040805190810160405280600160ff168152602001611f4061ffff1681525090806001815401808255809150509060018203906000526020600020016000909192909190915060008201518160000160006101000a81548160ff021916908360ff16021790555060208201518160000160016101000a81548161ffff021916908361ffff160217905550505050600360008060ff1681526020019081526020016000206040805190810160405280600260ff168152602001611f4061ffff1681525090806001815401808255809150509060018203906000526020600020016000909192909190915060008201518160000160006101000a81548160ff021916908360ff16021790555060208201518160000160016101000a81548161ffff021916908361ffff160217905550505050600360008060ff1681526020019081526020016000206040805190810160405280600360ff168152602001611f4061ffff1681525090806001815401808255809150509060018203906000526020600020016000909192909190915060008201518160000160006101000a81548160ff021916908360ff16021790555060208201518160000160016101000a81548161ffff021916908361ffff160217905550505050600360008060ff1681526020019081526020016000206040805190810160405280600460ff168152602001611f4061ffff1681525090806001815401808255809150509060018203906000526020600020016000909192909190915060008201518160000160006101000a81548160ff021916908360ff16021790555060208201518160000160016101000a81548161ffff021916908361ffff160217905550505050600360008060ff1681526020019081526020016000206040805190810160405280600560ff168152602001611f4061ffff1681525090806001815401808255809150509060018203906000526020600020016000909192909190915060008201518160000160006101000a81548160ff021916908360ff16021790555060208201518160000160016101000a81548161ffff021916908361ffff160217905550505050600360008060ff1681526020019081526020016000206040805190810160405280600660ff168152602001611f4061ffff1681525090806001815401808255809150509060018203906000526020600020016000909192909190915060008201518160000160006101000a81548160ff021916908360ff16021790555060208201518160000160016101000a81548161ffff021916908361ffff160217905550505050600360008060ff1681526020019081526020016000206040805190810160405280600760ff168152602001611f4061ffff1681525090806001815401808255809150509060018203906000526020600020016000909192909190915060008201518160000160006101000a81548160ff021916908360ff16021790555060208201518160000160016101000a81548161ffff021916908361ffff160217905550505050600360008060ff1681526020019081526020016000206040805190810160405280600860ff168152602001611f4061ffff1681525090806001815401808255809150509060018203906000526020600020016000909192909190915060008201518160000160006101000a81548160ff021916908360ff16021790555060208201518160000160016101000a81548161ffff021916908361ffff160217905550505050600360008060ff1681526020019081526020016000206040805190810160405280600960ff168152602001611f4061ffff1681525090806001815401808255809150509060018203906000526020600020016000909192909190915060008201518160000160006101000a81548160ff021916908360ff16021790555060208201518160000160016101000a81548161ffff021916908361ffff160217905550505050600360008060ff1681526020019081526020016000206040805190810160405280600a60ff168152602001611f4061ffff1681525090806001815401808255809150509060018203906000526020600020016000909192909190915060008201518160000160006101000a81548160ff021916908360ff16021790555060208201518160000160016101000a81548161ffff021916908361ffff160217905550505050600360008060ff1681526020019081526020016000206040805190810160405280600b60ff168152602001611f4061ffff1681525090806001815401808255809150509060018203906000526020600020016000909192909190915060008201518160000160006101000a81548160ff021916908360ff16021790555060208201518160000160016101000a81548161ffff021916908361ffff160217905550505050600360008060ff1681526020019081526020016000206040805190810160405280600c60ff168152602001611f4061ffff1681525090806001815401808255809150509060018203906000526020600020016000909192909190915060008201518160000160006101000a81548160ff021916908360ff16021790555060208201518160000160016101000a81548161ffff021916908361ffff160217905550505050600360008060ff1681526020019081526020016000206040805190810160405280600d60ff168152602001611f4061ffff1681525090806001815401808255809150509060018203906000526020600020016000909192909190915060008201518160000160006101000a81548160ff021916908360ff16021790555060208201518160000160016101000a81548161ffff021916908361ffff160217905550505050600360008060ff1681526020019081526020016000206040805190810160405280600e60ff168152602001611f4061ffff1681525090806001815401808255809150509060018203906000526020600020016000909192909190915060008201518160000160006101000a81548160ff021916908360ff16021790555060208201518160000160016101000a81548161ffff021916908361ffff160217905550505050600360008060ff1681526020019081526020016000206040805190810160405280600f60ff168152602001611f4061ffff1681525090806001815401808255809150509060018203906000526020600020016000909192909190915060008201518160000160006101000a81548160ff021916908360ff16021790555060208201518160000160016101000a81548161ffff021916908361ffff160217905550505050600360008060ff1681526020019081526020016000206040805190810160405280601060ff168152602001611f4061ffff1681525090806001815401808255809150509060018203906000526020600020016000909192909190915060008201518160000160006101000a81548160ff021916908360ff16021790555060208201518160000160016101000a81548161ffff021916908361ffff160217905550505050600360008060ff1681526020019081526020016000206040805190810160405280601160ff168152602001611f4061ffff1681525090806001815401808255809150509060018203906000526020600020016000909192909190915060008201518160000160006101000a81548160ff021916908360ff16021790555060208201518160000160016101000a81548161ffff021916908361ffff160217905550505050600360008060ff1681526020019081526020016000206040805190810160405280601260ff168152602001611f4061ffff1681525090806001815401808255809150509060018203906000526020600020016000909192909190915060008201518160000160006101000a81548160ff021916908360ff16021790555060208201518160000160016101000a81548161ffff021916908361ffff160217905550505050600360008060ff1681526020019081526020016000206040805190810160405280601360ff168152602001611f4061ffff1681525090806001815401808255809150509060018203906000526020600020016000909192909190915060008201518160000160006101000a81548160ff021916908360ff16021790555060208201518160000160016101000a81548161ffff021916908361ffff160217905550505050600360008060ff1681526020019081526020016000206040805190810160405280601460ff168152602001611f4061ffff1681525090806001815401808255809150509060018203906000526020600020016000909192909190915060008201518160000160006101000a81548160ff021916908360ff16021790555060208201518160000160016101000a81548161ffff021916908361ffff160217905550505050600360008060ff1681526020019081526020016000206040805190810160405280601560ff168152602001611f4061ffff1681525090806001815401808255809150509060018203906000526020600020016000909192909190915060008201518160000160006101000a81548160ff021916908360ff16021790555060208201518160000160016101000a81548161ffff021916908361ffff160217905550505050600360008060ff1681526020019081526020016000206040805190810160405280601660ff168152602001611f4061ffff1681525090806001815401808255809150509060018203906000526020600020016000909192909190915060008201518160000160006101000a81548160ff021916908360ff16021790555060208201518160000160016101000a81548161ffff021916908361ffff160217905550505050600360008060ff1681526020019081526020016000206040805190810160405280601760ff168152602001611f4061ffff1681525090806001815401808255809150509060018203906000526020600020016000909192909190915060008201518160000160006101000a81548160ff021916908360ff16021790555060208201518160000160016101000a81548161ffff021916908361ffff160217905550505050600360008060ff1681526020019081526020016000206040805190810160405280601860ff168152602001611f4061ffff1681525090806001815401808255809150509060018203906000526020600020016000909192909190915060008201518160000160006101000a81548160ff021916908360ff16021790555060208201518160000160016101000a81548161ffff021916908361ffff16021790555050505062003e70565b82805482825590600052602060002090810192821562003d31579160200282015b8281111562003d3057825182908051906020019062003d1f92919062003d44565b509160200191906001019062003cfe565b5b50905062003d40919062003dcb565b5090565b828054600181600116156101000203166002900490600052602060002090601f016020900481019282601f1062003d8757805160ff191683800117855562003db8565b8280016001018555821562003db8579182015b8281111562003db757825182559160200191906001019062003d9a565b5b50905062003dc7919062003dfc565b5090565b62003df991905b8082111562003df5576000818162003deb919062003e24565b5060010162003dd2565b5090565b90565b62003e2191905b8082111562003e1d57600081600090555060010162003e03565b5090565b90565b50805460018160011615610100020316600290046000825580601f1062003e4c575062003e6d565b601f01602090049060005260206000209081019062003e6c919062003dfc565b5b50565b6108788062003e806000396000f300608060405260043610610078576000357c0100000000000000000000000000000000000000000000000000000000900463ffffffff16806308e9daa51461007d5780637215752b146101235780638da5cb5b14610186578063db95502f146101dd578063f2fde38b14610228578063f71d96cb1461026b575b600080fd5b34801561008957600080fd5b506100a86004803603810190808035906020019092919050505061031e565b6040518080602001828103825283818151815260200191508051906020019080838360005b838110156100e85780820151818401526020810190506100cd565b50505050905090810190601f1680156101155780820380516001836020036101000a031916815260200191505b509250505060405180910390f35b34801561012f57600080fd5b5061015b600480360381019080803560ff169060200190929190803590602001909291905050506103d9565b604051808360ff1660ff1681526020018261ffff1661ffff1681526020019250505060405180910390f35b34801561019257600080fd5b5061019b610430565b604051808273ffffffffffffffffffffffffffffffffffffffff1673ffffffffffffffffffffffffffffffffffffffff16815260200191505060405180910390f35b3480156101e957600080fd5b50610226600480360381019080803560ff169060200190929190803560ff169060200190929190803561ffff169060200190929190505050610455565b005b34801561023457600080fd5b50610269600480360381019080803573ffffffffffffffffffffffffffffffffffffffff16906020019092919050505061061f565b005b34801561027757600080fd5b5061029660048036038101908080359060200190929190505050610774565b60405180806020018360ff1660ff168152602001828103825284818151815260200191508051906020019080838360005b838110156102e25780820151818401526020810190506102c7565b50505050905090810190601f16801561030f5780820380516001836020036101000a031916815260200191505b50935050505060405180910390f35b60018181548110151561032d57fe5b906000526020600020016000915090508054600181600116156101000203166002900480601f0160208091040260200160405190810160405280929190818152602001828054600181600116156101000203166002900480156103d15780601f106103a6576101008083540402835291602001916103d1565b820191906000526020600020905b8154815290600101906020018083116103b457829003601f168201915b505050505081565b6003602052816000526040600020818154811015156103f457fe5b90600052602060002001600091509150508060000160009054906101000a900460ff16908060000160019054906101000a900461ffff16905082565b6000809054906101000a900473ffffffffffffffffffffffffffffffffffffffff1681565b6000809054906101000a900473ffffffffffffffffffffffffffffffffffffffff1673ffffffffffffffffffffffffffffffffffffffff163373ffffffffffffffffffffffffffffffffffffffff161415156104b057600080fd5b60018360ff16111515610577576040517f08c379a00000000000000000000000000000000000000000000000000000000081526004018080602001828103825260418152602001807f4372656174696e67206e657720736574732069732066696e652c20627574206481526020017f6f6e27742061646420636172647320746f20746865206f726967696e616c203281526020017f210000000000000000000000000000000000000000000000000000000000000081525060600191505060405180910390fd5b600360008460ff1660ff16815260200190815260200160002060408051908101604052808460ff1681526020018361ffff1681525090806001815401808255809150509060018203906000526020600020016000909192909190915060008201518160000160006101000a81548160ff021916908360ff16021790555060208201518160000160016101000a81548161ffff021916908361ffff160217905550505050505050565b6000809054906101000a900473ffffffffffffffffffffffffffffffffffffffff1673ffffffffffffffffffffffffffffffffffffffff163373ffffffffffffffffffffffffffffffffffffffff1614151561067a57600080fd5b600073ffffffffffffffffffffffffffffffffffffffff168173ffffffffffffffffffffffffffffffffffffffff16141515156106b657600080fd5b8073ffffffffffffffffffffffffffffffffffffffff166000809054906101000a900473ffffffffffffffffffffffffffffffffffffffff1673ffffffffffffffffffffffffffffffffffffffff167f8be0079c531659141344cd1fd0a4f28419497f9722a3daafe3b4186f6b6457e060405160405180910390a3806000806101000a81548173ffffffffffffffffffffffffffffffffffffffff021916908373ffffffffffffffffffffffffffffffffffffffff16021790555050565b60028181548110151561078357fe5b9060005260206000209060020201600091509050806000018054600181600116156101000203166002900480601f01602080910402602001604051908101604052809291908181526020018280546001816001161561010002031660029004801561082f5780601f106108045761010080835404028352916020019161082f565b820191906000526020600020905b81548152906001019060200180831161081257829003601f168201915b5050505050908060010160009054906101000a900460ff169050825600a165627a7a723058203c4e0e237843231613a4fb7feb0c91fb04f47d1acc10f0e1f295fe4951f053cf0029",
  "source": "pragma solidity ^0.4.23;\n\nimport './WorldCupInfo.sol';\n\ncontract Checklist is WorldCupInfo {\n  struct ChecklistItem {\n    uint8 playerId;\n    uint16 totalIssuance;\n  }\n\n  mapping (uint8 => ChecklistItem[]) public setIdToChecklistItems;\n\n  constructor() public {\n    setIdToChecklistItems[0].push(ChecklistItem(0, 8000));\n    setIdToChecklistItems[0].push(ChecklistItem(1, 8000));\n    setIdToChecklistItems[0].push(ChecklistItem(2, 8000));\n    setIdToChecklistItems[0].push(ChecklistItem(3, 8000));\n    setIdToChecklistItems[0].push(ChecklistItem(4, 8000));\n    setIdToChecklistItems[0].push(ChecklistItem(5, 8000));\n    setIdToChecklistItems[0].push(ChecklistItem(6, 8000));\n    setIdToChecklistItems[0].push(ChecklistItem(7, 8000));\n    setIdToChecklistItems[0].push(ChecklistItem(8, 8000));\n    setIdToChecklistItems[0].push(ChecklistItem(9, 8000));\n    setIdToChecklistItems[0].push(ChecklistItem(10, 8000));\n    setIdToChecklistItems[0].push(ChecklistItem(11, 8000));\n    setIdToChecklistItems[0].push(ChecklistItem(12, 8000));\n    setIdToChecklistItems[0].push(ChecklistItem(13, 8000));\n    setIdToChecklistItems[0].push(ChecklistItem(14, 8000));\n    setIdToChecklistItems[0].push(ChecklistItem(15, 8000));\n    setIdToChecklistItems[0].push(ChecklistItem(16, 8000));\n    setIdToChecklistItems[0].push(ChecklistItem(17, 8000));\n    setIdToChecklistItems[0].push(ChecklistItem(18, 8000));\n    setIdToChecklistItems[0].push(ChecklistItem(19, 8000));\n    setIdToChecklistItems[0].push(ChecklistItem(20, 8000));\n    setIdToChecklistItems[0].push(ChecklistItem(21, 8000));\n    setIdToChecklistItems[0].push(ChecklistItem(22, 8000));\n    setIdToChecklistItems[0].push(ChecklistItem(23, 8000));\n    setIdToChecklistItems[0].push(ChecklistItem(24, 8000));\n  }\n\n  function addChecklistItem(\n    uint8 _setId,\n    uint8 _playerId,\n    uint16 _totalIssuance\n  ) external onlyOwner {\n    require(_setId > 1, \"Creating new sets is fine, but don't add cards to the original 2!\");\n    setIdToChecklistItems[_setId].push(ChecklistItem({\n      playerId: _playerId,\n      totalIssuance: _totalIssuance\n    }));\n  }\n}\n",
  "sourcePath": "/Users/GiaSet/Desktop/Projects/cryptostrikers/contracts/Checklist.sol",
  "compiler": {
    "name": "solc",
    "version": "0.4.23+commit.124ca40d.Emscripten.clang"
  },
  "schemaVersion": "2.0.0",
  "updatedAt": "2018-05-05T00:05:39.444Z"
}