{
  "contractName": "PackSale",
  "abi": [
    {
      "constant": false,
      "inputs": [],
      "name": "finishRun",
      "outputs": [],
      "payable": false,
      "stateMutability": "nonpayable",
      "type": "function"
    },
    {
      "constant": false,
      "inputs": [
        {
          "name": "_state",
          "type": "uint8"
        }
      ],
      "name": "changeState",
      "outputs": [],
      "payable": false,
      "stateMutability": "nonpayable",
      "type": "function"
    },
    {
      "constant": true,
      "inputs": [],
      "name": "packPrice",
      "outputs": [
        {
          "name": "",
          "type": "uint256"
        }
      ],
      "payable": false,
      "stateMutability": "view",
      "type": "function"
    },
    {
      "constant": true,
      "inputs": [],
      "name": "PACK_SIZE",
      "outputs": [
        {
          "name": "",
          "type": "uint8"
        }
      ],
      "payable": false,
      "stateMutability": "view",
      "type": "function"
    },
    {
      "constant": true,
      "inputs": [],
      "name": "isPackSale",
      "outputs": [
        {
          "name": "",
          "type": "bool"
        }
      ],
      "payable": false,
      "stateMutability": "view",
      "type": "function"
    },
    {
      "constant": true,
      "inputs": [],
      "name": "currentRunNumber",
      "outputs": [
        {
          "name": "",
          "type": "uint8"
        }
      ],
      "payable": false,
      "stateMutability": "view",
      "type": "function"
    },
    {
      "constant": false,
      "inputs": [],
      "name": "startNewRun",
      "outputs": [],
      "payable": false,
      "stateMutability": "nonpayable",
      "type": "function"
    },
    {
      "constant": true,
      "inputs": [],
      "name": "owner",
      "outputs": [
        {
          "name": "",
          "type": "address"
        }
      ],
      "payable": false,
      "stateMutability": "view",
      "type": "function"
    },
    {
      "constant": false,
      "inputs": [
        {
          "name": "_shuffledPacks",
          "type": "uint32[]"
        }
      ],
      "name": "loadShuffledPacks",
      "outputs": [],
      "payable": false,
      "stateMutability": "nonpayable",
      "type": "function"
    },
    {
      "constant": true,
      "inputs": [
        {
          "name": "",
          "type": "uint8"
        }
      ],
      "name": "packsMintedForRun",
      "outputs": [
        {
          "name": "",
          "type": "uint32"
        }
      ],
      "payable": false,
      "stateMutability": "view",
      "type": "function"
    },
    {
      "constant": true,
      "inputs": [
        {
          "name": "",
          "type": "uint8"
        }
      ],
      "name": "packsSoldForRun",
      "outputs": [
        {
          "name": "",
          "type": "uint32"
        }
      ],
      "payable": false,
      "stateMutability": "view",
      "type": "function"
    },
    {
      "constant": true,
      "inputs": [],
      "name": "state",
      "outputs": [
        {
          "name": "",
          "type": "uint8"
        }
      ],
      "payable": false,
      "stateMutability": "view",
      "type": "function"
    },
    {
      "constant": true,
      "inputs": [],
      "name": "PACKS_MINTED_LIMIT",
      "outputs": [
        {
          "name": "",
          "type": "uint32"
        }
      ],
      "payable": false,
      "stateMutability": "view",
      "type": "function"
    },
    {
      "constant": true,
      "inputs": [],
      "name": "strikersMinting",
      "outputs": [
        {
          "name": "",
          "type": "address"
        }
      ],
      "payable": false,
      "stateMutability": "view",
      "type": "function"
    },
    {
      "constant": false,
      "inputs": [
        {
          "name": "newOwner",
          "type": "address"
        }
      ],
      "name": "transferOwnership",
      "outputs": [],
      "payable": false,
      "stateMutability": "nonpayable",
      "type": "function"
    },
    {
      "constant": true,
      "inputs": [],
      "name": "totalPacksMinted",
      "outputs": [
        {
          "name": "",
          "type": "uint32"
        }
      ],
      "payable": false,
      "stateMutability": "view",
      "type": "function"
    },
    {
      "inputs": [
        {
          "name": "_strikersMintingAddress",
          "type": "address"
        }
      ],
      "payable": false,
      "stateMutability": "nonpayable",
      "type": "constructor"
    },
    {
      "payable": true,
      "stateMutability": "payable",
      "type": "fallback"
    },
    {
      "anonymous": false,
      "inputs": [
        {
          "indexed": true,
          "name": "buyer",
          "type": "address"
        },
        {
          "indexed": false,
          "name": "pack",
          "type": "uint256[]"
        }
      ],
      "name": "PackBought",
      "type": "event"
    },
    {
      "anonymous": false,
      "inputs": [
        {
          "indexed": false,
          "name": "packPrice",
          "type": "uint256"
        }
      ],
      "name": "PackPriceChanged",
      "type": "event"
    },
    {
      "anonymous": false,
      "inputs": [
        {
          "indexed": false,
          "name": "runNumber",
          "type": "uint8"
        }
      ],
      "name": "SaleStarted",
      "type": "event"
    },
    {
      "anonymous": false,
      "inputs": [
        {
          "indexed": false,
          "name": "runNumber",
          "type": "uint8"
        }
      ],
      "name": "SalePaused",
      "type": "event"
    },
    {
      "anonymous": false,
      "inputs": [
        {
          "indexed": false,
          "name": "runNumber",
          "type": "uint8"
        }
      ],
      "name": "SaleFinished",
      "type": "event"
    },
    {
      "anonymous": false,
      "inputs": [
        {
          "indexed": false,
          "name": "runNumber",
          "type": "uint8"
        }
      ],
      "name": "StartedMinting",
      "type": "event"
    },
    {
      "anonymous": false,
      "inputs": [
        {
          "indexed": false,
          "name": "runNumber",
          "type": "uint8"
        }
      ],
      "name": "FinishedMinting",
      "type": "event"
    },
    {
      "anonymous": false,
      "inputs": [
        {
          "indexed": false,
          "name": "state",
          "type": "uint8"
        }
      ],
      "name": "SaleStateChanged",
      "type": "event"
    },
    {
      "anonymous": false,
      "inputs": [
        {
          "indexed": true,
          "name": "previousOwner",
          "type": "address"
        },
        {
          "indexed": true,
          "name": "newOwner",
          "type": "address"
        }
      ],
      "name": "OwnershipTransferred",
      "type": "event"
    },
    {
      "constant": false,
      "inputs": [
        {
          "name": "_packPrice",
          "type": "uint256"
        }
      ],
      "name": "setPackPrice",
      "outputs": [],
      "payable": false,
      "stateMutability": "nonpayable",
      "type": "function"
    },
    {
      "constant": false,
      "inputs": [],
      "name": "startSale",
      "outputs": [],
      "payable": false,
      "stateMutability": "nonpayable",
      "type": "function"
    },
    {
      "constant": false,
      "inputs": [],
      "name": "pauseSale",
      "outputs": [],
      "payable": false,
      "stateMutability": "nonpayable",
      "type": "function"
    },
    {
      "constant": false,
      "inputs": [],
      "name": "buyPack",
      "outputs": [],
      "payable": false,
      "stateMutability": "nonpayable",
      "type": "function"
    }
  ],
  "bytecode": "0x60606040526001600060146101000a81548160ff021916908315150217905550666a94d74f430000600355341561003557600080fd5b60405160208061144c83398101604052808051906020019091905050336000806101000a81548173ffffffffffffffffffffffffffffffffffffffff021916908373ffffffffffffffffffffffffffffffffffffffff16021790555080600660006101000a81548173ffffffffffffffffffffffffffffffffffffffff021916908373ffffffffffffffffffffffffffffffffffffffff1602179055505061136a806100e26000396000f300606060405260043610610112576000357c0100000000000000000000000000000000000000000000000000000000900463ffffffff1680630679bd3c1461011c5780630b6af49914610131578063268f115314610154578063335c8b631461017a5780633d0c9cc4146101a357806355367ba9146101d2578063643445a6146101e75780636efe22b1146102145780638813f6ad146102435780638da5cb5b14610258578063909ddd6b146102ad5780639bb8d9a0146102db578063b3ccea6d14610321578063b66a0e5d14610367578063c19d93fb1461037c578063c37b9bcd146103b3578063c95443e9146103c8578063e99ff1f5146103fd578063f2fde38b14610452578063fe156d881461048b575b61011a6104c0565b005b341561012757600080fd5b61012f6107bb565b005b341561013c57600080fd5b61015260048080359060200190919050506108a4565b005b341561015f57600080fd5b610178600480803560ff16906020019091905050610979565b005b341561018557600080fd5b61018d610a4e565b6040518082815260200191505060405180910390f35b34156101ae57600080fd5b6101b6610a54565b604051808260ff1660ff16815260200191505060405180910390f35b34156101dd57600080fd5b6101e5610a59565b005b34156101f257600080fd5b6101fa610b42565b604051808215151515815260200191505060405180910390f35b341561021f57600080fd5b610227610b55565b604051808260ff1660ff16815260200191505060405180910390f35b341561024e57600080fd5b610256610b68565b005b341561026357600080fd5b61026b610c83565b604051808273ffffffffffffffffffffffffffffffffffffffff1673ffffffffffffffffffffffffffffffffffffffff16815260200191505060405180910390f35b34156102b857600080fd5b6102d960048080359060200190820180359060200191909192905050610ca8565b005b34156102e657600080fd5b6102ff600480803560ff16906020019091905050610e1b565b604051808263ffffffff1663ffffffff16815260200191505060405180910390f35b341561032c57600080fd5b610345600480803560ff16906020019091905050610e3e565b604051808263ffffffff1663ffffffff16815260200191505060405180910390f35b341561037257600080fd5b61037a610e61565b005b341561038757600080fd5b61038f610f4a565b6040518082600581111561039f57fe5b60ff16815260200191505060405180910390f35b34156103be57600080fd5b6103c66104c0565b005b34156103d357600080fd5b6103db610f5d565b604051808263ffffffff1663ffffffff16815260200191505060405180910390f35b341561040857600080fd5b610410610f64565b604051808273ffffffffffffffffffffffffffffffffffffffff1673ffffffffffffffffffffffffffffffffffffffff16815260200191505060405180910390f35b341561045d57600080fd5b610489600480803573ffffffffffffffffffffffffffffffffffffffff16906020019091905050610f8a565b005b341561049657600080fd5b61049e6110df565b604051808263ffffffff1663ffffffff16815260200191505060405180910390f35b6000806104cb6111e2565b60008060008060038060058111156104df57fe5b600060159054906101000a900460ff1660058111156104fa57fe5b14151561050657600080fd5b600060028054905011151561051a57600080fd5b61052460006110f5565b975060ff9650600460ff1660405180591061053c5750595b90808252806020026020018201604052509550600194505b600460ff168560ff161115156106c2576008850260200393508660ff168460ff168963ffffffff169060020a9004169250600660009054906101000a900473ffffffffffffffffffffffffffffffffffffffff1673ffffffffffffffffffffffffffffffffffffffff16632e06a45d846000601a9054906101000a900460ff166000336040518563ffffffff167c0100000000000000000000000000000000000000000000000000000000028152600401808560ff1660ff1681526020018460ff1660ff1681526020018361ffff1681526020018273ffffffffffffffffffffffffffffffffffffffff1673ffffffffffffffffffffffffffffffffffffffff168152602001945050505050602060405180830381600087803b151561067957600080fd5b5af1151561068657600080fd5b50505060405180519050915081866001870360ff168151811015156106a757fe5b90602001906020020181815250508480600101955050610554565b6004600080601a9054906101000a900460ff1660ff1660ff168152602001908152602001600020600081819054906101000a900463ffffffff168092919060010191906101000a81548163ffffffff021916908363ffffffff160217905550503373ffffffffffffffffffffffffffffffffffffffff167f1947a407fc738aebf73559f82e681274d64efa878ea80c083c5c081d4e9833a0876040518080602001828103825283818151815260200191508051906020019060200280838360005b8381101561079e578082015181840152602081019050610783565b505050509050019250505060405180910390a25050505050505050565b6000809054906101000a900473ffffffffffffffffffffffffffffffffffffffff1673ffffffffffffffffffffffffffffffffffffffff163373ffffffffffffffffffffffffffffffffffffffff1614151561081657600080fd5b600180600581111561082457fe5b600060159054906101000a900460ff16600581111561083f57fe5b14151561084b57600080fd5b7f54baea2230d4c6df44ee5bc1f38ff09857cc61aeabc394ecc9fbc33e97cc845a6000601a9054906101000a900460ff16604051808260ff1660ff16815260200191505060405180910390a16108a16002610979565b50565b6000809054906101000a900473ffffffffffffffffffffffffffffffffffffffff1673ffffffffffffffffffffffffffffffffffffffff163373ffffffffffffffffffffffffffffffffffffffff161415156108ff57600080fd5b600380600581111561090d57fe5b600060159054906101000a900460ff16600581111561092857fe5b1415151561093557600080fd5b816003819055507f9f2e0621bf53ee3777af82248c78d54737c33903e0ef1cac8b4d3a2e45405edd6003546040518082815260200191505060405180910390a15050565b6000809054906101000a900473ffffffffffffffffffffffffffffffffffffffff1673ffffffffffffffffffffffffffffffffffffffff163373ffffffffffffffffffffffffffffffffffffffff161415156109d457600080fd5b80600060156101000a81548160ff021916908360058111156109f257fe5b02179055507f92a17b827ee9d42ea9454bb4ca941a1800870e6d01c0842d09ba23ccc0190ee1600060159054906101000a900460ff1660405180826005811115610a3857fe5b60ff16815260200191505060405180910390a150565b60035481565b600481565b6000809054906101000a900473ffffffffffffffffffffffffffffffffffffffff1673ffffffffffffffffffffffffffffffffffffffff163373ffffffffffffffffffffffffffffffffffffffff16141515610ab457600080fd5b6003806005811115610ac257fe5b600060159054906101000a900460ff166005811115610add57fe5b141515610ae957600080fd5b7f29ff1a53b611d4e01a3c5daa5de3acd49316a453101da665b8e6fe2832eed4d26000601a9054906101000a900460ff16604051808260ff1660ff16815260200191505060405180910390a1610b3f6004610979565b50565b600060149054906101000a900460ff1681565b6000601a9054906101000a900460ff1681565b6000809054906101000a900473ffffffffffffffffffffffffffffffffffffffff1673ffffffffffffffffffffffffffffffffffffffff163373ffffffffffffffffffffffffffffffffffffffff16141515610bc357600080fd5b6000806005811115610bd157fe5b600060159054906101000a900460ff166005811115610bec57fe5b141515610bf857600080fd5b6000601a81819054906101000a900460ff168092919060010191906101000a81548160ff021916908360ff160217905550507fe48820bf7736e92e329ced7b401211ac8b91c15716e4c0b941edd91b4509cfbb6000601a9054906101000a900460ff16604051808260ff1660ff16815260200191505060405180910390a1610c806001610979565b50565b6000809054906101000a900473ffffffffffffffffffffffffffffffffffffffff1681565b60008060009054906101000a900473ffffffffffffffffffffffffffffffffffffffff1673ffffffffffffffffffffffffffffffffffffffff163373ffffffffffffffffffffffffffffffffffffffff16141515610d0557600080fd5b6001806005811115610d1357fe5b600060159054906101000a900460ff166005811115610d2e57fe5b141515610d3a57600080fd5b83839050915062030d4063ffffffff1682600060169054906101000a900463ffffffff160163ffffffff1611151515610d7257600080fd5b838360029190610d839291906111f6565b5081600060168282829054906101000a900463ffffffff160192506101000a81548163ffffffff021916908363ffffffff160217905550816001600080601a9054906101000a900460ff1660ff1660ff16815260200190815260200160002060008282829054906101000a900463ffffffff160192506101000a81548163ffffffff021916908363ffffffff16021790555050505050565b60016020528060005260406000206000915054906101000a900463ffffffff1681565b60046020528060005260406000206000915054906101000a900463ffffffff1681565b6000809054906101000a900473ffffffffffffffffffffffffffffffffffffffff1673ffffffffffffffffffffffffffffffffffffffff163373ffffffffffffffffffffffffffffffffffffffff16141515610ebc57600080fd5b6002806005811115610eca57fe5b600060159054906101000a900460ff166005811115610ee557fe5b141515610ef157600080fd5b7fdecaab47a6deb3a967cfc52307eccfe7f69b86882fa116ab5ed9041eab26acf46000601a9054906101000a900460ff16604051808260ff1660ff16815260200191505060405180910390a1610f476003610979565b50565b600060159054906101000a900460ff1681565b62030d4081565b600660009054906101000a900473ffffffffffffffffffffffffffffffffffffffff1681565b6000809054906101000a900473ffffffffffffffffffffffffffffffffffffffff1673ffffffffffffffffffffffffffffffffffffffff163373ffffffffffffffffffffffffffffffffffffffff16141515610fe557600080fd5b600073ffffffffffffffffffffffffffffffffffffffff168173ffffffffffffffffffffffffffffffffffffffff161415151561102157600080fd5b8073ffffffffffffffffffffffffffffffffffffffff166000809054906101000a900473ffffffffffffffffffffffffffffffffffffffff1673ffffffffffffffffffffffffffffffffffffffff167f8be0079c531659141344cd1fd0a4f28419497f9722a3daafe3b4186f6b6457e060405160405180910390a3806000806101000a81548173ffffffffffffffffffffffffffffffffffffffff021916908373ffffffffffffffffffffffffffffffffffffffff16021790555050565b600060169054906101000a900463ffffffff1681565b6000806000600160028054905003915081841115151561111457600080fd5b60028481548110151561112357fe5b90600052602060002090600891828204019190066004029054906101000a900463ffffffff16905060028281548110151561115a57fe5b90600052602060002090600891828204019190066004029054906101000a900463ffffffff1660028581548110151561118f57fe5b90600052602060002090600891828204019190066004026101000a81548163ffffffff021916908363ffffffff16021790555060028054809190600190036111d791906112ac565b508092505050919050565b602060405190810160405280600081525090565b8280548282559060005260206000209060070160089004810192821561129b5791602002820160005b8382111561126957833563ffffffff1683826101000a81548163ffffffff021916908363ffffffff160217905550926020019260040160208160030104928301926001030261121f565b80156112995782816101000a81549063ffffffff0219169055600401602081600301049283019260010302611269565b505b5090506112a891906112e6565b5090565b8154818355818115116112e15760070160089004816007016008900483600052602060002091820191016112e09190611319565b5b505050565b61131691905b8082111561131257600081816101000a81549063ffffffff0219169055506001016112ec565b5090565b90565b61133b91905b8082111561133757600081600090555060010161131f565b5090565b905600a165627a7a72305820fae92c4880b16cc0e7095e9fbe992159a3521c954fbbed14ba7fcca7fcc6a2ca0029",
  "source": "pragma solidity ^0.4.21;\n\nimport \"./PackFactory.sol\";\n\n/// @dev We use the interface here (instead of importing StrikersMinting) to avoid circular imports\n///   (StrikersMinting already imports PackSale to make sure only it can call mintSeries1Card)\ncontract StrikersMintingInterface {\n  function mintSeries1Card(uint8 _playerId, uint8 _runId, uint16 _mintNumber, address _owner) external returns (uint256);\n}\n\ncontract PackSale is PackFactory {\n  event PackBought(address indexed buyer, uint256[] pack);\n  event PackPriceChanged(uint256 packPrice);\n\n  event SaleStarted(uint8 runNumber);\n  event SalePaused(uint8 runNumber);\n  event SaleFinished(uint8 runNumber);\n\n  // Can be adjusted as needed\n  uint256 public packPrice = 0.03 ether;\n\n  mapping (uint8 => uint32) public packsSoldForRun;\n\n  // actually maybe we don't want to expose this...\n  mapping (uint8 => mapping (uint8 => uint16)) playerCardsSoldForRun;\n\n  StrikersMintingInterface public strikersMinting;\n\n  function PackSale(address _strikersMintingAddress) public {\n    strikersMinting = StrikersMintingInterface(_strikersMintingAddress);\n  }\n\n  function setPackPrice(uint _packPrice) public onlyOwner requireNotState(SaleState.Selling) {\n    packPrice = _packPrice;\n    emit PackPriceChanged(packPrice);\n  }\n\n  function() external payable {\n    buyPack();\n  }\n\n  function startSale() external onlyOwner requireState(SaleState.DoneLoadingPacks) {\n    emit SaleStarted(currentRunNumber);\n    changeState(SaleState.Selling);\n  }\n\n  function pauseSale() external onlyOwner requireState(SaleState.Selling) {\n    emit SalePaused(currentRunNumber);\n    changeState(SaleState.SalePaused);\n  }\n\n  // TODO: buyPack for someone else (giftPack?)\n  function buyPack() public requireState(SaleState.Selling) {\n    // TODO: require proper ether amount\n    require(shuffledPacks.length > 0);\n    uint32 pack = _removePackAtIndex(0);\n    uint8 mask = 255;\n    uint256[] memory newCards = new uint256[](PACK_SIZE);\n    for (uint8 i = 1; i <= PACK_SIZE; i++) {\n      uint8 shift = 32 - (i * 8);\n      uint8 playerId = uint8((pack >> shift) & mask);\n      // TODO: mintNumber\n      uint256 cardId = strikersMinting.mintSeries1Card(playerId, currentRunNumber, 0, msg.sender);\n      newCards[i-1] = cardId;\n    }\n    packsSoldForRun[currentRunNumber]++;\n    emit PackBought(msg.sender, newCards);\n  }\n\n  function _removePackAtIndex(uint256 _index) internal returns (uint32) {\n    uint256 lastIndex = shuffledPacks.length - 1;\n    require(_index <= lastIndex);\n    uint32 pack = shuffledPacks[_index];\n    shuffledPacks[_index] = shuffledPacks[lastIndex];\n    shuffledPacks.length--;\n    return pack;\n  }\n}\n",
  "sourcePath": "/Users/GiaSet/Desktop/Projects/cryptostrikers/contracts/PackSale.sol",
  "compiler": {
    "name": "solc",
    "version": "0.4.21+commit.dfe3193c.Emscripten.clang"
  },
  "schemaVersion": "2.0.0",
  "updatedAt": "2018-04-10T15:58:35.765Z"
}