{
  "contractName": "PackSale",
  "abi": [
    {
      "constant": false,
      "inputs": [],
      "name": "finishRun",
      "outputs": [],
      "payable": false,
      "stateMutability": "nonpayable",
      "type": "function"
    },
    {
      "constant": false,
      "inputs": [
        {
          "name": "_state",
          "type": "uint8"
        }
      ],
      "name": "changeState",
      "outputs": [],
      "payable": false,
      "stateMutability": "nonpayable",
      "type": "function"
    },
    {
      "constant": true,
      "inputs": [],
      "name": "packPrice",
      "outputs": [
        {
          "name": "",
          "type": "uint256"
        }
      ],
      "payable": false,
      "stateMutability": "view",
      "type": "function"
    },
    {
      "constant": true,
      "inputs": [],
      "name": "PACK_SIZE",
      "outputs": [
        {
          "name": "",
          "type": "uint8"
        }
      ],
      "payable": false,
      "stateMutability": "view",
      "type": "function"
    },
    {
      "constant": true,
      "inputs": [],
      "name": "isPackSale",
      "outputs": [
        {
          "name": "",
          "type": "bool"
        }
      ],
      "payable": false,
      "stateMutability": "view",
      "type": "function"
    },
    {
      "constant": true,
      "inputs": [],
      "name": "currentRunNumber",
      "outputs": [
        {
          "name": "",
          "type": "uint8"
        }
      ],
      "payable": false,
      "stateMutability": "view",
      "type": "function"
    },
    {
      "constant": false,
      "inputs": [],
      "name": "startNewRun",
      "outputs": [],
      "payable": false,
      "stateMutability": "nonpayable",
      "type": "function"
    },
    {
      "constant": true,
      "inputs": [],
      "name": "owner",
      "outputs": [
        {
          "name": "",
          "type": "address"
        }
      ],
      "payable": false,
      "stateMutability": "view",
      "type": "function"
    },
    {
      "constant": false,
      "inputs": [
        {
          "name": "_shuffledPacks",
          "type": "uint32[]"
        }
      ],
      "name": "loadShuffledPacks",
      "outputs": [],
      "payable": false,
      "stateMutability": "nonpayable",
      "type": "function"
    },
    {
      "constant": true,
      "inputs": [
        {
          "name": "",
          "type": "uint8"
        }
      ],
      "name": "packsMintedForRun",
      "outputs": [
        {
          "name": "",
          "type": "uint32"
        }
      ],
      "payable": false,
      "stateMutability": "view",
      "type": "function"
    },
    {
      "constant": true,
      "inputs": [
        {
          "name": "",
          "type": "uint8"
        }
      ],
      "name": "packsSoldForRun",
      "outputs": [
        {
          "name": "",
          "type": "uint32"
        }
      ],
      "payable": false,
      "stateMutability": "view",
      "type": "function"
    },
    {
      "constant": true,
      "inputs": [],
      "name": "state",
      "outputs": [
        {
          "name": "",
          "type": "uint8"
        }
      ],
      "payable": false,
      "stateMutability": "view",
      "type": "function"
    },
    {
      "constant": true,
      "inputs": [],
      "name": "PACKS_MINTED_LIMIT",
      "outputs": [
        {
          "name": "",
          "type": "uint32"
        }
      ],
      "payable": false,
      "stateMutability": "view",
      "type": "function"
    },
    {
      "constant": false,
      "inputs": [
        {
          "name": "newOwner",
          "type": "address"
        }
      ],
      "name": "transferOwnership",
      "outputs": [],
      "payable": false,
      "stateMutability": "nonpayable",
      "type": "function"
    },
    {
      "constant": true,
      "inputs": [],
      "name": "totalPacksMinted",
      "outputs": [
        {
          "name": "",
          "type": "uint32"
        }
      ],
      "payable": false,
      "stateMutability": "view",
      "type": "function"
    },
    {
      "inputs": [
        {
          "name": "_strikersBaseAddress",
          "type": "address"
        }
      ],
      "payable": false,
      "stateMutability": "nonpayable",
      "type": "constructor"
    },
    {
      "payable": true,
      "stateMutability": "payable",
      "type": "fallback"
    },
    {
      "anonymous": false,
      "inputs": [
        {
          "indexed": true,
          "name": "buyer",
          "type": "address"
        },
        {
          "indexed": false,
          "name": "pack",
          "type": "uint256[]"
        }
      ],
      "name": "PackBought",
      "type": "event"
    },
    {
      "anonymous": false,
      "inputs": [
        {
          "indexed": false,
          "name": "packPrice",
          "type": "uint256"
        }
      ],
      "name": "PackPriceChanged",
      "type": "event"
    },
    {
      "anonymous": false,
      "inputs": [
        {
          "indexed": false,
          "name": "runNumber",
          "type": "uint8"
        }
      ],
      "name": "SaleStarted",
      "type": "event"
    },
    {
      "anonymous": false,
      "inputs": [
        {
          "indexed": false,
          "name": "runNumber",
          "type": "uint8"
        }
      ],
      "name": "SalePaused",
      "type": "event"
    },
    {
      "anonymous": false,
      "inputs": [
        {
          "indexed": false,
          "name": "runNumber",
          "type": "uint8"
        }
      ],
      "name": "SaleFinished",
      "type": "event"
    },
    {
      "anonymous": false,
      "inputs": [
        {
          "indexed": false,
          "name": "runNumber",
          "type": "uint8"
        }
      ],
      "name": "StartedMinting",
      "type": "event"
    },
    {
      "anonymous": false,
      "inputs": [
        {
          "indexed": false,
          "name": "runNumber",
          "type": "uint8"
        }
      ],
      "name": "FinishedMinting",
      "type": "event"
    },
    {
      "anonymous": false,
      "inputs": [
        {
          "indexed": false,
          "name": "state",
          "type": "uint8"
        }
      ],
      "name": "SaleStateChanged",
      "type": "event"
    },
    {
      "anonymous": false,
      "inputs": [
        {
          "indexed": true,
          "name": "previousOwner",
          "type": "address"
        },
        {
          "indexed": true,
          "name": "newOwner",
          "type": "address"
        }
      ],
      "name": "OwnershipTransferred",
      "type": "event"
    },
    {
      "constant": false,
      "inputs": [
        {
          "name": "_packPrice",
          "type": "uint256"
        }
      ],
      "name": "setPackPrice",
      "outputs": [],
      "payable": false,
      "stateMutability": "nonpayable",
      "type": "function"
    },
    {
      "constant": false,
      "inputs": [],
      "name": "startSale",
      "outputs": [],
      "payable": false,
      "stateMutability": "nonpayable",
      "type": "function"
    },
    {
      "constant": false,
      "inputs": [],
      "name": "pauseSale",
      "outputs": [],
      "payable": false,
      "stateMutability": "nonpayable",
      "type": "function"
    },
    {
      "constant": false,
      "inputs": [],
      "name": "buyPack",
      "outputs": [],
      "payable": false,
      "stateMutability": "nonpayable",
      "type": "function"
    }
  ],
  "bytecode": "0x60606040526001600060146101000a81548160ff021916908315150217905550666a94d74f430000600355341561003557600080fd5b6040516020806113d283398101604052808051906020019091905050336000806101000a81548173ffffffffffffffffffffffffffffffffffffffff021916908373ffffffffffffffffffffffffffffffffffffffff16021790555080600660006101000a81548173ffffffffffffffffffffffffffffffffffffffff021916908373ffffffffffffffffffffffffffffffffffffffff160217905550506112f0806100e26000396000f300606060405260043610610107576000357c0100000000000000000000000000000000000000000000000000000000900463ffffffff1680630679bd3c146101115780630b6af49914610126578063268f115314610149578063335c8b631461016f5780633d0c9cc41461019857806355367ba9146101c7578063643445a6146101dc5780636efe22b1146102095780638813f6ad146102385780638da5cb5b1461024d578063909ddd6b146102a25780639bb8d9a0146102d0578063b3ccea6d14610316578063b66a0e5d1461035c578063c19d93fb14610371578063c37b9bcd146103a8578063c95443e9146103bd578063f2fde38b146103f2578063fe156d881461042b575b61010f610460565b005b341561011c57600080fd5b610124610767565b005b341561013157600080fd5b6101476004808035906020019091905050610850565b005b341561015457600080fd5b61016d600480803560ff16906020019091905050610925565b005b341561017a57600080fd5b6101826109fa565b6040518082815260200191505060405180910390f35b34156101a357600080fd5b6101ab610a00565b604051808260ff1660ff16815260200191505060405180910390f35b34156101d257600080fd5b6101da610a05565b005b34156101e757600080fd5b6101ef610aee565b604051808215151515815260200191505060405180910390f35b341561021457600080fd5b61021c610b01565b604051808260ff1660ff16815260200191505060405180910390f35b341561024357600080fd5b61024b610b14565b005b341561025857600080fd5b610260610c2f565b604051808273ffffffffffffffffffffffffffffffffffffffff1673ffffffffffffffffffffffffffffffffffffffff16815260200191505060405180910390f35b34156102ad57600080fd5b6102ce60048080359060200190820180359060200191909192905050610c54565b005b34156102db57600080fd5b6102f4600480803560ff16906020019091905050610dc7565b604051808263ffffffff1663ffffffff16815260200191505060405180910390f35b341561032157600080fd5b61033a600480803560ff16906020019091905050610dea565b604051808263ffffffff1663ffffffff16815260200191505060405180910390f35b341561036757600080fd5b61036f610e0d565b005b341561037c57600080fd5b610384610ef6565b6040518082600581111561039457fe5b60ff16815260200191505060405180910390f35b34156103b357600080fd5b6103bb610460565b005b34156103c857600080fd5b6103d0610f09565b604051808263ffffffff1663ffffffff16815260200191505060405180910390f35b34156103fd57600080fd5b610429600480803573ffffffffffffffffffffffffffffffffffffffff16906020019091905050610f10565b005b341561043657600080fd5b61043e611065565b604051808263ffffffff1663ffffffff16815260200191505060405180910390f35b60008061046b611168565b600080600080600380600581111561047f57fe5b600060159054906101000a900460ff16600581111561049a57fe5b1415156104a657600080fd5b60006002805490501115156104ba57600080fd5b6104c4600061107b565b975060ff9650600460ff166040518059106104dc5750595b90808252806020026020018201604052509550600194505b600460ff168560ff1611151561066e576008850260200393508660ff168460ff168963ffffffff169060020a9004169250600660009054906101000a900473ffffffffffffffffffffffffffffffffffffffff1673ffffffffffffffffffffffffffffffffffffffff166330f4751e8460016000601a9054906101000a900460ff166000336040518663ffffffff167c0100000000000000000000000000000000000000000000000000000000028152600401808660ff1660ff1681526020018560ff1681526020018460ff1660ff1681526020018361ffff1681526020018273ffffffffffffffffffffffffffffffffffffffff1673ffffffffffffffffffffffffffffffffffffffff16815260200195505050505050602060405180830381600087803b151561062557600080fd5b5af1151561063257600080fd5b50505060405180519050915081866001870360ff1681518110151561065357fe5b906020019060200201818152505084806001019550506104f4565b6004600080601a9054906101000a900460ff1660ff1660ff168152602001908152602001600020600081819054906101000a900463ffffffff168092919060010191906101000a81548163ffffffff021916908363ffffffff160217905550503373ffffffffffffffffffffffffffffffffffffffff167f1947a407fc738aebf73559f82e681274d64efa878ea80c083c5c081d4e9833a0876040518080602001828103825283818151815260200191508051906020019060200280838360005b8381101561074a57808201518184015260208101905061072f565b505050509050019250505060405180910390a25050505050505050565b6000809054906101000a900473ffffffffffffffffffffffffffffffffffffffff1673ffffffffffffffffffffffffffffffffffffffff163373ffffffffffffffffffffffffffffffffffffffff161415156107c257600080fd5b60018060058111156107d057fe5b600060159054906101000a900460ff1660058111156107eb57fe5b1415156107f757600080fd5b7f54baea2230d4c6df44ee5bc1f38ff09857cc61aeabc394ecc9fbc33e97cc845a6000601a9054906101000a900460ff16604051808260ff1660ff16815260200191505060405180910390a161084d6002610925565b50565b6000809054906101000a900473ffffffffffffffffffffffffffffffffffffffff1673ffffffffffffffffffffffffffffffffffffffff163373ffffffffffffffffffffffffffffffffffffffff161415156108ab57600080fd5b60038060058111156108b957fe5b600060159054906101000a900460ff1660058111156108d457fe5b141515156108e157600080fd5b816003819055507f9f2e0621bf53ee3777af82248c78d54737c33903e0ef1cac8b4d3a2e45405edd6003546040518082815260200191505060405180910390a15050565b6000809054906101000a900473ffffffffffffffffffffffffffffffffffffffff1673ffffffffffffffffffffffffffffffffffffffff163373ffffffffffffffffffffffffffffffffffffffff1614151561098057600080fd5b80600060156101000a81548160ff0219169083600581111561099e57fe5b02179055507f92a17b827ee9d42ea9454bb4ca941a1800870e6d01c0842d09ba23ccc0190ee1600060159054906101000a900460ff16604051808260058111156109e457fe5b60ff16815260200191505060405180910390a150565b60035481565b600481565b6000809054906101000a900473ffffffffffffffffffffffffffffffffffffffff1673ffffffffffffffffffffffffffffffffffffffff163373ffffffffffffffffffffffffffffffffffffffff16141515610a6057600080fd5b6003806005811115610a6e57fe5b600060159054906101000a900460ff166005811115610a8957fe5b141515610a9557600080fd5b7f29ff1a53b611d4e01a3c5daa5de3acd49316a453101da665b8e6fe2832eed4d26000601a9054906101000a900460ff16604051808260ff1660ff16815260200191505060405180910390a1610aeb6004610925565b50565b600060149054906101000a900460ff1681565b6000601a9054906101000a900460ff1681565b6000809054906101000a900473ffffffffffffffffffffffffffffffffffffffff1673ffffffffffffffffffffffffffffffffffffffff163373ffffffffffffffffffffffffffffffffffffffff16141515610b6f57600080fd5b6000806005811115610b7d57fe5b600060159054906101000a900460ff166005811115610b9857fe5b141515610ba457600080fd5b6000601a81819054906101000a900460ff168092919060010191906101000a81548160ff021916908360ff160217905550507fe48820bf7736e92e329ced7b401211ac8b91c15716e4c0b941edd91b4509cfbb6000601a9054906101000a900460ff16604051808260ff1660ff16815260200191505060405180910390a1610c2c6001610925565b50565b6000809054906101000a900473ffffffffffffffffffffffffffffffffffffffff1681565b60008060009054906101000a900473ffffffffffffffffffffffffffffffffffffffff1673ffffffffffffffffffffffffffffffffffffffff163373ffffffffffffffffffffffffffffffffffffffff16141515610cb157600080fd5b6001806005811115610cbf57fe5b600060159054906101000a900460ff166005811115610cda57fe5b141515610ce657600080fd5b83839050915062030d4063ffffffff1682600060169054906101000a900463ffffffff160163ffffffff1611151515610d1e57600080fd5b838360029190610d2f92919061117c565b5081600060168282829054906101000a900463ffffffff160192506101000a81548163ffffffff021916908363ffffffff160217905550816001600080601a9054906101000a900460ff1660ff1660ff16815260200190815260200160002060008282829054906101000a900463ffffffff160192506101000a81548163ffffffff021916908363ffffffff16021790555050505050565b60016020528060005260406000206000915054906101000a900463ffffffff1681565b60046020528060005260406000206000915054906101000a900463ffffffff1681565b6000809054906101000a900473ffffffffffffffffffffffffffffffffffffffff1673ffffffffffffffffffffffffffffffffffffffff163373ffffffffffffffffffffffffffffffffffffffff16141515610e6857600080fd5b6002806005811115610e7657fe5b600060159054906101000a900460ff166005811115610e9157fe5b141515610e9d57600080fd5b7fdecaab47a6deb3a967cfc52307eccfe7f69b86882fa116ab5ed9041eab26acf46000601a9054906101000a900460ff16604051808260ff1660ff16815260200191505060405180910390a1610ef36003610925565b50565b600060159054906101000a900460ff1681565b62030d4081565b6000809054906101000a900473ffffffffffffffffffffffffffffffffffffffff1673ffffffffffffffffffffffffffffffffffffffff163373ffffffffffffffffffffffffffffffffffffffff16141515610f6b57600080fd5b600073ffffffffffffffffffffffffffffffffffffffff168173ffffffffffffffffffffffffffffffffffffffff1614151515610fa757600080fd5b8073ffffffffffffffffffffffffffffffffffffffff166000809054906101000a900473ffffffffffffffffffffffffffffffffffffffff1673ffffffffffffffffffffffffffffffffffffffff167f8be0079c531659141344cd1fd0a4f28419497f9722a3daafe3b4186f6b6457e060405160405180910390a3806000806101000a81548173ffffffffffffffffffffffffffffffffffffffff021916908373ffffffffffffffffffffffffffffffffffffffff16021790555050565b600060169054906101000a900463ffffffff1681565b6000806000600160028054905003915081841115151561109a57600080fd5b6002848154811015156110a957fe5b90600052602060002090600891828204019190066004029054906101000a900463ffffffff1690506002828154811015156110e057fe5b90600052602060002090600891828204019190066004029054906101000a900463ffffffff1660028581548110151561111557fe5b90600052602060002090600891828204019190066004026101000a81548163ffffffff021916908363ffffffff160217905550600280548091906001900361115d9190611232565b508092505050919050565b602060405190810160405280600081525090565b828054828255906000526020600020906007016008900481019282156112215791602002820160005b838211156111ef57833563ffffffff1683826101000a81548163ffffffff021916908363ffffffff16021790555092602001926004016020816003010492830192600103026111a5565b801561121f5782816101000a81549063ffffffff02191690556004016020816003010492830192600103026111ef565b505b50905061122e919061126c565b5090565b815481835581811511611267576007016008900481600701600890048360005260206000209182019101611266919061129f565b5b505050565b61129c91905b8082111561129857600081816101000a81549063ffffffff021916905550600101611272565b5090565b90565b6112c191905b808211156112bd5760008160009055506001016112a5565b5090565b905600a165627a7a72305820a48722a3f4b7be67938e240c4aad36407ec2b591bef057cf4d928d4f7cc741760029",
  "source": "pragma solidity ^0.4.21;\n\nimport \"./PackFactory.sol\";\nimport \"./StrikersBase.sol\";\n\ncontract PackSale is PackFactory {\n  event PackBought(address indexed buyer, uint256[] pack);\n  event PackPriceChanged(uint256 packPrice);\n\n  event SaleStarted(uint8 runNumber);\n  event SalePaused(uint8 runNumber);\n  event SaleFinished(uint8 runNumber);\n\n  // Can be adjusted as needed\n  uint256 public packPrice = 0.03 ether;\n\n  mapping (uint8 => uint32) public packsSoldForRun;\n\n  // actually maybe we don't want to expose this...\n  mapping (uint8 => mapping (uint8 => uint16)) playerCardsSoldForRun;\n\n  StrikersBase strikersBase;\n\n  function PackSale(address _strikersBaseAddress) public {\n    strikersBase = StrikersBase(_strikersBaseAddress);\n  }\n\n  function setPackPrice(uint _packPrice) public onlyOwner requireNotState(SaleState.Selling) {\n    packPrice = _packPrice;\n    emit PackPriceChanged(packPrice);\n  }\n\n  function() external payable {\n    buyPack();\n  }\n\n  function startSale() external onlyOwner requireState(SaleState.DoneLoadingPacks) {\n    emit SaleStarted(currentRunNumber);\n    changeState(SaleState.Selling);\n  }\n\n  function pauseSale() external onlyOwner requireState(SaleState.Selling) {\n    emit SalePaused(currentRunNumber);\n    changeState(SaleState.SalePaused);\n  }\n\n  function buyPack() public requireState(SaleState.Selling) {\n    // TODO: require proper ether amount\n    require(shuffledPacks.length > 0);\n    uint32 pack = _removePackAtIndex(0);\n    uint8 mask = 255;\n    uint256[] memory newCards = new uint256[](PACK_SIZE);\n    for (uint8 i = 1; i <= PACK_SIZE; i++) {\n      uint8 shift = 32 - (i * 8);\n      uint8 playerId = uint8((pack >> shift) & mask);\n      uint256 cardId = strikersBase._mintCard(playerId, 1, currentRunNumber, 0, msg.sender);\n      newCards[i-1] = cardId;\n    }\n    packsSoldForRun[currentRunNumber]++;\n    emit PackBought(msg.sender, newCards);\n  }\n\n  function _removePackAtIndex(uint256 _index) internal returns (uint32) {\n    uint256 lastIndex = shuffledPacks.length - 1;\n    require(_index <= lastIndex);\n    uint32 pack = shuffledPacks[_index];\n    shuffledPacks[_index] = shuffledPacks[lastIndex];\n    shuffledPacks.length--;\n    return pack;\n  }\n}\n",
  "sourcePath": "/Users/GiaSet/Desktop/Projects/cryptostrikers/contracts/PackSale.sol",
  "compiler": {
    "name": "solc",
    "version": "0.4.21+commit.dfe3193c.Emscripten.clang"
  },
  "schemaVersion": "2.0.0",
  "updatedAt": "2018-04-10T05:10:54.388Z"
}