{
  "contractName": "StrikersPackSale",
  "abi": [
    {
      "constant": false,
      "inputs": [
        {
          "name": "_saleId",
          "type": "uint8"
        }
      ],
      "name": "resumeSale",
      "outputs": [],
      "payable": false,
      "stateMutability": "nonpayable",
      "type": "function"
    },
    {
      "constant": true,
      "inputs": [],
      "name": "packPrice",
      "outputs": [
        {
          "name": "",
          "type": "uint256"
        }
      ],
      "payable": false,
      "stateMutability": "view",
      "type": "function"
    },
    {
      "constant": true,
      "inputs": [],
      "name": "PACK_SIZE",
      "outputs": [
        {
          "name": "",
          "type": "uint8"
        }
      ],
      "payable": false,
      "stateMutability": "view",
      "type": "function"
    },
    {
      "constant": true,
      "inputs": [],
      "name": "NORMAL_SALE_PACK_LIMIT",
      "outputs": [
        {
          "name": "",
          "type": "uint32"
        }
      ],
      "payable": false,
      "stateMutability": "view",
      "type": "function"
    },
    {
      "constant": false,
      "inputs": [
        {
          "name": "_saleId",
          "type": "uint8"
        }
      ],
      "name": "pauseSale",
      "outputs": [],
      "payable": false,
      "stateMutability": "nonpayable",
      "type": "function"
    },
    {
      "constant": true,
      "inputs": [],
      "name": "totalFlashSalePacksOffered",
      "outputs": [
        {
          "name": "",
          "type": "uint32"
        }
      ],
      "payable": false,
      "stateMutability": "view",
      "type": "function"
    },
    {
      "constant": false,
      "inputs": [
        {
          "name": "_duration",
          "type": "uint64"
        }
      ],
      "name": "createSale",
      "outputs": [],
      "payable": false,
      "stateMutability": "nonpayable",
      "type": "function"
    },
    {
      "constant": true,
      "inputs": [],
      "name": "salesCount",
      "outputs": [
        {
          "name": "",
          "type": "uint256"
        }
      ],
      "payable": false,
      "stateMutability": "view",
      "type": "function"
    },
    {
      "constant": true,
      "inputs": [],
      "name": "owner",
      "outputs": [
        {
          "name": "",
          "type": "address"
        }
      ],
      "payable": false,
      "stateMutability": "view",
      "type": "function"
    },
    {
      "constant": false,
      "inputs": [
        {
          "name": "_saleId",
          "type": "uint8"
        },
        {
          "name": "_shuffledPacks",
          "type": "uint32[]"
        }
      ],
      "name": "loadShuffledPacks",
      "outputs": [],
      "payable": false,
      "stateMutability": "nonpayable",
      "type": "function"
    },
    {
      "constant": true,
      "inputs": [],
      "name": "totalNormalSalePacksOffered",
      "outputs": [
        {
          "name": "",
          "type": "uint32"
        }
      ],
      "payable": false,
      "stateMutability": "view",
      "type": "function"
    },
    {
      "constant": true,
      "inputs": [],
      "name": "isPackSaleContract",
      "outputs": [
        {
          "name": "",
          "type": "bool"
        }
      ],
      "payable": false,
      "stateMutability": "view",
      "type": "function"
    },
    {
      "constant": true,
      "inputs": [
        {
          "name": "",
          "type": "uint256"
        }
      ],
      "name": "sales",
      "outputs": [
        {
          "name": "startTime",
          "type": "uint64"
        },
        {
          "name": "duration",
          "type": "uint64"
        },
        {
          "name": "packsOffered",
          "type": "uint16"
        },
        {
          "name": "packsSold",
          "type": "uint16"
        },
        {
          "name": "state",
          "type": "uint8"
        }
      ],
      "payable": false,
      "stateMutability": "view",
      "type": "function"
    },
    {
      "constant": true,
      "inputs": [
        {
          "name": "_saleId",
          "type": "uint8"
        }
      ],
      "name": "saleInProgress",
      "outputs": [
        {
          "name": "",
          "type": "bool"
        }
      ],
      "payable": false,
      "stateMutability": "view",
      "type": "function"
    },
    {
      "constant": true,
      "inputs": [],
      "name": "FLASH_SALE_PACK_LIMIT",
      "outputs": [
        {
          "name": "",
          "type": "uint32"
        }
      ],
      "payable": false,
      "stateMutability": "view",
      "type": "function"
    },
    {
      "constant": false,
      "inputs": [
        {
          "name": "_saleId",
          "type": "uint8"
        }
      ],
      "name": "startSale",
      "outputs": [],
      "payable": false,
      "stateMutability": "nonpayable",
      "type": "function"
    },
    {
      "constant": true,
      "inputs": [],
      "name": "strikersMinting",
      "outputs": [
        {
          "name": "",
          "type": "address"
        }
      ],
      "payable": false,
      "stateMutability": "view",
      "type": "function"
    },
    {
      "constant": false,
      "inputs": [
        {
          "name": "newOwner",
          "type": "address"
        }
      ],
      "name": "transferOwnership",
      "outputs": [],
      "payable": false,
      "stateMutability": "nonpayable",
      "type": "function"
    },
    {
      "inputs": [
        {
          "name": "_strikersMintingAddress",
          "type": "address"
        }
      ],
      "payable": false,
      "stateMutability": "nonpayable",
      "type": "constructor"
    },
    {
      "anonymous": false,
      "inputs": [
        {
          "indexed": true,
          "name": "buyer",
          "type": "address"
        },
        {
          "indexed": false,
          "name": "pack",
          "type": "uint256[]"
        }
      ],
      "name": "PackBought",
      "type": "event"
    },
    {
      "anonymous": false,
      "inputs": [
        {
          "indexed": false,
          "name": "packPrice",
          "type": "uint256"
        }
      ],
      "name": "PackPriceChanged",
      "type": "event"
    },
    {
      "anonymous": false,
      "inputs": [
        {
          "indexed": true,
          "name": "saleId",
          "type": "uint8"
        },
        {
          "indexed": false,
          "name": "packs",
          "type": "uint32[]"
        }
      ],
      "name": "PacksLoaded",
      "type": "event"
    },
    {
      "anonymous": false,
      "inputs": [
        {
          "indexed": false,
          "name": "saleId",
          "type": "uint8"
        },
        {
          "indexed": false,
          "name": "duration",
          "type": "uint64"
        }
      ],
      "name": "SaleCreated",
      "type": "event"
    },
    {
      "anonymous": false,
      "inputs": [
        {
          "indexed": false,
          "name": "saleId",
          "type": "uint8"
        }
      ],
      "name": "SaleStarted",
      "type": "event"
    },
    {
      "anonymous": false,
      "inputs": [
        {
          "indexed": false,
          "name": "saleId",
          "type": "uint8"
        }
      ],
      "name": "SalePaused",
      "type": "event"
    },
    {
      "anonymous": false,
      "inputs": [
        {
          "indexed": false,
          "name": "saleId",
          "type": "uint8"
        }
      ],
      "name": "SaleResumed",
      "type": "event"
    },
    {
      "anonymous": false,
      "inputs": [
        {
          "indexed": true,
          "name": "previousOwner",
          "type": "address"
        },
        {
          "indexed": true,
          "name": "newOwner",
          "type": "address"
        }
      ],
      "name": "OwnershipTransferred",
      "type": "event"
    },
    {
      "constant": false,
      "inputs": [
        {
          "name": "_packPrice",
          "type": "uint256"
        }
      ],
      "name": "setPackPrice",
      "outputs": [],
      "payable": false,
      "stateMutability": "nonpayable",
      "type": "function"
    },
    {
      "constant": false,
      "inputs": [
        {
          "name": "_saleId",
          "type": "uint8"
        }
      ],
      "name": "buyPacksWithETH",
      "outputs": [],
      "payable": true,
      "stateMutability": "payable",
      "type": "function"
    }
  ],
  "bytecode": "0x60606040526001600060146101000a81548160ff021916908315150217905550666a94d74f430000600455341561003557600080fd5b604051602080611c6f83398101604052808051906020019091905050336000806101000a81548173ffffffffffffffffffffffffffffffffffffffff021916908373ffffffffffffffffffffffffffffffffffffffff16021790555080600560006101000a81548173ffffffffffffffffffffffffffffffffffffffff021916908373ffffffffffffffffffffffffffffffffffffffff16021790555050611b8d806100e26000396000f300606060405260043610610112576000357c0100000000000000000000000000000000000000000000000000000000900463ffffffff168063092851bb146101175780630b6af4991461013d578063335c8b63146101605780633d0c9cc4146101895780633fe24ad1146101b8578063458a6efa146101ed5780634914923614610213578063570ab3201461022e57806367c0000814610263578063682789a8146102905780638da5cb5b146102b957806395e651841461030e578063a348c0b814610348578063b303df371461037d578063b5f522f7146103aa578063b64855f714610443578063b81b6df814610481578063d60d9360146104b6578063e99ff1f5146104dc578063f2fde38b14610531575b600080fd5b341561012257600080fd5b61013b600480803560ff1690602001909190505061056a565b005b341561014857600080fd5b61015e600480803590602001909190505061069c565b005b341561016b57600080fd5b61017361073a565b6040518082815260200191505060405180910390f35b341561019457600080fd5b61019c610740565b604051808260ff1660ff16815260200191505060405180910390f35b34156101c357600080fd5b6101cb610745565b604051808263ffffffff1663ffffffff16815260200191505060405180910390f35b34156101f857600080fd5b610211600480803560ff1690602001909190505061074c565b005b61022c600480803560ff1690602001909190505061087f565b005b341561023957600080fd5b6102416108fd565b604051808263ffffffff1663ffffffff16815260200191505060405180910390f35b341561026e57600080fd5b61028e600480803567ffffffffffffffff16906020019091905050610913565b005b341561029b57600080fd5b6102a3610b25565b6040518082815260200191505060405180910390f35b34156102c457600080fd5b6102cc610b32565b604051808273ffffffffffffffffffffffffffffffffffffffff1673ffffffffffffffffffffffffffffffffffffffff16815260200191505060405180910390f35b341561031957600080fd5b610346600480803560ff169060200190919080359060200190820180359060200191909192905050610b57565b005b341561035357600080fd5b61035b610e27565b604051808263ffffffff1663ffffffff16815260200191505060405180910390f35b341561038857600080fd5b610390610e3d565b604051808215151515815260200191505060405180910390f35b34156103b557600080fd5b6103cb6004808035906020019091905050610e50565b604051808667ffffffffffffffff1667ffffffffffffffff1681526020018567ffffffffffffffff1667ffffffffffffffff1681526020018461ffff1661ffff1681526020018361ffff1661ffff16815260200182600281111561042b57fe5b60ff1681526020019550505050505060405180910390f35b341561044e57600080fd5b610467600480803560ff16906020019091905050610ee3565b604051808215151515815260200191505060405180910390f35b341561048c57600080fd5b61049461104d565b604051808263ffffffff1663ffffffff16815260200191505060405180910390f35b34156104c157600080fd5b6104da600480803560ff16906020019091905050611053565b005b34156104e757600080fd5b6104ef6111b7565b604051808273ffffffffffffffffffffffffffffffffffffffff1673ffffffffffffffffffffffffffffffffffffffff16815260200191505060405180910390f35b341561053c57600080fd5b610568600480803573ffffffffffffffffffffffffffffffffffffffff169060200190919050506111dd565b005b6000809054906101000a900473ffffffffffffffffffffffffffffffffffffffff1673ffffffffffffffffffffffffffffffffffffffff163373ffffffffffffffffffffffffffffffffffffffff161415156105c557600080fd5b8060028060028111156105d457fe5b60018360ff168154811015156105e657fe5b906000526020600020900160000160149054906101000a900460ff16600281111561060d57fe5b14151561061957600080fd5b6001808460ff1681548110151561062c57fe5b906000526020600020900160000160146101000a81548160ff0219169083600281111561065557fe5b02179055507ffa00485dc9843cb5d5b0a08de1685a80eff766726f467de66ff8bd2de4d5ca8e83604051808260ff1660ff16815260200191505060405180910390a1505050565b6000809054906101000a900473ffffffffffffffffffffffffffffffffffffffff1673ffffffffffffffffffffffffffffffffffffffff163373ffffffffffffffffffffffffffffffffffffffff161415156106f757600080fd5b806004819055507f9f2e0621bf53ee3777af82248c78d54737c33903e0ef1cac8b4d3a2e45405edd6004546040518082815260200191505060405180910390a150565b60045481565b600481565b6202710081565b6000809054906101000a900473ffffffffffffffffffffffffffffffffffffffff1673ffffffffffffffffffffffffffffffffffffffff163373ffffffffffffffffffffffffffffffffffffffff161415156107a757600080fd5b8060018060028111156107b657fe5b60018360ff168154811015156107c857fe5b906000526020600020900160000160149054906101000a900460ff1660028111156107ef57fe5b1415156107fb57600080fd5b600260018460ff1681548110151561080f57fe5b906000526020600020900160000160146101000a81548160ff0219169083600281111561083857fe5b02179055507f29ff1a53b611d4e01a3c5daa5de3acd49316a453101da665b8e6fe2832eed4d283604051808260ff1660ff16815260200191505060405180910390a1505050565b6000803491505b600454821015156108b85761089a83611332565b905080156108ae57600454820391506108b3565b6108b8565b610886565b3373ffffffffffffffffffffffffffffffffffffffff166108fc839081150290604051600060405180830381858888f1935050505015156108f857600080fd5b505050565b600260049054906101000a900463ffffffff1681565b61091b61180f565b60008060009054906101000a900473ffffffffffffffffffffffffffffffffffffffff1673ffffffffffffffffffffffffffffffffffffffff163373ffffffffffffffffffffffffffffffffffffffff1614151561097857600080fd5b60a060405190810160405280600067ffffffffffffffff1681526020018467ffffffffffffffff168152602001600061ffff168152602001600061ffff168152602001600060028111156109c857fe5b815250915060018080548060010182816109e29190611866565b9160005260206000209001600085909190915060008201518160000160006101000a81548167ffffffffffffffff021916908367ffffffffffffffff16021790555060208201518160000160086101000a81548167ffffffffffffffff021916908367ffffffffffffffff16021790555060408201518160000160106101000a81548161ffff021916908361ffff16021790555060608201518160000160126101000a81548161ffff021916908361ffff16021790555060808201518160000160146101000a81548160ff02191690836002811115610abd57fe5b021790555050500390507f3b215aa19f2b586aff2422a50fe0ea3a1072c5ac2a7f28e835ba86dbd5296b418184604051808360ff1660ff1681526020018267ffffffffffffffff1667ffffffffffffffff1681526020019250505060405180910390a1505050565b6000600180549050905090565b6000809054906101000a900473ffffffffffffffffffffffffffffffffffffffff1681565b60008060008060009054906101000a900473ffffffffffffffffffffffffffffffffffffffff1673ffffffffffffffffffffffffffffffffffffffff163373ffffffffffffffffffffffffffffffffffffffff16141515610bb757600080fd5b856000806002811115610bc657fe5b60018360ff16815481101515610bd857fe5b906000526020600020900160000160149054906101000a900460ff166002811115610bff57fe5b141515610c0b57600080fd5b60018860ff16815481101515610c1d57fe5b9060005260206000209001945060008560000160089054906101000a900467ffffffffffffffff1667ffffffffffffffff161193508686905092508315610cd257619c4063ffffffff168361ffff16600260049054906101000a900463ffffffff160163ffffffff1611151515610c9357600080fd5b8261ffff16600260048282829054906101000a900463ffffffff160192506101000a81548163ffffffff021916908363ffffffff160217905550610d43565b6202710063ffffffff168361ffff16600260009054906101000a900463ffffffff160163ffffffff1611151515610d0857600080fd5b8261ffff16600260008282829054906101000a900463ffffffff160192506101000a81548163ffffffff021916908363ffffffff1602179055505b600360008960ff1660ff1681526020019081526020016000208054806001018281610d6e9190611892565b916000526020600020900160008989909192909192509190610d919291906118be565b5050828560000160108282829054906101000a900461ffff160192506101000a81548161ffff021916908361ffff1602179055508760ff167f6785a08d643117337b6cae6465390f9f22ae34088a05a84d89b3c78632eb7d448888604051808060200182810382528484828181526020019250602002808284378201915050935050505060405180910390a25050505050505050565b600260009054906101000a900463ffffffff1681565b600060149054906101000a900460ff1681565b600181815481101515610e5f57fe5b90600052602060002090016000915090508060000160009054906101000a900467ffffffffffffffff16908060000160089054906101000a900467ffffffffffffffff16908060000160109054906101000a900461ffff16908060000160129054906101000a900461ffff16908060000160149054906101000a900460ff16905085565b6000610eed61180f565b600060018460ff16815481101515610f0157fe5b906000526020600020900160a060405190810160405290816000820160009054906101000a900467ffffffffffffffff1667ffffffffffffffff1667ffffffffffffffff1681526020016000820160089054906101000a900467ffffffffffffffff1667ffffffffffffffff1667ffffffffffffffff1681526020016000820160109054906101000a900461ffff1661ffff1661ffff1681526020016000820160129054906101000a900461ffff1661ffff1661ffff1681526020016000820160149054906101000a900460ff166002811115610fda57fe5b6002811115610fe557fe5b8152505091506000826020015167ffffffffffffffff16148061101b5750816020015182600001510167ffffffffffffffff1642105b905080801561104457506001600281111561103257fe5b8260800151600281111561104257fe5b145b92505050919050565b619c4081565b60008060009054906101000a900473ffffffffffffffffffffffffffffffffffffffff1673ffffffffffffffffffffffffffffffffffffffff163373ffffffffffffffffffffffffffffffffffffffff161415156110b057600080fd5b8160008060028111156110bf57fe5b60018360ff168154811015156110d157fe5b906000526020600020900160000160149054906101000a900460ff1660028111156110f857fe5b14151561110457600080fd5b60018460ff1681548110151561111657fe5b90600052602060002090019250428360000160006101000a81548167ffffffffffffffff021916908367ffffffffffffffff16021790555060018360000160146101000a81548160ff0219169083600281111561116f57fe5b02179055507fdecaab47a6deb3a967cfc52307eccfe7f69b86882fa116ab5ed9041eab26acf484604051808260ff1660ff16815260200191505060405180910390a150505050565b600560009054906101000a900473ffffffffffffffffffffffffffffffffffffffff1681565b6000809054906101000a900473ffffffffffffffffffffffffffffffffffffffff1673ffffffffffffffffffffffffffffffffffffffff163373ffffffffffffffffffffffffffffffffffffffff1614151561123857600080fd5b600073ffffffffffffffffffffffffffffffffffffffff168173ffffffffffffffffffffffffffffffffffffffff161415151561127457600080fd5b8073ffffffffffffffffffffffffffffffffffffffff166000809054906101000a900473ffffffffffffffffffffffffffffffffffffffff1673ffffffffffffffffffffffffffffffffffffffff167f8be0079c531659141344cd1fd0a4f28419497f9722a3daafe3b4186f6b6457e060405160405180910390a3806000806101000a81548173ffffffffffffffffffffffffffffffffffffffff021916908373ffffffffffffffffffffffffffffffffffffffff16021790555050565b600080600061133f611974565b61134885610ee3565b158061137157506000600360008760ff1660ff1681526020019081526020016000208054905011155b1561137f57600093506114a1565b611388856114a9565b9250600083805490501115156113a157600093506114a1565b6113ac60008461157f565b91506113b88286611668565b905060018560ff168154811015156113cc57fe5b9060005260206000209001600001601281819054906101000a900461ffff168092919060010191906101000a81548161ffff021916908361ffff160217905550503373ffffffffffffffffffffffffffffffffffffffff167f1947a407fc738aebf73559f82e681274d64efa878ea80c083c5c081d4e9833a0826040518080602001828103825283818151815260200191508051906020019060200280838360005b8381101561148957808201518184015260208101905061146e565b505050509050019250505060405180910390a2600193505b505050919050565b600080600360008460ff1660ff168152602001908152602001600020905060008160008154811015156114d857fe5b906000526020600020900180549050111580156114f9575060018180549050115b1561155d5780600182805490500381548110151561151357fe5b906000526020600020900181600081548110151561152d57fe5b9060005260206000209001908054611546929190611988565b508080548091906001900361155b9190611892565b505b80600081548110151561156c57fe5b9060005260206000209001915050919050565b60008060006001848054905003915081851115151561159d57600080fd5b83858154811015156115ab57fe5b90600052602060002090600891828204019190066004029054906101000a900463ffffffff16905083828154811015156115e157fe5b90600052602060002090600891828204019190066004029054906101000a900463ffffffff16848681548110151561161557fe5b90600052602060002090600891828204019190066004026101000a81548163ffffffff021916908363ffffffff1602179055508380548091906001900361165c91906119e8565b50809250505092915050565b611670611974565b600061167a611974565b60008060008060ff9550600460ff166040518059106116965750595b90808252806020026020018201604052509450600193505b600460ff168460ff16111515611800576008840260200392508560ff168360ff168a63ffffffff169060020a9004169150600560009054906101000a900473ffffffffffffffffffffffffffffffffffffffff1673ffffffffffffffffffffffffffffffffffffffff1663d53f9ea8838a336040518463ffffffff167c0100000000000000000000000000000000000000000000000000000000028152600401808460ff1660ff1681526020018360ff1660ff1681526020018273ffffffffffffffffffffffffffffffffffffffff1673ffffffffffffffffffffffffffffffffffffffff1681526020019350505050602060405180830381600087803b15156117b757600080fd5b5af115156117c457600080fd5b50505060405180519050905080856001860360ff168151811015156117e557fe5b906020019060200201818152505083806001019450506116ae565b84965050505050505092915050565b60a060405190810160405280600067ffffffffffffffff168152602001600067ffffffffffffffff168152602001600061ffff168152602001600061ffff1681526020016000600281111561186057fe5b81525090565b81548183558181151161188d5781836000526020600020918201910161188c9190611a22565b5b505050565b8154818355818115116118b9578183600052602060002091820191016118b89190611ab5565b5b505050565b828054828255906000526020600020906007016008900481019282156119635791602002820160005b8382111561193157833563ffffffff1683826101000a81548163ffffffff021916908363ffffffff16021790555092602001926004016020816003010492830192600103026118e7565b80156119615782816101000a81549063ffffffff0219169055600401602081600301049283019260010302611931565b505b5090506119709190611ae1565b5090565b602060405190810160405280600081525090565b828054828255906000526020600020906007016008900481019282156119d7576000526020600020916007016008900482015b828111156119d65782548255916001019190600101906119bb565b5b5090506119e49190611ae1565b5090565b815481835581811511611a1d576007016008900481600701600890048360005260206000209182019101611a1c9190611b14565b5b505050565b611ab291905b80821115611aae57600080820160006101000a81549067ffffffffffffffff02191690556000820160086101000a81549067ffffffffffffffff02191690556000820160106101000a81549061ffff02191690556000820160126101000a81549061ffff02191690556000820160146101000a81549060ff021916905550600101611a28565b5090565b90565b611ade91905b80821115611ada5760008181611ad19190611b39565b50600101611abb565b5090565b90565b611b1191905b80821115611b0d57600081816101000a81549063ffffffff021916905550600101611ae7565b5090565b90565b611b3691905b80821115611b32576000816000905550600101611b1a565b5090565b90565b508054600082556007016008900490600052602060002090810190611b5e9190611b14565b505600a165627a7a7230582026548b79b91f719b728d3628e95a17e2ad0ebc415e87fdaf6721d13fc1d7d4050029",
  "source": "pragma solidity ^0.4.21;\n\nimport \"./PackSaleFactory.sol\";\n\n/// @dev We use the interface here (instead of importing StrikersMinting) to avoid circular imports\n///   (StrikersMinting already imports StrikersPackSale to make sure only it can call mintBaseCard)\ncontract StrikersMintingInterface {\n  function mintBaseCard(uint8 _playerId, uint8 _saleId, address _owner) external returns (uint256);\n}\n\ncontract StrikersPackSale is PackSaleFactory {\n  /*** EVENTS ***/\n  event PackBought(address indexed buyer, uint256[] pack);\n  event PackPriceChanged(uint256 packPrice);\n\n  /*** STORAGE ***/\n\n  /// @dev The price, in wei, for 1 pack of cards.\n  uint256 public packPrice = 0.03 ether;\n\n  /// @dev A reference to the contract where the cards are actually minted\n  StrikersMintingInterface public strikersMinting;\n\n\n  /// @dev Constructor. Can't change strikersMinting address once it's been initialized\n  function StrikersPackSale(address _strikersMintingAddress) public {\n    strikersMinting = StrikersMintingInterface(_strikersMintingAddress);\n  }\n\n  // TODO: maybe don't allow this while a sale is in progress?\n  function setPackPrice(uint _packPrice) external onlyOwner {\n    packPrice = _packPrice;\n    emit PackPriceChanged(packPrice);\n  }\n\n  // TODO: buyPack for someone else (giftPack?)\n\n  function buyPacksWithETH(uint8 _saleId) external payable {\n    uint256 balanceLeft = msg.value;\n\n    while (balanceLeft >= packPrice) {\n      bool success = _buyPack(_saleId);\n      if (success) {\n        balanceLeft -= packPrice;\n      } else {\n        break;\n      }\n    }\n\n    msg.sender.transfer(balanceLeft);\n  }\n\n\n  function _buyPack(uint8 _saleId) internal returns (bool) {\n    if (!saleInProgress(_saleId) || shuffledPacksForSale[_saleId].length <= 0) {\n      return false;\n    }\n\n    uint32[] storage nextPacks = _getNextPacks(_saleId);\n    if (nextPacks.length <= 0) {\n      return false;\n    }\n\n    uint32 pack = _removePackAtIndex(0, nextPacks);\n    uint256[] memory cards = _mintCards(pack, _saleId);\n    sales[_saleId].packsSold++;\n    emit PackBought(msg.sender, cards);\n    return true;\n  }\n\n  function _mintCards(uint32 _pack, uint8 _saleId) internal returns (uint256[]) {\n    uint8 mask = 255;\n    uint256[] memory newCards = new uint256[](PACK_SIZE);\n\n    for (uint8 i = 1; i <= PACK_SIZE; i++) {\n      uint8 shift = 32 - (i * 8);\n      uint8 playerId = uint8((_pack >> shift) & mask);\n      uint256 cardId = strikersMinting.mintBaseCard(playerId, _saleId, msg.sender);\n      newCards[i-1] = cardId;\n    }\n\n    return newCards;\n  }\n\n  function _getNextPacks(uint8 _saleId) internal returns (uint32[] storage) {\n    uint32[][] storage packsForSale = shuffledPacksForSale[_saleId];\n\n    if (packsForSale[0].length <= 0 && packsForSale.length > 1) {\n      packsForSale[0] = packsForSale[packsForSale.length - 1];\n      packsForSale.length--;\n    }\n\n    return packsForSale[0];\n  }\n\n  function _removePackAtIndex(uint256 _index, uint32[] storage _packs) internal returns (uint32) {\n    uint256 lastIndex = _packs.length - 1;\n    require(_index <= lastIndex);\n    uint32 pack = _packs[_index];\n    _packs[_index] = _packs[lastIndex];\n    _packs.length--;\n    return pack;\n  }\n}\n",
  "sourcePath": "/Users/GiaSet/Desktop/Projects/cryptostrikers/contracts/StrikersPackSale.sol",
  "compiler": {
    "name": "solc",
    "version": "0.4.21+commit.dfe3193c.Emscripten.clang"
  },
  "schemaVersion": "2.0.0",
  "updatedAt": "2018-04-22T09:14:53.361Z"
}