{
  "contractName": "StrikersSale",
  "abi": [
    {
      "constant": false,
      "inputs": [],
      "name": "finishRun",
      "outputs": [],
      "payable": false,
      "stateMutability": "nonpayable",
      "type": "function"
    },
    {
      "constant": true,
      "inputs": [
        {
          "name": "_tokenId",
          "type": "uint256"
        }
      ],
      "name": "getApproved",
      "outputs": [
        {
          "name": "",
          "type": "address"
        }
      ],
      "payable": false,
      "stateMutability": "view",
      "type": "function"
    },
    {
      "constant": true,
      "inputs": [
        {
          "name": "",
          "type": "uint256"
        }
      ],
      "name": "countries",
      "outputs": [
        {
          "name": "",
          "type": "string"
        }
      ],
      "payable": false,
      "stateMutability": "view",
      "type": "function"
    },
    {
      "constant": false,
      "inputs": [
        {
          "name": "_to",
          "type": "address"
        },
        {
          "name": "_tokenId",
          "type": "uint256"
        }
      ],
      "name": "approve",
      "outputs": [],
      "payable": false,
      "stateMutability": "nonpayable",
      "type": "function"
    },
    {
      "constant": false,
      "inputs": [
        {
          "name": "_from",
          "type": "address"
        },
        {
          "name": "_to",
          "type": "address"
        },
        {
          "name": "_tokenId",
          "type": "uint256"
        }
      ],
      "name": "transferFrom",
      "outputs": [],
      "payable": false,
      "stateMutability": "nonpayable",
      "type": "function"
    },
    {
      "constant": false,
      "inputs": [
        {
          "name": "_state",
          "type": "uint8"
        }
      ],
      "name": "changeState",
      "outputs": [],
      "payable": false,
      "stateMutability": "nonpayable",
      "type": "function"
    },
    {
      "constant": true,
      "inputs": [],
      "name": "packPrice",
      "outputs": [
        {
          "name": "",
          "type": "uint256"
        }
      ],
      "payable": false,
      "stateMutability": "view",
      "type": "function"
    },
    {
      "constant": true,
      "inputs": [],
      "name": "PACK_SIZE",
      "outputs": [
        {
          "name": "",
          "type": "uint8"
        }
      ],
      "payable": false,
      "stateMutability": "view",
      "type": "function"
    },
    {
      "constant": false,
      "inputs": [
        {
          "name": "_from",
          "type": "address"
        },
        {
          "name": "_to",
          "type": "address"
        },
        {
          "name": "_tokenId",
          "type": "uint256"
        }
      ],
      "name": "safeTransferFrom",
      "outputs": [],
      "payable": false,
      "stateMutability": "nonpayable",
      "type": "function"
    },
    {
      "constant": true,
      "inputs": [
        {
          "name": "_tokenId",
          "type": "uint256"
        }
      ],
      "name": "exists",
      "outputs": [
        {
          "name": "",
          "type": "bool"
        }
      ],
      "payable": false,
      "stateMutability": "view",
      "type": "function"
    },
    {
      "constant": true,
      "inputs": [
        {
          "name": "_tokenId",
          "type": "uint256"
        }
      ],
      "name": "ownerOf",
      "outputs": [
        {
          "name": "",
          "type": "address"
        }
      ],
      "payable": false,
      "stateMutability": "view",
      "type": "function"
    },
    {
      "constant": true,
      "inputs": [],
      "name": "currentRunNumber",
      "outputs": [
        {
          "name": "",
          "type": "uint8"
        }
      ],
      "payable": false,
      "stateMutability": "view",
      "type": "function"
    },
    {
      "constant": true,
      "inputs": [
        {
          "name": "_owner",
          "type": "address"
        }
      ],
      "name": "balanceOf",
      "outputs": [
        {
          "name": "",
          "type": "uint256"
        }
      ],
      "payable": false,
      "stateMutability": "view",
      "type": "function"
    },
    {
      "constant": false,
      "inputs": [],
      "name": "startNewRun",
      "outputs": [],
      "payable": false,
      "stateMutability": "nonpayable",
      "type": "function"
    },
    {
      "constant": true,
      "inputs": [],
      "name": "owner",
      "outputs": [
        {
          "name": "",
          "type": "address"
        }
      ],
      "payable": false,
      "stateMutability": "view",
      "type": "function"
    },
    {
      "constant": true,
      "inputs": [
        {
          "name": "",
          "type": "uint256"
        }
      ],
      "name": "cards",
      "outputs": [
        {
          "name": "mintTime",
          "type": "uint64"
        },
        {
          "name": "mintNumber",
          "type": "uint16"
        },
        {
          "name": "playerId",
          "type": "uint8"
        },
        {
          "name": "seriesId",
          "type": "uint8"
        },
        {
          "name": "runId",
          "type": "uint8"
        }
      ],
      "payable": false,
      "stateMutability": "view",
      "type": "function"
    },
    {
      "constant": false,
      "inputs": [
        {
          "name": "_shuffledPacks",
          "type": "uint32[]"
        }
      ],
      "name": "loadShuffledPacks",
      "outputs": [],
      "payable": false,
      "stateMutability": "nonpayable",
      "type": "function"
    },
    {
      "constant": true,
      "inputs": [
        {
          "name": "",
          "type": "uint8"
        }
      ],
      "name": "packsMintedForRun",
      "outputs": [
        {
          "name": "",
          "type": "uint32"
        }
      ],
      "payable": false,
      "stateMutability": "view",
      "type": "function"
    },
    {
      "constant": false,
      "inputs": [
        {
          "name": "_to",
          "type": "address"
        },
        {
          "name": "_approved",
          "type": "bool"
        }
      ],
      "name": "setApprovalForAll",
      "outputs": [],
      "payable": false,
      "stateMutability": "nonpayable",
      "type": "function"
    },
    {
      "constant": true,
      "inputs": [
        {
          "name": "",
          "type": "uint8"
        }
      ],
      "name": "packsSoldForRun",
      "outputs": [
        {
          "name": "",
          "type": "uint32"
        }
      ],
      "payable": false,
      "stateMutability": "view",
      "type": "function"
    },
    {
      "constant": false,
      "inputs": [
        {
          "name": "_from",
          "type": "address"
        },
        {
          "name": "_to",
          "type": "address"
        },
        {
          "name": "_tokenId",
          "type": "uint256"
        },
        {
          "name": "_data",
          "type": "bytes"
        }
      ],
      "name": "safeTransferFrom",
      "outputs": [],
      "payable": false,
      "stateMutability": "nonpayable",
      "type": "function"
    },
    {
      "constant": true,
      "inputs": [],
      "name": "state",
      "outputs": [
        {
          "name": "",
          "type": "uint8"
        }
      ],
      "payable": false,
      "stateMutability": "view",
      "type": "function"
    },
    {
      "constant": true,
      "inputs": [],
      "name": "PACKS_MINTED_LIMIT",
      "outputs": [
        {
          "name": "",
          "type": "uint32"
        }
      ],
      "payable": false,
      "stateMutability": "view",
      "type": "function"
    },
    {
      "constant": true,
      "inputs": [
        {
          "name": "_owner",
          "type": "address"
        },
        {
          "name": "_operator",
          "type": "address"
        }
      ],
      "name": "isApprovedForAll",
      "outputs": [
        {
          "name": "",
          "type": "bool"
        }
      ],
      "payable": false,
      "stateMutability": "view",
      "type": "function"
    },
    {
      "constant": false,
      "inputs": [
        {
          "name": "newOwner",
          "type": "address"
        }
      ],
      "name": "transferOwnership",
      "outputs": [],
      "payable": false,
      "stateMutability": "nonpayable",
      "type": "function"
    },
    {
      "constant": true,
      "inputs": [
        {
          "name": "",
          "type": "uint256"
        }
      ],
      "name": "players",
      "outputs": [
        {
          "name": "fullName",
          "type": "string"
        },
        {
          "name": "countryId",
          "type": "uint8"
        }
      ],
      "payable": false,
      "stateMutability": "view",
      "type": "function"
    },
    {
      "constant": true,
      "inputs": [],
      "name": "totalPacksMinted",
      "outputs": [
        {
          "name": "",
          "type": "uint32"
        }
      ],
      "payable": false,
      "stateMutability": "view",
      "type": "function"
    },
    {
      "payable": true,
      "stateMutability": "payable",
      "type": "fallback"
    },
    {
      "anonymous": false,
      "inputs": [
        {
          "indexed": true,
          "name": "buyer",
          "type": "address"
        },
        {
          "indexed": false,
          "name": "pack",
          "type": "uint256[]"
        }
      ],
      "name": "PackBought",
      "type": "event"
    },
    {
      "anonymous": false,
      "inputs": [
        {
          "indexed": false,
          "name": "packPrice",
          "type": "uint256"
        }
      ],
      "name": "PackPriceChanged",
      "type": "event"
    },
    {
      "anonymous": false,
      "inputs": [
        {
          "indexed": false,
          "name": "runNumber",
          "type": "uint8"
        }
      ],
      "name": "SaleStarted",
      "type": "event"
    },
    {
      "anonymous": false,
      "inputs": [
        {
          "indexed": false,
          "name": "runNumber",
          "type": "uint8"
        }
      ],
      "name": "SalePaused",
      "type": "event"
    },
    {
      "anonymous": false,
      "inputs": [
        {
          "indexed": false,
          "name": "runNumber",
          "type": "uint8"
        }
      ],
      "name": "SaleFinished",
      "type": "event"
    },
    {
      "anonymous": false,
      "inputs": [
        {
          "indexed": false,
          "name": "runNumber",
          "type": "uint8"
        }
      ],
      "name": "StartedMinting",
      "type": "event"
    },
    {
      "anonymous": false,
      "inputs": [
        {
          "indexed": false,
          "name": "runNumber",
          "type": "uint8"
        }
      ],
      "name": "FinishedMinting",
      "type": "event"
    },
    {
      "anonymous": false,
      "inputs": [
        {
          "indexed": false,
          "name": "cardId",
          "type": "uint256"
        }
      ],
      "name": "CardMinted",
      "type": "event"
    },
    {
      "anonymous": false,
      "inputs": [
        {
          "indexed": false,
          "name": "state",
          "type": "uint8"
        }
      ],
      "name": "StateChanged",
      "type": "event"
    },
    {
      "anonymous": false,
      "inputs": [
        {
          "indexed": true,
          "name": "previousOwner",
          "type": "address"
        },
        {
          "indexed": true,
          "name": "newOwner",
          "type": "address"
        }
      ],
      "name": "OwnershipTransferred",
      "type": "event"
    },
    {
      "anonymous": false,
      "inputs": [
        {
          "indexed": true,
          "name": "_from",
          "type": "address"
        },
        {
          "indexed": true,
          "name": "_to",
          "type": "address"
        },
        {
          "indexed": false,
          "name": "_tokenId",
          "type": "uint256"
        }
      ],
      "name": "Transfer",
      "type": "event"
    },
    {
      "anonymous": false,
      "inputs": [
        {
          "indexed": true,
          "name": "_owner",
          "type": "address"
        },
        {
          "indexed": true,
          "name": "_approved",
          "type": "address"
        },
        {
          "indexed": false,
          "name": "_tokenId",
          "type": "uint256"
        }
      ],
      "name": "Approval",
      "type": "event"
    },
    {
      "anonymous": false,
      "inputs": [
        {
          "indexed": true,
          "name": "_owner",
          "type": "address"
        },
        {
          "indexed": true,
          "name": "_operator",
          "type": "address"
        },
        {
          "indexed": false,
          "name": "_approved",
          "type": "bool"
        }
      ],
      "name": "ApprovalForAll",
      "type": "event"
    },
    {
      "constant": false,
      "inputs": [
        {
          "name": "_packPrice",
          "type": "uint256"
        }
      ],
      "name": "setPackPrice",
      "outputs": [],
      "payable": false,
      "stateMutability": "nonpayable",
      "type": "function"
    },
    {
      "constant": false,
      "inputs": [],
      "name": "startSale",
      "outputs": [],
      "payable": false,
      "stateMutability": "nonpayable",
      "type": "function"
    },
    {
      "constant": false,
      "inputs": [],
      "name": "pauseSale",
      "outputs": [],
      "payable": false,
      "stateMutability": "nonpayable",
      "type": "function"
    },
    {
      "constant": false,
      "inputs": [],
      "name": "buyPack",
      "outputs": [],
      "payable": false,
      "stateMutability": "nonpayable",
      "type": "function"
    }
  ],
  "bytecode": "0x6060604052610400604051908101604052806040805190810160405280600981526020017f417267656e74696e61000000000000000000000000000000000000000000000081525081526020016040805190810160405280600981526020017f4175737472616c6961000000000000000000000000000000000000000000000081525081526020016040805190810160405280600781526020017f42656c6769756d0000000000000000000000000000000000000000000000000081525081526020016040805190810160405280600681526020017f4272617a696c000000000000000000000000000000000000000000000000000081525081526020016040805190810160405280600881526020017f436f6c6f6d62696100000000000000000000000000000000000000000000000081525081526020016040805190810160405280600a81526020017f436f73746120526963610000000000000000000000000000000000000000000081525081526020016040805190810160405280600781526020017f43726f617469610000000000000000000000000000000000000000000000000081525081526020016040805190810160405280600781526020017f44656e6d61726b0000000000000000000000000000000000000000000000000081525081526020016040805190810160405280600581526020017f456779707400000000000000000000000000000000000000000000000000000081525081526020016040805190810160405280600781526020017f456e676c616e640000000000000000000000000000000000000000000000000081525081526020016040805190810160405280600681526020017f4672616e6365000000000000000000000000000000000000000000000000000081525081526020016040805190810160405280600781526020017f4765726d616e790000000000000000000000000000000000000000000000000081525081526020016040805190810160405280600781526020017f4963656c616e640000000000000000000000000000000000000000000000000081525081526020016040805190810160405280600481526020017f4972616e0000000000000000000000000000000000000000000000000000000081525081526020016040805190810160405280600581526020017f4a6170616e00000000000000000000000000000000000000000000000000000081525081526020016040805190810160405280600681526020017f4d657869636f000000000000000000000000000000000000000000000000000081525081526020016040805190810160405280600781526020017f4d6f726f63636f0000000000000000000000000000000000000000000000000081525081526020016040805190810160405280600781526020017f4e6967657269610000000000000000000000000000000000000000000000000081525081526020016040805190810160405280600681526020017f50616e616d61000000000000000000000000000000000000000000000000000081525081526020016040805190810160405280600481526020017f506572750000000000000000000000000000000000000000000000000000000081525081526020016040805190810160405280600681526020017f506f6c616e64000000000000000000000000000000000000000000000000000081525081526020016040805190810160405280600881526020017f506f72747567616c00000000000000000000000000000000000000000000000081525081526020016040805190810160405280600681526020017f527573736961000000000000000000000000000000000000000000000000000081525081526020016040805190810160405280600c81526020017f536175646920417261626961000000000000000000000000000000000000000081525081526020016040805190810160405280600781526020017f53656e6567616c0000000000000000000000000000000000000000000000000081525081526020016040805190810160405280600681526020017f536572626961000000000000000000000000000000000000000000000000000081525081526020016040805190810160405280600b81526020017f536f757468204b6f72656100000000000000000000000000000000000000000081525081526020016040805190810160405280600581526020017f537061696e00000000000000000000000000000000000000000000000000000081525081526020016040805190810160405280600681526020017f53776564656e000000000000000000000000000000000000000000000000000081525081526020016040805190810160405280600b81526020017f537769747a65726c616e6400000000000000000000000000000000000000000081525081526020016040805190810160405280600781526020017f54756e697369610000000000000000000000000000000000000000000000000081525081526020016040805190810160405280600781526020017f557275677561790000000000000000000000000000000000000000000000000081525081525060059060206200078192919062001a30565b50666a94d74f430000600c5533600460006101000a81548173ffffffffffffffffffffffffffffffffffffffff021916908373ffffffffffffffffffffffffffffffffffffffff16021790555060068054806001018281620007e4919062001a97565b9160005260206000209060020201600060408051908101604052806040805190810160405280600c81526020017f4c696f6e656c204d6573736900000000000000000000000000000000000000008152508152602001600060ff16815250909190915060008201518160000190805190602001906200086592919062001acc565b5060208201518160010160006101000a81548160ff021916908360ff16021790555050505060068054806001018281620008a0919062001a97565b9160005260206000209060020201600060408051908101604052806040805190810160405280600e81526020017f53657267696f204167c3bc65726f0000000000000000000000000000000000008152508152602001600060ff16815250909190915060008201518160000190805190602001906200092192919062001acc565b5060208201518160010160006101000a81548160ff021916908360ff160217905550505050600680548060010182816200095c919062001a97565b9160005260206000209060020201600060408051908101604052806040805190810160405280600b81526020017f4564656e2048617a6172640000000000000000000000000000000000000000008152508152602001600260ff1681525090919091506000820151816000019080519060200190620009dd92919062001acc565b5060208201518160010160006101000a81548160ff021916908360ff1602179055505050506006805480600101828162000a18919062001a97565b9160005260206000209060020201600060408051908101604052806040805190810160405280600f81526020017f4b6576696e20446520427275796e6500000000000000000000000000000000008152508152602001600260ff168152509091909150600082015181600001908051906020019062000a9992919062001acc565b5060208201518160010160006101000a81548160ff021916908360ff1602179055505050506006805480600101828162000ad4919062001a97565b9160005260206000209060020201600060408051908101604052806040805190810160405280601081526020017f5468696261757420436f7572746f6973000000000000000000000000000000008152508152602001600260ff168152509091909150600082015181600001908051906020019062000b5592919062001acc565b5060208201518160010160006101000a81548160ff021916908360ff1602179055505050506006805480600101828162000b90919062001a97565b9160005260206000209060020201600060408051908101604052806040805190810160405280600681526020017f4e65796d617200000000000000000000000000000000000000000000000000008152508152602001600360ff168152509091909150600082015181600001908051906020019062000c1192919062001acc565b5060208201518160010160006101000a81548160ff021916908360ff1602179055505050506006805480600101828162000c4c919062001a97565b9160005260206000209060020201600060408051908101604052806040805190810160405280600a81526020017f44616e6920416c766573000000000000000000000000000000000000000000008152508152602001600360ff168152509091909150600082015181600001908051906020019062000ccd92919062001acc565b5060208201518160010160006101000a81548160ff021916908360ff1602179055505050506006805480600101828162000d08919062001a97565b9160005260206000209060020201600060408051908101604052806040805190810160405280600781526020017f4d617263656c6f000000000000000000000000000000000000000000000000008152508152602001600360ff168152509091909150600082015181600001908051906020019062000d8992919062001acc565b5060208201518160010160006101000a81548160ff021916908360ff1602179055505050506006805480600101828162000dc4919062001a97565b9160005260206000209060020201600060408051908101604052806040805190810160405280600c81526020017f4c756b61204d6f647269c48700000000000000000000000000000000000000008152508152602001600660ff168152509091909150600082015181600001908051906020019062000e4592919062001acc565b5060208201518160010160006101000a81548160ff021916908360ff1602179055505050506006805480600101828162000e80919062001a97565b9160005260206000209060020201600060408051908101604052806040805190810160405280601181526020017f43687269737469616e204572696b73656e0000000000000000000000000000008152508152602001600760ff168152509091909150600082015181600001908051906020019062000f0192919062001acc565b5060208201518160010160006101000a81548160ff021916908360ff1602179055505050506006805480600101828162000f3c919062001a97565b9160005260206000209060020201600060408051908101604052806040805190810160405280600d81526020017f4d6f68616d65642053616c6168000000000000000000000000000000000000008152508152602001600860ff168152509091909150600082015181600001908051906020019062000fbd92919062001acc565b5060208201518160010160006101000a81548160ff021916908360ff1602179055505050506006805480600101828162000ff8919062001a97565b9160005260206000209060020201600060408051908101604052806040805190810160405280600a81526020017f4861727279204b616e65000000000000000000000000000000000000000000008152508152602001600960ff16815250909190915060008201518160000190805190602001906200107992919062001acc565b5060208201518160010160006101000a81548160ff021916908360ff16021790555050505060068054806001018281620010b4919062001a97565b9160005260206000209060020201600060408051908101604052806040805190810160405280600a81526020017f5061756c20506f676261000000000000000000000000000000000000000000008152508152602001600a60ff16815250909190915060008201518160000190805190602001906200113592919062001acc565b5060208201518160010160006101000a81548160ff021916908360ff1602179055505050506006805480600101828162001170919062001a97565b9160005260206000209060020201600060408051908101604052806040805190810160405280600d81526020017f4e27476f6c6f204b616e74c3a9000000000000000000000000000000000000008152508152602001600a60ff1681525090919091506000820151816000019080519060200190620011f192919062001acc565b5060208201518160010160006101000a81548160ff021916908360ff160217905550505050600680548060010182816200122c919062001a97565b9160005260206000209060020201600060408051908101604052806040805190810160405280601181526020017f416e746f696e6520477269657a6d616e6e0000000000000000000000000000008152508152602001600a60ff1681525090919091506000820151816000019080519060200190620012ad92919062001acc565b5060208201518160010160006101000a81548160ff021916908360ff16021790555050505060068054806001018281620012e8919062001a97565b9160005260206000209060020201600060408051908101604052806040805190810160405280600a81526020017f546f6e69204b726f6f73000000000000000000000000000000000000000000008152508152602001600b60ff16815250909190915060008201518160000190805190602001906200136992919062001acc565b5060208201518160010160006101000a81548160ff021916908360ff16021790555050505060068054806001018281620013a4919062001a97565b9160005260206000209060020201600060408051908101604052806040805190810160405280600c81526020017f4d6174732048756d6d656c7300000000000000000000000000000000000000008152508152602001600b60ff16815250909190915060008201518160000190805190602001906200142592919062001acc565b5060208201518160010160006101000a81548160ff021916908360ff1602179055505050506006805480600101828162001460919062001a97565b9160005260206000209060020201600060408051908101604052806040805190810160405280600b81526020017f4d6573757420c3967a696c0000000000000000000000000000000000000000008152508152602001600b60ff1681525090919091506000820151816000019080519060200190620014e192919062001acc565b5060208201518160010160006101000a81548160ff021916908360ff160217905550505050600680548060010182816200151c919062001a97565b9160005260206000209060020201600060408051908101604052806040805190810160405280601281526020017f526f62657274204c6577616e646f77736b6900000000000000000000000000008152508152602001601460ff16815250909190915060008201518160000190805190602001906200159d92919062001acc565b5060208201518160010160006101000a81548160ff021916908360ff16021790555050505060068054806001018281620015d8919062001a97565b9160005260206000209060020201600060408051908101604052806040805190810160405280601181526020017f437269737469616e6f20526f6e616c646f0000000000000000000000000000008152508152602001601560ff16815250909190915060008201518160000190805190602001906200165992919062001acc565b5060208201518160010160006101000a81548160ff021916908360ff1602179055505050506006805480600101828162001694919062001a97565b9160005260206000209060020201600060408051908101604052806040805190810160405280600681526020017f54686961676f00000000000000000000000000000000000000000000000000008152508152602001601b60ff16815250909190915060008201518160000190805190602001906200171592919062001acc565b5060208201518160010160006101000a81548160ff021916908360ff1602179055505050506006805480600101828162001750919062001a97565b9160005260206000209060020201600060408051908101604052806040805190810160405280600c81526020017f53657267696f2052616d6f7300000000000000000000000000000000000000008152508152602001601b60ff1681525090919091506000820151816000019080519060200190620017d192919062001acc565b5060208201518160010160006101000a81548160ff021916908360ff160217905550505050600680548060010182816200180c919062001a97565b9160005260206000209060020201600060408051908101604052806040805190810160405280600c81526020017f44617669642044652047656100000000000000000000000000000000000000008152508152602001601b60ff16815250909190915060008201518160000190805190602001906200188d92919062001acc565b5060208201518160010160006101000a81548160ff021916908360ff16021790555050505060068054806001018281620018c8919062001a97565b9160005260206000209060020201600060408051908101604052806040805190810160405280600e81526020017f4564696e736f6e20436176616e690000000000000000000000000000000000008152508152602001601f60ff16815250909190915060008201518160000190805190602001906200194992919062001acc565b5060208201518160010160006101000a81548160ff021916908360ff1602179055505050506006805480600101828162001984919062001a97565b9160005260206000209060020201600060408051908101604052806040805190810160405280600c81526020017f4c756973205375c3a172657a00000000000000000000000000000000000000008152508152602001601f60ff168152509091909150600082015181600001908051906020019062001a0592919062001acc565b5060208201518160010160006101000a81548160ff021916908360ff16021790555050505062001c40565b82805482825590600052602060002090810192821562001a84579160200282015b8281111562001a8357825182908051906020019062001a7292919062001acc565b509160200191906001019062001a51565b5b50905062001a93919062001b53565b5090565b81548183558181151162001ac75760020281600202836000526020600020918201910162001ac6919062001b84565b5b505050565b828054600181600116156101000203166002900490600052602060002090601f016020900481019282601f1062001b0f57805160ff191683800117855562001b40565b8280016001018555821562001b40579182015b8281111562001b3f57825182559160200191906001019062001b22565b5b50905062001b4f919062001bcc565b5090565b62001b8191905b8082111562001b7d576000818162001b73919062001bf4565b5060010162001b5a565b5090565b90565b62001bc991905b8082111562001bc5576000808201600062001ba7919062001bf4565b6001820160006101000a81549060ff02191690555060020162001b8b565b5090565b90565b62001bf191905b8082111562001bed57600081600090555060010162001bd3565b5090565b90565b50805460018160011615610100020316600290046000825580601f1062001c1c575062001c3d565b601f01602090049060005260206000209081019062001c3c919062001bcc565b5b50565b612aa48062001c506000396000f30060606040526004361061018b576000357c0100000000000000000000000000000000000000000000000000000000900463ffffffff1680630679bd3c14610195578063081812fc146101aa57806308e9daa51461020d578063095ea7b3146102a95780630b6af499146102eb57806323b872dd1461030e578063268f11531461036f578063335c8b63146103955780633d0c9cc4146103be57806342842e0e146103ed5780634f558e791461044e57806355367ba9146104895780636352211e1461049e5780636efe22b11461050157806370a08231146105305780638813f6ad1461057d5780638da5cb5b146105925780638dc10768146105e7578063909ddd6b146106685780639bb8d9a014610696578063a22cb465146106dc578063b3ccea6d14610720578063b66a0e5d14610766578063b88d4fde1461077b578063c19d93fb1461081f578063c37b9bcd14610856578063c95443e91461086b578063e985e9c5146108a0578063f2fde38b14610910578063f71d96cb14610949578063fe156d88146109f2575b610193610a27565b005b34156101a057600080fd5b6101a8610c36565b005b34156101b557600080fd5b6101cb6004808035906020019091905050610d20565b604051808273ffffffffffffffffffffffffffffffffffffffff1673ffffffffffffffffffffffffffffffffffffffff16815260200191505060405180910390f35b341561021857600080fd5b61022e6004808035906020019091905050610d5d565b6040518080602001828103825283818151815260200191508051906020019080838360005b8381101561026e578082015181840152602081019050610253565b50505050905090810190601f16801561029b5780820380516001836020036101000a031916815260200191505b509250505060405180910390f35b34156102b457600080fd5b6102e9600480803573ffffffffffffffffffffffffffffffffffffffff16906020019091908035906020019091905050610e19565b005b34156102f657600080fd5b61030c6004808035906020019091905050610fdf565b005b341561031957600080fd5b61036d600480803573ffffffffffffffffffffffffffffffffffffffff1690602001909190803573ffffffffffffffffffffffffffffffffffffffff169060200190919080359060200190919050506110b5565b005b341561037a57600080fd5b610393600480803560ff169060200190919050506111cc565b005b34156103a057600080fd5b6103a86112a2565b6040518082815260200191505060405180910390f35b34156103c957600080fd5b6103d16112a8565b604051808260ff1660ff16815260200191505060405180910390f35b34156103f857600080fd5b61044c600480803573ffffffffffffffffffffffffffffffffffffffff1690602001909190803573ffffffffffffffffffffffffffffffffffffffff169060200190919080359060200190919050506112ad565b005b341561045957600080fd5b61046f60048080359060200190919050506112e5565b604051808215151515815260200191505060405180910390f35b341561049457600080fd5b61049c611356565b005b34156104a957600080fd5b6104bf6004808035906020019091905050611440565b604051808273ffffffffffffffffffffffffffffffffffffffff1673ffffffffffffffffffffffffffffffffffffffff16815260200191505060405180910390f35b341561050c57600080fd5b6105146114bd565b604051808260ff1660ff16815260200191505060405180910390f35b341561053b57600080fd5b610567600480803573ffffffffffffffffffffffffffffffffffffffff169060200190919050506114d0565b6040518082815260200191505060405180910390f35b341561058857600080fd5b610590611554565b005b341561059d57600080fd5b6105a5611670565b604051808273ffffffffffffffffffffffffffffffffffffffff1673ffffffffffffffffffffffffffffffffffffffff16815260200191505060405180910390f35b34156105f257600080fd5b6106086004808035906020019091905050611696565b604051808667ffffffffffffffff1667ffffffffffffffff1681526020018561ffff1661ffff1681526020018460ff1660ff1681526020018360ff1660ff1681526020018260ff1660ff1681526020019550505050505060405180910390f35b341561067357600080fd5b61069460048080359060200190820180359060200191909192905050611721565b005b34156106a157600080fd5b6106ba600480803560ff16906020019091905050611896565b604051808263ffffffff1663ffffffff16815260200191505060405180910390f35b34156106e757600080fd5b61071e600480803573ffffffffffffffffffffffffffffffffffffffff1690602001909190803515159060200190919050506118b9565b005b341561072b57600080fd5b610744600480803560ff169060200190919050506119f5565b604051808263ffffffff1663ffffffff16815260200191505060405180910390f35b341561077157600080fd5b610779611a18565b005b341561078657600080fd5b61081d600480803573ffffffffffffffffffffffffffffffffffffffff1690602001909190803573ffffffffffffffffffffffffffffffffffffffff1690602001909190803590602001909190803590602001908201803590602001908080601f01602080910402602001604051908101604052809392919081815260200183838082843782019150505050505091905050611b02565b005b341561082a57600080fd5b610832611b41565b6040518082600581111561084257fe5b60ff16815260200191505060405180910390f35b341561086157600080fd5b610869610a27565b005b341561087657600080fd5b61087e611b54565b604051808263ffffffff1663ffffffff16815260200191505060405180910390f35b34156108ab57600080fd5b6108f6600480803573ffffffffffffffffffffffffffffffffffffffff1690602001909190803573ffffffffffffffffffffffffffffffffffffffff16906020019091905050611b5b565b604051808215151515815260200191505060405180910390f35b341561091b57600080fd5b610947600480803573ffffffffffffffffffffffffffffffffffffffff16906020019091905050611bef565b005b341561095457600080fd5b61096a6004808035906020019091905050611d47565b60405180806020018360ff1660ff168152602001828103825284818151815260200191508051906020019080838360005b838110156109b657808201518184015260208101905061099b565b50505050905090810190601f1680156109e35780820380516001836020036101000a031916815260200191505b50935050505060405180910390f35b34156109fd57600080fd5b610a05611e1f565b604051808263ffffffff1663ffffffff16815260200191505060405180910390f35b600080610a3261281e565b6000806000806003806005811115610a4657fe5b600760009054906101000a900460ff166005811115610a6157fe5b141515610a6d57600080fd5b6000600b80549050111515610a8157600080fd5b610a8b6000611e35565b975060ff9650600460ff16604051805910610aa35750595b90808252806020026020018201604052509550600194505b600460ff168560ff16111515610b3c576008850260200393508660ff168460ff168963ffffffff169060020a9004169250610b0a836001600960049054906101000a900460ff16600033611f22565b915081866001870360ff16815181101515610b2157fe5b90602001906020020181815250508480600101955050610abb565b600d6000600960049054906101000a900460ff1660ff1660ff168152602001908152602001600020600081819054906101000a900463ffffffff168092919060010191906101000a81548163ffffffff021916908363ffffffff160217905550503373ffffffffffffffffffffffffffffffffffffffff167f1947a407fc738aebf73559f82e681274d64efa878ea80c083c5c081d4e9833a0876040518080602001828103825283818151815260200191508051906020019060200280838360005b83811015610c19578082015181840152602081019050610bfe565b505050509050019250505060405180910390a25050505050505050565b600460009054906101000a900473ffffffffffffffffffffffffffffffffffffffff1673ffffffffffffffffffffffffffffffffffffffff163373ffffffffffffffffffffffffffffffffffffffff16141515610c9257600080fd5b6001806005811115610ca057fe5b600760009054906101000a900460ff166005811115610cbb57fe5b141515610cc757600080fd5b7f54baea2230d4c6df44ee5bc1f38ff09857cc61aeabc394ecc9fbc33e97cc845a600960049054906101000a900460ff16604051808260ff1660ff16815260200191505060405180910390a1610d1d60026111cc565b50565b60006001600083815260200190815260200160002060009054906101000a900473ffffffffffffffffffffffffffffffffffffffff169050919050565b600581815481101515610d6c57fe5b90600052602060002090016000915090508054600181600116156101000203166002900480601f016020809104026020016040519081016040528092919081815260200182805460018160011615610100020316600290048015610e115780601f10610de657610100808354040283529160200191610e11565b820191906000526020600020905b815481529060010190602001808311610df457829003601f168201915b505050505081565b6000610e2482611440565b90508073ffffffffffffffffffffffffffffffffffffffff168373ffffffffffffffffffffffffffffffffffffffff1614151515610e6157600080fd5b8073ffffffffffffffffffffffffffffffffffffffff163373ffffffffffffffffffffffffffffffffffffffff161480610ea15750610ea08133611b5b565b5b1515610eac57600080fd5b600073ffffffffffffffffffffffffffffffffffffffff16610ecd83610d20565b73ffffffffffffffffffffffffffffffffffffffff16141580610f1d5750600073ffffffffffffffffffffffffffffffffffffffff168373ffffffffffffffffffffffffffffffffffffffff1614155b15610fda57826001600084815260200190815260200160002060006101000a81548173ffffffffffffffffffffffffffffffffffffffff021916908373ffffffffffffffffffffffffffffffffffffffff1602179055508273ffffffffffffffffffffffffffffffffffffffff168173ffffffffffffffffffffffffffffffffffffffff167f8c5be1e5ebec7d5bd14f71427d1e84f3dd0314c0f7b2291e5b200ac8c7c3b925846040518082815260200191505060405180910390a35b505050565b600460009054906101000a900473ffffffffffffffffffffffffffffffffffffffff1673ffffffffffffffffffffffffffffffffffffffff163373ffffffffffffffffffffffffffffffffffffffff1614151561103b57600080fd5b600380600581111561104957fe5b600760009054906101000a900460ff16600581111561106457fe5b1415151561107157600080fd5b81600c819055507f9f2e0621bf53ee3777af82248c78d54737c33903e0ef1cac8b4d3a2e45405edd600c546040518082815260200191505060405180910390a15050565b806110c03382612187565b15156110cb57600080fd5b600073ffffffffffffffffffffffffffffffffffffffff168473ffffffffffffffffffffffffffffffffffffffff161415151561110757600080fd5b600073ffffffffffffffffffffffffffffffffffffffff168373ffffffffffffffffffffffffffffffffffffffff161415151561114357600080fd5b61114d848361221c565b6111578483612385565b61116183836124b3565b8273ffffffffffffffffffffffffffffffffffffffff168473ffffffffffffffffffffffffffffffffffffffff167fddf252ad1be2c89b69c2b068fc378daa952ba7f163c4a11628f55a4df523b3ef846040518082815260200191505060405180910390a350505050565b600460009054906101000a900473ffffffffffffffffffffffffffffffffffffffff1673ffffffffffffffffffffffffffffffffffffffff163373ffffffffffffffffffffffffffffffffffffffff1614151561122857600080fd5b80600760006101000a81548160ff0219169083600581111561124657fe5b02179055507f551dc40198cc79684bb69e4931dba4ac16e4598792ee1c0a5000aeea366d7bb6600760009054906101000a900460ff166040518082600581111561128c57fe5b60ff16815260200191505060405180910390a150565b600c5481565b600481565b806112b83382612187565b15156112c357600080fd5b6112df8484846020604051908101604052806000815250611b02565b50505050565b60008060008084815260200190815260200160002060009054906101000a900473ffffffffffffffffffffffffffffffffffffffff169050600073ffffffffffffffffffffffffffffffffffffffff168173ffffffffffffffffffffffffffffffffffffffff161415915050919050565b600460009054906101000a900473ffffffffffffffffffffffffffffffffffffffff1673ffffffffffffffffffffffffffffffffffffffff163373ffffffffffffffffffffffffffffffffffffffff161415156113b257600080fd5b60038060058111156113c057fe5b600760009054906101000a900460ff1660058111156113db57fe5b1415156113e757600080fd5b7f29ff1a53b611d4e01a3c5daa5de3acd49316a453101da665b8e6fe2832eed4d2600960049054906101000a900460ff16604051808260ff1660ff16815260200191505060405180910390a161143d60046111cc565b50565b60008060008084815260200190815260200160002060009054906101000a900473ffffffffffffffffffffffffffffffffffffffff169050600073ffffffffffffffffffffffffffffffffffffffff168173ffffffffffffffffffffffffffffffffffffffff16141515156114b457600080fd5b80915050919050565b600960049054906101000a900460ff1681565b60008073ffffffffffffffffffffffffffffffffffffffff168273ffffffffffffffffffffffffffffffffffffffff161415151561150d57600080fd5b600260008373ffffffffffffffffffffffffffffffffffffffff1673ffffffffffffffffffffffffffffffffffffffff168152602001908152602001600020549050919050565b600460009054906101000a900473ffffffffffffffffffffffffffffffffffffffff1673ffffffffffffffffffffffffffffffffffffffff163373ffffffffffffffffffffffffffffffffffffffff161415156115b057600080fd5b60008060058111156115be57fe5b600760009054906101000a900460ff1660058111156115d957fe5b1415156115e557600080fd5b6009600481819054906101000a900460ff168092919060010191906101000a81548160ff021916908360ff160217905550507fe48820bf7736e92e329ced7b401211ac8b91c15716e4c0b941edd91b4509cfbb600960049054906101000a900460ff16604051808260ff1660ff16815260200191505060405180910390a161166d60016111cc565b50565b600460009054906101000a900473ffffffffffffffffffffffffffffffffffffffff1681565b6008818154811015156116a557fe5b90600052602060002090016000915090508060000160009054906101000a900467ffffffffffffffff16908060000160089054906101000a900461ffff169080600001600a9054906101000a900460ff169080600001600b9054906101000a900460ff169080600001600c9054906101000a900460ff16905085565b6000600460009054906101000a900473ffffffffffffffffffffffffffffffffffffffff1673ffffffffffffffffffffffffffffffffffffffff163373ffffffffffffffffffffffffffffffffffffffff1614151561177f57600080fd5b600180600581111561178d57fe5b600760009054906101000a900460ff1660058111156117a857fe5b1415156117b457600080fd5b83839050915062030d4063ffffffff1682600960009054906101000a900463ffffffff160163ffffffff16111515156117ec57600080fd5b8383600b91906117fd929190612832565b5081600960008282829054906101000a900463ffffffff160192506101000a81548163ffffffff021916908363ffffffff16021790555081600a6000600960049054906101000a900460ff1660ff1660ff16815260200190815260200160002060008282829054906101000a900463ffffffff160192506101000a81548163ffffffff021916908363ffffffff16021790555050505050565b600a6020528060005260406000206000915054906101000a900463ffffffff1681565b3373ffffffffffffffffffffffffffffffffffffffff168273ffffffffffffffffffffffffffffffffffffffff16141515156118f457600080fd5b80600360003373ffffffffffffffffffffffffffffffffffffffff1673ffffffffffffffffffffffffffffffffffffffff16815260200190815260200160002060008473ffffffffffffffffffffffffffffffffffffffff1673ffffffffffffffffffffffffffffffffffffffff16815260200190815260200160002060006101000a81548160ff0219169083151502179055508173ffffffffffffffffffffffffffffffffffffffff163373ffffffffffffffffffffffffffffffffffffffff167f17307eab39ab6107e8899845ad3d59bd9653f200f220920489ca2b5937696c3183604051808215151515815260200191505060405180910390a35050565b600d6020528060005260406000206000915054906101000a900463ffffffff1681565b600460009054906101000a900473ffffffffffffffffffffffffffffffffffffffff1673ffffffffffffffffffffffffffffffffffffffff163373ffffffffffffffffffffffffffffffffffffffff16141515611a7457600080fd5b6002806005811115611a8257fe5b600760009054906101000a900460ff166005811115611a9d57fe5b141515611aa957600080fd5b7fdecaab47a6deb3a967cfc52307eccfe7f69b86882fa116ab5ed9041eab26acf4600960049054906101000a900460ff16604051808260ff1660ff16815260200191505060405180910390a1611aff60036111cc565b50565b81611b0d3382612187565b1515611b1857600080fd5b611b238585856110b5565b611b2f8585858561260b565b1515611b3a57600080fd5b5050505050565b600760009054906101000a900460ff1681565b62030d4081565b6000600360008473ffffffffffffffffffffffffffffffffffffffff1673ffffffffffffffffffffffffffffffffffffffff16815260200190815260200160002060008373ffffffffffffffffffffffffffffffffffffffff1673ffffffffffffffffffffffffffffffffffffffff16815260200190815260200160002060009054906101000a900460ff16905092915050565b600460009054906101000a900473ffffffffffffffffffffffffffffffffffffffff1673ffffffffffffffffffffffffffffffffffffffff163373ffffffffffffffffffffffffffffffffffffffff16141515611c4b57600080fd5b600073ffffffffffffffffffffffffffffffffffffffff168173ffffffffffffffffffffffffffffffffffffffff1614151515611c8757600080fd5b8073ffffffffffffffffffffffffffffffffffffffff16600460009054906101000a900473ffffffffffffffffffffffffffffffffffffffff1673ffffffffffffffffffffffffffffffffffffffff167f8be0079c531659141344cd1fd0a4f28419497f9722a3daafe3b4186f6b6457e060405160405180910390a380600460006101000a81548173ffffffffffffffffffffffffffffffffffffffff021916908373ffffffffffffffffffffffffffffffffffffffff16021790555050565b600681815481101515611d5657fe5b9060005260206000209060020201600091509050806000018054600181600116156101000203166002900480601f016020809104026020016040519081016040528092919081815260200182805460018160011615610100020316600290048015611e025780601f10611dd757610100808354040283529160200191611e02565b820191906000526020600020905b815481529060010190602001808311611de557829003601f168201915b5050505050908060010160009054906101000a900460ff16905082565b600960009054906101000a900463ffffffff1681565b60008060006001600b80549050039150818411151515611e5457600080fd5b600b84815481101515611e6357fe5b90600052602060002090600891828204019190066004029054906101000a900463ffffffff169050600b82815481101515611e9a57fe5b90600052602060002090600891828204019190066004029054906101000a900463ffffffff16600b85815481101515611ecf57fe5b90600052602060002090600891828204019190066004026101000a81548163ffffffff021916908363ffffffff160217905550600b805480919060019003611f1791906128e8565b508092505050919050565b6000611f2c612922565b600060a0604051908101604052804267ffffffffffffffff1681526020018661ffff1681526020018960ff1681526020018860ff1681526020018760ff168152509150600160088054806001018281611f859190612969565b9160005260206000209001600085909190915060008201518160000160006101000a81548167ffffffffffffffff021916908367ffffffffffffffff16021790555060208201518160000160086101000a81548161ffff021916908361ffff160217905550604082015181600001600a6101000a81548160ff021916908360ff160217905550606082015181600001600b6101000a81548160ff021916908360ff160217905550608082015181600001600c6101000a81548160ff021916908360ff16021790555050500390507f220b53d3db6f7694ac363d118b95866fad85b0e6b18b77cbe36eb044996994a0816040518082815260200191505060405180910390a18360008083815260200190815260200160002060006101000a81548173ffffffffffffffffffffffffffffffffffffffff021916908373ffffffffffffffffffffffffffffffffffffffff160217905550600260008573ffffffffffffffffffffffffffffffffffffffff1673ffffffffffffffffffffffffffffffffffffffff168152602001908152602001600020600081548092919060010191905055508373ffffffffffffffffffffffffffffffffffffffff1660007fddf252ad1be2c89b69c2b068fc378daa952ba7f163c4a11628f55a4df523b3ef836040518082815260200191505060405180910390a3809250505095945050505050565b60008061219383611440565b90508073ffffffffffffffffffffffffffffffffffffffff168473ffffffffffffffffffffffffffffffffffffffff16148061220257508373ffffffffffffffffffffffffffffffffffffffff166121ea84610d20565b73ffffffffffffffffffffffffffffffffffffffff16145b8061221357506122128185611b5b565b5b91505092915050565b8173ffffffffffffffffffffffffffffffffffffffff1661223c82611440565b73ffffffffffffffffffffffffffffffffffffffff1614151561225e57600080fd5b600073ffffffffffffffffffffffffffffffffffffffff166001600083815260200190815260200160002060009054906101000a900473ffffffffffffffffffffffffffffffffffffffff1673ffffffffffffffffffffffffffffffffffffffff161415156123815760006001600083815260200190815260200160002060006101000a81548173ffffffffffffffffffffffffffffffffffffffff021916908373ffffffffffffffffffffffffffffffffffffffff160217905550600073ffffffffffffffffffffffffffffffffffffffff168273ffffffffffffffffffffffffffffffffffffffff167f8c5be1e5ebec7d5bd14f71427d1e84f3dd0314c0f7b2291e5b200ac8c7c3b925836040518082815260200191505060405180910390a35b5050565b8173ffffffffffffffffffffffffffffffffffffffff166123a582611440565b73ffffffffffffffffffffffffffffffffffffffff161415156123c757600080fd5b61241a6001600260008573ffffffffffffffffffffffffffffffffffffffff1673ffffffffffffffffffffffffffffffffffffffff168152602001908152602001600020546127d490919063ffffffff16565b600260008473ffffffffffffffffffffffffffffffffffffffff1673ffffffffffffffffffffffffffffffffffffffff16815260200190815260200160002081905550600080600083815260200190815260200160002060006101000a81548173ffffffffffffffffffffffffffffffffffffffff021916908373ffffffffffffffffffffffffffffffffffffffff1602179055505050565b600073ffffffffffffffffffffffffffffffffffffffff1660008083815260200190815260200160002060009054906101000a900473ffffffffffffffffffffffffffffffffffffffff1673ffffffffffffffffffffffffffffffffffffffff1614151561252057600080fd5b8160008083815260200190815260200160002060006101000a81548173ffffffffffffffffffffffffffffffffffffffff021916908373ffffffffffffffffffffffffffffffffffffffff1602179055506125c46001600260008573ffffffffffffffffffffffffffffffffffffffff1673ffffffffffffffffffffffffffffffffffffffff168152602001908152602001600020546127ed90919063ffffffff16565b600260008473ffffffffffffffffffffffffffffffffffffffff1673ffffffffffffffffffffffffffffffffffffffff168152602001908152602001600020819055505050565b60008061262d8573ffffffffffffffffffffffffffffffffffffffff1661280b565b151561263c57600191506127cb565b8473ffffffffffffffffffffffffffffffffffffffff1663f0b9e5ba8786866040518463ffffffff167c0100000000000000000000000000000000000000000000000000000000028152600401808473ffffffffffffffffffffffffffffffffffffffff1673ffffffffffffffffffffffffffffffffffffffff16815260200183815260200180602001828103825283818151815260200191508051906020019080838360005b838110156126fe5780820151818401526020810190506126e3565b50505050905090810190601f16801561272b5780820380516001836020036101000a031916815260200191505b50945050505050602060405180830381600087803b151561274b57600080fd5b5af1151561275857600080fd5b50505060405180519050905063f0b9e5ba7c0100000000000000000000000000000000000000000000000000000000027bffffffffffffffffffffffffffffffffffffffffffffffffffffffff1916817bffffffffffffffffffffffffffffffffffffffffffffffffffffffff19161491505b50949350505050565b60008282111515156127e257fe5b818303905092915050565b600080828401905083811015151561280157fe5b8091505092915050565b600080823b905060008111915050919050565b602060405190810160405280600081525090565b828054828255906000526020600020906007016008900481019282156128d75791602002820160005b838211156128a557833563ffffffff1683826101000a81548163ffffffff021916908363ffffffff160217905550926020019260040160208160030104928301926001030261285b565b80156128d55782816101000a81549063ffffffff02191690556004016020816003010492830192600103026128a5565b505b5090506128e49190612995565b5090565b81548183558181151161291d57600701600890048160070160089004836000526020600020918201910161291c91906129c8565b5b505050565b60a060405190810160405280600067ffffffffffffffff168152602001600061ffff168152602001600060ff168152602001600060ff168152602001600060ff1681525090565b8154818355818115116129905781836000526020600020918201910161298f91906129ed565b5b505050565b6129c591905b808211156129c157600081816101000a81549063ffffffff02191690555060010161299b565b5090565b90565b6129ea91905b808211156129e65760008160009055506001016129ce565b5090565b90565b612a7591905b80821115612a7157600080820160006101000a81549067ffffffffffffffff02191690556000820160086101000a81549061ffff021916905560008201600a6101000a81549060ff021916905560008201600b6101000a81549060ff021916905560008201600c6101000a81549060ff0219169055506001016129f3565b5090565b905600a165627a7a723058208fc837f657f97a36ab7000e8f1ee4848a9249b443089dc097f82ad2320459ae60029",
  "source": "pragma solidity ^0.4.21;\n\nimport \"./StrikersPackFactory.sol\";\n\ncontract StrikersSale is StrikersPackFactory {\n  event PackBought(address indexed buyer, uint256[] pack);\n  event PackPriceChanged(uint256 packPrice);\n\n  event SaleStarted(uint8 runNumber);\n  event SalePaused(uint8 runNumber);\n  event SaleFinished(uint8 runNumber);\n\n  // Can be adjusted as needed\n  uint256 public packPrice = 0.03 ether;\n\n  mapping (uint8 => uint32) public packsSoldForRun;\n\n  // actually maybe we don't want to expose this...\n  mapping (uint8 => mapping (uint8 => uint16)) playerCardsSoldForRun;\n\n  function setPackPrice(uint _packPrice) public onlyOwner requireNotState(State.Selling) {\n    packPrice = _packPrice;\n    emit PackPriceChanged(packPrice);\n  }\n\n  function() external payable {\n    buyPack();\n  }\n\n  function startSale() external onlyOwner requireState(State.DoneMinting) {\n    emit SaleStarted(currentRunNumber);\n    changeState(State.Selling);\n  }\n\n  function pauseSale() external onlyOwner requireState(State.Selling) {\n    emit SalePaused(currentRunNumber);\n    changeState(State.SalePaused);\n  }\n\n  function buyPack() public requireState(State.Selling) {\n    // TODO: require proper ether amount\n    require(shuffledPacks.length > 0);\n    uint32 pack = _removePackAtIndex(0);\n    uint8 mask = 255;\n    uint256[] memory newCards = new uint256[](PACK_SIZE);\n    for (uint8 i = 1; i <= PACK_SIZE; i++) {\n      uint8 shift = 32 - (i * 8);\n      uint8 playerId = uint8((pack >> shift) & mask);\n      uint256 cardId = _mintCard(playerId, 1, currentRunNumber, 0, msg.sender);\n      newCards[i-1] = cardId;\n    }\n    packsSoldForRun[currentRunNumber]++;\n    emit PackBought(msg.sender, newCards);\n  }\n\n  function _removePackAtIndex(uint256 _index) internal returns (uint32) {\n    uint256 lastIndex = shuffledPacks.length - 1;\n    require(_index <= lastIndex);\n    uint32 pack = shuffledPacks[_index];\n    shuffledPacks[_index] = shuffledPacks[lastIndex];\n    shuffledPacks.length--;\n    return pack;\n  }\n}\n",
  "sourcePath": "/Users/GiaSet/Desktop/Projects/cryptostrikers/contracts/StrikersSale.sol",
  "compiler": {
    "name": "solc",
    "version": "0.4.21+commit.dfe3193c.Emscripten.clang"
  },
  "schemaVersion": "2.0.0",
  "updatedAt": "2018-04-04T17:24:32.650Z"
}