{
  "contractName": "StrikersSale",
  "abi": [
    {
      "constant": false,
      "inputs": [],
      "name": "finishRun",
      "outputs": [],
      "payable": false,
      "stateMutability": "nonpayable",
      "type": "function"
    },
    {
      "constant": true,
      "inputs": [
        {
          "name": "_tokenId",
          "type": "uint256"
        }
      ],
      "name": "getApproved",
      "outputs": [
        {
          "name": "",
          "type": "address"
        }
      ],
      "payable": false,
      "stateMutability": "view",
      "type": "function"
    },
    {
      "constant": true,
      "inputs": [
        {
          "name": "",
          "type": "uint256"
        }
      ],
      "name": "countries",
      "outputs": [
        {
          "name": "",
          "type": "string"
        }
      ],
      "payable": false,
      "stateMutability": "view",
      "type": "function"
    },
    {
      "constant": false,
      "inputs": [
        {
          "name": "_to",
          "type": "address"
        },
        {
          "name": "_tokenId",
          "type": "uint256"
        }
      ],
      "name": "approve",
      "outputs": [],
      "payable": false,
      "stateMutability": "nonpayable",
      "type": "function"
    },
    {
      "constant": false,
      "inputs": [
        {
          "name": "_from",
          "type": "address"
        },
        {
          "name": "_to",
          "type": "address"
        },
        {
          "name": "_tokenId",
          "type": "uint256"
        }
      ],
      "name": "transferFrom",
      "outputs": [],
      "payable": false,
      "stateMutability": "nonpayable",
      "type": "function"
    },
    {
      "constant": true,
      "inputs": [],
      "name": "packPrice",
      "outputs": [
        {
          "name": "",
          "type": "uint256"
        }
      ],
      "payable": false,
      "stateMutability": "view",
      "type": "function"
    },
    {
      "constant": true,
      "inputs": [],
      "name": "PACK_SIZE",
      "outputs": [
        {
          "name": "",
          "type": "uint8"
        }
      ],
      "payable": false,
      "stateMutability": "view",
      "type": "function"
    },
    {
      "constant": false,
      "inputs": [
        {
          "name": "_from",
          "type": "address"
        },
        {
          "name": "_to",
          "type": "address"
        },
        {
          "name": "_tokenId",
          "type": "uint256"
        }
      ],
      "name": "safeTransferFrom",
      "outputs": [],
      "payable": false,
      "stateMutability": "nonpayable",
      "type": "function"
    },
    {
      "constant": true,
      "inputs": [
        {
          "name": "_tokenId",
          "type": "uint256"
        }
      ],
      "name": "exists",
      "outputs": [
        {
          "name": "",
          "type": "bool"
        }
      ],
      "payable": false,
      "stateMutability": "view",
      "type": "function"
    },
    {
      "constant": true,
      "inputs": [
        {
          "name": "_tokenId",
          "type": "uint256"
        }
      ],
      "name": "ownerOf",
      "outputs": [
        {
          "name": "",
          "type": "address"
        }
      ],
      "payable": false,
      "stateMutability": "view",
      "type": "function"
    },
    {
      "constant": true,
      "inputs": [],
      "name": "currentRunNumber",
      "outputs": [
        {
          "name": "",
          "type": "uint8"
        }
      ],
      "payable": false,
      "stateMutability": "view",
      "type": "function"
    },
    {
      "constant": true,
      "inputs": [
        {
          "name": "_owner",
          "type": "address"
        }
      ],
      "name": "balanceOf",
      "outputs": [
        {
          "name": "",
          "type": "uint256"
        }
      ],
      "payable": false,
      "stateMutability": "view",
      "type": "function"
    },
    {
      "constant": true,
      "inputs": [],
      "name": "packsMinted",
      "outputs": [
        {
          "name": "",
          "type": "uint32"
        }
      ],
      "payable": false,
      "stateMutability": "view",
      "type": "function"
    },
    {
      "constant": false,
      "inputs": [],
      "name": "startNewRun",
      "outputs": [],
      "payable": false,
      "stateMutability": "nonpayable",
      "type": "function"
    },
    {
      "constant": true,
      "inputs": [],
      "name": "owner",
      "outputs": [
        {
          "name": "",
          "type": "address"
        }
      ],
      "payable": false,
      "stateMutability": "view",
      "type": "function"
    },
    {
      "constant": true,
      "inputs": [
        {
          "name": "",
          "type": "uint256"
        }
      ],
      "name": "cards",
      "outputs": [
        {
          "name": "mintTime",
          "type": "uint64"
        },
        {
          "name": "mintNumber",
          "type": "uint16"
        },
        {
          "name": "playerId",
          "type": "uint8"
        },
        {
          "name": "seriesId",
          "type": "uint8"
        },
        {
          "name": "runId",
          "type": "uint8"
        }
      ],
      "payable": false,
      "stateMutability": "view",
      "type": "function"
    },
    {
      "constant": false,
      "inputs": [
        {
          "name": "_shuffledPacks",
          "type": "uint32[]"
        }
      ],
      "name": "loadShuffledPacks",
      "outputs": [],
      "payable": false,
      "stateMutability": "nonpayable",
      "type": "function"
    },
    {
      "constant": false,
      "inputs": [
        {
          "name": "_to",
          "type": "address"
        },
        {
          "name": "_approved",
          "type": "bool"
        }
      ],
      "name": "setApprovalForAll",
      "outputs": [],
      "payable": false,
      "stateMutability": "nonpayable",
      "type": "function"
    },
    {
      "constant": false,
      "inputs": [
        {
          "name": "_from",
          "type": "address"
        },
        {
          "name": "_to",
          "type": "address"
        },
        {
          "name": "_tokenId",
          "type": "uint256"
        },
        {
          "name": "_data",
          "type": "bytes"
        }
      ],
      "name": "safeTransferFrom",
      "outputs": [],
      "payable": false,
      "stateMutability": "nonpayable",
      "type": "function"
    },
    {
      "constant": true,
      "inputs": [
        {
          "name": "",
          "type": "uint8"
        }
      ],
      "name": "runSizeForRun",
      "outputs": [
        {
          "name": "",
          "type": "uint32"
        }
      ],
      "payable": false,
      "stateMutability": "view",
      "type": "function"
    },
    {
      "constant": true,
      "inputs": [],
      "name": "PACKS_MINTED_LIMIT",
      "outputs": [
        {
          "name": "",
          "type": "uint32"
        }
      ],
      "payable": false,
      "stateMutability": "view",
      "type": "function"
    },
    {
      "constant": true,
      "inputs": [
        {
          "name": "_owner",
          "type": "address"
        },
        {
          "name": "_operator",
          "type": "address"
        }
      ],
      "name": "isApprovedForAll",
      "outputs": [
        {
          "name": "",
          "type": "bool"
        }
      ],
      "payable": false,
      "stateMutability": "view",
      "type": "function"
    },
    {
      "constant": false,
      "inputs": [
        {
          "name": "newOwner",
          "type": "address"
        }
      ],
      "name": "transferOwnership",
      "outputs": [],
      "payable": false,
      "stateMutability": "nonpayable",
      "type": "function"
    },
    {
      "constant": true,
      "inputs": [
        {
          "name": "",
          "type": "uint256"
        }
      ],
      "name": "shuffledPacks",
      "outputs": [
        {
          "name": "",
          "type": "uint32"
        }
      ],
      "payable": false,
      "stateMutability": "view",
      "type": "function"
    },
    {
      "constant": true,
      "inputs": [
        {
          "name": "",
          "type": "uint256"
        }
      ],
      "name": "players",
      "outputs": [
        {
          "name": "fullName",
          "type": "string"
        },
        {
          "name": "countryId",
          "type": "uint8"
        }
      ],
      "payable": false,
      "stateMutability": "view",
      "type": "function"
    },
    {
      "payable": true,
      "stateMutability": "payable",
      "type": "fallback"
    },
    {
      "anonymous": false,
      "inputs": [
        {
          "indexed": true,
          "name": "_buyer",
          "type": "address"
        },
        {
          "indexed": false,
          "name": "_pack",
          "type": "uint256[]"
        }
      ],
      "name": "PackBought",
      "type": "event"
    },
    {
      "anonymous": false,
      "inputs": [
        {
          "indexed": false,
          "name": "runNumber",
          "type": "uint8"
        }
      ],
      "name": "RunMinted",
      "type": "event"
    },
    {
      "anonymous": false,
      "inputs": [
        {
          "indexed": false,
          "name": "cardId",
          "type": "uint256"
        }
      ],
      "name": "CardMinted",
      "type": "event"
    },
    {
      "anonymous": false,
      "inputs": [
        {
          "indexed": true,
          "name": "previousOwner",
          "type": "address"
        },
        {
          "indexed": true,
          "name": "newOwner",
          "type": "address"
        }
      ],
      "name": "OwnershipTransferred",
      "type": "event"
    },
    {
      "anonymous": false,
      "inputs": [
        {
          "indexed": true,
          "name": "_from",
          "type": "address"
        },
        {
          "indexed": true,
          "name": "_to",
          "type": "address"
        },
        {
          "indexed": false,
          "name": "_tokenId",
          "type": "uint256"
        }
      ],
      "name": "Transfer",
      "type": "event"
    },
    {
      "anonymous": false,
      "inputs": [
        {
          "indexed": true,
          "name": "_owner",
          "type": "address"
        },
        {
          "indexed": true,
          "name": "_approved",
          "type": "address"
        },
        {
          "indexed": false,
          "name": "_tokenId",
          "type": "uint256"
        }
      ],
      "name": "Approval",
      "type": "event"
    },
    {
      "anonymous": false,
      "inputs": [
        {
          "indexed": true,
          "name": "_owner",
          "type": "address"
        },
        {
          "indexed": true,
          "name": "_operator",
          "type": "address"
        },
        {
          "indexed": false,
          "name": "_approved",
          "type": "bool"
        }
      ],
      "name": "ApprovalForAll",
      "type": "event"
    },
    {
      "constant": false,
      "inputs": [
        {
          "name": "_packPrice",
          "type": "uint256"
        }
      ],
      "name": "setPackPrice",
      "outputs": [],
      "payable": false,
      "stateMutability": "nonpayable",
      "type": "function"
    },
    {
      "constant": false,
      "inputs": [],
      "name": "buyPack",
      "outputs": [],
      "payable": false,
      "stateMutability": "nonpayable",
      "type": "function"
    }
  ],
  "bytecode": "0x6060604052610400604051908101604052806040805190810160405280600981526020017f417267656e74696e61000000000000000000000000000000000000000000000081525081526020016040805190810160405280600981526020017f4175737472616c6961000000000000000000000000000000000000000000000081525081526020016040805190810160405280600781526020017f42656c6769756d0000000000000000000000000000000000000000000000000081525081526020016040805190810160405280600681526020017f4272617a696c000000000000000000000000000000000000000000000000000081525081526020016040805190810160405280600881526020017f436f6c6f6d62696100000000000000000000000000000000000000000000000081525081526020016040805190810160405280600a81526020017f436f73746120526963610000000000000000000000000000000000000000000081525081526020016040805190810160405280600781526020017f43726f617469610000000000000000000000000000000000000000000000000081525081526020016040805190810160405280600781526020017f44656e6d61726b0000000000000000000000000000000000000000000000000081525081526020016040805190810160405280600581526020017f456779707400000000000000000000000000000000000000000000000000000081525081526020016040805190810160405280600781526020017f456e676c616e640000000000000000000000000000000000000000000000000081525081526020016040805190810160405280600681526020017f4672616e6365000000000000000000000000000000000000000000000000000081525081526020016040805190810160405280600781526020017f4765726d616e790000000000000000000000000000000000000000000000000081525081526020016040805190810160405280600781526020017f4963656c616e640000000000000000000000000000000000000000000000000081525081526020016040805190810160405280600481526020017f4972616e0000000000000000000000000000000000000000000000000000000081525081526020016040805190810160405280600581526020017f4a6170616e00000000000000000000000000000000000000000000000000000081525081526020016040805190810160405280600681526020017f4d657869636f000000000000000000000000000000000000000000000000000081525081526020016040805190810160405280600781526020017f4d6f726f63636f0000000000000000000000000000000000000000000000000081525081526020016040805190810160405280600781526020017f4e6967657269610000000000000000000000000000000000000000000000000081525081526020016040805190810160405280600681526020017f50616e616d61000000000000000000000000000000000000000000000000000081525081526020016040805190810160405280600481526020017f506572750000000000000000000000000000000000000000000000000000000081525081526020016040805190810160405280600681526020017f506f6c616e64000000000000000000000000000000000000000000000000000081525081526020016040805190810160405280600881526020017f506f72747567616c00000000000000000000000000000000000000000000000081525081526020016040805190810160405280600681526020017f527573736961000000000000000000000000000000000000000000000000000081525081526020016040805190810160405280600c81526020017f536175646920417261626961000000000000000000000000000000000000000081525081526020016040805190810160405280600781526020017f53656e6567616c0000000000000000000000000000000000000000000000000081525081526020016040805190810160405280600681526020017f536572626961000000000000000000000000000000000000000000000000000081525081526020016040805190810160405280600b81526020017f536f757468204b6f72656100000000000000000000000000000000000000000081525081526020016040805190810160405280600581526020017f537061696e00000000000000000000000000000000000000000000000000000081525081526020016040805190810160405280600681526020017f53776564656e000000000000000000000000000000000000000000000000000081525081526020016040805190810160405280600b81526020017f537769747a65726c616e6400000000000000000000000000000000000000000081525081526020016040805190810160405280600781526020017f54756e697369610000000000000000000000000000000000000000000000000081525081526020016040805190810160405280600781526020017f557275677561790000000000000000000000000000000000000000000000000081525081525060059060206200078192919062001a30565b50666a94d74f430000600b5533600460006101000a81548173ffffffffffffffffffffffffffffffffffffffff021916908373ffffffffffffffffffffffffffffffffffffffff16021790555060068054806001018281620007e4919062001a97565b9160005260206000209060020201600060408051908101604052806040805190810160405280600c81526020017f4c696f6e656c204d6573736900000000000000000000000000000000000000008152508152602001600060ff16815250909190915060008201518160000190805190602001906200086592919062001acc565b5060208201518160010160006101000a81548160ff021916908360ff16021790555050505060068054806001018281620008a0919062001a97565b9160005260206000209060020201600060408051908101604052806040805190810160405280600e81526020017f53657267696f204167c3bc65726f0000000000000000000000000000000000008152508152602001600060ff16815250909190915060008201518160000190805190602001906200092192919062001acc565b5060208201518160010160006101000a81548160ff021916908360ff160217905550505050600680548060010182816200095c919062001a97565b9160005260206000209060020201600060408051908101604052806040805190810160405280600b81526020017f4564656e2048617a6172640000000000000000000000000000000000000000008152508152602001600260ff1681525090919091506000820151816000019080519060200190620009dd92919062001acc565b5060208201518160010160006101000a81548160ff021916908360ff1602179055505050506006805480600101828162000a18919062001a97565b9160005260206000209060020201600060408051908101604052806040805190810160405280600f81526020017f4b6576696e20446520427275796e6500000000000000000000000000000000008152508152602001600260ff168152509091909150600082015181600001908051906020019062000a9992919062001acc565b5060208201518160010160006101000a81548160ff021916908360ff1602179055505050506006805480600101828162000ad4919062001a97565b9160005260206000209060020201600060408051908101604052806040805190810160405280601081526020017f5468696261757420436f7572746f6973000000000000000000000000000000008152508152602001600260ff168152509091909150600082015181600001908051906020019062000b5592919062001acc565b5060208201518160010160006101000a81548160ff021916908360ff1602179055505050506006805480600101828162000b90919062001a97565b9160005260206000209060020201600060408051908101604052806040805190810160405280600681526020017f4e65796d617200000000000000000000000000000000000000000000000000008152508152602001600360ff168152509091909150600082015181600001908051906020019062000c1192919062001acc565b5060208201518160010160006101000a81548160ff021916908360ff1602179055505050506006805480600101828162000c4c919062001a97565b9160005260206000209060020201600060408051908101604052806040805190810160405280600a81526020017f44616e6920416c766573000000000000000000000000000000000000000000008152508152602001600360ff168152509091909150600082015181600001908051906020019062000ccd92919062001acc565b5060208201518160010160006101000a81548160ff021916908360ff1602179055505050506006805480600101828162000d08919062001a97565b9160005260206000209060020201600060408051908101604052806040805190810160405280600781526020017f4d617263656c6f000000000000000000000000000000000000000000000000008152508152602001600360ff168152509091909150600082015181600001908051906020019062000d8992919062001acc565b5060208201518160010160006101000a81548160ff021916908360ff1602179055505050506006805480600101828162000dc4919062001a97565b9160005260206000209060020201600060408051908101604052806040805190810160405280600c81526020017f4c756b61204d6f647269c48700000000000000000000000000000000000000008152508152602001600660ff168152509091909150600082015181600001908051906020019062000e4592919062001acc565b5060208201518160010160006101000a81548160ff021916908360ff1602179055505050506006805480600101828162000e80919062001a97565b9160005260206000209060020201600060408051908101604052806040805190810160405280601181526020017f43687269737469616e204572696b73656e0000000000000000000000000000008152508152602001600760ff168152509091909150600082015181600001908051906020019062000f0192919062001acc565b5060208201518160010160006101000a81548160ff021916908360ff1602179055505050506006805480600101828162000f3c919062001a97565b9160005260206000209060020201600060408051908101604052806040805190810160405280600d81526020017f4d6f68616d65642053616c6168000000000000000000000000000000000000008152508152602001600860ff168152509091909150600082015181600001908051906020019062000fbd92919062001acc565b5060208201518160010160006101000a81548160ff021916908360ff1602179055505050506006805480600101828162000ff8919062001a97565b9160005260206000209060020201600060408051908101604052806040805190810160405280600a81526020017f4861727279204b616e65000000000000000000000000000000000000000000008152508152602001600960ff16815250909190915060008201518160000190805190602001906200107992919062001acc565b5060208201518160010160006101000a81548160ff021916908360ff16021790555050505060068054806001018281620010b4919062001a97565b9160005260206000209060020201600060408051908101604052806040805190810160405280600a81526020017f5061756c20506f676261000000000000000000000000000000000000000000008152508152602001600a60ff16815250909190915060008201518160000190805190602001906200113592919062001acc565b5060208201518160010160006101000a81548160ff021916908360ff1602179055505050506006805480600101828162001170919062001a97565b9160005260206000209060020201600060408051908101604052806040805190810160405280600d81526020017f4e27476f6c6f204b616e74c3a9000000000000000000000000000000000000008152508152602001600a60ff1681525090919091506000820151816000019080519060200190620011f192919062001acc565b5060208201518160010160006101000a81548160ff021916908360ff160217905550505050600680548060010182816200122c919062001a97565b9160005260206000209060020201600060408051908101604052806040805190810160405280601181526020017f416e746f696e6520477269657a6d616e6e0000000000000000000000000000008152508152602001600a60ff1681525090919091506000820151816000019080519060200190620012ad92919062001acc565b5060208201518160010160006101000a81548160ff021916908360ff16021790555050505060068054806001018281620012e8919062001a97565b9160005260206000209060020201600060408051908101604052806040805190810160405280600a81526020017f546f6e69204b726f6f73000000000000000000000000000000000000000000008152508152602001600b60ff16815250909190915060008201518160000190805190602001906200136992919062001acc565b5060208201518160010160006101000a81548160ff021916908360ff16021790555050505060068054806001018281620013a4919062001a97565b9160005260206000209060020201600060408051908101604052806040805190810160405280600c81526020017f4d6174732048756d6d656c7300000000000000000000000000000000000000008152508152602001600b60ff16815250909190915060008201518160000190805190602001906200142592919062001acc565b5060208201518160010160006101000a81548160ff021916908360ff1602179055505050506006805480600101828162001460919062001a97565b9160005260206000209060020201600060408051908101604052806040805190810160405280600b81526020017f4d6573757420c3967a696c0000000000000000000000000000000000000000008152508152602001600b60ff1681525090919091506000820151816000019080519060200190620014e192919062001acc565b5060208201518160010160006101000a81548160ff021916908360ff160217905550505050600680548060010182816200151c919062001a97565b9160005260206000209060020201600060408051908101604052806040805190810160405280601281526020017f526f62657274204c6577616e646f77736b6900000000000000000000000000008152508152602001601460ff16815250909190915060008201518160000190805190602001906200159d92919062001acc565b5060208201518160010160006101000a81548160ff021916908360ff16021790555050505060068054806001018281620015d8919062001a97565b9160005260206000209060020201600060408051908101604052806040805190810160405280601181526020017f437269737469616e6f20526f6e616c646f0000000000000000000000000000008152508152602001601560ff16815250909190915060008201518160000190805190602001906200165992919062001acc565b5060208201518160010160006101000a81548160ff021916908360ff1602179055505050506006805480600101828162001694919062001a97565b9160005260206000209060020201600060408051908101604052806040805190810160405280600681526020017f54686961676f00000000000000000000000000000000000000000000000000008152508152602001601b60ff16815250909190915060008201518160000190805190602001906200171592919062001acc565b5060208201518160010160006101000a81548160ff021916908360ff1602179055505050506006805480600101828162001750919062001a97565b9160005260206000209060020201600060408051908101604052806040805190810160405280600c81526020017f53657267696f2052616d6f7300000000000000000000000000000000000000008152508152602001601b60ff1681525090919091506000820151816000019080519060200190620017d192919062001acc565b5060208201518160010160006101000a81548160ff021916908360ff160217905550505050600680548060010182816200180c919062001a97565b9160005260206000209060020201600060408051908101604052806040805190810160405280600c81526020017f44617669642044652047656100000000000000000000000000000000000000008152508152602001601b60ff16815250909190915060008201518160000190805190602001906200188d92919062001acc565b5060208201518160010160006101000a81548160ff021916908360ff16021790555050505060068054806001018281620018c8919062001a97565b9160005260206000209060020201600060408051908101604052806040805190810160405280600e81526020017f4564696e736f6e20436176616e690000000000000000000000000000000000008152508152602001601f60ff16815250909190915060008201518160000190805190602001906200194992919062001acc565b5060208201518160010160006101000a81548160ff021916908360ff1602179055505050506006805480600101828162001984919062001a97565b9160005260206000209060020201600060408051908101604052806040805190810160405280600c81526020017f4c756973205375c3a172657a00000000000000000000000000000000000000008152508152602001601f60ff168152509091909150600082015181600001908051906020019062001a0592919062001acc565b5060208201518160010160006101000a81548160ff021916908360ff16021790555050505062001c40565b82805482825590600052602060002090810192821562001a84579160200282015b8281111562001a8357825182908051906020019062001a7292919062001acc565b509160200191906001019062001a51565b5b50905062001a93919062001b53565b5090565b81548183558181151162001ac75760020281600202836000526020600020918201910162001ac6919062001b84565b5b505050565b828054600181600116156101000203166002900490600052602060002090601f016020900481019282601f1062001b0f57805160ff191683800117855562001b40565b8280016001018555821562001b40579182015b8281111562001b3f57825182559160200191906001019062001b22565b5b50905062001b4f919062001bcc565b5090565b62001b8191905b8082111562001b7d576000818162001b73919062001bf4565b5060010162001b5a565b5090565b90565b62001bc991905b8082111562001bc5576000808201600062001ba7919062001bf4565b6001820160006101000a81549060ff02191690555060020162001b8b565b5090565b90565b62001bf191905b8082111562001bed57600081600090555060010162001bd3565b5090565b90565b50805460018160011615610100020316600290046000825580601f1062001c1c575062001c3d565b601f01602090049060005260206000209081019062001c3c919062001bcc565b5b50565b61252f8062001c506000396000f30060606040526004361061015f576000357c0100000000000000000000000000000000000000000000000000000000900463ffffffff1680630679bd3c14610169578063081812fc1461017e57806308e9daa5146101e1578063095ea7b31461027d5780630b6af499146102bf57806323b872dd146102e2578063335c8b63146103435780633d0c9cc41461036c57806342842e0e1461039b5780634f558e79146103fc5780636352211e146104375780636efe22b11461049a57806370a08231146104c957806371851cfa146105165780638813f6ad1461054b5780638da5cb5b146105605780638dc10768146105b5578063909ddd6b14610636578063a22cb46514610664578063b88d4fde146106a8578063c37b9bcd1461074c578063c6c5d9bf14610761578063c95443e9146107a7578063e985e9c5146107dc578063f2fde38b1461084c578063f6eaa49c14610885578063f71d96cb146108c8575b610167610971565b005b341561017457600080fd5b61017c610ae9565b005b341561018957600080fd5b61019f6004808035906020019091905050610b93565b604051808273ffffffffffffffffffffffffffffffffffffffff1673ffffffffffffffffffffffffffffffffffffffff16815260200191505060405180910390f35b34156101ec57600080fd5b6102026004808035906020019091905050610bd0565b6040518080602001828103825283818151815260200191508051906020019080838360005b83811015610242578082015181840152602081019050610227565b50505050905090810190601f16801561026f5780820380516001836020036101000a031916815260200191505b509250505060405180910390f35b341561028857600080fd5b6102bd600480803573ffffffffffffffffffffffffffffffffffffffff16906020019091908035906020019091905050610c8c565b005b34156102ca57600080fd5b6102e06004808035906020019091905050610e52565b005b34156102ed57600080fd5b610341600480803573ffffffffffffffffffffffffffffffffffffffff1690602001909190803573ffffffffffffffffffffffffffffffffffffffff16906020019091908035906020019091905050610eb8565b005b341561034e57600080fd5b610356610fcf565b6040518082815260200191505060405180910390f35b341561037757600080fd5b61037f610fd5565b604051808260ff1660ff16815260200191505060405180910390f35b34156103a657600080fd5b6103fa600480803573ffffffffffffffffffffffffffffffffffffffff1690602001909190803573ffffffffffffffffffffffffffffffffffffffff16906020019091908035906020019091905050610fda565b005b341561040757600080fd5b61041d6004808035906020019091905050611012565b604051808215151515815260200191505060405180910390f35b341561044257600080fd5b6104586004808035906020019091905050611083565b604051808273ffffffffffffffffffffffffffffffffffffffff1673ffffffffffffffffffffffffffffffffffffffff16815260200191505060405180910390f35b34156104a557600080fd5b6104ad611100565b604051808260ff1660ff16815260200191505060405180910390f35b34156104d457600080fd5b610500600480803573ffffffffffffffffffffffffffffffffffffffff16906020019091905050611113565b6040518082815260200191505060405180910390f35b341561052157600080fd5b610529611197565b604051808263ffffffff1663ffffffff16815260200191505060405180910390f35b341561055657600080fd5b61055e6111ad565b005b341561056b57600080fd5b61057361123d565b604051808273ffffffffffffffffffffffffffffffffffffffff1673ffffffffffffffffffffffffffffffffffffffff16815260200191505060405180910390f35b34156105c057600080fd5b6105d66004808035906020019091905050611263565b604051808667ffffffffffffffff1667ffffffffffffffff1681526020018561ffff1661ffff1681526020018460ff1660ff1681526020018360ff1660ff1681526020018260ff1660ff1681526020019550505050505060405180910390f35b341561064157600080fd5b610662600480803590602001908201803590602001919091929050506112ee565b005b341561066f57600080fd5b6106a6600480803573ffffffffffffffffffffffffffffffffffffffff16906020019091908035151590602001909190505061141e565b005b34156106b357600080fd5b61074a600480803573ffffffffffffffffffffffffffffffffffffffff1690602001909190803573ffffffffffffffffffffffffffffffffffffffff1690602001909190803590602001909190803590602001908201803590602001908080601f0160208091040260200160405190810160405280939291908181526020018383808284378201915050505050509190505061155a565b005b341561075757600080fd5b61075f610971565b005b341561076c57600080fd5b610785600480803560ff16906020019091905050611599565b604051808263ffffffff1663ffffffff16815260200191505060405180910390f35b34156107b257600080fd5b6107ba6115bc565b604051808263ffffffff1663ffffffff16815260200191505060405180910390f35b34156107e757600080fd5b610832600480803573ffffffffffffffffffffffffffffffffffffffff1690602001909190803573ffffffffffffffffffffffffffffffffffffffff169060200190919050506115c3565b604051808215151515815260200191505060405180910390f35b341561085757600080fd5b610883600480803573ffffffffffffffffffffffffffffffffffffffff16906020019091905050611657565b005b341561089057600080fd5b6108a660048080359060200190919050506117af565b604051808263ffffffff1663ffffffff16815260200191505060405180910390f35b34156108d357600080fd5b6108e960048080359060200190919050506117e8565b60405180806020018360ff1660ff168152602001828103825284818151815260200191508051906020019080838360005b8381101561093557808201518184015260208101905061091a565b50505050905090810190601f1680156109625780820380516001836020036101000a031916815260200191505b50935050505060405180910390f35b60008061097c6122a9565b6000806000806000600a8054905011151561099657600080fd5b6109a060006118c0565b965060ff9550600460ff166040518059106109b85750595b90808252806020026020018201604052509450600193505b600460ff168460ff16111515610a51576008840260200392508560ff168360ff168863ffffffff169060020a9004169150610a1f826001600860049054906101000a900460ff166000336119ad565b905080856001860360ff16815181101515610a3657fe5b906020019060200201818152505083806001019450506109d0565b3373ffffffffffffffffffffffffffffffffffffffff167f1947a407fc738aebf73559f82e681274d64efa878ea80c083c5c081d4e9833a0866040518080602001828103825283818151815260200191508051906020019060200280838360005b83811015610acd578082015181840152602081019050610ab2565b505050509050019250505060405180910390a250505050505050565b600460009054906101000a900473ffffffffffffffffffffffffffffffffffffffff1673ffffffffffffffffffffffffffffffffffffffff163373ffffffffffffffffffffffffffffffffffffffff16141515610b4557600080fd5b7ffd275880897a3b64a65ac76c0409859979076a71f3e0f5799b7e2036d2c28e5c600860049054906101000a900460ff16604051808260ff1660ff16815260200191505060405180910390a1565b60006001600083815260200190815260200160002060009054906101000a900473ffffffffffffffffffffffffffffffffffffffff169050919050565b600581815481101515610bdf57fe5b90600052602060002090016000915090508054600181600116156101000203166002900480601f016020809104026020016040519081016040528092919081815260200182805460018160011615610100020316600290048015610c845780601f10610c5957610100808354040283529160200191610c84565b820191906000526020600020905b815481529060010190602001808311610c6757829003601f168201915b505050505081565b6000610c9782611083565b90508073ffffffffffffffffffffffffffffffffffffffff168373ffffffffffffffffffffffffffffffffffffffff1614151515610cd457600080fd5b8073ffffffffffffffffffffffffffffffffffffffff163373ffffffffffffffffffffffffffffffffffffffff161480610d145750610d1381336115c3565b5b1515610d1f57600080fd5b600073ffffffffffffffffffffffffffffffffffffffff16610d4083610b93565b73ffffffffffffffffffffffffffffffffffffffff16141580610d905750600073ffffffffffffffffffffffffffffffffffffffff168373ffffffffffffffffffffffffffffffffffffffff1614155b15610e4d57826001600084815260200190815260200160002060006101000a81548173ffffffffffffffffffffffffffffffffffffffff021916908373ffffffffffffffffffffffffffffffffffffffff1602179055508273ffffffffffffffffffffffffffffffffffffffff168173ffffffffffffffffffffffffffffffffffffffff167f8c5be1e5ebec7d5bd14f71427d1e84f3dd0314c0f7b2291e5b200ac8c7c3b925846040518082815260200191505060405180910390a35b505050565b600460009054906101000a900473ffffffffffffffffffffffffffffffffffffffff1673ffffffffffffffffffffffffffffffffffffffff163373ffffffffffffffffffffffffffffffffffffffff16141515610eae57600080fd5b80600b8190555050565b80610ec33382611c12565b1515610ece57600080fd5b600073ffffffffffffffffffffffffffffffffffffffff168473ffffffffffffffffffffffffffffffffffffffff1614151515610f0a57600080fd5b600073ffffffffffffffffffffffffffffffffffffffff168373ffffffffffffffffffffffffffffffffffffffff1614151515610f4657600080fd5b610f508483611ca7565b610f5a8483611e10565b610f648383611f3e565b8273ffffffffffffffffffffffffffffffffffffffff168473ffffffffffffffffffffffffffffffffffffffff167fddf252ad1be2c89b69c2b068fc378daa952ba7f163c4a11628f55a4df523b3ef846040518082815260200191505060405180910390a350505050565b600b5481565b600481565b80610fe53382611c12565b1515610ff057600080fd5b61100c848484602060405190810160405280600081525061155a565b50505050565b60008060008084815260200190815260200160002060009054906101000a900473ffffffffffffffffffffffffffffffffffffffff169050600073ffffffffffffffffffffffffffffffffffffffff168173ffffffffffffffffffffffffffffffffffffffff161415915050919050565b60008060008084815260200190815260200160002060009054906101000a900473ffffffffffffffffffffffffffffffffffffffff169050600073ffffffffffffffffffffffffffffffffffffffff168173ffffffffffffffffffffffffffffffffffffffff16141515156110f757600080fd5b80915050919050565b600860049054906101000a900460ff1681565b60008073ffffffffffffffffffffffffffffffffffffffff168273ffffffffffffffffffffffffffffffffffffffff161415151561115057600080fd5b600260008373ffffffffffffffffffffffffffffffffffffffff1673ffffffffffffffffffffffffffffffffffffffff168152602001908152602001600020549050919050565b600860009054906101000a900463ffffffff1681565b600460009054906101000a900473ffffffffffffffffffffffffffffffffffffffff1673ffffffffffffffffffffffffffffffffffffffff163373ffffffffffffffffffffffffffffffffffffffff1614151561120957600080fd5b6008600481819054906101000a900460ff168092919060010191906101000a81548160ff021916908360ff16021790555050565b600460009054906101000a900473ffffffffffffffffffffffffffffffffffffffff1681565b60078181548110151561127257fe5b90600052602060002090016000915090508060000160009054906101000a900467ffffffffffffffff16908060000160089054906101000a900461ffff169080600001600a9054906101000a900460ff169080600001600b9054906101000a900460ff169080600001600c9054906101000a900460ff16905085565b6000600460009054906101000a900473ffffffffffffffffffffffffffffffffffffffff1673ffffffffffffffffffffffffffffffffffffffff163373ffffffffffffffffffffffffffffffffffffffff1614151561134c57600080fd5b600460ff168383905002905062030d4063ffffffff1681600860009054906101000a900463ffffffff160163ffffffff161115151561138a57600080fd5b80600860008282829054906101000a900463ffffffff160192506101000a81548163ffffffff021916908363ffffffff1602179055508060096000600860049054906101000a900460ff1660ff1660ff16815260200190815260200160002060006101000a81548163ffffffff021916908363ffffffff1602179055508282600a91906114189291906122bd565b50505050565b3373ffffffffffffffffffffffffffffffffffffffff168273ffffffffffffffffffffffffffffffffffffffff161415151561145957600080fd5b80600360003373ffffffffffffffffffffffffffffffffffffffff1673ffffffffffffffffffffffffffffffffffffffff16815260200190815260200160002060008473ffffffffffffffffffffffffffffffffffffffff1673ffffffffffffffffffffffffffffffffffffffff16815260200190815260200160002060006101000a81548160ff0219169083151502179055508173ffffffffffffffffffffffffffffffffffffffff163373ffffffffffffffffffffffffffffffffffffffff167f17307eab39ab6107e8899845ad3d59bd9653f200f220920489ca2b5937696c3183604051808215151515815260200191505060405180910390a35050565b816115653382611c12565b151561157057600080fd5b61157b858585610eb8565b61158785858585612096565b151561159257600080fd5b5050505050565b60096020528060005260406000206000915054906101000a900463ffffffff1681565b62030d4081565b6000600360008473ffffffffffffffffffffffffffffffffffffffff1673ffffffffffffffffffffffffffffffffffffffff16815260200190815260200160002060008373ffffffffffffffffffffffffffffffffffffffff1673ffffffffffffffffffffffffffffffffffffffff16815260200190815260200160002060009054906101000a900460ff16905092915050565b600460009054906101000a900473ffffffffffffffffffffffffffffffffffffffff1673ffffffffffffffffffffffffffffffffffffffff163373ffffffffffffffffffffffffffffffffffffffff161415156116b357600080fd5b600073ffffffffffffffffffffffffffffffffffffffff168173ffffffffffffffffffffffffffffffffffffffff16141515156116ef57600080fd5b8073ffffffffffffffffffffffffffffffffffffffff16600460009054906101000a900473ffffffffffffffffffffffffffffffffffffffff1673ffffffffffffffffffffffffffffffffffffffff167f8be0079c531659141344cd1fd0a4f28419497f9722a3daafe3b4186f6b6457e060405160405180910390a380600460006101000a81548173ffffffffffffffffffffffffffffffffffffffff021916908373ffffffffffffffffffffffffffffffffffffffff16021790555050565b600a818154811015156117be57fe5b9060005260206000209060089182820401919006600402915054906101000a900463ffffffff1681565b6006818154811015156117f757fe5b9060005260206000209060020201600091509050806000018054600181600116156101000203166002900480601f0160208091040260200160405190810160405280929190818152602001828054600181600116156101000203166002900480156118a35780601f10611878576101008083540402835291602001916118a3565b820191906000526020600020905b81548152906001019060200180831161188657829003601f168201915b5050505050908060010160009054906101000a900460ff16905082565b60008060006001600a805490500391508184111515156118df57600080fd5b600a848154811015156118ee57fe5b90600052602060002090600891828204019190066004029054906101000a900463ffffffff169050600a8281548110151561192557fe5b90600052602060002090600891828204019190066004029054906101000a900463ffffffff16600a8581548110151561195a57fe5b90600052602060002090600891828204019190066004026101000a81548163ffffffff021916908363ffffffff160217905550600a8054809190600190036119a29190612373565b508092505050919050565b60006119b76123ad565b600060a0604051908101604052804267ffffffffffffffff1681526020018661ffff1681526020018960ff1681526020018860ff1681526020018760ff168152509150600160078054806001018281611a1091906123f4565b9160005260206000209001600085909190915060008201518160000160006101000a81548167ffffffffffffffff021916908367ffffffffffffffff16021790555060208201518160000160086101000a81548161ffff021916908361ffff160217905550604082015181600001600a6101000a81548160ff021916908360ff160217905550606082015181600001600b6101000a81548160ff021916908360ff160217905550608082015181600001600c6101000a81548160ff021916908360ff16021790555050500390507f220b53d3db6f7694ac363d118b95866fad85b0e6b18b77cbe36eb044996994a0816040518082815260200191505060405180910390a18360008083815260200190815260200160002060006101000a81548173ffffffffffffffffffffffffffffffffffffffff021916908373ffffffffffffffffffffffffffffffffffffffff160217905550600260008573ffffffffffffffffffffffffffffffffffffffff1673ffffffffffffffffffffffffffffffffffffffff168152602001908152602001600020600081548092919060010191905055508373ffffffffffffffffffffffffffffffffffffffff1660007fddf252ad1be2c89b69c2b068fc378daa952ba7f163c4a11628f55a4df523b3ef836040518082815260200191505060405180910390a3809250505095945050505050565b600080611c1e83611083565b90508073ffffffffffffffffffffffffffffffffffffffff168473ffffffffffffffffffffffffffffffffffffffff161480611c8d57508373ffffffffffffffffffffffffffffffffffffffff16611c7584610b93565b73ffffffffffffffffffffffffffffffffffffffff16145b80611c9e5750611c9d81856115c3565b5b91505092915050565b8173ffffffffffffffffffffffffffffffffffffffff16611cc782611083565b73ffffffffffffffffffffffffffffffffffffffff16141515611ce957600080fd5b600073ffffffffffffffffffffffffffffffffffffffff166001600083815260200190815260200160002060009054906101000a900473ffffffffffffffffffffffffffffffffffffffff1673ffffffffffffffffffffffffffffffffffffffff16141515611e0c5760006001600083815260200190815260200160002060006101000a81548173ffffffffffffffffffffffffffffffffffffffff021916908373ffffffffffffffffffffffffffffffffffffffff160217905550600073ffffffffffffffffffffffffffffffffffffffff168273ffffffffffffffffffffffffffffffffffffffff167f8c5be1e5ebec7d5bd14f71427d1e84f3dd0314c0f7b2291e5b200ac8c7c3b925836040518082815260200191505060405180910390a35b5050565b8173ffffffffffffffffffffffffffffffffffffffff16611e3082611083565b73ffffffffffffffffffffffffffffffffffffffff16141515611e5257600080fd5b611ea56001600260008573ffffffffffffffffffffffffffffffffffffffff1673ffffffffffffffffffffffffffffffffffffffff1681526020019081526020016000205461225f90919063ffffffff16565b600260008473ffffffffffffffffffffffffffffffffffffffff1673ffffffffffffffffffffffffffffffffffffffff16815260200190815260200160002081905550600080600083815260200190815260200160002060006101000a81548173ffffffffffffffffffffffffffffffffffffffff021916908373ffffffffffffffffffffffffffffffffffffffff1602179055505050565b600073ffffffffffffffffffffffffffffffffffffffff1660008083815260200190815260200160002060009054906101000a900473ffffffffffffffffffffffffffffffffffffffff1673ffffffffffffffffffffffffffffffffffffffff16141515611fab57600080fd5b8160008083815260200190815260200160002060006101000a81548173ffffffffffffffffffffffffffffffffffffffff021916908373ffffffffffffffffffffffffffffffffffffffff16021790555061204f6001600260008573ffffffffffffffffffffffffffffffffffffffff1673ffffffffffffffffffffffffffffffffffffffff1681526020019081526020016000205461227890919063ffffffff16565b600260008473ffffffffffffffffffffffffffffffffffffffff1673ffffffffffffffffffffffffffffffffffffffff168152602001908152602001600020819055505050565b6000806120b88573ffffffffffffffffffffffffffffffffffffffff16612296565b15156120c75760019150612256565b8473ffffffffffffffffffffffffffffffffffffffff1663f0b9e5ba8786866040518463ffffffff167c0100000000000000000000000000000000000000000000000000000000028152600401808473ffffffffffffffffffffffffffffffffffffffff1673ffffffffffffffffffffffffffffffffffffffff16815260200183815260200180602001828103825283818151815260200191508051906020019080838360005b8381101561218957808201518184015260208101905061216e565b50505050905090810190601f1680156121b65780820380516001836020036101000a031916815260200191505b50945050505050602060405180830381600087803b15156121d657600080fd5b5af115156121e357600080fd5b50505060405180519050905063f0b9e5ba7c0100000000000000000000000000000000000000000000000000000000027bffffffffffffffffffffffffffffffffffffffffffffffffffffffff1916817bffffffffffffffffffffffffffffffffffffffffffffffffffffffff19161491505b50949350505050565b600082821115151561226d57fe5b818303905092915050565b600080828401905083811015151561228c57fe5b8091505092915050565b600080823b905060008111915050919050565b602060405190810160405280600081525090565b828054828255906000526020600020906007016008900481019282156123625791602002820160005b8382111561233057833563ffffffff1683826101000a81548163ffffffff021916908363ffffffff16021790555092602001926004016020816003010492830192600103026122e6565b80156123605782816101000a81549063ffffffff0219169055600401602081600301049283019260010302612330565b505b50905061236f9190612420565b5090565b8154818355818115116123a85760070160089004816007016008900483600052602060002091820191016123a79190612453565b5b505050565b60a060405190810160405280600067ffffffffffffffff168152602001600061ffff168152602001600060ff168152602001600060ff168152602001600060ff1681525090565b81548183558181151161241b5781836000526020600020918201910161241a9190612478565b5b505050565b61245091905b8082111561244c57600081816101000a81549063ffffffff021916905550600101612426565b5090565b90565b61247591905b80821115612471576000816000905550600101612459565b5090565b90565b61250091905b808211156124fc57600080820160006101000a81549067ffffffffffffffff02191690556000820160086101000a81549061ffff021916905560008201600a6101000a81549060ff021916905560008201600b6101000a81549060ff021916905560008201600c6101000a81549060ff02191690555060010161247e565b5090565b905600a165627a7a72305820a163eec35884970b28ea2e0dc9c9493cce7a98be0ea744e82dd86909ad43dca70029",
  "source": "pragma solidity ^0.4.21;\n\nimport \"./StrikersPackFactory.sol\";\n\ncontract StrikersSale is StrikersPackFactory {\n  event PackBought(address indexed _buyer, uint256[] _pack);\n\n  // Can be adjusted as needed\n  uint public packPrice = 0.03 ether;\n\n  mapping (uint8 => uint32) packsSoldForRun;\n  mapping (uint8 => mapping (uint8 => uint16)) playerCardsSoldForRun;\n\n  function setPackPrice(uint _packPrice) public onlyOwner {\n    packPrice = _packPrice;\n  }\n\n  function() external payable {\n    buyPack();\n  }\n\n  function buyPack() public {\n    // TODO: require proper ether amount\n    // TODO: require shuffledPacks.length > 0\n    require(shuffledPacks.length > 0);\n    uint32 pack = _removePackAtIndex(0);\n    uint8 mask = 255;\n    uint256[] memory newCards = new uint256[](PACK_SIZE);\n    for (uint8 i = 1; i <= PACK_SIZE; i++) {\n      uint8 shift = 32 - (i * 8);\n      uint8 playerId = uint8((pack >> shift) & mask);\n      uint256 cardId = _mintCard(playerId, 1, currentRunNumber, 0, msg.sender);\n      newCards[i-1] = cardId;\n    }\n    emit PackBought(msg.sender, newCards);\n  }\n\n  function _removePackAtIndex(uint256 _index) internal returns (uint32) {\n    uint256 lastIndex = shuffledPacks.length - 1;\n    require(_index <= lastIndex);\n    uint32 pack = shuffledPacks[_index];\n    shuffledPacks[_index] = shuffledPacks[lastIndex];\n    shuffledPacks.length--;\n    return pack;\n  }\n}\n",
  "sourcePath": "/Users/GiaSet/Desktop/Projects/cryptostrikers/contracts/StrikersSale.sol",
  "compiler": {
    "name": "solc",
    "version": "0.4.21+commit.dfe3193c.Emscripten.clang"
  },
  "schemaVersion": "2.0.0",
  "updatedAt": "2018-04-03T21:29:07.269Z"
}