{
  "contractName": "StrikersMinting",
  "abi": [
    {
      "constant": true,
      "inputs": [],
      "name": "name",
      "outputs": [
        {
          "name": "",
          "type": "string"
        }
      ],
      "payable": false,
      "stateMutability": "view",
      "type": "function"
    },
    {
      "constant": true,
      "inputs": [
        {
          "name": "_tokenId",
          "type": "uint256"
        }
      ],
      "name": "getApproved",
      "outputs": [
        {
          "name": "",
          "type": "address"
        }
      ],
      "payable": false,
      "stateMutability": "view",
      "type": "function"
    },
    {
      "constant": false,
      "inputs": [
        {
          "name": "_to",
          "type": "address"
        },
        {
          "name": "_tokenId",
          "type": "uint256"
        }
      ],
      "name": "approve",
      "outputs": [],
      "payable": false,
      "stateMutability": "nonpayable",
      "type": "function"
    },
    {
      "constant": true,
      "inputs": [],
      "name": "totalSupply",
      "outputs": [
        {
          "name": "",
          "type": "uint256"
        }
      ],
      "payable": false,
      "stateMutability": "view",
      "type": "function"
    },
    {
      "constant": false,
      "inputs": [
        {
          "name": "_from",
          "type": "address"
        },
        {
          "name": "_to",
          "type": "address"
        },
        {
          "name": "_tokenId",
          "type": "uint256"
        }
      ],
      "name": "transferFrom",
      "outputs": [],
      "payable": false,
      "stateMutability": "nonpayable",
      "type": "function"
    },
    {
      "constant": true,
      "inputs": [
        {
          "name": "_owner",
          "type": "address"
        },
        {
          "name": "_index",
          "type": "uint256"
        }
      ],
      "name": "tokenOfOwnerByIndex",
      "outputs": [
        {
          "name": "",
          "type": "uint256"
        }
      ],
      "payable": false,
      "stateMutability": "view",
      "type": "function"
    },
    {
      "constant": false,
      "inputs": [
        {
          "name": "_from",
          "type": "address"
        },
        {
          "name": "_to",
          "type": "address"
        },
        {
          "name": "_tokenId",
          "type": "uint256"
        }
      ],
      "name": "safeTransferFrom",
      "outputs": [],
      "payable": false,
      "stateMutability": "nonpayable",
      "type": "function"
    },
    {
      "constant": true,
      "inputs": [
        {
          "name": "_tokenId",
          "type": "uint256"
        }
      ],
      "name": "exists",
      "outputs": [
        {
          "name": "",
          "type": "bool"
        }
      ],
      "payable": false,
      "stateMutability": "view",
      "type": "function"
    },
    {
      "constant": true,
      "inputs": [
        {
          "name": "_index",
          "type": "uint256"
        }
      ],
      "name": "tokenByIndex",
      "outputs": [
        {
          "name": "",
          "type": "uint256"
        }
      ],
      "payable": false,
      "stateMutability": "view",
      "type": "function"
    },
    {
      "constant": true,
      "inputs": [
        {
          "name": "_tokenId",
          "type": "uint256"
        }
      ],
      "name": "ownerOf",
      "outputs": [
        {
          "name": "",
          "type": "address"
        }
      ],
      "payable": false,
      "stateMutability": "view",
      "type": "function"
    },
    {
      "constant": true,
      "inputs": [],
      "name": "packSaleContract",
      "outputs": [
        {
          "name": "",
          "type": "address"
        }
      ],
      "payable": false,
      "stateMutability": "view",
      "type": "function"
    },
    {
      "constant": true,
      "inputs": [
        {
          "name": "_owner",
          "type": "address"
        }
      ],
      "name": "balanceOf",
      "outputs": [
        {
          "name": "",
          "type": "uint256"
        }
      ],
      "payable": false,
      "stateMutability": "view",
      "type": "function"
    },
    {
      "constant": true,
      "inputs": [
        {
          "name": "_owner",
          "type": "address"
        }
      ],
      "name": "cardIdsForOwner",
      "outputs": [
        {
          "name": "",
          "type": "uint256[]"
        }
      ],
      "payable": false,
      "stateMutability": "view",
      "type": "function"
    },
    {
      "constant": true,
      "inputs": [],
      "name": "owner",
      "outputs": [
        {
          "name": "",
          "type": "address"
        }
      ],
      "payable": false,
      "stateMutability": "view",
      "type": "function"
    },
    {
      "constant": true,
      "inputs": [
        {
          "name": "",
          "type": "uint256"
        }
      ],
      "name": "cards",
      "outputs": [
        {
          "name": "mintTime",
          "type": "uint64"
        },
        {
          "name": "playerId",
          "type": "uint8"
        },
        {
          "name": "saleId",
          "type": "uint8"
        },
        {
          "name": "serialNumber",
          "type": "uint16"
        },
        {
          "name": "setId",
          "type": "uint8"
        }
      ],
      "payable": false,
      "stateMutability": "view",
      "type": "function"
    },
    {
      "constant": true,
      "inputs": [],
      "name": "symbol",
      "outputs": [
        {
          "name": "",
          "type": "string"
        }
      ],
      "payable": false,
      "stateMutability": "view",
      "type": "function"
    },
    {
      "constant": false,
      "inputs": [
        {
          "name": "_to",
          "type": "address"
        },
        {
          "name": "_approved",
          "type": "bool"
        }
      ],
      "name": "setApprovalForAll",
      "outputs": [],
      "payable": false,
      "stateMutability": "nonpayable",
      "type": "function"
    },
    {
      "constant": false,
      "inputs": [
        {
          "name": "_from",
          "type": "address"
        },
        {
          "name": "_to",
          "type": "address"
        },
        {
          "name": "_tokenId",
          "type": "uint256"
        },
        {
          "name": "_data",
          "type": "bytes"
        }
      ],
      "name": "safeTransferFrom",
      "outputs": [],
      "payable": false,
      "stateMutability": "nonpayable",
      "type": "function"
    },
    {
      "constant": true,
      "inputs": [
        {
          "name": "_tokenId",
          "type": "uint256"
        }
      ],
      "name": "tokenURI",
      "outputs": [
        {
          "name": "",
          "type": "string"
        }
      ],
      "payable": false,
      "stateMutability": "view",
      "type": "function"
    },
    {
      "constant": true,
      "inputs": [
        {
          "name": "_owner",
          "type": "address"
        },
        {
          "name": "_operator",
          "type": "address"
        }
      ],
      "name": "isApprovedForAll",
      "outputs": [
        {
          "name": "",
          "type": "bool"
        }
      ],
      "payable": false,
      "stateMutability": "view",
      "type": "function"
    },
    {
      "constant": false,
      "inputs": [
        {
          "name": "newOwner",
          "type": "address"
        }
      ],
      "name": "transferOwnership",
      "outputs": [],
      "payable": false,
      "stateMutability": "nonpayable",
      "type": "function"
    },
    {
      "anonymous": false,
      "inputs": [
        {
          "indexed": false,
          "name": "cardId",
          "type": "uint256"
        }
      ],
      "name": "CardMinted",
      "type": "event"
    },
    {
      "anonymous": false,
      "inputs": [
        {
          "indexed": true,
          "name": "previousOwner",
          "type": "address"
        },
        {
          "indexed": true,
          "name": "newOwner",
          "type": "address"
        }
      ],
      "name": "OwnershipTransferred",
      "type": "event"
    },
    {
      "anonymous": false,
      "inputs": [
        {
          "indexed": true,
          "name": "_from",
          "type": "address"
        },
        {
          "indexed": true,
          "name": "_to",
          "type": "address"
        },
        {
          "indexed": false,
          "name": "_tokenId",
          "type": "uint256"
        }
      ],
      "name": "Transfer",
      "type": "event"
    },
    {
      "anonymous": false,
      "inputs": [
        {
          "indexed": true,
          "name": "_owner",
          "type": "address"
        },
        {
          "indexed": true,
          "name": "_approved",
          "type": "address"
        },
        {
          "indexed": false,
          "name": "_tokenId",
          "type": "uint256"
        }
      ],
      "name": "Approval",
      "type": "event"
    },
    {
      "anonymous": false,
      "inputs": [
        {
          "indexed": true,
          "name": "_owner",
          "type": "address"
        },
        {
          "indexed": true,
          "name": "_operator",
          "type": "address"
        },
        {
          "indexed": false,
          "name": "_approved",
          "type": "bool"
        }
      ],
      "name": "ApprovalForAll",
      "type": "event"
    },
    {
      "constant": false,
      "inputs": [
        {
          "name": "_address",
          "type": "address"
        }
      ],
      "name": "setPackSaleAddress",
      "outputs": [],
      "payable": false,
      "stateMutability": "nonpayable",
      "type": "function"
    },
    {
      "constant": false,
      "inputs": [
        {
          "name": "_playerId",
          "type": "uint8"
        },
        {
          "name": "_saleId",
          "type": "uint8"
        },
        {
          "name": "_owner",
          "type": "address"
        }
      ],
      "name": "mintBaseCard",
      "outputs": [
        {
          "name": "",
          "type": "uint256"
        }
      ],
      "payable": false,
      "stateMutability": "nonpayable",
      "type": "function"
    }
  ],
  "bytecode": "0x60606040526040805190810160405280600e81526020017f43727970746f537472696b6572730000000000000000000000000000000000008152506040805190810160405280600481526020017f5354524b00000000000000000000000000000000000000000000000000000000815250816004908051906020019062000088929190620000eb565b508060059080519060200190620000a1929190620000eb565b50505033600b60006101000a81548173ffffffffffffffffffffffffffffffffffffffff021916908373ffffffffffffffffffffffffffffffffffffffff1602179055506200019a565b828054600181600116156101000203166002900490600052602060002090601f016020900481019282601f106200012e57805160ff19168380011785556200015f565b828001600101855582156200015f579182015b828111156200015e57825182559160200191906001019062000141565b5b5090506200016e919062000172565b5090565b6200019791905b808211156200019357600081600090555060010162000179565b5090565b90565b61294c80620001aa6000396000f300606060405260043610610133576000357c0100000000000000000000000000000000000000000000000000000000900463ffffffff16806306fdde0314610138578063081812fc146101c6578063095ea7b31461022957806318160ddd1461026b57806323b872dd146102945780632f745c59146102f557806342842e0e1461034b5780634f558e79146103ac5780634f6ccce7146103e75780636352211e1461041e5780636a66dbdf1461048157806370a08231146104d657806388e12465146105235780638da5cb5b146105b15780638dc1076814610606578063914e45d01461068757806395d89b41146106c0578063a22cb4651461074e578063b88d4fde14610792578063c87b56dd14610836578063d53f9ea8146108d2578063e985e9c514610937578063f2fde38b146109a7575b600080fd5b341561014357600080fd5b61014b6109e0565b6040518080602001828103825283818151815260200191508051906020019080838360005b8381101561018b578082015181840152602081019050610170565b50505050905090810190601f1680156101b85780820380516001836020036101000a031916815260200191505b509250505060405180910390f35b34156101d157600080fd5b6101e76004808035906020019091905050610a88565b604051808273ffffffffffffffffffffffffffffffffffffffff1673ffffffffffffffffffffffffffffffffffffffff16815260200191505060405180910390f35b341561023457600080fd5b610269600480803573ffffffffffffffffffffffffffffffffffffffff16906020019091908035906020019091905050610ac5565b005b341561027657600080fd5b61027e610c8b565b6040518082815260200191505060405180910390f35b341561029f57600080fd5b6102f3600480803573ffffffffffffffffffffffffffffffffffffffff1690602001909190803573ffffffffffffffffffffffffffffffffffffffff16906020019091908035906020019091905050610c98565b005b341561030057600080fd5b610335600480803573ffffffffffffffffffffffffffffffffffffffff16906020019091908035906020019091905050610daf565b6040518082815260200191505060405180910390f35b341561035657600080fd5b6103aa600480803573ffffffffffffffffffffffffffffffffffffffff1690602001909190803573ffffffffffffffffffffffffffffffffffffffff16906020019091908035906020019091905050610e27565b005b34156103b757600080fd5b6103cd6004808035906020019091905050610e5f565b604051808215151515815260200191505060405180910390f35b34156103f257600080fd5b6104086004808035906020019091905050610ed0565b6040518082815260200191505060405180910390f35b341561042957600080fd5b61043f6004808035906020019091905050610f09565b604051808273ffffffffffffffffffffffffffffffffffffffff1673ffffffffffffffffffffffffffffffffffffffff16815260200191505060405180910390f35b341561048c57600080fd5b610494610f86565b604051808273ffffffffffffffffffffffffffffffffffffffff1673ffffffffffffffffffffffffffffffffffffffff16815260200191505060405180910390f35b34156104e157600080fd5b61050d600480803573ffffffffffffffffffffffffffffffffffffffff16906020019091905050610fac565b6040518082815260200191505060405180910390f35b341561052e57600080fd5b61055a600480803573ffffffffffffffffffffffffffffffffffffffff16906020019091905050611030565b6040518080602001828103825283818151815260200191508051906020019060200280838360005b8381101561059d578082015181840152602081019050610582565b505050509050019250505060405180910390f35b34156105bc57600080fd5b6105c46110cd565b604051808273ffffffffffffffffffffffffffffffffffffffff1673ffffffffffffffffffffffffffffffffffffffff16815260200191505060405180910390f35b341561061157600080fd5b61062760048080359060200190919050506110f3565b604051808667ffffffffffffffff1667ffffffffffffffff1681526020018560ff1660ff1681526020018460ff1660ff1681526020018361ffff1661ffff1681526020018260ff1660ff1681526020019550505050505060405180910390f35b341561069257600080fd5b6106be600480803573ffffffffffffffffffffffffffffffffffffffff1690602001909190505061117e565b005b34156106cb57600080fd5b6106d36112a9565b6040518080602001828103825283818151815260200191508051906020019080838360005b838110156107135780820151818401526020810190506106f8565b50505050905090810190601f1680156107405780820380516001836020036101000a031916815260200191505b509250505060405180910390f35b341561075957600080fd5b610790600480803573ffffffffffffffffffffffffffffffffffffffff169060200190919080351515906020019091905050611351565b005b341561079d57600080fd5b610834600480803573ffffffffffffffffffffffffffffffffffffffff1690602001909190803573ffffffffffffffffffffffffffffffffffffffff1690602001909190803590602001909190803590602001908201803590602001908080601f0160208091040260200160405190810160405280939291908181526020018383808284378201915050505050509190505061148d565b005b341561084157600080fd5b61085760048080359060200190919050506114cc565b6040518080602001828103825283818151815260200191508051906020019080838360005b8381101561089757808201518184015260208101905061087c565b50505050905090810190601f1680156108c45780820380516001836020036101000a031916815260200191505b509250505060405180910390f35b34156108dd57600080fd5b610921600480803560ff1690602001909190803560ff1690602001909190803573ffffffffffffffffffffffffffffffffffffffff16906020019091905050611569565b6040518082815260200191505060405180910390f35b341561094257600080fd5b61098d600480803573ffffffffffffffffffffffffffffffffffffffff1690602001909190803573ffffffffffffffffffffffffffffffffffffffff169060200190919050506115dd565b604051808215151515815260200191505060405180910390f35b34156109b257600080fd5b6109de600480803573ffffffffffffffffffffffffffffffffffffffff16906020019091905050611671565b005b6109e8612769565b60048054600181600116156101000203166002900480601f016020809104026020016040519081016040528092919081815260200182805460018160011615610100020316600290048015610a7e5780601f10610a5357610100808354040283529160200191610a7e565b820191906000526020600020905b815481529060010190602001808311610a6157829003601f168201915b5050505050905090565b60006001600083815260200190815260200160002060009054906101000a900473ffffffffffffffffffffffffffffffffffffffff169050919050565b6000610ad082610f09565b90508073ffffffffffffffffffffffffffffffffffffffff168373ffffffffffffffffffffffffffffffffffffffff1614151515610b0d57600080fd5b8073ffffffffffffffffffffffffffffffffffffffff163373ffffffffffffffffffffffffffffffffffffffff161480610b4d5750610b4c81336115dd565b5b1515610b5857600080fd5b600073ffffffffffffffffffffffffffffffffffffffff16610b7983610a88565b73ffffffffffffffffffffffffffffffffffffffff16141580610bc95750600073ffffffffffffffffffffffffffffffffffffffff168373ffffffffffffffffffffffffffffffffffffffff1614155b15610c8657826001600084815260200190815260200160002060006101000a81548173ffffffffffffffffffffffffffffffffffffffff021916908373ffffffffffffffffffffffffffffffffffffffff1602179055508273ffffffffffffffffffffffffffffffffffffffff168173ffffffffffffffffffffffffffffffffffffffff167f8c5be1e5ebec7d5bd14f71427d1e84f3dd0314c0f7b2291e5b200ac8c7c3b925846040518082815260200191505060405180910390a35b505050565b6000600880549050905090565b80610ca333826117c9565b1515610cae57600080fd5b600073ffffffffffffffffffffffffffffffffffffffff168473ffffffffffffffffffffffffffffffffffffffff1614151515610cea57600080fd5b600073ffffffffffffffffffffffffffffffffffffffff168373ffffffffffffffffffffffffffffffffffffffff1614151515610d2657600080fd5b610d30848361185e565b610d3a84836119c7565b610d448383611be2565b8273ffffffffffffffffffffffffffffffffffffffff168473ffffffffffffffffffffffffffffffffffffffff167fddf252ad1be2c89b69c2b068fc378daa952ba7f163c4a11628f55a4df523b3ef846040518082815260200191505060405180910390a350505050565b6000610dba83610fac565b82101515610dc757600080fd5b600660008473ffffffffffffffffffffffffffffffffffffffff1673ffffffffffffffffffffffffffffffffffffffff16815260200190815260200160002082815481101515610e1357fe5b906000526020600020900154905092915050565b80610e3233826117c9565b1515610e3d57600080fd5b610e59848484602060405190810160405280600081525061148d565b50505050565b60008060008084815260200190815260200160002060009054906101000a900473ffffffffffffffffffffffffffffffffffffffff169050600073ffffffffffffffffffffffffffffffffffffffff168173ffffffffffffffffffffffffffffffffffffffff161415915050919050565b6000610eda610c8b565b82101515610ee757600080fd5b600882815481101515610ef657fe5b9060005260206000209001549050919050565b60008060008084815260200190815260200160002060009054906101000a900473ffffffffffffffffffffffffffffffffffffffff169050600073ffffffffffffffffffffffffffffffffffffffff168173ffffffffffffffffffffffffffffffffffffffff1614151515610f7d57600080fd5b80915050919050565b600e60009054906101000a900473ffffffffffffffffffffffffffffffffffffffff1681565b60008073ffffffffffffffffffffffffffffffffffffffff168273ffffffffffffffffffffffffffffffffffffffff1614151515610fe957600080fd5b600260008373ffffffffffffffffffffffffffffffffffffffff1673ffffffffffffffffffffffffffffffffffffffff168152602001908152602001600020549050919050565b61103861277d565b600660008373ffffffffffffffffffffffffffffffffffffffff1673ffffffffffffffffffffffffffffffffffffffff1681526020019081526020016000208054806020026020016040519081016040528092919081815260200182805480156110c157602002820191906000526020600020905b8154815260200190600101908083116110ad575b50505050509050919050565b600b60009054906101000a900473ffffffffffffffffffffffffffffffffffffffff1681565b600c8181548110151561110257fe5b90600052602060002090016000915090508060000160009054906101000a900467ffffffffffffffff16908060000160089054906101000a900460ff16908060000160099054906101000a900460ff169080600001600a9054906101000a900461ffff169080600001600c9054906101000a900460ff16905085565b6000600b60009054906101000a900473ffffffffffffffffffffffffffffffffffffffff1673ffffffffffffffffffffffffffffffffffffffff163373ffffffffffffffffffffffffffffffffffffffff161415156111dc57600080fd5b8190508073ffffffffffffffffffffffffffffffffffffffff1663b303df376040518163ffffffff167c0100000000000000000000000000000000000000000000000000000000028152600401602060405180830381600087803b151561124257600080fd5b5af1151561124f57600080fd5b50505060405180519050151561126457600080fd5b80600e60006101000a81548173ffffffffffffffffffffffffffffffffffffffff021916908373ffffffffffffffffffffffffffffffffffffffff1602179055505050565b6112b1612769565b60058054600181600116156101000203166002900480601f0160208091040260200160405190810160405280929190818152602001828054600181600116156101000203166002900480156113475780601f1061131c57610100808354040283529160200191611347565b820191906000526020600020905b81548152906001019060200180831161132a57829003601f168201915b5050505050905090565b3373ffffffffffffffffffffffffffffffffffffffff168273ffffffffffffffffffffffffffffffffffffffff161415151561138c57600080fd5b80600360003373ffffffffffffffffffffffffffffffffffffffff1673ffffffffffffffffffffffffffffffffffffffff16815260200190815260200160002060008473ffffffffffffffffffffffffffffffffffffffff1673ffffffffffffffffffffffffffffffffffffffff16815260200190815260200160002060006101000a81548160ff0219169083151502179055508173ffffffffffffffffffffffffffffffffffffffff163373ffffffffffffffffffffffffffffffffffffffff167f17307eab39ab6107e8899845ad3d59bd9653f200f220920489ca2b5937696c3183604051808215151515815260200191505060405180910390a35050565b8161149833826117c9565b15156114a357600080fd5b6114ae858585610c98565b6114ba85858585611cb6565b15156114c557600080fd5b5050505050565b6114d4612769565b6114dc612769565b6114e583610e5f565b15156114f057600080fd5b6114f983611e7f565b9050611561606060405190810160405280604081526020017f68747470733a2f2f75732d63656e7472616c312d63727970746f737472696b6581526020017f72732d6170692e636c6f756466756e6374696f6e732e6e65742f63617264732f81525082611fd1565b915050919050565b6000600e60009054906101000a900473ffffffffffffffffffffffffffffffffffffffff1673ffffffffffffffffffffffffffffffffffffffff163373ffffffffffffffffffffffffffffffffffffffff161415156115c757600080fd5b6115d484846001856121b1565b90509392505050565b6000600360008473ffffffffffffffffffffffffffffffffffffffff1673ffffffffffffffffffffffffffffffffffffffff16815260200190815260200160002060008373ffffffffffffffffffffffffffffffffffffffff1673ffffffffffffffffffffffffffffffffffffffff16815260200190815260200160002060009054906101000a900460ff16905092915050565b600b60009054906101000a900473ffffffffffffffffffffffffffffffffffffffff1673ffffffffffffffffffffffffffffffffffffffff163373ffffffffffffffffffffffffffffffffffffffff161415156116cd57600080fd5b600073ffffffffffffffffffffffffffffffffffffffff168173ffffffffffffffffffffffffffffffffffffffff161415151561170957600080fd5b8073ffffffffffffffffffffffffffffffffffffffff16600b60009054906101000a900473ffffffffffffffffffffffffffffffffffffffff1673ffffffffffffffffffffffffffffffffffffffff167f8be0079c531659141344cd1fd0a4f28419497f9722a3daafe3b4186f6b6457e060405160405180910390a380600b60006101000a81548173ffffffffffffffffffffffffffffffffffffffff021916908373ffffffffffffffffffffffffffffffffffffffff16021790555050565b6000806117d583610f09565b90508073ffffffffffffffffffffffffffffffffffffffff168473ffffffffffffffffffffffffffffffffffffffff16148061184457508373ffffffffffffffffffffffffffffffffffffffff1661182c84610a88565b73ffffffffffffffffffffffffffffffffffffffff16145b80611855575061185481856115dd565b5b91505092915050565b8173ffffffffffffffffffffffffffffffffffffffff1661187e82610f09565b73ffffffffffffffffffffffffffffffffffffffff161415156118a057600080fd5b600073ffffffffffffffffffffffffffffffffffffffff166001600083815260200190815260200160002060009054906101000a900473ffffffffffffffffffffffffffffffffffffffff1673ffffffffffffffffffffffffffffffffffffffff161415156119c35760006001600083815260200190815260200160002060006101000a81548173ffffffffffffffffffffffffffffffffffffffff021916908373ffffffffffffffffffffffffffffffffffffffff160217905550600073ffffffffffffffffffffffffffffffffffffffff168273ffffffffffffffffffffffffffffffffffffffff167f8c5be1e5ebec7d5bd14f71427d1e84f3dd0314c0f7b2291e5b200ac8c7c3b925836040518082815260200191505060405180910390a35b5050565b60008060006119d68585612395565b60076000858152602001908152602001600020549250611a426001600660008873ffffffffffffffffffffffffffffffffffffffff1673ffffffffffffffffffffffffffffffffffffffff168152602001908152602001600020805490506124c390919063ffffffff16565b9150600660008673ffffffffffffffffffffffffffffffffffffffff1673ffffffffffffffffffffffffffffffffffffffff16815260200190815260200160002082815481101515611a9057fe5b906000526020600020900154905080600660008773ffffffffffffffffffffffffffffffffffffffff1673ffffffffffffffffffffffffffffffffffffffff16815260200190815260200160002084815481101515611aeb57fe5b9060005260206000209001819055506000600660008773ffffffffffffffffffffffffffffffffffffffff1673ffffffffffffffffffffffffffffffffffffffff16815260200190815260200160002083815481101515611b4857fe5b906000526020600020900181905550600660008673ffffffffffffffffffffffffffffffffffffffff1673ffffffffffffffffffffffffffffffffffffffff168152602001908152602001600020805480919060019003611ba99190612791565b50600060076000868152602001908152602001600020819055508260076000838152602001908152602001600020819055505050505050565b6000611bee83836124dc565b600660008473ffffffffffffffffffffffffffffffffffffffff1673ffffffffffffffffffffffffffffffffffffffff168152602001908152602001600020805490509050600660008473ffffffffffffffffffffffffffffffffffffffff1673ffffffffffffffffffffffffffffffffffffffff1681526020019081526020016000208054806001018281611c8491906127bd565b916000526020600020900160008490919091505550806007600084815260200190815260200160002081905550505050565b600080611cd88573ffffffffffffffffffffffffffffffffffffffff16612634565b1515611ce75760019150611e76565b8473ffffffffffffffffffffffffffffffffffffffff1663f0b9e5ba8786866040518463ffffffff167c0100000000000000000000000000000000000000000000000000000000028152600401808473ffffffffffffffffffffffffffffffffffffffff1673ffffffffffffffffffffffffffffffffffffffff16815260200183815260200180602001828103825283818151815260200191508051906020019080838360005b83811015611da9578082015181840152602081019050611d8e565b50505050905090810190601f168015611dd65780820380516001836020036101000a031916815260200191505b50945050505050602060405180830381600087803b1515611df657600080fd5b5af11515611e0357600080fd5b50505060405180519050905063f0b9e5ba7c0100000000000000000000000000000000000000000000000000000000027bffffffffffffffffffffffffffffffffffffffffffffffffffffffff1916817bffffffffffffffffffffffffffffffffffffffffffffffffffffffff19161491505b50949350505050565b611e87612769565b600080611e926127e9565b600080861415611ed9576040805190810160405280600181526020017f30000000000000000000000000000000000000000000000000000000000000008152509450611fc8565b8593505b600084141515611f03578280600101935050600a84811515611efb57fe5b049350611edd565b82604051805910611f115750595b9080825280601f01601f191660200182016040525091506001830390505b600086141515611fc457600a86811515611f4557fe5b066030017f010000000000000000000000000000000000000000000000000000000000000002828280600190039350815181101515611f8057fe5b9060200101907effffffffffffffffffffffffffffffffffffffffffffffffffffffffffffff1916908160001a905350600a86811515611fbc57fe5b049550611f2f565b8194505b50505050919050565b611fd9612769565b611fe16127e9565b611fe96127e9565b611ff1612769565b611ff96127e9565b60008088955087945084518651016040518059106120145750595b9080825280601f01601f1916602001820160405250935083925060009150600090505b85518110156120ea57858181518110151561204e57fe5b9060200101517f010000000000000000000000000000000000000000000000000000000000000090047f01000000000000000000000000000000000000000000000000000000000000000283838060010194508151811015156120ad57fe5b9060200101907effffffffffffffffffffffffffffffffffffffffffffffffffffffffffffff1916908160001a9053508080600101915050612037565b600090505b84518110156121a257848181518110151561210657fe5b9060200101517f010000000000000000000000000000000000000000000000000000000000000090047f010000000000000000000000000000000000000000000000000000000000000002838380600101945081518110151561216557fe5b9060200101907effffffffffffffffffffffffffffffffffffffffffffffffffffffffffffff1916908160001a90535080806001019150506120ef565b82965050505050505092915050565b6000806121bc6127fd565b6000600d60008760ff1660ff16815260200190815260200160002060008960ff1660ff168152602001908152602001600020600081819054906101000a900461ffff168092919060010191906101000a81548161ffff021916908361ffff160217905550925060a0604051908101604052804267ffffffffffffffff1681526020018960ff1681526020018860ff1681526020018461ffff1681526020018760ff1681525091506001600c80548060010182816122799190612844565b9160005260206000209001600085909190915060008201518160000160006101000a81548167ffffffffffffffff021916908367ffffffffffffffff16021790555060208201518160000160086101000a81548160ff021916908360ff16021790555060408201518160000160096101000a81548160ff021916908360ff160217905550606082015181600001600a6101000a81548161ffff021916908361ffff160217905550608082015181600001600c6101000a81548160ff021916908360ff16021790555050500390507f220b53d3db6f7694ac363d118b95866fad85b0e6b18b77cbe36eb044996994a0816040518082815260200191505060405180910390a16123878582612647565b809350505050949350505050565b8173ffffffffffffffffffffffffffffffffffffffff166123b582610f09565b73ffffffffffffffffffffffffffffffffffffffff161415156123d757600080fd5b61242a6001600260008573ffffffffffffffffffffffffffffffffffffffff1673ffffffffffffffffffffffffffffffffffffffff168152602001908152602001600020546124c390919063ffffffff16565b600260008473ffffffffffffffffffffffffffffffffffffffff1673ffffffffffffffffffffffffffffffffffffffff16815260200190815260200160002081905550600080600083815260200190815260200160002060006101000a81548173ffffffffffffffffffffffffffffffffffffffff021916908373ffffffffffffffffffffffffffffffffffffffff1602179055505050565b60008282111515156124d157fe5b818303905092915050565b600073ffffffffffffffffffffffffffffffffffffffff1660008083815260200190815260200160002060009054906101000a900473ffffffffffffffffffffffffffffffffffffffff1673ffffffffffffffffffffffffffffffffffffffff1614151561254957600080fd5b8160008083815260200190815260200160002060006101000a81548173ffffffffffffffffffffffffffffffffffffffff021916908373ffffffffffffffffffffffffffffffffffffffff1602179055506125ed6001600260008573ffffffffffffffffffffffffffffffffffffffff1673ffffffffffffffffffffffffffffffffffffffff1681526020019081526020016000205461269b90919063ffffffff16565b600260008473ffffffffffffffffffffffffffffffffffffffff1673ffffffffffffffffffffffffffffffffffffffff168152602001908152602001600020819055505050565b600080823b905060008111915050919050565b61265182826126b9565b60088054905060096000838152602001908152602001600020819055506008805480600101828161268291906127bd565b9160005260206000209001600083909190915055505050565b60008082840190508381101515156126af57fe5b8091505092915050565b600073ffffffffffffffffffffffffffffffffffffffff168273ffffffffffffffffffffffffffffffffffffffff16141515156126f557600080fd5b6126ff8282611be2565b8173ffffffffffffffffffffffffffffffffffffffff16600073ffffffffffffffffffffffffffffffffffffffff167fddf252ad1be2c89b69c2b068fc378daa952ba7f163c4a11628f55a4df523b3ef836040518082815260200191505060405180910390a35050565b602060405190810160405280600081525090565b602060405190810160405280600081525090565b8154818355818115116127b8578183600052602060002091820191016127b79190612870565b5b505050565b8154818355818115116127e4578183600052602060002091820191016127e39190612870565b5b505050565b602060405190810160405280600081525090565b60a060405190810160405280600067ffffffffffffffff168152602001600060ff168152602001600060ff168152602001600061ffff168152602001600060ff1681525090565b81548183558181151161286b5781836000526020600020918201910161286a9190612895565b5b505050565b61289291905b8082111561288e576000816000905550600101612876565b5090565b90565b61291d91905b8082111561291957600080820160006101000a81549067ffffffffffffffff02191690556000820160086101000a81549060ff02191690556000820160096101000a81549060ff021916905560008201600a6101000a81549061ffff021916905560008201600c6101000a81549060ff02191690555060010161289b565b5090565b905600a165627a7a72305820525fcf5ed3cfa5418f8e107fe5d2577e76e8b2b2738611b3cda603c7f51e15b40029",
  "source": "pragma solidity ^0.4.21;\n\nimport \"./StrikersBase.sol\";\nimport \"./StrikersPackSale.sol\";\n\ncontract StrikersMinting is StrikersBase {\n  /// @dev The address of the contract that manages the pack sale.\n  StrikersPackSale public packSaleContract;\n\n  /// @dev Only the owner can update the address of the pack sale contract.\n  /// @param _address The address of the new StrikersPackSale contract.\n  function setPackSaleAddress(address _address) external onlyOwner {\n    StrikersPackSale candidateContract = StrikersPackSale(_address);\n    // Sanity check to make sure we're actually setting the right contract...\n    require(candidateContract.isPackSaleContract());\n    packSaleContract = candidateContract;\n  }\n\n  function mintBaseCard(\n    uint8 _playerId,\n    uint8 _saleId,\n    address _owner\n  )\n    external\n    returns (uint256)\n  {\n    // Only the pack sale contract can mint Base Set cards!!!\n    require(msg.sender == address(packSaleContract));\n    return _mintCard(_playerId, _saleId, 1, _owner);\n  }\n}\n",
  "sourcePath": "/Users/GiaSet/Desktop/Projects/cryptostrikers/contracts/StrikersMinting.sol",
  "compiler": {
    "name": "solc",
    "version": "0.4.21+commit.dfe3193c.Emscripten.clang"
  },
  "schemaVersion": "2.0.0",
  "updatedAt": "2018-04-22T09:14:53.351Z"
}