{
  "contractName": "StrikersMinting",
  "abi": [
    {
      "constant": true,
      "inputs": [],
      "name": "name",
      "outputs": [
        {
          "name": "",
          "type": "string"
        }
      ],
      "payable": false,
      "stateMutability": "view",
      "type": "function"
    },
    {
      "constant": true,
      "inputs": [
        {
          "name": "_tokenId",
          "type": "uint256"
        }
      ],
      "name": "getApproved",
      "outputs": [
        {
          "name": "",
          "type": "address"
        }
      ],
      "payable": false,
      "stateMutability": "view",
      "type": "function"
    },
    {
      "constant": false,
      "inputs": [
        {
          "name": "_to",
          "type": "address"
        },
        {
          "name": "_tokenId",
          "type": "uint256"
        }
      ],
      "name": "approve",
      "outputs": [],
      "payable": false,
      "stateMutability": "nonpayable",
      "type": "function"
    },
    {
      "constant": true,
      "inputs": [],
      "name": "totalSupply",
      "outputs": [
        {
          "name": "",
          "type": "uint256"
        }
      ],
      "payable": false,
      "stateMutability": "view",
      "type": "function"
    },
    {
      "constant": false,
      "inputs": [
        {
          "name": "_from",
          "type": "address"
        },
        {
          "name": "_to",
          "type": "address"
        },
        {
          "name": "_tokenId",
          "type": "uint256"
        }
      ],
      "name": "transferFrom",
      "outputs": [],
      "payable": false,
      "stateMutability": "nonpayable",
      "type": "function"
    },
    {
      "constant": true,
      "inputs": [
        {
          "name": "_owner",
          "type": "address"
        },
        {
          "name": "_index",
          "type": "uint256"
        }
      ],
      "name": "tokenOfOwnerByIndex",
      "outputs": [
        {
          "name": "",
          "type": "uint256"
        }
      ],
      "payable": false,
      "stateMutability": "view",
      "type": "function"
    },
    {
      "constant": false,
      "inputs": [
        {
          "name": "_from",
          "type": "address"
        },
        {
          "name": "_to",
          "type": "address"
        },
        {
          "name": "_tokenId",
          "type": "uint256"
        }
      ],
      "name": "safeTransferFrom",
      "outputs": [],
      "payable": false,
      "stateMutability": "nonpayable",
      "type": "function"
    },
    {
      "constant": true,
      "inputs": [
        {
          "name": "_tokenId",
          "type": "uint256"
        }
      ],
      "name": "exists",
      "outputs": [
        {
          "name": "",
          "type": "bool"
        }
      ],
      "payable": false,
      "stateMutability": "view",
      "type": "function"
    },
    {
      "constant": true,
      "inputs": [
        {
          "name": "_index",
          "type": "uint256"
        }
      ],
      "name": "tokenByIndex",
      "outputs": [
        {
          "name": "",
          "type": "uint256"
        }
      ],
      "payable": false,
      "stateMutability": "view",
      "type": "function"
    },
    {
      "constant": true,
      "inputs": [
        {
          "name": "_tokenId",
          "type": "uint256"
        }
      ],
      "name": "ownerOf",
      "outputs": [
        {
          "name": "",
          "type": "address"
        }
      ],
      "payable": false,
      "stateMutability": "view",
      "type": "function"
    },
    {
      "constant": true,
      "inputs": [
        {
          "name": "_owner",
          "type": "address"
        }
      ],
      "name": "balanceOf",
      "outputs": [
        {
          "name": "",
          "type": "uint256"
        }
      ],
      "payable": false,
      "stateMutability": "view",
      "type": "function"
    },
    {
      "constant": true,
      "inputs": [],
      "name": "packSale",
      "outputs": [
        {
          "name": "",
          "type": "address"
        }
      ],
      "payable": false,
      "stateMutability": "view",
      "type": "function"
    },
    {
      "constant": true,
      "inputs": [],
      "name": "owner",
      "outputs": [
        {
          "name": "",
          "type": "address"
        }
      ],
      "payable": false,
      "stateMutability": "view",
      "type": "function"
    },
    {
      "constant": true,
      "inputs": [
        {
          "name": "",
          "type": "uint256"
        }
      ],
      "name": "cards",
      "outputs": [
        {
          "name": "mintTime",
          "type": "uint64"
        },
        {
          "name": "mintNumber",
          "type": "uint16"
        },
        {
          "name": "playerId",
          "type": "uint8"
        },
        {
          "name": "seriesId",
          "type": "uint8"
        },
        {
          "name": "runId",
          "type": "uint8"
        }
      ],
      "payable": false,
      "stateMutability": "view",
      "type": "function"
    },
    {
      "constant": true,
      "inputs": [],
      "name": "symbol",
      "outputs": [
        {
          "name": "",
          "type": "string"
        }
      ],
      "payable": false,
      "stateMutability": "view",
      "type": "function"
    },
    {
      "constant": false,
      "inputs": [
        {
          "name": "_to",
          "type": "address"
        },
        {
          "name": "_approved",
          "type": "bool"
        }
      ],
      "name": "setApprovalForAll",
      "outputs": [],
      "payable": false,
      "stateMutability": "nonpayable",
      "type": "function"
    },
    {
      "constant": false,
      "inputs": [
        {
          "name": "_from",
          "type": "address"
        },
        {
          "name": "_to",
          "type": "address"
        },
        {
          "name": "_tokenId",
          "type": "uint256"
        },
        {
          "name": "_data",
          "type": "bytes"
        }
      ],
      "name": "safeTransferFrom",
      "outputs": [],
      "payable": false,
      "stateMutability": "nonpayable",
      "type": "function"
    },
    {
      "constant": true,
      "inputs": [
        {
          "name": "_tokenId",
          "type": "uint256"
        }
      ],
      "name": "tokenURI",
      "outputs": [
        {
          "name": "",
          "type": "string"
        }
      ],
      "payable": false,
      "stateMutability": "view",
      "type": "function"
    },
    {
      "constant": true,
      "inputs": [
        {
          "name": "_owner",
          "type": "address"
        },
        {
          "name": "_operator",
          "type": "address"
        }
      ],
      "name": "isApprovedForAll",
      "outputs": [
        {
          "name": "",
          "type": "bool"
        }
      ],
      "payable": false,
      "stateMutability": "view",
      "type": "function"
    },
    {
      "constant": false,
      "inputs": [
        {
          "name": "newOwner",
          "type": "address"
        }
      ],
      "name": "transferOwnership",
      "outputs": [],
      "payable": false,
      "stateMutability": "nonpayable",
      "type": "function"
    },
    {
      "anonymous": false,
      "inputs": [
        {
          "indexed": false,
          "name": "cardId",
          "type": "uint256"
        }
      ],
      "name": "CardMinted",
      "type": "event"
    },
    {
      "anonymous": false,
      "inputs": [
        {
          "indexed": true,
          "name": "previousOwner",
          "type": "address"
        },
        {
          "indexed": true,
          "name": "newOwner",
          "type": "address"
        }
      ],
      "name": "OwnershipTransferred",
      "type": "event"
    },
    {
      "anonymous": false,
      "inputs": [
        {
          "indexed": true,
          "name": "_from",
          "type": "address"
        },
        {
          "indexed": true,
          "name": "_to",
          "type": "address"
        },
        {
          "indexed": false,
          "name": "_tokenId",
          "type": "uint256"
        }
      ],
      "name": "Transfer",
      "type": "event"
    },
    {
      "anonymous": false,
      "inputs": [
        {
          "indexed": true,
          "name": "_owner",
          "type": "address"
        },
        {
          "indexed": true,
          "name": "_approved",
          "type": "address"
        },
        {
          "indexed": false,
          "name": "_tokenId",
          "type": "uint256"
        }
      ],
      "name": "Approval",
      "type": "event"
    },
    {
      "anonymous": false,
      "inputs": [
        {
          "indexed": true,
          "name": "_owner",
          "type": "address"
        },
        {
          "indexed": true,
          "name": "_operator",
          "type": "address"
        },
        {
          "indexed": false,
          "name": "_approved",
          "type": "bool"
        }
      ],
      "name": "ApprovalForAll",
      "type": "event"
    },
    {
      "constant": false,
      "inputs": [
        {
          "name": "_address",
          "type": "address"
        }
      ],
      "name": "setPackSaleAddress",
      "outputs": [],
      "payable": false,
      "stateMutability": "nonpayable",
      "type": "function"
    },
    {
      "constant": false,
      "inputs": [
        {
          "name": "_playerId",
          "type": "uint8"
        },
        {
          "name": "_runId",
          "type": "uint8"
        },
        {
          "name": "_mintNumber",
          "type": "uint16"
        },
        {
          "name": "_owner",
          "type": "address"
        }
      ],
      "name": "mintSeries1Card",
      "outputs": [
        {
          "name": "",
          "type": "uint256"
        }
      ],
      "payable": false,
      "stateMutability": "nonpayable",
      "type": "function"
    }
  ],
  "bytecode": "0x60606040526040805190810160405280600e81526020017f43727970746f537472696b6572730000000000000000000000000000000000008152506040805190810160405280600481526020017f5354524b00000000000000000000000000000000000000000000000000000000815250816004908051906020019062000088929190620000eb565b508060059080519060200190620000a1929190620000eb565b50505033600b60006101000a81548173ffffffffffffffffffffffffffffffffffffffff021916908373ffffffffffffffffffffffffffffffffffffffff1602179055506200019a565b828054600181600116156101000203166002900490600052602060002090601f016020900481019282601f106200012e57805160ff19168380011785556200015f565b828001600101855582156200015f579182015b828111156200015e57825182559160200191906001019062000141565b5b5090506200016e919062000172565b5090565b6200019791905b808211156200019357600081600090555060010162000179565b5090565b90565b6127ac80620001aa6000396000f300606060405260043610610128576000357c0100000000000000000000000000000000000000000000000000000000900463ffffffff16806306fdde031461012d578063081812fc146101bb578063095ea7b31461021e57806318160ddd1461026057806323b872dd146102895780632e06a45d146102ea5780632f745c591461035c57806342842e0e146103b25780634f558e79146104135780634f6ccce71461044e5780636352211e1461048557806370a08231146104e85780638b84577d146105355780638da5cb5b1461058a5780638dc10768146105df578063914e45d01461066057806395d89b4114610699578063a22cb46514610727578063b88d4fde1461076b578063c87b56dd1461080f578063e985e9c5146108ab578063f2fde38b1461091b575b600080fd5b341561013857600080fd5b610140610954565b6040518080602001828103825283818151815260200191508051906020019080838360005b83811015610180578082015181840152602081019050610165565b50505050905090810190601f1680156101ad5780820380516001836020036101000a031916815260200191505b509250505060405180910390f35b34156101c657600080fd5b6101dc60048080359060200190919050506109fc565b604051808273ffffffffffffffffffffffffffffffffffffffff1673ffffffffffffffffffffffffffffffffffffffff16815260200191505060405180910390f35b341561022957600080fd5b61025e600480803573ffffffffffffffffffffffffffffffffffffffff16906020019091908035906020019091905050610a39565b005b341561026b57600080fd5b610273610bff565b6040518082815260200191505060405180910390f35b341561029457600080fd5b6102e8600480803573ffffffffffffffffffffffffffffffffffffffff1690602001909190803573ffffffffffffffffffffffffffffffffffffffff16906020019091908035906020019091905050610c0c565b005b34156102f557600080fd5b610346600480803560ff1690602001909190803560ff1690602001909190803561ffff1690602001909190803573ffffffffffffffffffffffffffffffffffffffff16906020019091905050610d23565b6040518082815260200191505060405180910390f35b341561036757600080fd5b61039c600480803573ffffffffffffffffffffffffffffffffffffffff16906020019091908035906020019091905050610d99565b6040518082815260200191505060405180910390f35b34156103bd57600080fd5b610411600480803573ffffffffffffffffffffffffffffffffffffffff1690602001909190803573ffffffffffffffffffffffffffffffffffffffff16906020019091908035906020019091905050610e11565b005b341561041e57600080fd5b6104346004808035906020019091905050610e49565b604051808215151515815260200191505060405180910390f35b341561045957600080fd5b61046f6004808035906020019091905050610eba565b6040518082815260200191505060405180910390f35b341561049057600080fd5b6104a66004808035906020019091905050610ef3565b604051808273ffffffffffffffffffffffffffffffffffffffff1673ffffffffffffffffffffffffffffffffffffffff16815260200191505060405180910390f35b34156104f357600080fd5b61051f600480803573ffffffffffffffffffffffffffffffffffffffff16906020019091905050610f70565b6040518082815260200191505060405180910390f35b341561054057600080fd5b610548610ff4565b604051808273ffffffffffffffffffffffffffffffffffffffff1673ffffffffffffffffffffffffffffffffffffffff16815260200191505060405180910390f35b341561059557600080fd5b61059d61101a565b604051808273ffffffffffffffffffffffffffffffffffffffff1673ffffffffffffffffffffffffffffffffffffffff16815260200191505060405180910390f35b34156105ea57600080fd5b6106006004808035906020019091905050611040565b604051808667ffffffffffffffff1667ffffffffffffffff1681526020018561ffff1661ffff1681526020018460ff1660ff1681526020018360ff1660ff1681526020018260ff1660ff1681526020019550505050505060405180910390f35b341561066b57600080fd5b610697600480803573ffffffffffffffffffffffffffffffffffffffff169060200190919050506110cb565b005b34156106a457600080fd5b6106ac6111f6565b6040518080602001828103825283818151815260200191508051906020019080838360005b838110156106ec5780820151818401526020810190506106d1565b50505050905090810190601f1680156107195780820380516001836020036101000a031916815260200191505b509250505060405180910390f35b341561073257600080fd5b610769600480803573ffffffffffffffffffffffffffffffffffffffff16906020019091908035151590602001909190505061129e565b005b341561077657600080fd5b61080d600480803573ffffffffffffffffffffffffffffffffffffffff1690602001909190803573ffffffffffffffffffffffffffffffffffffffff1690602001909190803590602001909190803590602001908201803590602001908080601f016020809104026020016040519081016040528093929190818152602001838380828437820191505050505050919050506113da565b005b341561081a57600080fd5b6108306004808035906020019091905050611419565b6040518080602001828103825283818151815260200191508051906020019080838360005b83811015610870578082015181840152602081019050610855565b50505050905090810190601f16801561089d5780820380516001836020036101000a031916815260200191505b509250505060405180910390f35b34156108b657600080fd5b610901600480803573ffffffffffffffffffffffffffffffffffffffff1690602001909190803573ffffffffffffffffffffffffffffffffffffffff169060200190919050506114b6565b604051808215151515815260200191505060405180910390f35b341561092657600080fd5b610952600480803573ffffffffffffffffffffffffffffffffffffffff1690602001909190505061154a565b005b61095c6125dd565b60048054600181600116156101000203166002900480601f0160208091040260200160405190810160405280929190818152602001828054600181600116156101000203166002900480156109f25780601f106109c7576101008083540402835291602001916109f2565b820191906000526020600020905b8154815290600101906020018083116109d557829003601f168201915b5050505050905090565b60006001600083815260200190815260200160002060009054906101000a900473ffffffffffffffffffffffffffffffffffffffff169050919050565b6000610a4482610ef3565b90508073ffffffffffffffffffffffffffffffffffffffff168373ffffffffffffffffffffffffffffffffffffffff1614151515610a8157600080fd5b8073ffffffffffffffffffffffffffffffffffffffff163373ffffffffffffffffffffffffffffffffffffffff161480610ac15750610ac081336114b6565b5b1515610acc57600080fd5b600073ffffffffffffffffffffffffffffffffffffffff16610aed836109fc565b73ffffffffffffffffffffffffffffffffffffffff16141580610b3d5750600073ffffffffffffffffffffffffffffffffffffffff168373ffffffffffffffffffffffffffffffffffffffff1614155b15610bfa57826001600084815260200190815260200160002060006101000a81548173ffffffffffffffffffffffffffffffffffffffff021916908373ffffffffffffffffffffffffffffffffffffffff1602179055508273ffffffffffffffffffffffffffffffffffffffff168173ffffffffffffffffffffffffffffffffffffffff167f8c5be1e5ebec7d5bd14f71427d1e84f3dd0314c0f7b2291e5b200ac8c7c3b925846040518082815260200191505060405180910390a35b505050565b6000600880549050905090565b80610c1733826116a2565b1515610c2257600080fd5b600073ffffffffffffffffffffffffffffffffffffffff168473ffffffffffffffffffffffffffffffffffffffff1614151515610c5e57600080fd5b600073ffffffffffffffffffffffffffffffffffffffff168373ffffffffffffffffffffffffffffffffffffffff1614151515610c9a57600080fd5b610ca48483611737565b610cae84836118a0565b610cb88383611abb565b8273ffffffffffffffffffffffffffffffffffffffff168473ffffffffffffffffffffffffffffffffffffffff167fddf252ad1be2c89b69c2b068fc378daa952ba7f163c4a11628f55a4df523b3ef846040518082815260200191505060405180910390a350505050565b6000600d60009054906101000a900473ffffffffffffffffffffffffffffffffffffffff1673ffffffffffffffffffffffffffffffffffffffff163373ffffffffffffffffffffffffffffffffffffffff16141515610d8157600080fd5b610d8f856001868686611b8f565b9050949350505050565b6000610da483610f70565b82101515610db157600080fd5b600660008473ffffffffffffffffffffffffffffffffffffffff1673ffffffffffffffffffffffffffffffffffffffff16815260200190815260200160002082815481101515610dfd57fe5b906000526020600020900154905092915050565b80610e1c33826116a2565b1515610e2757600080fd5b610e4384848460206040519081016040528060008152506113da565b50505050565b60008060008084815260200190815260200160002060009054906101000a900473ffffffffffffffffffffffffffffffffffffffff169050600073ffffffffffffffffffffffffffffffffffffffff168173ffffffffffffffffffffffffffffffffffffffff161415915050919050565b6000610ec4610bff565b82101515610ed157600080fd5b600882815481101515610ee057fe5b9060005260206000209001549050919050565b60008060008084815260200190815260200160002060009054906101000a900473ffffffffffffffffffffffffffffffffffffffff169050600073ffffffffffffffffffffffffffffffffffffffff168173ffffffffffffffffffffffffffffffffffffffff1614151515610f6757600080fd5b80915050919050565b60008073ffffffffffffffffffffffffffffffffffffffff168273ffffffffffffffffffffffffffffffffffffffff1614151515610fad57600080fd5b600260008373ffffffffffffffffffffffffffffffffffffffff1673ffffffffffffffffffffffffffffffffffffffff168152602001908152602001600020549050919050565b600d60009054906101000a900473ffffffffffffffffffffffffffffffffffffffff1681565b600b60009054906101000a900473ffffffffffffffffffffffffffffffffffffffff1681565b600c8181548110151561104f57fe5b90600052602060002090016000915090508060000160009054906101000a900467ffffffffffffffff16908060000160089054906101000a900461ffff169080600001600a9054906101000a900460ff169080600001600b9054906101000a900460ff169080600001600c9054906101000a900460ff16905085565b6000600b60009054906101000a900473ffffffffffffffffffffffffffffffffffffffff1673ffffffffffffffffffffffffffffffffffffffff163373ffffffffffffffffffffffffffffffffffffffff1614151561112957600080fd5b8190508073ffffffffffffffffffffffffffffffffffffffff1663643445a66040518163ffffffff167c0100000000000000000000000000000000000000000000000000000000028152600401602060405180830381600087803b151561118f57600080fd5b5af1151561119c57600080fd5b5050506040518051905015156111b157600080fd5b80600d60006101000a81548173ffffffffffffffffffffffffffffffffffffffff021916908373ffffffffffffffffffffffffffffffffffffffff1602179055505050565b6111fe6125dd565b60058054600181600116156101000203166002900480601f0160208091040260200160405190810160405280929190818152602001828054600181600116156101000203166002900480156112945780601f1061126957610100808354040283529160200191611294565b820191906000526020600020905b81548152906001019060200180831161127757829003601f168201915b5050505050905090565b3373ffffffffffffffffffffffffffffffffffffffff168273ffffffffffffffffffffffffffffffffffffffff16141515156112d957600080fd5b80600360003373ffffffffffffffffffffffffffffffffffffffff1673ffffffffffffffffffffffffffffffffffffffff16815260200190815260200160002060008473ffffffffffffffffffffffffffffffffffffffff1673ffffffffffffffffffffffffffffffffffffffff16815260200190815260200160002060006101000a81548160ff0219169083151502179055508173ffffffffffffffffffffffffffffffffffffffff163373ffffffffffffffffffffffffffffffffffffffff167f17307eab39ab6107e8899845ad3d59bd9653f200f220920489ca2b5937696c3183604051808215151515815260200191505060405180910390a35050565b816113e533826116a2565b15156113f057600080fd5b6113fb858585610c0c565b61140785858585611d0e565b151561141257600080fd5b5050505050565b6114216125dd565b6114296125dd565b61143283610e49565b151561143d57600080fd5b61144683611ed7565b90506114ae606060405190810160405280604081526020017f68747470733a2f2f75732d63656e7472616c312d63727970746f737472696b6581526020017f72732d6170692e636c6f756466756e6374696f6e732e6e65742f63617264732f81525082612029565b915050919050565b6000600360008473ffffffffffffffffffffffffffffffffffffffff1673ffffffffffffffffffffffffffffffffffffffff16815260200190815260200160002060008373ffffffffffffffffffffffffffffffffffffffff1673ffffffffffffffffffffffffffffffffffffffff16815260200190815260200160002060009054906101000a900460ff16905092915050565b600b60009054906101000a900473ffffffffffffffffffffffffffffffffffffffff1673ffffffffffffffffffffffffffffffffffffffff163373ffffffffffffffffffffffffffffffffffffffff161415156115a657600080fd5b600073ffffffffffffffffffffffffffffffffffffffff168173ffffffffffffffffffffffffffffffffffffffff16141515156115e257600080fd5b8073ffffffffffffffffffffffffffffffffffffffff16600b60009054906101000a900473ffffffffffffffffffffffffffffffffffffffff1673ffffffffffffffffffffffffffffffffffffffff167f8be0079c531659141344cd1fd0a4f28419497f9722a3daafe3b4186f6b6457e060405160405180910390a380600b60006101000a81548173ffffffffffffffffffffffffffffffffffffffff021916908373ffffffffffffffffffffffffffffffffffffffff16021790555050565b6000806116ae83610ef3565b90508073ffffffffffffffffffffffffffffffffffffffff168473ffffffffffffffffffffffffffffffffffffffff16148061171d57508373ffffffffffffffffffffffffffffffffffffffff16611705846109fc565b73ffffffffffffffffffffffffffffffffffffffff16145b8061172e575061172d81856114b6565b5b91505092915050565b8173ffffffffffffffffffffffffffffffffffffffff1661175782610ef3565b73ffffffffffffffffffffffffffffffffffffffff1614151561177957600080fd5b600073ffffffffffffffffffffffffffffffffffffffff166001600083815260200190815260200160002060009054906101000a900473ffffffffffffffffffffffffffffffffffffffff1673ffffffffffffffffffffffffffffffffffffffff1614151561189c5760006001600083815260200190815260200160002060006101000a81548173ffffffffffffffffffffffffffffffffffffffff021916908373ffffffffffffffffffffffffffffffffffffffff160217905550600073ffffffffffffffffffffffffffffffffffffffff168273ffffffffffffffffffffffffffffffffffffffff167f8c5be1e5ebec7d5bd14f71427d1e84f3dd0314c0f7b2291e5b200ac8c7c3b925836040518082815260200191505060405180910390a35b5050565b60008060006118af8585612209565b6007600085815260200190815260200160002054925061191b6001600660008873ffffffffffffffffffffffffffffffffffffffff1673ffffffffffffffffffffffffffffffffffffffff1681526020019081526020016000208054905061233790919063ffffffff16565b9150600660008673ffffffffffffffffffffffffffffffffffffffff1673ffffffffffffffffffffffffffffffffffffffff1681526020019081526020016000208281548110151561196957fe5b906000526020600020900154905080600660008773ffffffffffffffffffffffffffffffffffffffff1673ffffffffffffffffffffffffffffffffffffffff168152602001908152602001600020848154811015156119c457fe5b9060005260206000209001819055506000600660008773ffffffffffffffffffffffffffffffffffffffff1673ffffffffffffffffffffffffffffffffffffffff16815260200190815260200160002083815481101515611a2157fe5b906000526020600020900181905550600660008673ffffffffffffffffffffffffffffffffffffffff1673ffffffffffffffffffffffffffffffffffffffff168152602001908152602001600020805480919060019003611a8291906125f1565b50600060076000868152602001908152602001600020819055508260076000838152602001908152602001600020819055505050505050565b6000611ac78383612350565b600660008473ffffffffffffffffffffffffffffffffffffffff1673ffffffffffffffffffffffffffffffffffffffff168152602001908152602001600020805490509050600660008473ffffffffffffffffffffffffffffffffffffffff1673ffffffffffffffffffffffffffffffffffffffff1681526020019081526020016000208054806001018281611b5d919061261d565b916000526020600020900160008490919091505550806007600084815260200190815260200160002081905550505050565b6000611b99612649565b600060a0604051908101604052804267ffffffffffffffff1681526020018661ffff1681526020018960ff1681526020018860ff1681526020018760ff1681525091506001600c8054806001018281611bf29190612690565b9160005260206000209001600085909190915060008201518160000160006101000a81548167ffffffffffffffff021916908367ffffffffffffffff16021790555060208201518160000160086101000a81548161ffff021916908361ffff160217905550604082015181600001600a6101000a81548160ff021916908360ff160217905550606082015181600001600b6101000a81548160ff021916908360ff160217905550608082015181600001600c6101000a81548160ff021916908360ff16021790555050500390507f220b53d3db6f7694ac363d118b95866fad85b0e6b18b77cbe36eb044996994a0816040518082815260200191505060405180910390a1611d0084826124a8565b809250505095945050505050565b600080611d308573ffffffffffffffffffffffffffffffffffffffff166124fc565b1515611d3f5760019150611ece565b8473ffffffffffffffffffffffffffffffffffffffff1663f0b9e5ba8786866040518463ffffffff167c0100000000000000000000000000000000000000000000000000000000028152600401808473ffffffffffffffffffffffffffffffffffffffff1673ffffffffffffffffffffffffffffffffffffffff16815260200183815260200180602001828103825283818151815260200191508051906020019080838360005b83811015611e01578082015181840152602081019050611de6565b50505050905090810190601f168015611e2e5780820380516001836020036101000a031916815260200191505b50945050505050602060405180830381600087803b1515611e4e57600080fd5b5af11515611e5b57600080fd5b50505060405180519050905063f0b9e5ba7c0100000000000000000000000000000000000000000000000000000000027bffffffffffffffffffffffffffffffffffffffffffffffffffffffff1916817bffffffffffffffffffffffffffffffffffffffffffffffffffffffff19161491505b50949350505050565b611edf6125dd565b600080611eea6126bc565b600080861415611f31576040805190810160405280600181526020017f30000000000000000000000000000000000000000000000000000000000000008152509450612020565b8593505b600084141515611f5b578280600101935050600a84811515611f5357fe5b049350611f35565b82604051805910611f695750595b9080825280601f01601f191660200182016040525091506001830390505b60008614151561201c57600a86811515611f9d57fe5b066030017f010000000000000000000000000000000000000000000000000000000000000002828280600190039350815181101515611fd857fe5b9060200101907effffffffffffffffffffffffffffffffffffffffffffffffffffffffffffff1916908160001a905350600a8681151561201457fe5b049550611f87565b8194505b50505050919050565b6120316125dd565b6120396126bc565b6120416126bc565b6120496125dd565b6120516126bc565b600080889550879450845186510160405180591061206c5750595b9080825280601f01601f1916602001820160405250935083925060009150600090505b85518110156121425785818151811015156120a657fe5b9060200101517f010000000000000000000000000000000000000000000000000000000000000090047f010000000000000000000000000000000000000000000000000000000000000002838380600101945081518110151561210557fe5b9060200101907effffffffffffffffffffffffffffffffffffffffffffffffffffffffffffff1916908160001a905350808060010191505061208f565b600090505b84518110156121fa57848181518110151561215e57fe5b9060200101517f010000000000000000000000000000000000000000000000000000000000000090047f01000000000000000000000000000000000000000000000000000000000000000283838060010194508151811015156121bd57fe5b9060200101907effffffffffffffffffffffffffffffffffffffffffffffffffffffffffffff1916908160001a9053508080600101915050612147565b82965050505050505092915050565b8173ffffffffffffffffffffffffffffffffffffffff1661222982610ef3565b73ffffffffffffffffffffffffffffffffffffffff1614151561224b57600080fd5b61229e6001600260008573ffffffffffffffffffffffffffffffffffffffff1673ffffffffffffffffffffffffffffffffffffffff1681526020019081526020016000205461233790919063ffffffff16565b600260008473ffffffffffffffffffffffffffffffffffffffff1673ffffffffffffffffffffffffffffffffffffffff16815260200190815260200160002081905550600080600083815260200190815260200160002060006101000a81548173ffffffffffffffffffffffffffffffffffffffff021916908373ffffffffffffffffffffffffffffffffffffffff1602179055505050565b600082821115151561234557fe5b818303905092915050565b600073ffffffffffffffffffffffffffffffffffffffff1660008083815260200190815260200160002060009054906101000a900473ffffffffffffffffffffffffffffffffffffffff1673ffffffffffffffffffffffffffffffffffffffff161415156123bd57600080fd5b8160008083815260200190815260200160002060006101000a81548173ffffffffffffffffffffffffffffffffffffffff021916908373ffffffffffffffffffffffffffffffffffffffff1602179055506124616001600260008573ffffffffffffffffffffffffffffffffffffffff1673ffffffffffffffffffffffffffffffffffffffff1681526020019081526020016000205461250f90919063ffffffff16565b600260008473ffffffffffffffffffffffffffffffffffffffff1673ffffffffffffffffffffffffffffffffffffffff168152602001908152602001600020819055505050565b6124b2828261252d565b6008805490506009600083815260200190815260200160002081905550600880548060010182816124e3919061261d565b9160005260206000209001600083909190915055505050565b600080823b905060008111915050919050565b600080828401905083811015151561252357fe5b8091505092915050565b600073ffffffffffffffffffffffffffffffffffffffff168273ffffffffffffffffffffffffffffffffffffffff161415151561256957600080fd5b6125738282611abb565b8173ffffffffffffffffffffffffffffffffffffffff16600073ffffffffffffffffffffffffffffffffffffffff167fddf252ad1be2c89b69c2b068fc378daa952ba7f163c4a11628f55a4df523b3ef836040518082815260200191505060405180910390a35050565b602060405190810160405280600081525090565b8154818355818115116126185781836000526020600020918201910161261791906126d0565b5b505050565b8154818355818115116126445781836000526020600020918201910161264391906126d0565b5b505050565b60a060405190810160405280600067ffffffffffffffff168152602001600061ffff168152602001600060ff168152602001600060ff168152602001600060ff1681525090565b8154818355818115116126b7578183600052602060002091820191016126b691906126f5565b5b505050565b602060405190810160405280600081525090565b6126f291905b808211156126ee5760008160009055506001016126d6565b5090565b90565b61277d91905b8082111561277957600080820160006101000a81549067ffffffffffffffff02191690556000820160086101000a81549061ffff021916905560008201600a6101000a81549060ff021916905560008201600b6101000a81549060ff021916905560008201600c6101000a81549060ff0219169055506001016126fb565b5090565b905600a165627a7a72305820788c2aaac34fd304bf91a19840cc27be12c40f80bd92044d57ee03c885c125190029",
  "source": "pragma solidity ^0.4.21;\n\nimport \"./PackSale.sol\";\nimport \"./StrikersBase.sol\";\n\ncontract StrikersMinting is StrikersBase {\n  /// @dev The address of the contract that manages the pack sale.\n  PackSale public packSale;\n\n  /// @dev Only the owner can update the address of the pack sale contract.\n  /// @param _address The address of the new PackSale contract.\n  function setPackSaleAddress(address _address) external onlyOwner {\n    PackSale candidateContract = PackSale(_address);\n    // Sanity check to make sure we're actually setting a PackSale contract...\n    require(candidateContract.isPackSale());\n    packSale = candidateContract;\n  }\n\n  function mintSeries1Card(\n    uint8 _playerId,\n    uint8 _runId,\n    uint16 _mintNumber,\n    address _owner\n  )\n    external\n    returns (uint256)\n  {\n    // Only the PackSale contract can mint Series 1 cards!!!\n    require(msg.sender == address(packSale));\n    return _mintCard(_playerId, 1, _runId, _mintNumber, _owner);\n  }\n}\n",
  "sourcePath": "/Users/GiaSet/Desktop/Projects/cryptostrikers/contracts/StrikersMinting.sol",
  "compiler": {
    "name": "solc",
    "version": "0.4.21+commit.dfe3193c.Emscripten.clang"
  },
  "schemaVersion": "2.0.0",
  "updatedAt": "2018-04-10T15:58:35.759Z"
}