{
  "contractName": "StrikersSale",
  "abi": [
    {
      "constant": true,
      "inputs": [
        {
          "name": "_tokenId",
          "type": "uint256"
        }
      ],
      "name": "getApproved",
      "outputs": [
        {
          "name": "",
          "type": "address"
        }
      ],
      "payable": false,
      "stateMutability": "view",
      "type": "function"
    },
    {
      "constant": true,
      "inputs": [
        {
          "name": "",
          "type": "uint256"
        }
      ],
      "name": "countries",
      "outputs": [
        {
          "name": "",
          "type": "string"
        }
      ],
      "payable": false,
      "stateMutability": "view",
      "type": "function"
    },
    {
      "constant": false,
      "inputs": [
        {
          "name": "_to",
          "type": "address"
        },
        {
          "name": "_tokenId",
          "type": "uint256"
        }
      ],
      "name": "approve",
      "outputs": [],
      "payable": false,
      "stateMutability": "nonpayable",
      "type": "function"
    },
    {
      "constant": false,
      "inputs": [
        {
          "name": "_from",
          "type": "address"
        },
        {
          "name": "_to",
          "type": "address"
        },
        {
          "name": "_tokenId",
          "type": "uint256"
        }
      ],
      "name": "transferFrom",
      "outputs": [],
      "payable": false,
      "stateMutability": "nonpayable",
      "type": "function"
    },
    {
      "constant": true,
      "inputs": [],
      "name": "CARD_CREATION_LIMIT",
      "outputs": [
        {
          "name": "",
          "type": "uint256"
        }
      ],
      "payable": false,
      "stateMutability": "view",
      "type": "function"
    },
    {
      "constant": false,
      "inputs": [
        {
          "name": "_from",
          "type": "address"
        },
        {
          "name": "_to",
          "type": "address"
        },
        {
          "name": "_tokenId",
          "type": "uint256"
        }
      ],
      "name": "safeTransferFrom",
      "outputs": [],
      "payable": false,
      "stateMutability": "nonpayable",
      "type": "function"
    },
    {
      "constant": true,
      "inputs": [
        {
          "name": "_tokenId",
          "type": "uint256"
        }
      ],
      "name": "exists",
      "outputs": [
        {
          "name": "",
          "type": "bool"
        }
      ],
      "payable": false,
      "stateMutability": "view",
      "type": "function"
    },
    {
      "constant": true,
      "inputs": [],
      "name": "packPriceUSD",
      "outputs": [
        {
          "name": "",
          "type": "uint256"
        }
      ],
      "payable": false,
      "stateMutability": "view",
      "type": "function"
    },
    {
      "constant": true,
      "inputs": [
        {
          "name": "_tokenId",
          "type": "uint256"
        }
      ],
      "name": "ownerOf",
      "outputs": [
        {
          "name": "",
          "type": "address"
        }
      ],
      "payable": false,
      "stateMutability": "view",
      "type": "function"
    },
    {
      "constant": true,
      "inputs": [
        {
          "name": "_owner",
          "type": "address"
        }
      ],
      "name": "balanceOf",
      "outputs": [
        {
          "name": "",
          "type": "uint256"
        }
      ],
      "payable": false,
      "stateMutability": "view",
      "type": "function"
    },
    {
      "constant": true,
      "inputs": [],
      "name": "owner",
      "outputs": [
        {
          "name": "",
          "type": "address"
        }
      ],
      "payable": false,
      "stateMutability": "view",
      "type": "function"
    },
    {
      "constant": false,
      "inputs": [
        {
          "name": "_to",
          "type": "address"
        },
        {
          "name": "_approved",
          "type": "bool"
        }
      ],
      "name": "setApprovalForAll",
      "outputs": [],
      "payable": false,
      "stateMutability": "nonpayable",
      "type": "function"
    },
    {
      "constant": false,
      "inputs": [
        {
          "name": "_from",
          "type": "address"
        },
        {
          "name": "_to",
          "type": "address"
        },
        {
          "name": "_tokenId",
          "type": "uint256"
        },
        {
          "name": "_data",
          "type": "bytes"
        }
      ],
      "name": "safeTransferFrom",
      "outputs": [],
      "payable": false,
      "stateMutability": "nonpayable",
      "type": "function"
    },
    {
      "constant": true,
      "inputs": [],
      "name": "ethPriceUSD",
      "outputs": [
        {
          "name": "",
          "type": "uint256"
        }
      ],
      "payable": false,
      "stateMutability": "view",
      "type": "function"
    },
    {
      "constant": true,
      "inputs": [
        {
          "name": "_owner",
          "type": "address"
        },
        {
          "name": "_operator",
          "type": "address"
        }
      ],
      "name": "isApprovedForAll",
      "outputs": [
        {
          "name": "",
          "type": "bool"
        }
      ],
      "payable": false,
      "stateMutability": "view",
      "type": "function"
    },
    {
      "constant": false,
      "inputs": [
        {
          "name": "newOwner",
          "type": "address"
        }
      ],
      "name": "transferOwnership",
      "outputs": [],
      "payable": false,
      "stateMutability": "nonpayable",
      "type": "function"
    },
    {
      "constant": true,
      "inputs": [
        {
          "name": "",
          "type": "uint256"
        }
      ],
      "name": "players",
      "outputs": [
        {
          "name": "fullName",
          "type": "string"
        },
        {
          "name": "countryId",
          "type": "uint8"
        }
      ],
      "payable": false,
      "stateMutability": "view",
      "type": "function"
    },
    {
      "inputs": [
        {
          "name": "_ethPriceUSD",
          "type": "uint256"
        },
        {
          "name": "_packPriceUSD",
          "type": "uint256"
        }
      ],
      "payable": false,
      "stateMutability": "nonpayable",
      "type": "constructor"
    },
    {
      "payable": true,
      "stateMutability": "payable",
      "type": "fallback"
    },
    {
      "anonymous": false,
      "inputs": [
        {
          "indexed": false,
          "name": "cardId",
          "type": "uint256"
        }
      ],
      "name": "CardMinted",
      "type": "event"
    },
    {
      "anonymous": false,
      "inputs": [
        {
          "indexed": true,
          "name": "previousOwner",
          "type": "address"
        },
        {
          "indexed": true,
          "name": "newOwner",
          "type": "address"
        }
      ],
      "name": "OwnershipTransferred",
      "type": "event"
    },
    {
      "anonymous": false,
      "inputs": [
        {
          "indexed": true,
          "name": "_from",
          "type": "address"
        },
        {
          "indexed": true,
          "name": "_to",
          "type": "address"
        },
        {
          "indexed": false,
          "name": "_tokenId",
          "type": "uint256"
        }
      ],
      "name": "Transfer",
      "type": "event"
    },
    {
      "anonymous": false,
      "inputs": [
        {
          "indexed": true,
          "name": "_owner",
          "type": "address"
        },
        {
          "indexed": true,
          "name": "_approved",
          "type": "address"
        },
        {
          "indexed": false,
          "name": "_tokenId",
          "type": "uint256"
        }
      ],
      "name": "Approval",
      "type": "event"
    },
    {
      "anonymous": false,
      "inputs": [
        {
          "indexed": true,
          "name": "_owner",
          "type": "address"
        },
        {
          "indexed": true,
          "name": "_operator",
          "type": "address"
        },
        {
          "indexed": false,
          "name": "_approved",
          "type": "bool"
        }
      ],
      "name": "ApprovalForAll",
      "type": "event"
    },
    {
      "constant": false,
      "inputs": [
        {
          "name": "_ethPriceUSD",
          "type": "uint256"
        }
      ],
      "name": "setEthPriceUSD",
      "outputs": [],
      "payable": false,
      "stateMutability": "nonpayable",
      "type": "function"
    },
    {
      "constant": false,
      "inputs": [
        {
          "name": "_packPriceUSD",
          "type": "uint256"
        }
      ],
      "name": "setPackPriceUSD",
      "outputs": [],
      "payable": false,
      "stateMutability": "nonpayable",
      "type": "function"
    }
  ],
  "bytecode": "0x6060604052610400604051908101604052806040805190810160405280600981526020017f417267656e74696e61000000000000000000000000000000000000000000000081525081526020016040805190810160405280600981526020017f4175737472616c6961000000000000000000000000000000000000000000000081525081526020016040805190810160405280600781526020017f42656c6769756d0000000000000000000000000000000000000000000000000081525081526020016040805190810160405280600681526020017f4272617a696c000000000000000000000000000000000000000000000000000081525081526020016040805190810160405280600881526020017f436f6c6f6d62696100000000000000000000000000000000000000000000000081525081526020016040805190810160405280600a81526020017f436f73746120526963610000000000000000000000000000000000000000000081525081526020016040805190810160405280600781526020017f43726f617469610000000000000000000000000000000000000000000000000081525081526020016040805190810160405280600781526020017f44656e6d61726b0000000000000000000000000000000000000000000000000081525081526020016040805190810160405280600581526020017f456779707400000000000000000000000000000000000000000000000000000081525081526020016040805190810160405280600781526020017f456e676c616e640000000000000000000000000000000000000000000000000081525081526020016040805190810160405280600681526020017f4672616e6365000000000000000000000000000000000000000000000000000081525081526020016040805190810160405280600781526020017f4765726d616e790000000000000000000000000000000000000000000000000081525081526020016040805190810160405280600781526020017f4963656c616e640000000000000000000000000000000000000000000000000081525081526020016040805190810160405280600481526020017f4972616e0000000000000000000000000000000000000000000000000000000081525081526020016040805190810160405280600581526020017f4a6170616e00000000000000000000000000000000000000000000000000000081525081526020016040805190810160405280600681526020017f4d657869636f000000000000000000000000000000000000000000000000000081525081526020016040805190810160405280600781526020017f4d6f726f63636f0000000000000000000000000000000000000000000000000081525081526020016040805190810160405280600781526020017f4e6967657269610000000000000000000000000000000000000000000000000081525081526020016040805190810160405280600681526020017f50616e616d61000000000000000000000000000000000000000000000000000081525081526020016040805190810160405280600481526020017f506572750000000000000000000000000000000000000000000000000000000081525081526020016040805190810160405280600681526020017f506f6c616e64000000000000000000000000000000000000000000000000000081525081526020016040805190810160405280600881526020017f506f72747567616c00000000000000000000000000000000000000000000000081525081526020016040805190810160405280600681526020017f527573736961000000000000000000000000000000000000000000000000000081525081526020016040805190810160405280600c81526020017f536175646920417261626961000000000000000000000000000000000000000081525081526020016040805190810160405280600781526020017f53656e6567616c0000000000000000000000000000000000000000000000000081525081526020016040805190810160405280600681526020017f536572626961000000000000000000000000000000000000000000000000000081525081526020016040805190810160405280600b81526020017f536f757468204b6f72656100000000000000000000000000000000000000000081525081526020016040805190810160405280600581526020017f537061696e00000000000000000000000000000000000000000000000000000081525081526020016040805190810160405280600681526020017f53776564656e000000000000000000000000000000000000000000000000000081525081526020016040805190810160405280600b81526020017f537769747a65726c616e6400000000000000000000000000000000000000000081525081526020016040805190810160405280600781526020017f54756e697369610000000000000000000000000000000000000000000000000081525081526020016040805190810160405280600781526020017f557275677561790000000000000000000000000000000000000000000000000081525081525060059060206200078192919062001a67565b5034156200078e57600080fd5b604051604080620035588339810160405280805190602001909190805190602001909190505033600460006101000a81548173ffffffffffffffffffffffffffffffffffffffff021916908373ffffffffffffffffffffffffffffffffffffffff160217905550600680548060010182816200080b919062001ace565b9160005260206000209060020201600060408051908101604052806040805190810160405280600c81526020017f4c696f6e656c204d6573736900000000000000000000000000000000000000008152508152602001600060ff16815250909190915060008201518160000190805190602001906200088c92919062001b03565b5060208201518160010160006101000a81548160ff021916908360ff16021790555050505060068054806001018281620008c7919062001ace565b9160005260206000209060020201600060408051908101604052806040805190810160405280600e81526020017f53657267696f204167c3bc65726f0000000000000000000000000000000000008152508152602001600060ff16815250909190915060008201518160000190805190602001906200094892919062001b03565b5060208201518160010160006101000a81548160ff021916908360ff1602179055505050506006805480600101828162000983919062001ace565b9160005260206000209060020201600060408051908101604052806040805190810160405280600b81526020017f4564656e2048617a6172640000000000000000000000000000000000000000008152508152602001600260ff168152509091909150600082015181600001908051906020019062000a0492919062001b03565b5060208201518160010160006101000a81548160ff021916908360ff1602179055505050506006805480600101828162000a3f919062001ace565b9160005260206000209060020201600060408051908101604052806040805190810160405280600f81526020017f4b6576696e20446520427275796e6500000000000000000000000000000000008152508152602001600260ff168152509091909150600082015181600001908051906020019062000ac092919062001b03565b5060208201518160010160006101000a81548160ff021916908360ff1602179055505050506006805480600101828162000afb919062001ace565b9160005260206000209060020201600060408051908101604052806040805190810160405280601081526020017f5468696261757420436f7572746f6973000000000000000000000000000000008152508152602001600260ff168152509091909150600082015181600001908051906020019062000b7c92919062001b03565b5060208201518160010160006101000a81548160ff021916908360ff1602179055505050506006805480600101828162000bb7919062001ace565b9160005260206000209060020201600060408051908101604052806040805190810160405280600681526020017f4e65796d617200000000000000000000000000000000000000000000000000008152508152602001600360ff168152509091909150600082015181600001908051906020019062000c3892919062001b03565b5060208201518160010160006101000a81548160ff021916908360ff1602179055505050506006805480600101828162000c73919062001ace565b9160005260206000209060020201600060408051908101604052806040805190810160405280600a81526020017f44616e6920416c766573000000000000000000000000000000000000000000008152508152602001600360ff168152509091909150600082015181600001908051906020019062000cf492919062001b03565b5060208201518160010160006101000a81548160ff021916908360ff1602179055505050506006805480600101828162000d2f919062001ace565b9160005260206000209060020201600060408051908101604052806040805190810160405280600781526020017f4d617263656c6f000000000000000000000000000000000000000000000000008152508152602001600360ff168152509091909150600082015181600001908051906020019062000db092919062001b03565b5060208201518160010160006101000a81548160ff021916908360ff1602179055505050506006805480600101828162000deb919062001ace565b9160005260206000209060020201600060408051908101604052806040805190810160405280600c81526020017f4c756b61204d6f647269c48700000000000000000000000000000000000000008152508152602001600660ff168152509091909150600082015181600001908051906020019062000e6c92919062001b03565b5060208201518160010160006101000a81548160ff021916908360ff1602179055505050506006805480600101828162000ea7919062001ace565b9160005260206000209060020201600060408051908101604052806040805190810160405280601181526020017f43687269737469616e204572696b73656e0000000000000000000000000000008152508152602001600760ff168152509091909150600082015181600001908051906020019062000f2892919062001b03565b5060208201518160010160006101000a81548160ff021916908360ff1602179055505050506006805480600101828162000f63919062001ace565b9160005260206000209060020201600060408051908101604052806040805190810160405280600d81526020017f4d6f68616d65642053616c6168000000000000000000000000000000000000008152508152602001600860ff168152509091909150600082015181600001908051906020019062000fe492919062001b03565b5060208201518160010160006101000a81548160ff021916908360ff160217905550505050600680548060010182816200101f919062001ace565b9160005260206000209060020201600060408051908101604052806040805190810160405280600a81526020017f4861727279204b616e65000000000000000000000000000000000000000000008152508152602001600960ff1681525090919091506000820151816000019080519060200190620010a092919062001b03565b5060208201518160010160006101000a81548160ff021916908360ff16021790555050505060068054806001018281620010db919062001ace565b9160005260206000209060020201600060408051908101604052806040805190810160405280600a81526020017f5061756c20506f676261000000000000000000000000000000000000000000008152508152602001600a60ff16815250909190915060008201518160000190805190602001906200115c92919062001b03565b5060208201518160010160006101000a81548160ff021916908360ff1602179055505050506006805480600101828162001197919062001ace565b9160005260206000209060020201600060408051908101604052806040805190810160405280600d81526020017f4e27476f6c6f204b616e74c3a9000000000000000000000000000000000000008152508152602001600a60ff16815250909190915060008201518160000190805190602001906200121892919062001b03565b5060208201518160010160006101000a81548160ff021916908360ff1602179055505050506006805480600101828162001253919062001ace565b9160005260206000209060020201600060408051908101604052806040805190810160405280601181526020017f416e746f696e6520477269657a6d616e6e0000000000000000000000000000008152508152602001600a60ff1681525090919091506000820151816000019080519060200190620012d492919062001b03565b5060208201518160010160006101000a81548160ff021916908360ff160217905550505050600680548060010182816200130f919062001ace565b9160005260206000209060020201600060408051908101604052806040805190810160405280600a81526020017f546f6e69204b726f6f73000000000000000000000000000000000000000000008152508152602001600b60ff16815250909190915060008201518160000190805190602001906200139092919062001b03565b5060208201518160010160006101000a81548160ff021916908360ff16021790555050505060068054806001018281620013cb919062001ace565b9160005260206000209060020201600060408051908101604052806040805190810160405280600c81526020017f4d6174732048756d6d656c7300000000000000000000000000000000000000008152508152602001600b60ff16815250909190915060008201518160000190805190602001906200144c92919062001b03565b5060208201518160010160006101000a81548160ff021916908360ff1602179055505050506006805480600101828162001487919062001ace565b9160005260206000209060020201600060408051908101604052806040805190810160405280600b81526020017f4d6573757420c3967a696c0000000000000000000000000000000000000000008152508152602001600b60ff16815250909190915060008201518160000190805190602001906200150892919062001b03565b5060208201518160010160006101000a81548160ff021916908360ff1602179055505050506006805480600101828162001543919062001ace565b9160005260206000209060020201600060408051908101604052806040805190810160405280601281526020017f526f62657274204c6577616e646f77736b6900000000000000000000000000008152508152602001601460ff1681525090919091506000820151816000019080519060200190620015c492919062001b03565b5060208201518160010160006101000a81548160ff021916908360ff16021790555050505060068054806001018281620015ff919062001ace565b9160005260206000209060020201600060408051908101604052806040805190810160405280601181526020017f437269737469616e6f20526f6e616c646f0000000000000000000000000000008152508152602001601560ff16815250909190915060008201518160000190805190602001906200168092919062001b03565b5060208201518160010160006101000a81548160ff021916908360ff16021790555050505060068054806001018281620016bb919062001ace565b9160005260206000209060020201600060408051908101604052806040805190810160405280600681526020017f54686961676f00000000000000000000000000000000000000000000000000008152508152602001601b60ff16815250909190915060008201518160000190805190602001906200173c92919062001b03565b5060208201518160010160006101000a81548160ff021916908360ff1602179055505050506006805480600101828162001777919062001ace565b9160005260206000209060020201600060408051908101604052806040805190810160405280600c81526020017f53657267696f2052616d6f7300000000000000000000000000000000000000008152508152602001601b60ff1681525090919091506000820151816000019080519060200190620017f892919062001b03565b5060208201518160010160006101000a81548160ff021916908360ff1602179055505050506006805480600101828162001833919062001ace565b9160005260206000209060020201600060408051908101604052806040805190810160405280600c81526020017f44617669642044652047656100000000000000000000000000000000000000008152508152602001601b60ff1681525090919091506000820151816000019080519060200190620018b492919062001b03565b5060208201518160010160006101000a81548160ff021916908360ff16021790555050505060068054806001018281620018ef919062001ace565b9160005260206000209060020201600060408051908101604052806040805190810160405280600e81526020017f4564696e736f6e20436176616e690000000000000000000000000000000000008152508152602001601f60ff16815250909190915060008201518160000190805190602001906200197092919062001b03565b5060208201518160010160006101000a81548160ff021916908360ff16021790555050505060068054806001018281620019ab919062001ace565b9160005260206000209060020201600060408051908101604052806040805190810160405280600c81526020017f4c756973205375c3a172657a00000000000000000000000000000000000000008152508152602001601f60ff168152509091909150600082015181600001908051906020019062001a2c92919062001b03565b5060208201518160010160006101000a81548160ff021916908360ff1602179055505050508160108190555080601181905550505062001c77565b82805482825590600052602060002090810192821562001abb579160200282015b8281111562001aba57825182908051906020019062001aa992919062001b03565b509160200191906001019062001a88565b5b50905062001aca919062001b8a565b5090565b81548183558181151162001afe5760020281600202836000526020600020918201910162001afd919062001bbb565b5b505050565b828054600181600116156101000203166002900490600052602060002090601f016020900481019282601f1062001b4657805160ff191683800117855562001b77565b8280016001018555821562001b77579182015b8281111562001b7657825182559160200191906001019062001b59565b5b50905062001b86919062001c03565b5090565b62001bb891905b8082111562001bb4576000818162001baa919062001c2b565b5060010162001b91565b5090565b90565b62001c0091905b8082111562001bfc576000808201600062001bde919062001c2b565b6001820160006101000a81549060ff02191690555060020162001bc2565b5090565b90565b62001c2891905b8082111562001c2457600081600090555060010162001c0a565b5090565b90565b50805460018160011615610100020316600290046000825580601f1062001c53575062001c74565b601f01602090049060005260206000209081019062001c73919062001c03565b5b50565b6118d18062001c876000396000f300606060405260043610610107576000357c0100000000000000000000000000000000000000000000000000000000900463ffffffff168063081812fc1461010957806308e9daa51461016c578063095ea7b31461020857806323b872dd1461024a57806327c527c5146102ab5780632c18db3e146102d457806342842e0e146102f75780634f558e79146103585780635001497b1461039357806355367f38146103bc5780636352211e146103df57806370a08231146104425780638da5cb5b1461048f578063a22cb465146104e4578063b88d4fde14610528578063d73d56bb146105cc578063e985e9c5146105f5578063f2fde38b14610665578063f71d96cb1461069e575b005b341561011457600080fd5b61012a6004808035906020019091905050610764565b604051808273ffffffffffffffffffffffffffffffffffffffff1673ffffffffffffffffffffffffffffffffffffffff16815260200191505060405180910390f35b341561017757600080fd5b61018d60048080359060200190919050506107a1565b6040518080602001828103825283818151815260200191508051906020019080838360005b838110156101cd5780820151818401526020810190506101b2565b50505050905090810190601f1680156101fa5780820380516001836020036101000a031916815260200191505b509250505060405180910390f35b341561021357600080fd5b610248600480803573ffffffffffffffffffffffffffffffffffffffff1690602001909190803590602001909190505061085d565b005b341561025557600080fd5b6102a9600480803573ffffffffffffffffffffffffffffffffffffffff1690602001909190803573ffffffffffffffffffffffffffffffffffffffff16906020019091908035906020019091905050610a23565b005b34156102b657600080fd5b6102be610a5d565b6040518082815260200191505060405180910390f35b34156102df57600080fd5b6102f56004808035906020019091905050610a64565b005b341561030257600080fd5b610356600480803573ffffffffffffffffffffffffffffffffffffffff1690602001909190803573ffffffffffffffffffffffffffffffffffffffff16906020019091908035906020019091905050610aca565b005b341561036357600080fd5b6103796004808035906020019091905050610b02565b604051808215151515815260200191505060405180910390f35b341561039e57600080fd5b6103a6610b73565b6040518082815260200191505060405180910390f35b34156103c757600080fd5b6103dd6004808035906020019091905050610b79565b005b34156103ea57600080fd5b6104006004808035906020019091905050610bdf565b604051808273ffffffffffffffffffffffffffffffffffffffff1673ffffffffffffffffffffffffffffffffffffffff16815260200191505060405180910390f35b341561044d57600080fd5b610479600480803573ffffffffffffffffffffffffffffffffffffffff16906020019091905050610c5c565b6040518082815260200191505060405180910390f35b341561049a57600080fd5b6104a2610ce0565b604051808273ffffffffffffffffffffffffffffffffffffffff1673ffffffffffffffffffffffffffffffffffffffff16815260200191505060405180910390f35b34156104ef57600080fd5b610526600480803573ffffffffffffffffffffffffffffffffffffffff169060200190919080351515906020019091905050610d06565b005b341561053357600080fd5b6105ca600480803573ffffffffffffffffffffffffffffffffffffffff1690602001909190803573ffffffffffffffffffffffffffffffffffffffff1690602001909190803590602001909190803590602001908201803590602001908080601f01602080910402602001604051908101604052809392919081815260200183838082843782019150505050505091905050610e42565b005b34156105d757600080fd5b6105df610e6d565b6040518082815260200191505060405180910390f35b341561060057600080fd5b61064b600480803573ffffffffffffffffffffffffffffffffffffffff1690602001909190803573ffffffffffffffffffffffffffffffffffffffff16906020019091905050610e73565b604051808215151515815260200191505060405180910390f35b341561067057600080fd5b61069c600480803573ffffffffffffffffffffffffffffffffffffffff16906020019091905050610f07565b005b34156106a957600080fd5b6106bf600480803590602001909190505061105f565b60405180806020018360ff1660ff1681526020018281038252848181546001816001161561010002031660029004815260200191508054600181600116156101000203166002900480156107545780601f1061072957610100808354040283529160200191610754565b820191906000526020600020905b81548152906001019060200180831161073757829003601f168201915b5050935050505060405180910390f35b60006001600083815260200190815260200160002060009054906101000a900473ffffffffffffffffffffffffffffffffffffffff169050919050565b6005818154811015156107b057fe5b90600052602060002090016000915090508054600181600116156101000203166002900480601f0160208091040260200160405190810160405280929190818152602001828054600181600116156101000203166002900480156108555780601f1061082a57610100808354040283529160200191610855565b820191906000526020600020905b81548152906001019060200180831161083857829003601f168201915b505050505081565b600061086882610bdf565b90508073ffffffffffffffffffffffffffffffffffffffff168373ffffffffffffffffffffffffffffffffffffffff16141515156108a557600080fd5b8073ffffffffffffffffffffffffffffffffffffffff163373ffffffffffffffffffffffffffffffffffffffff1614806108e557506108e48133610e73565b5b15156108f057600080fd5b600073ffffffffffffffffffffffffffffffffffffffff1661091183610764565b73ffffffffffffffffffffffffffffffffffffffff161415806109615750600073ffffffffffffffffffffffffffffffffffffffff168373ffffffffffffffffffffffffffffffffffffffff1614155b15610a1e57826001600084815260200190815260200160002060006101000a81548173ffffffffffffffffffffffffffffffffffffffff021916908373ffffffffffffffffffffffffffffffffffffffff1602179055508273ffffffffffffffffffffffffffffffffffffffff168173ffffffffffffffffffffffffffffffffffffffff167f8c5be1e5ebec7d5bd14f71427d1e84f3dd0314c0f7b2291e5b200ac8c7c3b925846040518082815260200191505060405180910390a35b505050565b80610a2e338261109e565b1515610a3957600080fd5b610a5784848460206040519081016040528060008152506000611133565b50505050565b620f424081565b600460009054906101000a900473ffffffffffffffffffffffffffffffffffffffff1673ffffffffffffffffffffffffffffffffffffffff163373ffffffffffffffffffffffffffffffffffffffff16141515610ac057600080fd5b8060108190555050565b80610ad5338261109e565b1515610ae057600080fd5b610afc8484846020604051908101604052806000815250610e42565b50505050565b60008060008084815260200190815260200160002060009054906101000a900473ffffffffffffffffffffffffffffffffffffffff169050600073ffffffffffffffffffffffffffffffffffffffff168173ffffffffffffffffffffffffffffffffffffffff161415915050919050565b60115481565b600460009054906101000a900473ffffffffffffffffffffffffffffffffffffffff1673ffffffffffffffffffffffffffffffffffffffff163373ffffffffffffffffffffffffffffffffffffffff16141515610bd557600080fd5b8060118190555050565b60008060008084815260200190815260200160002060009054906101000a900473ffffffffffffffffffffffffffffffffffffffff169050600073ffffffffffffffffffffffffffffffffffffffff168173ffffffffffffffffffffffffffffffffffffffff1614151515610c5357600080fd5b80915050919050565b60008073ffffffffffffffffffffffffffffffffffffffff168273ffffffffffffffffffffffffffffffffffffffff1614151515610c9957600080fd5b600260008373ffffffffffffffffffffffffffffffffffffffff1673ffffffffffffffffffffffffffffffffffffffff168152602001908152602001600020549050919050565b600460009054906101000a900473ffffffffffffffffffffffffffffffffffffffff1681565b3373ffffffffffffffffffffffffffffffffffffffff168273ffffffffffffffffffffffffffffffffffffffff1614151515610d4157600080fd5b80600360003373ffffffffffffffffffffffffffffffffffffffff1673ffffffffffffffffffffffffffffffffffffffff16815260200190815260200160002060008473ffffffffffffffffffffffffffffffffffffffff1673ffffffffffffffffffffffffffffffffffffffff16815260200190815260200160002060006101000a81548160ff0219169083151502179055508173ffffffffffffffffffffffffffffffffffffffff163373ffffffffffffffffffffffffffffffffffffffff167f17307eab39ab6107e8899845ad3d59bd9653f200f220920489ca2b5937696c3183604051808215151515815260200191505060405180910390a35050565b81610e4d338261109e565b1515610e5857600080fd5b610e66858585856001611133565b5050505050565b60105481565b6000600360008473ffffffffffffffffffffffffffffffffffffffff1673ffffffffffffffffffffffffffffffffffffffff16815260200190815260200160002060008373ffffffffffffffffffffffffffffffffffffffff1673ffffffffffffffffffffffffffffffffffffffff16815260200190815260200160002060009054906101000a900460ff16905092915050565b600460009054906101000a900473ffffffffffffffffffffffffffffffffffffffff1673ffffffffffffffffffffffffffffffffffffffff163373ffffffffffffffffffffffffffffffffffffffff16141515610f6357600080fd5b600073ffffffffffffffffffffffffffffffffffffffff168173ffffffffffffffffffffffffffffffffffffffff1614151515610f9f57600080fd5b8073ffffffffffffffffffffffffffffffffffffffff16600460009054906101000a900473ffffffffffffffffffffffffffffffffffffffff1673ffffffffffffffffffffffffffffffffffffffff167f8be0079c531659141344cd1fd0a4f28419497f9722a3daafe3b4186f6b6457e060405160405180910390a380600460006101000a81548173ffffffffffffffffffffffffffffffffffffffff021916908373ffffffffffffffffffffffffffffffffffffffff16021790555050565b60068181548110151561106e57fe5b906000526020600020906002020160009150905080600001908060010160009054906101000a900460ff16905082565b6000806110aa83610bdf565b90508073ffffffffffffffffffffffffffffffffffffffff168473ffffffffffffffffffffffffffffffffffffffff16148061111957508373ffffffffffffffffffffffffffffffffffffffff1661110184610764565b73ffffffffffffffffffffffffffffffffffffffff16145b8061112a57506111298185610e73565b5b91505092915050565b600073ffffffffffffffffffffffffffffffffffffffff168573ffffffffffffffffffffffffffffffffffffffff161415151561116f57600080fd5b600073ffffffffffffffffffffffffffffffffffffffff168473ffffffffffffffffffffffffffffffffffffffff16141515156111ab57600080fd5b6111b483610bdf565b73ffffffffffffffffffffffffffffffffffffffff168473ffffffffffffffffffffffffffffffffffffffff16141515156111ee57600080fd5b6111f88584611296565b61120285846113ff565b61120c848461152d565b801561122a5761121e85858585611685565b151561122957600080fd5b5b8373ffffffffffffffffffffffffffffffffffffffff168573ffffffffffffffffffffffffffffffffffffffff167fddf252ad1be2c89b69c2b068fc378daa952ba7f163c4a11628f55a4df523b3ef856040518082815260200191505060405180910390a35050505050565b8173ffffffffffffffffffffffffffffffffffffffff166112b682610bdf565b73ffffffffffffffffffffffffffffffffffffffff161415156112d857600080fd5b600073ffffffffffffffffffffffffffffffffffffffff166001600083815260200190815260200160002060009054906101000a900473ffffffffffffffffffffffffffffffffffffffff1673ffffffffffffffffffffffffffffffffffffffff161415156113fb5760006001600083815260200190815260200160002060006101000a81548173ffffffffffffffffffffffffffffffffffffffff021916908373ffffffffffffffffffffffffffffffffffffffff160217905550600073ffffffffffffffffffffffffffffffffffffffff168273ffffffffffffffffffffffffffffffffffffffff167f8c5be1e5ebec7d5bd14f71427d1e84f3dd0314c0f7b2291e5b200ac8c7c3b925836040518082815260200191505060405180910390a35b5050565b8173ffffffffffffffffffffffffffffffffffffffff1661141f82610bdf565b73ffffffffffffffffffffffffffffffffffffffff1614151561144157600080fd5b6114946001600260008573ffffffffffffffffffffffffffffffffffffffff1673ffffffffffffffffffffffffffffffffffffffff1681526020019081526020016000205461185b90919063ffffffff16565b600260008473ffffffffffffffffffffffffffffffffffffffff1673ffffffffffffffffffffffffffffffffffffffff16815260200190815260200160002081905550600080600083815260200190815260200160002060006101000a81548173ffffffffffffffffffffffffffffffffffffffff021916908373ffffffffffffffffffffffffffffffffffffffff1602179055505050565b600073ffffffffffffffffffffffffffffffffffffffff1660008083815260200190815260200160002060009054906101000a900473ffffffffffffffffffffffffffffffffffffffff1673ffffffffffffffffffffffffffffffffffffffff1614151561159a57600080fd5b8160008083815260200190815260200160002060006101000a81548173ffffffffffffffffffffffffffffffffffffffff021916908373ffffffffffffffffffffffffffffffffffffffff16021790555061163e6001600260008573ffffffffffffffffffffffffffffffffffffffff1673ffffffffffffffffffffffffffffffffffffffff1681526020019081526020016000205461187490919063ffffffff16565b600260008473ffffffffffffffffffffffffffffffffffffffff1673ffffffffffffffffffffffffffffffffffffffff168152602001908152602001600020819055505050565b6000806116a78573ffffffffffffffffffffffffffffffffffffffff16611892565b15156116b65760019150611852565b8473ffffffffffffffffffffffffffffffffffffffff1663f0b9e5ba8786866000604051602001526040518463ffffffff167c0100000000000000000000000000000000000000000000000000000000028152600401808473ffffffffffffffffffffffffffffffffffffffff1673ffffffffffffffffffffffffffffffffffffffff16815260200183815260200180602001828103825283818151815260200191508051906020019080838360005b83811015611781578082015181840152602081019050611766565b50505050905090810190601f1680156117ae5780820380516001836020036101000a031916815260200191505b50945050505050602060405180830381600087803b15156117ce57600080fd5b6102c65a03f115156117df57600080fd5b50505060405180519050905063f0b9e5ba7c0100000000000000000000000000000000000000000000000000000000027bffffffffffffffffffffffffffffffffffffffffffffffffffffffff1916817bffffffffffffffffffffffffffffffffffffffffffffffffffffffff19161491505b50949350505050565b600082821115151561186957fe5b818303905092915050565b600080828401905083811015151561188857fe5b8091505092915050565b600080823b9050600081119150509190505600a165627a7a723058207e7d58a9b4c13bc31e96e6620ed629b113d27ddb25194e7293d5bcd3ddec6fe90029",
  "source": "pragma solidity ^0.4.19;\n\nimport \"./StrikersFactory.sol\";\n\ncontract StrikersSale is StrikersFactory {\n  uint public ethPriceUSD;\n  uint public packPriceUSD;\n\n  uint packsSold;\n\n  struct Pack {\n    uint cardIds;\n  }\n\n  function StrikersSale(uint _ethPriceUSD, uint _packPriceUSD) public {\n    ethPriceUSD = _ethPriceUSD;\n    packPriceUSD = _packPriceUSD;\n  }\n\n  function setEthPriceUSD(uint _ethPriceUSD) public onlyOwner {\n    ethPriceUSD = _ethPriceUSD;\n  }\n\n  function setPackPriceUSD(uint _packPriceUSD) public onlyOwner {\n    packPriceUSD = _packPriceUSD;\n  }\n\n  /*decide which pack is purchased by the hash of the block hash,\n  the sender, and a per-sender nonce, modulo the number of packs left.\n  Then give them the pack at that index, move the last pack to that index,\n  and then decrement the total number of packs. Makes it much harder\n  to influence which pack you get, since previously it was just a timing attack.\n  Now they also have to influence the block hash as well as deal with other users\n  re-shuffling the array every time a purchase is made. Basically impossible\n  in a short time frame imo*/\n  function() external payable {\n\n  }\n}\n",
  "sourcePath": "/Users/GiaSet/Desktop/Projects/cryptostrikers/contracts/StrikersSale.sol",
  "compiler": {
    "name": "solc",
    "version": "0.4.19+commit.c4cbbb05.Emscripten.clang"
  },
  "schemaVersion": "2.0.0",
  "updatedAt": "2018-03-23T18:54:44.489Z"
}