{
  "contractName": "StrikersSale",
  "abi": [
    {
      "constant": true,
      "inputs": [
        {
          "name": "_tokenId",
          "type": "uint256"
        }
      ],
      "name": "getApproved",
      "outputs": [
        {
          "name": "",
          "type": "address"
        }
      ],
      "payable": false,
      "stateMutability": "view",
      "type": "function"
    },
    {
      "constant": true,
      "inputs": [
        {
          "name": "",
          "type": "uint256"
        }
      ],
      "name": "countries",
      "outputs": [
        {
          "name": "",
          "type": "string"
        }
      ],
      "payable": false,
      "stateMutability": "view",
      "type": "function"
    },
    {
      "constant": false,
      "inputs": [
        {
          "name": "_to",
          "type": "address"
        },
        {
          "name": "_tokenId",
          "type": "uint256"
        }
      ],
      "name": "approve",
      "outputs": [],
      "payable": false,
      "stateMutability": "nonpayable",
      "type": "function"
    },
    {
      "constant": false,
      "inputs": [
        {
          "name": "_from",
          "type": "address"
        },
        {
          "name": "_to",
          "type": "address"
        },
        {
          "name": "_tokenId",
          "type": "uint256"
        }
      ],
      "name": "transferFrom",
      "outputs": [],
      "payable": false,
      "stateMutability": "nonpayable",
      "type": "function"
    },
    {
      "constant": true,
      "inputs": [],
      "name": "PACK_SIZE",
      "outputs": [
        {
          "name": "",
          "type": "uint8"
        }
      ],
      "payable": false,
      "stateMutability": "view",
      "type": "function"
    },
    {
      "constant": false,
      "inputs": [
        {
          "name": "_from",
          "type": "address"
        },
        {
          "name": "_to",
          "type": "address"
        },
        {
          "name": "_tokenId",
          "type": "uint256"
        }
      ],
      "name": "safeTransferFrom",
      "outputs": [],
      "payable": false,
      "stateMutability": "nonpayable",
      "type": "function"
    },
    {
      "constant": true,
      "inputs": [
        {
          "name": "_tokenId",
          "type": "uint256"
        }
      ],
      "name": "exists",
      "outputs": [
        {
          "name": "",
          "type": "bool"
        }
      ],
      "payable": false,
      "stateMutability": "view",
      "type": "function"
    },
    {
      "constant": true,
      "inputs": [],
      "name": "packPriceUSD",
      "outputs": [
        {
          "name": "",
          "type": "uint256"
        }
      ],
      "payable": false,
      "stateMutability": "view",
      "type": "function"
    },
    {
      "constant": true,
      "inputs": [
        {
          "name": "",
          "type": "uint8"
        }
      ],
      "name": "runNumberToRunSize",
      "outputs": [
        {
          "name": "",
          "type": "uint32"
        }
      ],
      "payable": false,
      "stateMutability": "view",
      "type": "function"
    },
    {
      "constant": true,
      "inputs": [
        {
          "name": "_tokenId",
          "type": "uint256"
        }
      ],
      "name": "ownerOf",
      "outputs": [
        {
          "name": "",
          "type": "address"
        }
      ],
      "payable": false,
      "stateMutability": "view",
      "type": "function"
    },
    {
      "constant": true,
      "inputs": [],
      "name": "currentRunNumber",
      "outputs": [
        {
          "name": "",
          "type": "uint8"
        }
      ],
      "payable": false,
      "stateMutability": "view",
      "type": "function"
    },
    {
      "constant": true,
      "inputs": [
        {
          "name": "_owner",
          "type": "address"
        }
      ],
      "name": "balanceOf",
      "outputs": [
        {
          "name": "",
          "type": "uint256"
        }
      ],
      "payable": false,
      "stateMutability": "view",
      "type": "function"
    },
    {
      "constant": true,
      "inputs": [],
      "name": "packsMinted",
      "outputs": [
        {
          "name": "",
          "type": "uint32"
        }
      ],
      "payable": false,
      "stateMutability": "view",
      "type": "function"
    },
    {
      "constant": true,
      "inputs": [],
      "name": "owner",
      "outputs": [
        {
          "name": "",
          "type": "address"
        }
      ],
      "payable": false,
      "stateMutability": "view",
      "type": "function"
    },
    {
      "constant": true,
      "inputs": [
        {
          "name": "",
          "type": "uint256"
        }
      ],
      "name": "cards",
      "outputs": [
        {
          "name": "mintTime",
          "type": "uint64"
        },
        {
          "name": "mintNumber",
          "type": "uint16"
        },
        {
          "name": "playerId",
          "type": "uint8"
        },
        {
          "name": "seriesId",
          "type": "uint8"
        },
        {
          "name": "runId",
          "type": "uint8"
        }
      ],
      "payable": false,
      "stateMutability": "view",
      "type": "function"
    },
    {
      "constant": false,
      "inputs": [
        {
          "name": "_shuffledPacks",
          "type": "uint32[]"
        }
      ],
      "name": "loadShuffledPacks",
      "outputs": [],
      "payable": false,
      "stateMutability": "nonpayable",
      "type": "function"
    },
    {
      "constant": false,
      "inputs": [
        {
          "name": "_to",
          "type": "address"
        },
        {
          "name": "_approved",
          "type": "bool"
        }
      ],
      "name": "setApprovalForAll",
      "outputs": [],
      "payable": false,
      "stateMutability": "nonpayable",
      "type": "function"
    },
    {
      "constant": false,
      "inputs": [
        {
          "name": "_from",
          "type": "address"
        },
        {
          "name": "_to",
          "type": "address"
        },
        {
          "name": "_tokenId",
          "type": "uint256"
        },
        {
          "name": "_data",
          "type": "bytes"
        }
      ],
      "name": "safeTransferFrom",
      "outputs": [],
      "payable": false,
      "stateMutability": "nonpayable",
      "type": "function"
    },
    {
      "constant": true,
      "inputs": [],
      "name": "PACKS_MINTED_LIMIT",
      "outputs": [
        {
          "name": "",
          "type": "uint32"
        }
      ],
      "payable": false,
      "stateMutability": "view",
      "type": "function"
    },
    {
      "constant": true,
      "inputs": [],
      "name": "ethPriceUSD",
      "outputs": [
        {
          "name": "",
          "type": "uint256"
        }
      ],
      "payable": false,
      "stateMutability": "view",
      "type": "function"
    },
    {
      "constant": true,
      "inputs": [
        {
          "name": "_owner",
          "type": "address"
        },
        {
          "name": "_operator",
          "type": "address"
        }
      ],
      "name": "isApprovedForAll",
      "outputs": [
        {
          "name": "",
          "type": "bool"
        }
      ],
      "payable": false,
      "stateMutability": "view",
      "type": "function"
    },
    {
      "constant": false,
      "inputs": [
        {
          "name": "newOwner",
          "type": "address"
        }
      ],
      "name": "transferOwnership",
      "outputs": [],
      "payable": false,
      "stateMutability": "nonpayable",
      "type": "function"
    },
    {
      "constant": true,
      "inputs": [
        {
          "name": "",
          "type": "uint256"
        }
      ],
      "name": "shuffledPacks",
      "outputs": [
        {
          "name": "",
          "type": "uint32"
        }
      ],
      "payable": false,
      "stateMutability": "view",
      "type": "function"
    },
    {
      "constant": true,
      "inputs": [
        {
          "name": "",
          "type": "uint256"
        }
      ],
      "name": "players",
      "outputs": [
        {
          "name": "fullName",
          "type": "string"
        },
        {
          "name": "countryId",
          "type": "uint8"
        }
      ],
      "payable": false,
      "stateMutability": "view",
      "type": "function"
    },
    {
      "inputs": [
        {
          "name": "_ethPriceUSD",
          "type": "uint256"
        },
        {
          "name": "_packPriceUSD",
          "type": "uint256"
        }
      ],
      "payable": false,
      "stateMutability": "nonpayable",
      "type": "constructor"
    },
    {
      "payable": true,
      "stateMutability": "payable",
      "type": "fallback"
    },
    {
      "anonymous": false,
      "inputs": [
        {
          "indexed": true,
          "name": "_buyer",
          "type": "address"
        },
        {
          "indexed": false,
          "name": "_pack",
          "type": "uint256[]"
        }
      ],
      "name": "PackBought",
      "type": "event"
    },
    {
      "anonymous": false,
      "inputs": [
        {
          "indexed": false,
          "name": "runNumber",
          "type": "uint8"
        }
      ],
      "name": "RunMinted",
      "type": "event"
    },
    {
      "anonymous": false,
      "inputs": [
        {
          "indexed": false,
          "name": "cardId",
          "type": "uint256"
        }
      ],
      "name": "CardMinted",
      "type": "event"
    },
    {
      "anonymous": false,
      "inputs": [
        {
          "indexed": true,
          "name": "previousOwner",
          "type": "address"
        },
        {
          "indexed": true,
          "name": "newOwner",
          "type": "address"
        }
      ],
      "name": "OwnershipTransferred",
      "type": "event"
    },
    {
      "anonymous": false,
      "inputs": [
        {
          "indexed": true,
          "name": "_from",
          "type": "address"
        },
        {
          "indexed": true,
          "name": "_to",
          "type": "address"
        },
        {
          "indexed": false,
          "name": "_tokenId",
          "type": "uint256"
        }
      ],
      "name": "Transfer",
      "type": "event"
    },
    {
      "anonymous": false,
      "inputs": [
        {
          "indexed": true,
          "name": "_owner",
          "type": "address"
        },
        {
          "indexed": true,
          "name": "_approved",
          "type": "address"
        },
        {
          "indexed": false,
          "name": "_tokenId",
          "type": "uint256"
        }
      ],
      "name": "Approval",
      "type": "event"
    },
    {
      "anonymous": false,
      "inputs": [
        {
          "indexed": true,
          "name": "_owner",
          "type": "address"
        },
        {
          "indexed": true,
          "name": "_operator",
          "type": "address"
        },
        {
          "indexed": false,
          "name": "_approved",
          "type": "bool"
        }
      ],
      "name": "ApprovalForAll",
      "type": "event"
    },
    {
      "constant": false,
      "inputs": [
        {
          "name": "_ethPriceUSD",
          "type": "uint256"
        }
      ],
      "name": "setEthPriceUSD",
      "outputs": [],
      "payable": false,
      "stateMutability": "nonpayable",
      "type": "function"
    },
    {
      "constant": false,
      "inputs": [
        {
          "name": "_packPriceUSD",
          "type": "uint256"
        }
      ],
      "name": "setPackPriceUSD",
      "outputs": [],
      "payable": false,
      "stateMutability": "nonpayable",
      "type": "function"
    },
    {
      "constant": false,
      "inputs": [],
      "name": "buyPack",
      "outputs": [],
      "payable": false,
      "stateMutability": "nonpayable",
      "type": "function"
    }
  ],
  "bytecode": "0x6060604052610400604051908101604052806040805190810160405280600981526020017f417267656e74696e61000000000000000000000000000000000000000000000081525081526020016040805190810160405280600981526020017f4175737472616c6961000000000000000000000000000000000000000000000081525081526020016040805190810160405280600781526020017f42656c6769756d0000000000000000000000000000000000000000000000000081525081526020016040805190810160405280600681526020017f4272617a696c000000000000000000000000000000000000000000000000000081525081526020016040805190810160405280600881526020017f436f6c6f6d62696100000000000000000000000000000000000000000000000081525081526020016040805190810160405280600a81526020017f436f73746120526963610000000000000000000000000000000000000000000081525081526020016040805190810160405280600781526020017f43726f617469610000000000000000000000000000000000000000000000000081525081526020016040805190810160405280600781526020017f44656e6d61726b0000000000000000000000000000000000000000000000000081525081526020016040805190810160405280600581526020017f456779707400000000000000000000000000000000000000000000000000000081525081526020016040805190810160405280600781526020017f456e676c616e640000000000000000000000000000000000000000000000000081525081526020016040805190810160405280600681526020017f4672616e6365000000000000000000000000000000000000000000000000000081525081526020016040805190810160405280600781526020017f4765726d616e790000000000000000000000000000000000000000000000000081525081526020016040805190810160405280600781526020017f4963656c616e640000000000000000000000000000000000000000000000000081525081526020016040805190810160405280600481526020017f4972616e0000000000000000000000000000000000000000000000000000000081525081526020016040805190810160405280600581526020017f4a6170616e00000000000000000000000000000000000000000000000000000081525081526020016040805190810160405280600681526020017f4d657869636f000000000000000000000000000000000000000000000000000081525081526020016040805190810160405280600781526020017f4d6f726f63636f0000000000000000000000000000000000000000000000000081525081526020016040805190810160405280600781526020017f4e6967657269610000000000000000000000000000000000000000000000000081525081526020016040805190810160405280600681526020017f50616e616d61000000000000000000000000000000000000000000000000000081525081526020016040805190810160405280600481526020017f506572750000000000000000000000000000000000000000000000000000000081525081526020016040805190810160405280600681526020017f506f6c616e64000000000000000000000000000000000000000000000000000081525081526020016040805190810160405280600881526020017f506f72747567616c00000000000000000000000000000000000000000000000081525081526020016040805190810160405280600681526020017f527573736961000000000000000000000000000000000000000000000000000081525081526020016040805190810160405280600c81526020017f536175646920417261626961000000000000000000000000000000000000000081525081526020016040805190810160405280600781526020017f53656e6567616c0000000000000000000000000000000000000000000000000081525081526020016040805190810160405280600681526020017f536572626961000000000000000000000000000000000000000000000000000081525081526020016040805190810160405280600b81526020017f536f757468204b6f72656100000000000000000000000000000000000000000081525081526020016040805190810160405280600581526020017f537061696e00000000000000000000000000000000000000000000000000000081525081526020016040805190810160405280600681526020017f53776564656e000000000000000000000000000000000000000000000000000081525081526020016040805190810160405280600b81526020017f537769747a65726c616e6400000000000000000000000000000000000000000081525081526020016040805190810160405280600781526020017f54756e697369610000000000000000000000000000000000000000000000000081525081526020016040805190810160405280600781526020017f557275677561790000000000000000000000000000000000000000000000000081525081525060059060206200078192919062001a67565b5034156200078e57600080fd5b604051604080620041708339810160405280805190602001909190805190602001909190505033600460006101000a81548173ffffffffffffffffffffffffffffffffffffffff021916908373ffffffffffffffffffffffffffffffffffffffff160217905550600680548060010182816200080b919062001ace565b9160005260206000209060020201600060408051908101604052806040805190810160405280600c81526020017f4c696f6e656c204d6573736900000000000000000000000000000000000000008152508152602001600060ff16815250909190915060008201518160000190805190602001906200088c92919062001b03565b5060208201518160010160006101000a81548160ff021916908360ff16021790555050505060068054806001018281620008c7919062001ace565b9160005260206000209060020201600060408051908101604052806040805190810160405280600e81526020017f53657267696f204167c3bc65726f0000000000000000000000000000000000008152508152602001600060ff16815250909190915060008201518160000190805190602001906200094892919062001b03565b5060208201518160010160006101000a81548160ff021916908360ff1602179055505050506006805480600101828162000983919062001ace565b9160005260206000209060020201600060408051908101604052806040805190810160405280600b81526020017f4564656e2048617a6172640000000000000000000000000000000000000000008152508152602001600260ff168152509091909150600082015181600001908051906020019062000a0492919062001b03565b5060208201518160010160006101000a81548160ff021916908360ff1602179055505050506006805480600101828162000a3f919062001ace565b9160005260206000209060020201600060408051908101604052806040805190810160405280600f81526020017f4b6576696e20446520427275796e6500000000000000000000000000000000008152508152602001600260ff168152509091909150600082015181600001908051906020019062000ac092919062001b03565b5060208201518160010160006101000a81548160ff021916908360ff1602179055505050506006805480600101828162000afb919062001ace565b9160005260206000209060020201600060408051908101604052806040805190810160405280601081526020017f5468696261757420436f7572746f6973000000000000000000000000000000008152508152602001600260ff168152509091909150600082015181600001908051906020019062000b7c92919062001b03565b5060208201518160010160006101000a81548160ff021916908360ff1602179055505050506006805480600101828162000bb7919062001ace565b9160005260206000209060020201600060408051908101604052806040805190810160405280600681526020017f4e65796d617200000000000000000000000000000000000000000000000000008152508152602001600360ff168152509091909150600082015181600001908051906020019062000c3892919062001b03565b5060208201518160010160006101000a81548160ff021916908360ff1602179055505050506006805480600101828162000c73919062001ace565b9160005260206000209060020201600060408051908101604052806040805190810160405280600a81526020017f44616e6920416c766573000000000000000000000000000000000000000000008152508152602001600360ff168152509091909150600082015181600001908051906020019062000cf492919062001b03565b5060208201518160010160006101000a81548160ff021916908360ff1602179055505050506006805480600101828162000d2f919062001ace565b9160005260206000209060020201600060408051908101604052806040805190810160405280600781526020017f4d617263656c6f000000000000000000000000000000000000000000000000008152508152602001600360ff168152509091909150600082015181600001908051906020019062000db092919062001b03565b5060208201518160010160006101000a81548160ff021916908360ff1602179055505050506006805480600101828162000deb919062001ace565b9160005260206000209060020201600060408051908101604052806040805190810160405280600c81526020017f4c756b61204d6f647269c48700000000000000000000000000000000000000008152508152602001600660ff168152509091909150600082015181600001908051906020019062000e6c92919062001b03565b5060208201518160010160006101000a81548160ff021916908360ff1602179055505050506006805480600101828162000ea7919062001ace565b9160005260206000209060020201600060408051908101604052806040805190810160405280601181526020017f43687269737469616e204572696b73656e0000000000000000000000000000008152508152602001600760ff168152509091909150600082015181600001908051906020019062000f2892919062001b03565b5060208201518160010160006101000a81548160ff021916908360ff1602179055505050506006805480600101828162000f63919062001ace565b9160005260206000209060020201600060408051908101604052806040805190810160405280600d81526020017f4d6f68616d65642053616c6168000000000000000000000000000000000000008152508152602001600860ff168152509091909150600082015181600001908051906020019062000fe492919062001b03565b5060208201518160010160006101000a81548160ff021916908360ff160217905550505050600680548060010182816200101f919062001ace565b9160005260206000209060020201600060408051908101604052806040805190810160405280600a81526020017f4861727279204b616e65000000000000000000000000000000000000000000008152508152602001600960ff1681525090919091506000820151816000019080519060200190620010a092919062001b03565b5060208201518160010160006101000a81548160ff021916908360ff16021790555050505060068054806001018281620010db919062001ace565b9160005260206000209060020201600060408051908101604052806040805190810160405280600a81526020017f5061756c20506f676261000000000000000000000000000000000000000000008152508152602001600a60ff16815250909190915060008201518160000190805190602001906200115c92919062001b03565b5060208201518160010160006101000a81548160ff021916908360ff1602179055505050506006805480600101828162001197919062001ace565b9160005260206000209060020201600060408051908101604052806040805190810160405280600d81526020017f4e27476f6c6f204b616e74c3a9000000000000000000000000000000000000008152508152602001600a60ff16815250909190915060008201518160000190805190602001906200121892919062001b03565b5060208201518160010160006101000a81548160ff021916908360ff1602179055505050506006805480600101828162001253919062001ace565b9160005260206000209060020201600060408051908101604052806040805190810160405280601181526020017f416e746f696e6520477269657a6d616e6e0000000000000000000000000000008152508152602001600a60ff1681525090919091506000820151816000019080519060200190620012d492919062001b03565b5060208201518160010160006101000a81548160ff021916908360ff160217905550505050600680548060010182816200130f919062001ace565b9160005260206000209060020201600060408051908101604052806040805190810160405280600a81526020017f546f6e69204b726f6f73000000000000000000000000000000000000000000008152508152602001600b60ff16815250909190915060008201518160000190805190602001906200139092919062001b03565b5060208201518160010160006101000a81548160ff021916908360ff16021790555050505060068054806001018281620013cb919062001ace565b9160005260206000209060020201600060408051908101604052806040805190810160405280600c81526020017f4d6174732048756d6d656c7300000000000000000000000000000000000000008152508152602001600b60ff16815250909190915060008201518160000190805190602001906200144c92919062001b03565b5060208201518160010160006101000a81548160ff021916908360ff1602179055505050506006805480600101828162001487919062001ace565b9160005260206000209060020201600060408051908101604052806040805190810160405280600b81526020017f4d6573757420c3967a696c0000000000000000000000000000000000000000008152508152602001600b60ff16815250909190915060008201518160000190805190602001906200150892919062001b03565b5060208201518160010160006101000a81548160ff021916908360ff1602179055505050506006805480600101828162001543919062001ace565b9160005260206000209060020201600060408051908101604052806040805190810160405280601281526020017f526f62657274204c6577616e646f77736b6900000000000000000000000000008152508152602001601460ff1681525090919091506000820151816000019080519060200190620015c492919062001b03565b5060208201518160010160006101000a81548160ff021916908360ff16021790555050505060068054806001018281620015ff919062001ace565b9160005260206000209060020201600060408051908101604052806040805190810160405280601181526020017f437269737469616e6f20526f6e616c646f0000000000000000000000000000008152508152602001601560ff16815250909190915060008201518160000190805190602001906200168092919062001b03565b5060208201518160010160006101000a81548160ff021916908360ff16021790555050505060068054806001018281620016bb919062001ace565b9160005260206000209060020201600060408051908101604052806040805190810160405280600681526020017f54686961676f00000000000000000000000000000000000000000000000000008152508152602001601b60ff16815250909190915060008201518160000190805190602001906200173c92919062001b03565b5060208201518160010160006101000a81548160ff021916908360ff1602179055505050506006805480600101828162001777919062001ace565b9160005260206000209060020201600060408051908101604052806040805190810160405280600c81526020017f53657267696f2052616d6f7300000000000000000000000000000000000000008152508152602001601b60ff1681525090919091506000820151816000019080519060200190620017f892919062001b03565b5060208201518160010160006101000a81548160ff021916908360ff1602179055505050506006805480600101828162001833919062001ace565b9160005260206000209060020201600060408051908101604052806040805190810160405280600c81526020017f44617669642044652047656100000000000000000000000000000000000000008152508152602001601b60ff1681525090919091506000820151816000019080519060200190620018b492919062001b03565b5060208201518160010160006101000a81548160ff021916908360ff16021790555050505060068054806001018281620018ef919062001ace565b9160005260206000209060020201600060408051908101604052806040805190810160405280600e81526020017f4564696e736f6e20436176616e690000000000000000000000000000000000008152508152602001601f60ff16815250909190915060008201518160000190805190602001906200197092919062001b03565b5060208201518160010160006101000a81548160ff021916908360ff16021790555050505060068054806001018281620019ab919062001ace565b9160005260206000209060020201600060408051908101604052806040805190810160405280600c81526020017f4c756973205375c3a172657a00000000000000000000000000000000000000008152508152602001601f60ff168152509091909150600082015181600001908051906020019062001a2c92919062001b03565b5060208201518160010160006101000a81548160ff021916908360ff16021790555050505081600b8190555080600c81905550505062001c77565b82805482825590600052602060002090810192821562001abb579160200282015b8281111562001aba57825182908051906020019062001aa992919062001b03565b509160200191906001019062001a88565b5b50905062001aca919062001b8a565b5090565b81548183558181151162001afe5760020281600202836000526020600020918201910162001afd919062001bbb565b5b505050565b828054600181600116156101000203166002900490600052602060002090601f016020900481019282601f1062001b4657805160ff191683800117855562001b77565b8280016001018555821562001b77579182015b8281111562001b7657825182559160200191906001019062001b59565b5b50905062001b86919062001c03565b5090565b62001bb891905b8082111562001bb4576000818162001baa919062001c2b565b5060010162001b91565b5090565b90565b62001c0091905b8082111562001bfc576000808201600062001bde919062001c2b565b6001820160006101000a81549060ff02191690555060020162001bc2565b5090565b90565b62001c2891905b8082111562001c2457600081600090555060010162001c0a565b5090565b90565b50805460018160011615610100020316600290046000825580601f1062001c53575062001c74565b601f01602090049060005260206000209081019062001c73919062001c03565b5b50565b6124e98062001c876000396000f30060606040526004361061015f576000357c0100000000000000000000000000000000000000000000000000000000900463ffffffff168063081812fc1461016957806308e9daa5146101cc578063095ea7b31461026857806323b872dd146102aa5780632c18db3e1461030b5780633d0c9cc41461032e57806342842e0e1461035d5780634f558e79146103be5780635001497b146103f957806352cd47581461042257806355367f38146104685780636352211e1461048b5780636efe22b1146104ee57806370a082311461051d57806371851cfa1461056a5780638da5cb5b1461059f5780638dc10768146105f4578063909ddd6b14610675578063a22cb465146106a3578063b88d4fde146106e7578063c37b9bcd1461078b578063c95443e9146107a0578063d73d56bb146107d5578063e985e9c5146107fe578063f2fde38b1461086e578063f6eaa49c146108a7578063f71d96cb146108ea575b6101676109b0565b005b341561017457600080fd5b61018a6004808035906020019091905050610b28565b604051808273ffffffffffffffffffffffffffffffffffffffff1673ffffffffffffffffffffffffffffffffffffffff16815260200191505060405180910390f35b34156101d757600080fd5b6101ed6004808035906020019091905050610b65565b6040518080602001828103825283818151815260200191508051906020019080838360005b8381101561022d578082015181840152602081019050610212565b50505050905090810190601f16801561025a5780820380516001836020036101000a031916815260200191505b509250505060405180910390f35b341561027357600080fd5b6102a8600480803573ffffffffffffffffffffffffffffffffffffffff16906020019091908035906020019091905050610c21565b005b34156102b557600080fd5b610309600480803573ffffffffffffffffffffffffffffffffffffffff1690602001909190803573ffffffffffffffffffffffffffffffffffffffff16906020019091908035906020019091905050610de7565b005b341561031657600080fd5b61032c6004808035906020019091905050610e21565b005b341561033957600080fd5b610341610e87565b604051808260ff1660ff16815260200191505060405180910390f35b341561036857600080fd5b6103bc600480803573ffffffffffffffffffffffffffffffffffffffff1690602001909190803573ffffffffffffffffffffffffffffffffffffffff16906020019091908035906020019091905050610e8c565b005b34156103c957600080fd5b6103df6004808035906020019091905050610ec4565b604051808215151515815260200191505060405180910390f35b341561040457600080fd5b61040c610f35565b6040518082815260200191505060405180910390f35b341561042d57600080fd5b610446600480803560ff16906020019091905050610f3b565b604051808263ffffffff1663ffffffff16815260200191505060405180910390f35b341561047357600080fd5b6104896004808035906020019091905050610f5e565b005b341561049657600080fd5b6104ac6004808035906020019091905050610fc4565b604051808273ffffffffffffffffffffffffffffffffffffffff1673ffffffffffffffffffffffffffffffffffffffff16815260200191505060405180910390f35b34156104f957600080fd5b610501611041565b604051808260ff1660ff16815260200191505060405180910390f35b341561052857600080fd5b610554600480803573ffffffffffffffffffffffffffffffffffffffff16906020019091905050611054565b6040518082815260200191505060405180910390f35b341561057557600080fd5b61057d6110d8565b604051808263ffffffff1663ffffffff16815260200191505060405180910390f35b34156105aa57600080fd5b6105b26110ee565b604051808273ffffffffffffffffffffffffffffffffffffffff1673ffffffffffffffffffffffffffffffffffffffff16815260200191505060405180910390f35b34156105ff57600080fd5b6106156004808035906020019091905050611114565b604051808667ffffffffffffffff1667ffffffffffffffff1681526020018561ffff1661ffff1681526020018460ff1660ff1681526020018360ff1660ff1681526020018260ff1660ff1681526020019550505050505060405180910390f35b341561068057600080fd5b6106a16004808035906020019082018035906020019190919290505061119f565b005b34156106ae57600080fd5b6106e5600480803573ffffffffffffffffffffffffffffffffffffffff169060200190919080351515906020019091905050611332565b005b34156106f257600080fd5b610789600480803573ffffffffffffffffffffffffffffffffffffffff1690602001909190803573ffffffffffffffffffffffffffffffffffffffff1690602001909190803590602001909190803590602001908201803590602001908080601f0160208091040260200160405190810160405280939291908181526020018383808284378201915050505050509190505061146e565b005b341561079657600080fd5b61079e6109b0565b005b34156107ab57600080fd5b6107b3611499565b604051808263ffffffff1663ffffffff16815260200191505060405180910390f35b34156107e057600080fd5b6107e86114a0565b6040518082815260200191505060405180910390f35b341561080957600080fd5b610854600480803573ffffffffffffffffffffffffffffffffffffffff1690602001909190803573ffffffffffffffffffffffffffffffffffffffff169060200190919050506114a6565b604051808215151515815260200191505060405180910390f35b341561087957600080fd5b6108a5600480803573ffffffffffffffffffffffffffffffffffffffff1690602001909190505061153a565b005b34156108b257600080fd5b6108c86004808035906020019091905050611692565b604051808263ffffffff1663ffffffff16815260200191505060405180910390f35b34156108f557600080fd5b61090b60048080359060200190919050506116cb565b60405180806020018360ff1660ff1681526020018281038252848181546001816001161561010002031660029004815260200191508054600181600116156101000203166002900480156109a05780601f10610975576101008083540402835291602001916109a0565b820191906000526020600020905b81548152906001019060200180831161098357829003601f168201915b5050935050505060405180910390f35b6000806109bb612263565b6000806000806000600a805490501115156109d557600080fd5b6109df600061170a565b965060ff9550600460ff166040518059106109f75750595b90808252806020026020018201604052509450600193505b600460ff168460ff16111515610a90576008840260200392508560ff168360ff168863ffffffff169060020a9004169150610a5e826001600860049054906101000a900460ff166000336117f7565b905080856001860360ff16815181101515610a7557fe5b90602001906020020181815250508380600101945050610a0f565b3373ffffffffffffffffffffffffffffffffffffffff167f1947a407fc738aebf73559f82e681274d64efa878ea80c083c5c081d4e9833a0866040518080602001828103825283818151815260200191508051906020019060200280838360005b83811015610b0c578082015181840152602081019050610af1565b505050509050019250505060405180910390a250505050505050565b60006001600083815260200190815260200160002060009054906101000a900473ffffffffffffffffffffffffffffffffffffffff169050919050565b600581815481101515610b7457fe5b90600052602060002090016000915090508054600181600116156101000203166002900480601f016020809104026020016040519081016040528092919081815260200182805460018160011615610100020316600290048015610c195780601f10610bee57610100808354040283529160200191610c19565b820191906000526020600020905b815481529060010190602001808311610bfc57829003601f168201915b505050505081565b6000610c2c82610fc4565b90508073ffffffffffffffffffffffffffffffffffffffff168373ffffffffffffffffffffffffffffffffffffffff1614151515610c6957600080fd5b8073ffffffffffffffffffffffffffffffffffffffff163373ffffffffffffffffffffffffffffffffffffffff161480610ca95750610ca881336114a6565b5b1515610cb457600080fd5b600073ffffffffffffffffffffffffffffffffffffffff16610cd583610b28565b73ffffffffffffffffffffffffffffffffffffffff16141580610d255750600073ffffffffffffffffffffffffffffffffffffffff168373ffffffffffffffffffffffffffffffffffffffff1614155b15610de257826001600084815260200190815260200160002060006101000a81548173ffffffffffffffffffffffffffffffffffffffff021916908373ffffffffffffffffffffffffffffffffffffffff1602179055508273ffffffffffffffffffffffffffffffffffffffff168173ffffffffffffffffffffffffffffffffffffffff167f8c5be1e5ebec7d5bd14f71427d1e84f3dd0314c0f7b2291e5b200ac8c7c3b925846040518082815260200191505060405180910390a35b505050565b80610df23382611a5c565b1515610dfd57600080fd5b610e1b84848460206040519081016040528060008152506000611af1565b50505050565b600460009054906101000a900473ffffffffffffffffffffffffffffffffffffffff1673ffffffffffffffffffffffffffffffffffffffff163373ffffffffffffffffffffffffffffffffffffffff16141515610e7d57600080fd5b80600b8190555050565b600481565b80610e973382611a5c565b1515610ea257600080fd5b610ebe848484602060405190810160405280600081525061146e565b50505050565b60008060008084815260200190815260200160002060009054906101000a900473ffffffffffffffffffffffffffffffffffffffff169050600073ffffffffffffffffffffffffffffffffffffffff168173ffffffffffffffffffffffffffffffffffffffff161415915050919050565b600c5481565b60096020528060005260406000206000915054906101000a900463ffffffff1681565b600460009054906101000a900473ffffffffffffffffffffffffffffffffffffffff1673ffffffffffffffffffffffffffffffffffffffff163373ffffffffffffffffffffffffffffffffffffffff16141515610fba57600080fd5b80600c8190555050565b60008060008084815260200190815260200160002060009054906101000a900473ffffffffffffffffffffffffffffffffffffffff169050600073ffffffffffffffffffffffffffffffffffffffff168173ffffffffffffffffffffffffffffffffffffffff161415151561103857600080fd5b80915050919050565b600860049054906101000a900460ff1681565b60008073ffffffffffffffffffffffffffffffffffffffff168273ffffffffffffffffffffffffffffffffffffffff161415151561109157600080fd5b600260008373ffffffffffffffffffffffffffffffffffffffff1673ffffffffffffffffffffffffffffffffffffffff168152602001908152602001600020549050919050565b600860009054906101000a900463ffffffff1681565b600460009054906101000a900473ffffffffffffffffffffffffffffffffffffffff1681565b60078181548110151561112357fe5b90600052602060002090016000915090508060000160009054906101000a900467ffffffffffffffff16908060000160089054906101000a900461ffff169080600001600a9054906101000a900460ff169080600001600b9054906101000a900460ff169080600001600c9054906101000a900460ff16905085565b600080600460009054906101000a900473ffffffffffffffffffffffffffffffffffffffff1673ffffffffffffffffffffffffffffffffffffffff163373ffffffffffffffffffffffffffffffffffffffff161415156111fe57600080fd5b600460ff168484905002915062030d4063ffffffff1682600860009054906101000a900463ffffffff160163ffffffff161115151561123c57600080fd5b81600860008282829054906101000a900463ffffffff160192506101000a81548163ffffffff021916908363ffffffff1602179055506008600481819054906101000a900460ff168092919060010191906101000a81548160ff021916908360ff160217905550905081600960008360ff1660ff16815260200190815260200160002060006101000a81548163ffffffff021916908363ffffffff1602179055508383600a91906112ee929190612277565b507ffd275880897a3b64a65ac76c0409859979076a71f3e0f5799b7e2036d2c28e5c81604051808260ff1660ff16815260200191505060405180910390a150505050565b3373ffffffffffffffffffffffffffffffffffffffff168273ffffffffffffffffffffffffffffffffffffffff161415151561136d57600080fd5b80600360003373ffffffffffffffffffffffffffffffffffffffff1673ffffffffffffffffffffffffffffffffffffffff16815260200190815260200160002060008473ffffffffffffffffffffffffffffffffffffffff1673ffffffffffffffffffffffffffffffffffffffff16815260200190815260200160002060006101000a81548160ff0219169083151502179055508173ffffffffffffffffffffffffffffffffffffffff163373ffffffffffffffffffffffffffffffffffffffff167f17307eab39ab6107e8899845ad3d59bd9653f200f220920489ca2b5937696c3183604051808215151515815260200191505060405180910390a35050565b816114793382611a5c565b151561148457600080fd5b611492858585856001611af1565b5050505050565b62030d4081565b600b5481565b6000600360008473ffffffffffffffffffffffffffffffffffffffff1673ffffffffffffffffffffffffffffffffffffffff16815260200190815260200160002060008373ffffffffffffffffffffffffffffffffffffffff1673ffffffffffffffffffffffffffffffffffffffff16815260200190815260200160002060009054906101000a900460ff16905092915050565b600460009054906101000a900473ffffffffffffffffffffffffffffffffffffffff1673ffffffffffffffffffffffffffffffffffffffff163373ffffffffffffffffffffffffffffffffffffffff1614151561159657600080fd5b600073ffffffffffffffffffffffffffffffffffffffff168173ffffffffffffffffffffffffffffffffffffffff16141515156115d257600080fd5b8073ffffffffffffffffffffffffffffffffffffffff16600460009054906101000a900473ffffffffffffffffffffffffffffffffffffffff1673ffffffffffffffffffffffffffffffffffffffff167f8be0079c531659141344cd1fd0a4f28419497f9722a3daafe3b4186f6b6457e060405160405180910390a380600460006101000a81548173ffffffffffffffffffffffffffffffffffffffff021916908373ffffffffffffffffffffffffffffffffffffffff16021790555050565b600a818154811015156116a157fe5b9060005260206000209060089182820401919006600402915054906101000a900463ffffffff1681565b6006818154811015156116da57fe5b906000526020600020906002020160009150905080600001908060010160009054906101000a900460ff16905082565b60008060006001600a8054905003915081841115151561172957600080fd5b600a8481548110151561173857fe5b90600052602060002090600891828204019190066004029054906101000a900463ffffffff169050600a8281548110151561176f57fe5b90600052602060002090600891828204019190066004029054906101000a900463ffffffff16600a858154811015156117a457fe5b90600052602060002090600891828204019190066004026101000a81548163ffffffff021916908363ffffffff160217905550600a8054809190600190036117ec919061232d565b508092505050919050565b6000611801612367565b600060a0604051908101604052804267ffffffffffffffff1681526020018661ffff1681526020018960ff1681526020018860ff1681526020018760ff16815250915060016007805480600101828161185a91906123ae565b9160005260206000209001600085909190915060008201518160000160006101000a81548167ffffffffffffffff021916908367ffffffffffffffff16021790555060208201518160000160086101000a81548161ffff021916908361ffff160217905550604082015181600001600a6101000a81548160ff021916908360ff160217905550606082015181600001600b6101000a81548160ff021916908360ff160217905550608082015181600001600c6101000a81548160ff021916908360ff16021790555050500390507f220b53d3db6f7694ac363d118b95866fad85b0e6b18b77cbe36eb044996994a0816040518082815260200191505060405180910390a18360008083815260200190815260200160002060006101000a81548173ffffffffffffffffffffffffffffffffffffffff021916908373ffffffffffffffffffffffffffffffffffffffff160217905550600260008573ffffffffffffffffffffffffffffffffffffffff1673ffffffffffffffffffffffffffffffffffffffff168152602001908152602001600020600081548092919060010191905055508373ffffffffffffffffffffffffffffffffffffffff1660007fddf252ad1be2c89b69c2b068fc378daa952ba7f163c4a11628f55a4df523b3ef836040518082815260200191505060405180910390a3809250505095945050505050565b600080611a6883610fc4565b90508073ffffffffffffffffffffffffffffffffffffffff168473ffffffffffffffffffffffffffffffffffffffff161480611ad757508373ffffffffffffffffffffffffffffffffffffffff16611abf84610b28565b73ffffffffffffffffffffffffffffffffffffffff16145b80611ae85750611ae781856114a6565b5b91505092915050565b600073ffffffffffffffffffffffffffffffffffffffff168573ffffffffffffffffffffffffffffffffffffffff1614151515611b2d57600080fd5b600073ffffffffffffffffffffffffffffffffffffffff168473ffffffffffffffffffffffffffffffffffffffff1614151515611b6957600080fd5b611b7283610fc4565b73ffffffffffffffffffffffffffffffffffffffff168473ffffffffffffffffffffffffffffffffffffffff1614151515611bac57600080fd5b611bb68584611c54565b611bc08584611dbd565b611bca8484611eeb565b8015611be857611bdc85858585612043565b1515611be757600080fd5b5b8373ffffffffffffffffffffffffffffffffffffffff168573ffffffffffffffffffffffffffffffffffffffff167fddf252ad1be2c89b69c2b068fc378daa952ba7f163c4a11628f55a4df523b3ef856040518082815260200191505060405180910390a35050505050565b8173ffffffffffffffffffffffffffffffffffffffff16611c7482610fc4565b73ffffffffffffffffffffffffffffffffffffffff16141515611c9657600080fd5b600073ffffffffffffffffffffffffffffffffffffffff166001600083815260200190815260200160002060009054906101000a900473ffffffffffffffffffffffffffffffffffffffff1673ffffffffffffffffffffffffffffffffffffffff16141515611db95760006001600083815260200190815260200160002060006101000a81548173ffffffffffffffffffffffffffffffffffffffff021916908373ffffffffffffffffffffffffffffffffffffffff160217905550600073ffffffffffffffffffffffffffffffffffffffff168273ffffffffffffffffffffffffffffffffffffffff167f8c5be1e5ebec7d5bd14f71427d1e84f3dd0314c0f7b2291e5b200ac8c7c3b925836040518082815260200191505060405180910390a35b5050565b8173ffffffffffffffffffffffffffffffffffffffff16611ddd82610fc4565b73ffffffffffffffffffffffffffffffffffffffff16141515611dff57600080fd5b611e526001600260008573ffffffffffffffffffffffffffffffffffffffff1673ffffffffffffffffffffffffffffffffffffffff1681526020019081526020016000205461221990919063ffffffff16565b600260008473ffffffffffffffffffffffffffffffffffffffff1673ffffffffffffffffffffffffffffffffffffffff16815260200190815260200160002081905550600080600083815260200190815260200160002060006101000a81548173ffffffffffffffffffffffffffffffffffffffff021916908373ffffffffffffffffffffffffffffffffffffffff1602179055505050565b600073ffffffffffffffffffffffffffffffffffffffff1660008083815260200190815260200160002060009054906101000a900473ffffffffffffffffffffffffffffffffffffffff1673ffffffffffffffffffffffffffffffffffffffff16141515611f5857600080fd5b8160008083815260200190815260200160002060006101000a81548173ffffffffffffffffffffffffffffffffffffffff021916908373ffffffffffffffffffffffffffffffffffffffff160217905550611ffc6001600260008573ffffffffffffffffffffffffffffffffffffffff1673ffffffffffffffffffffffffffffffffffffffff1681526020019081526020016000205461223290919063ffffffff16565b600260008473ffffffffffffffffffffffffffffffffffffffff1673ffffffffffffffffffffffffffffffffffffffff168152602001908152602001600020819055505050565b6000806120658573ffffffffffffffffffffffffffffffffffffffff16612250565b15156120745760019150612210565b8473ffffffffffffffffffffffffffffffffffffffff1663f0b9e5ba8786866000604051602001526040518463ffffffff167c0100000000000000000000000000000000000000000000000000000000028152600401808473ffffffffffffffffffffffffffffffffffffffff1673ffffffffffffffffffffffffffffffffffffffff16815260200183815260200180602001828103825283818151815260200191508051906020019080838360005b8381101561213f578082015181840152602081019050612124565b50505050905090810190601f16801561216c5780820380516001836020036101000a031916815260200191505b50945050505050602060405180830381600087803b151561218c57600080fd5b6102c65a03f1151561219d57600080fd5b50505060405180519050905063f0b9e5ba7c0100000000000000000000000000000000000000000000000000000000027bffffffffffffffffffffffffffffffffffffffffffffffffffffffff1916817bffffffffffffffffffffffffffffffffffffffffffffffffffffffff19161491505b50949350505050565b600082821115151561222757fe5b818303905092915050565b600080828401905083811015151561224657fe5b8091505092915050565b600080823b905060008111915050919050565b602060405190810160405280600081525090565b8280548282559060005260206000209060070160089004810192821561231c5791602002820160005b838211156122ea57833563ffffffff1683826101000a81548163ffffffff021916908363ffffffff16021790555092602001926004016020816003010492830192600103026122a0565b801561231a5782816101000a81549063ffffffff02191690556004016020816003010492830192600103026122ea565b505b50905061232991906123da565b5090565b815481835581811511612362576007016008900481600701600890048360005260206000209182019101612361919061240d565b5b505050565b60a060405190810160405280600067ffffffffffffffff168152602001600061ffff168152602001600060ff168152602001600060ff168152602001600060ff1681525090565b8154818355818115116123d5578183600052602060002091820191016123d49190612432565b5b505050565b61240a91905b8082111561240657600081816101000a81549063ffffffff0219169055506001016123e0565b5090565b90565b61242f91905b8082111561242b576000816000905550600101612413565b5090565b90565b6124ba91905b808211156124b657600080820160006101000a81549067ffffffffffffffff02191690556000820160086101000a81549061ffff021916905560008201600a6101000a81549060ff021916905560008201600b6101000a81549060ff021916905560008201600c6101000a81549060ff021916905550600101612438565b5090565b905600a165627a7a72305820948cad013b27810301399ab4a4aa25ca43d16b57642010c94d89db1abbbf6d990029",
  "source": "pragma solidity ^0.4.19;\n\nimport \"./StrikersPackFactory.sol\";\n\ncontract StrikersSale is StrikersPackFactory {\n  event PackBought(address indexed _buyer, uint256[] _pack);\n\n  uint public ethPriceUSD;\n  uint public packPriceUSD;\n\n  uint packsSold;\n\n  function StrikersSale(uint _ethPriceUSD, uint _packPriceUSD) public {\n    ethPriceUSD = _ethPriceUSD;\n    packPriceUSD = _packPriceUSD;\n  }\n\n  function setEthPriceUSD(uint _ethPriceUSD) public onlyOwner {\n    ethPriceUSD = _ethPriceUSD;\n  }\n\n  function setPackPriceUSD(uint _packPriceUSD) public onlyOwner {\n    packPriceUSD = _packPriceUSD;\n  }\n\n  function() external payable {\n    buyPack();\n  }\n\n  function buyPack() public {\n    // require proper ether amount\n    require(shuffledPacks.length > 0);\n    uint32 pack = _removePackAtIndex(0);\n    uint8 mask = 255;\n    uint256[] memory newCards = new uint256[](PACK_SIZE);\n    for (uint8 i = 1; i <= PACK_SIZE; i++) {\n      uint8 shift = 32 - (i * 8);\n      uint8 playerId = uint8((pack >> shift) & mask);\n      uint256 cardId = _mintCard(playerId, 1, currentRunNumber, 0, msg.sender);\n      newCards[i-1] = cardId;\n    }\n    PackBought(msg.sender, newCards);\n  }\n\n  function _removePackAtIndex(uint256 _index) internal returns (uint32) {\n    uint256 lastIndex = shuffledPacks.length - 1;\n    require(_index <= lastIndex);\n    uint32 pack = shuffledPacks[_index];\n    shuffledPacks[_index] = shuffledPacks[lastIndex];\n    shuffledPacks.length--;\n    return pack;\n  }\n}\n",
  "sourcePath": "/Users/GiaSet/Desktop/Projects/cryptostrikers/contracts/StrikersSale.sol",
  "compiler": {
    "name": "solc",
    "version": "0.4.19+commit.c4cbbb05.Emscripten.clang"
  },
  "schemaVersion": "2.0.0",
  "updatedAt": "2018-03-30T18:52:07.328Z"
}