{
  "contractName": "PackSale",
  "abi": [
    {
      "constant": true,
      "inputs": [],
      "name": "packPriceUSD",
      "outputs": [
        {
          "name": "",
          "type": "uint256"
        }
      ],
      "payable": false,
      "stateMutability": "view",
      "type": "function"
    },
    {
      "constant": true,
      "inputs": [],
      "name": "owner",
      "outputs": [
        {
          "name": "",
          "type": "address"
        }
      ],
      "payable": false,
      "stateMutability": "view",
      "type": "function"
    },
    {
      "constant": true,
      "inputs": [],
      "name": "ethPriceUSD",
      "outputs": [
        {
          "name": "",
          "type": "uint256"
        }
      ],
      "payable": false,
      "stateMutability": "view",
      "type": "function"
    },
    {
      "constant": false,
      "inputs": [
        {
          "name": "newOwner",
          "type": "address"
        }
      ],
      "name": "transferOwnership",
      "outputs": [],
      "payable": false,
      "stateMutability": "nonpayable",
      "type": "function"
    },
    {
      "inputs": [
        {
          "name": "_ethPriceUSD",
          "type": "uint256"
        },
        {
          "name": "_packPriceUSD",
          "type": "uint256"
        }
      ],
      "payable": false,
      "stateMutability": "nonpayable",
      "type": "constructor"
    },
    {
      "anonymous": false,
      "inputs": [
        {
          "indexed": true,
          "name": "previousOwner",
          "type": "address"
        },
        {
          "indexed": true,
          "name": "newOwner",
          "type": "address"
        }
      ],
      "name": "OwnershipTransferred",
      "type": "event"
    },
    {
      "constant": false,
      "inputs": [
        {
          "name": "_ethPriceUSD",
          "type": "uint256"
        }
      ],
      "name": "setEthPriceUSD",
      "outputs": [],
      "payable": false,
      "stateMutability": "nonpayable",
      "type": "function"
    },
    {
      "constant": false,
      "inputs": [
        {
          "name": "_packPriceUSD",
          "type": "uint256"
        }
      ],
      "name": "setPackPriceUSD",
      "outputs": [],
      "payable": false,
      "stateMutability": "nonpayable",
      "type": "function"
    }
  ],
  "bytecode": "0x6060604052341561000f57600080fd5b6040516040806104b283398101604052808051906020019091908051906020019091905050336000806101000a81548173ffffffffffffffffffffffffffffffffffffffff021916908373ffffffffffffffffffffffffffffffffffffffff1602179055508160018190555080600281905550505061041f806100936000396000f300606060405260043610610078576000357c0100000000000000000000000000000000000000000000000000000000900463ffffffff1680632c18db3e1461007d5780635001497b146100a057806355367f38146100c95780638da5cb5b146100ec578063d73d56bb14610141578063f2fde38b1461016a575b600080fd5b341561008857600080fd5b61009e60048080359060200190919050506101a3565b005b34156100ab57600080fd5b6100b3610208565b6040518082815260200191505060405180910390f35b34156100d457600080fd5b6100ea600480803590602001909190505061020e565b005b34156100f757600080fd5b6100ff610273565b604051808273ffffffffffffffffffffffffffffffffffffffff1673ffffffffffffffffffffffffffffffffffffffff16815260200191505060405180910390f35b341561014c57600080fd5b610154610298565b6040518082815260200191505060405180910390f35b341561017557600080fd5b6101a1600480803573ffffffffffffffffffffffffffffffffffffffff1690602001909190505061029e565b005b6000809054906101000a900473ffffffffffffffffffffffffffffffffffffffff1673ffffffffffffffffffffffffffffffffffffffff163373ffffffffffffffffffffffffffffffffffffffff161415156101fe57600080fd5b8060018190555050565b60025481565b6000809054906101000a900473ffffffffffffffffffffffffffffffffffffffff1673ffffffffffffffffffffffffffffffffffffffff163373ffffffffffffffffffffffffffffffffffffffff1614151561026957600080fd5b8060028190555050565b6000809054906101000a900473ffffffffffffffffffffffffffffffffffffffff1681565b60015481565b6000809054906101000a900473ffffffffffffffffffffffffffffffffffffffff1673ffffffffffffffffffffffffffffffffffffffff163373ffffffffffffffffffffffffffffffffffffffff161415156102f957600080fd5b600073ffffffffffffffffffffffffffffffffffffffff168173ffffffffffffffffffffffffffffffffffffffff161415151561033557600080fd5b8073ffffffffffffffffffffffffffffffffffffffff166000809054906101000a900473ffffffffffffffffffffffffffffffffffffffff1673ffffffffffffffffffffffffffffffffffffffff167f8be0079c531659141344cd1fd0a4f28419497f9722a3daafe3b4186f6b6457e060405160405180910390a3806000806101000a81548173ffffffffffffffffffffffffffffffffffffffff021916908373ffffffffffffffffffffffffffffffffffffffff160217905550505600a165627a7a72305820fa1fcf7a14e363f795e1ac1699fa2289866283ada9734cd280865b1ac77cf2450029",
  "source": "pragma solidity ^0.4.19;\n\nimport 'zeppelin-solidity/contracts/ownership/Ownable.sol';\n\ncontract PackSale is Ownable {\n\n  uint public ethPriceUSD;\n  uint public packPriceUSD;\n\n  function PackSale(uint _ethPriceUSD, uint _packPriceUSD) public {\n    ethPriceUSD = _ethPriceUSD;\n    packPriceUSD = _packPriceUSD;\n  }\n\n  function setEthPriceUSD(uint _ethPriceUSD) public onlyOwner {\n    ethPriceUSD = _ethPriceUSD;\n  }\n\n  function setPackPriceUSD(uint _packPriceUSD) public onlyOwner {\n    packPriceUSD = _packPriceUSD;\n  }\n}\n",
  "sourcePath": "/Users/GiaSet/Desktop/Projects/cryptostrikers/contracts/PackSale.sol",
  "compiler": {
    "name": "solc",
    "version": "0.4.19+commit.c4cbbb05.Emscripten.clang"
  },
  "schemaVersion": "2.0.0",
  "updatedAt": "2018-03-19T02:39:39.956Z"
}