{
  "contractName": "StrikersBase",
  "abi": [
    {
      "constant": true,
      "inputs": [
        {
          "name": "_tokenId",
          "type": "uint256"
        }
      ],
      "name": "getApproved",
      "outputs": [
        {
          "name": "",
          "type": "address"
        }
      ],
      "payable": false,
      "stateMutability": "view",
      "type": "function"
    },
    {
      "constant": true,
      "inputs": [
        {
          "name": "",
          "type": "uint256"
        }
      ],
      "name": "countries",
      "outputs": [
        {
          "name": "",
          "type": "string"
        }
      ],
      "payable": false,
      "stateMutability": "view",
      "type": "function"
    },
    {
      "constant": false,
      "inputs": [
        {
          "name": "_to",
          "type": "address"
        },
        {
          "name": "_tokenId",
          "type": "uint256"
        }
      ],
      "name": "approve",
      "outputs": [],
      "payable": false,
      "stateMutability": "nonpayable",
      "type": "function"
    },
    {
      "constant": false,
      "inputs": [
        {
          "name": "_from",
          "type": "address"
        },
        {
          "name": "_to",
          "type": "address"
        },
        {
          "name": "_tokenId",
          "type": "uint256"
        }
      ],
      "name": "transferFrom",
      "outputs": [],
      "payable": false,
      "stateMutability": "nonpayable",
      "type": "function"
    },
    {
      "constant": false,
      "inputs": [
        {
          "name": "_from",
          "type": "address"
        },
        {
          "name": "_to",
          "type": "address"
        },
        {
          "name": "_tokenId",
          "type": "uint256"
        }
      ],
      "name": "safeTransferFrom",
      "outputs": [],
      "payable": false,
      "stateMutability": "nonpayable",
      "type": "function"
    },
    {
      "constant": true,
      "inputs": [
        {
          "name": "_tokenId",
          "type": "uint256"
        }
      ],
      "name": "exists",
      "outputs": [
        {
          "name": "",
          "type": "bool"
        }
      ],
      "payable": false,
      "stateMutability": "view",
      "type": "function"
    },
    {
      "constant": true,
      "inputs": [
        {
          "name": "_tokenId",
          "type": "uint256"
        }
      ],
      "name": "ownerOf",
      "outputs": [
        {
          "name": "",
          "type": "address"
        }
      ],
      "payable": false,
      "stateMutability": "view",
      "type": "function"
    },
    {
      "constant": true,
      "inputs": [
        {
          "name": "_owner",
          "type": "address"
        }
      ],
      "name": "balanceOf",
      "outputs": [
        {
          "name": "",
          "type": "uint256"
        }
      ],
      "payable": false,
      "stateMutability": "view",
      "type": "function"
    },
    {
      "constant": true,
      "inputs": [],
      "name": "owner",
      "outputs": [
        {
          "name": "",
          "type": "address"
        }
      ],
      "payable": false,
      "stateMutability": "view",
      "type": "function"
    },
    {
      "constant": false,
      "inputs": [
        {
          "name": "_to",
          "type": "address"
        },
        {
          "name": "_approved",
          "type": "bool"
        }
      ],
      "name": "setApprovalForAll",
      "outputs": [],
      "payable": false,
      "stateMutability": "nonpayable",
      "type": "function"
    },
    {
      "constant": false,
      "inputs": [
        {
          "name": "_from",
          "type": "address"
        },
        {
          "name": "_to",
          "type": "address"
        },
        {
          "name": "_tokenId",
          "type": "uint256"
        },
        {
          "name": "_data",
          "type": "bytes"
        }
      ],
      "name": "safeTransferFrom",
      "outputs": [],
      "payable": false,
      "stateMutability": "nonpayable",
      "type": "function"
    },
    {
      "constant": true,
      "inputs": [
        {
          "name": "_owner",
          "type": "address"
        },
        {
          "name": "_operator",
          "type": "address"
        }
      ],
      "name": "isApprovedForAll",
      "outputs": [
        {
          "name": "",
          "type": "bool"
        }
      ],
      "payable": false,
      "stateMutability": "view",
      "type": "function"
    },
    {
      "constant": false,
      "inputs": [
        {
          "name": "newOwner",
          "type": "address"
        }
      ],
      "name": "transferOwnership",
      "outputs": [],
      "payable": false,
      "stateMutability": "nonpayable",
      "type": "function"
    },
    {
      "constant": true,
      "inputs": [
        {
          "name": "",
          "type": "uint256"
        }
      ],
      "name": "players",
      "outputs": [
        {
          "name": "fullName",
          "type": "string"
        },
        {
          "name": "countryId",
          "type": "uint8"
        }
      ],
      "payable": false,
      "stateMutability": "view",
      "type": "function"
    },
    {
      "anonymous": false,
      "inputs": [
        {
          "indexed": false,
          "name": "cardId",
          "type": "uint256"
        }
      ],
      "name": "CardMinted",
      "type": "event"
    },
    {
      "anonymous": false,
      "inputs": [
        {
          "indexed": true,
          "name": "previousOwner",
          "type": "address"
        },
        {
          "indexed": true,
          "name": "newOwner",
          "type": "address"
        }
      ],
      "name": "OwnershipTransferred",
      "type": "event"
    },
    {
      "anonymous": false,
      "inputs": [
        {
          "indexed": true,
          "name": "_from",
          "type": "address"
        },
        {
          "indexed": true,
          "name": "_to",
          "type": "address"
        },
        {
          "indexed": false,
          "name": "_tokenId",
          "type": "uint256"
        }
      ],
      "name": "Transfer",
      "type": "event"
    },
    {
      "anonymous": false,
      "inputs": [
        {
          "indexed": true,
          "name": "_owner",
          "type": "address"
        },
        {
          "indexed": true,
          "name": "_approved",
          "type": "address"
        },
        {
          "indexed": false,
          "name": "_tokenId",
          "type": "uint256"
        }
      ],
      "name": "Approval",
      "type": "event"
    },
    {
      "anonymous": false,
      "inputs": [
        {
          "indexed": true,
          "name": "_owner",
          "type": "address"
        },
        {
          "indexed": true,
          "name": "_operator",
          "type": "address"
        },
        {
          "indexed": false,
          "name": "_approved",
          "type": "bool"
        }
      ],
      "name": "ApprovalForAll",
      "type": "event"
    }
  ],
  "bytecode": "0x6060604052610400604051908101604052806040805190810160405280600981526020017f417267656e74696e61000000000000000000000000000000000000000000000081525081526020016040805190810160405280600981526020017f4175737472616c6961000000000000000000000000000000000000000000000081525081526020016040805190810160405280600781526020017f42656c6769756d0000000000000000000000000000000000000000000000000081525081526020016040805190810160405280600681526020017f4272617a696c000000000000000000000000000000000000000000000000000081525081526020016040805190810160405280600881526020017f436f6c6f6d62696100000000000000000000000000000000000000000000000081525081526020016040805190810160405280600a81526020017f436f73746120526963610000000000000000000000000000000000000000000081525081526020016040805190810160405280600781526020017f43726f617469610000000000000000000000000000000000000000000000000081525081526020016040805190810160405280600781526020017f44656e6d61726b0000000000000000000000000000000000000000000000000081525081526020016040805190810160405280600581526020017f456779707400000000000000000000000000000000000000000000000000000081525081526020016040805190810160405280600781526020017f456e676c616e640000000000000000000000000000000000000000000000000081525081526020016040805190810160405280600681526020017f4672616e6365000000000000000000000000000000000000000000000000000081525081526020016040805190810160405280600781526020017f4765726d616e790000000000000000000000000000000000000000000000000081525081526020016040805190810160405280600781526020017f4963656c616e640000000000000000000000000000000000000000000000000081525081526020016040805190810160405280600481526020017f4972616e0000000000000000000000000000000000000000000000000000000081525081526020016040805190810160405280600581526020017f4a6170616e00000000000000000000000000000000000000000000000000000081525081526020016040805190810160405280600681526020017f4d657869636f000000000000000000000000000000000000000000000000000081525081526020016040805190810160405280600781526020017f4d6f726f63636f0000000000000000000000000000000000000000000000000081525081526020016040805190810160405280600781526020017f4e6967657269610000000000000000000000000000000000000000000000000081525081526020016040805190810160405280600681526020017f50616e616d61000000000000000000000000000000000000000000000000000081525081526020016040805190810160405280600481526020017f506572750000000000000000000000000000000000000000000000000000000081525081526020016040805190810160405280600681526020017f506f6c616e64000000000000000000000000000000000000000000000000000081525081526020016040805190810160405280600881526020017f506f72747567616c00000000000000000000000000000000000000000000000081525081526020016040805190810160405280600681526020017f527573736961000000000000000000000000000000000000000000000000000081525081526020016040805190810160405280600c81526020017f536175646920417261626961000000000000000000000000000000000000000081525081526020016040805190810160405280600781526020017f53656e6567616c0000000000000000000000000000000000000000000000000081525081526020016040805190810160405280600681526020017f536572626961000000000000000000000000000000000000000000000000000081525081526020016040805190810160405280600b81526020017f536f757468204b6f72656100000000000000000000000000000000000000000081525081526020016040805190810160405280600581526020017f537061696e00000000000000000000000000000000000000000000000000000081525081526020016040805190810160405280600681526020017f53776564656e000000000000000000000000000000000000000000000000000081525081526020016040805190810160405280600b81526020017f537769747a65726c616e6400000000000000000000000000000000000000000081525081526020016040805190810160405280600781526020017f54756e697369610000000000000000000000000000000000000000000000000081525081526020016040805190810160405280600781526020017f557275677561790000000000000000000000000000000000000000000000000081525081525060059060206200078192919062001a25565b5033600460006101000a81548173ffffffffffffffffffffffffffffffffffffffff021916908373ffffffffffffffffffffffffffffffffffffffff16021790555060068054806001018281620007d9919062001a8c565b9160005260206000209060020201600060408051908101604052806040805190810160405280600c81526020017f4c696f6e656c204d6573736900000000000000000000000000000000000000008152508152602001600060ff16815250909190915060008201518160000190805190602001906200085a92919062001ac1565b5060208201518160010160006101000a81548160ff021916908360ff1602179055505050506006805480600101828162000895919062001a8c565b9160005260206000209060020201600060408051908101604052806040805190810160405280600e81526020017f53657267696f204167c3bc65726f0000000000000000000000000000000000008152508152602001600060ff16815250909190915060008201518160000190805190602001906200091692919062001ac1565b5060208201518160010160006101000a81548160ff021916908360ff1602179055505050506006805480600101828162000951919062001a8c565b9160005260206000209060020201600060408051908101604052806040805190810160405280600b81526020017f4564656e2048617a6172640000000000000000000000000000000000000000008152508152602001600260ff1681525090919091506000820151816000019080519060200190620009d292919062001ac1565b5060208201518160010160006101000a81548160ff021916908360ff1602179055505050506006805480600101828162000a0d919062001a8c565b9160005260206000209060020201600060408051908101604052806040805190810160405280600f81526020017f4b6576696e20446520427275796e6500000000000000000000000000000000008152508152602001600260ff168152509091909150600082015181600001908051906020019062000a8e92919062001ac1565b5060208201518160010160006101000a81548160ff021916908360ff1602179055505050506006805480600101828162000ac9919062001a8c565b9160005260206000209060020201600060408051908101604052806040805190810160405280601081526020017f5468696261757420436f7572746f6973000000000000000000000000000000008152508152602001600260ff168152509091909150600082015181600001908051906020019062000b4a92919062001ac1565b5060208201518160010160006101000a81548160ff021916908360ff1602179055505050506006805480600101828162000b85919062001a8c565b9160005260206000209060020201600060408051908101604052806040805190810160405280600681526020017f4e65796d617200000000000000000000000000000000000000000000000000008152508152602001600360ff168152509091909150600082015181600001908051906020019062000c0692919062001ac1565b5060208201518160010160006101000a81548160ff021916908360ff1602179055505050506006805480600101828162000c41919062001a8c565b9160005260206000209060020201600060408051908101604052806040805190810160405280600a81526020017f44616e6920416c766573000000000000000000000000000000000000000000008152508152602001600360ff168152509091909150600082015181600001908051906020019062000cc292919062001ac1565b5060208201518160010160006101000a81548160ff021916908360ff1602179055505050506006805480600101828162000cfd919062001a8c565b9160005260206000209060020201600060408051908101604052806040805190810160405280600781526020017f4d617263656c6f000000000000000000000000000000000000000000000000008152508152602001600360ff168152509091909150600082015181600001908051906020019062000d7e92919062001ac1565b5060208201518160010160006101000a81548160ff021916908360ff1602179055505050506006805480600101828162000db9919062001a8c565b9160005260206000209060020201600060408051908101604052806040805190810160405280600c81526020017f4c756b61204d6f647269c48700000000000000000000000000000000000000008152508152602001600660ff168152509091909150600082015181600001908051906020019062000e3a92919062001ac1565b5060208201518160010160006101000a81548160ff021916908360ff1602179055505050506006805480600101828162000e75919062001a8c565b9160005260206000209060020201600060408051908101604052806040805190810160405280601181526020017f43687269737469616e204572696b73656e0000000000000000000000000000008152508152602001600760ff168152509091909150600082015181600001908051906020019062000ef692919062001ac1565b5060208201518160010160006101000a81548160ff021916908360ff1602179055505050506006805480600101828162000f31919062001a8c565b9160005260206000209060020201600060408051908101604052806040805190810160405280600d81526020017f4d6f68616d65642053616c6168000000000000000000000000000000000000008152508152602001600860ff168152509091909150600082015181600001908051906020019062000fb292919062001ac1565b5060208201518160010160006101000a81548160ff021916908360ff1602179055505050506006805480600101828162000fed919062001a8c565b9160005260206000209060020201600060408051908101604052806040805190810160405280600a81526020017f4861727279204b616e65000000000000000000000000000000000000000000008152508152602001600960ff16815250909190915060008201518160000190805190602001906200106e92919062001ac1565b5060208201518160010160006101000a81548160ff021916908360ff16021790555050505060068054806001018281620010a9919062001a8c565b9160005260206000209060020201600060408051908101604052806040805190810160405280600a81526020017f5061756c20506f676261000000000000000000000000000000000000000000008152508152602001600a60ff16815250909190915060008201518160000190805190602001906200112a92919062001ac1565b5060208201518160010160006101000a81548160ff021916908360ff1602179055505050506006805480600101828162001165919062001a8c565b9160005260206000209060020201600060408051908101604052806040805190810160405280600d81526020017f4e27476f6c6f204b616e74c3a9000000000000000000000000000000000000008152508152602001600a60ff1681525090919091506000820151816000019080519060200190620011e692919062001ac1565b5060208201518160010160006101000a81548160ff021916908360ff1602179055505050506006805480600101828162001221919062001a8c565b9160005260206000209060020201600060408051908101604052806040805190810160405280601181526020017f416e746f696e6520477269657a6d616e6e0000000000000000000000000000008152508152602001600a60ff1681525090919091506000820151816000019080519060200190620012a292919062001ac1565b5060208201518160010160006101000a81548160ff021916908360ff16021790555050505060068054806001018281620012dd919062001a8c565b9160005260206000209060020201600060408051908101604052806040805190810160405280600a81526020017f546f6e69204b726f6f73000000000000000000000000000000000000000000008152508152602001600b60ff16815250909190915060008201518160000190805190602001906200135e92919062001ac1565b5060208201518160010160006101000a81548160ff021916908360ff1602179055505050506006805480600101828162001399919062001a8c565b9160005260206000209060020201600060408051908101604052806040805190810160405280600c81526020017f4d6174732048756d6d656c7300000000000000000000000000000000000000008152508152602001600b60ff16815250909190915060008201518160000190805190602001906200141a92919062001ac1565b5060208201518160010160006101000a81548160ff021916908360ff1602179055505050506006805480600101828162001455919062001a8c565b9160005260206000209060020201600060408051908101604052806040805190810160405280600b81526020017f4d6573757420c3967a696c0000000000000000000000000000000000000000008152508152602001600b60ff1681525090919091506000820151816000019080519060200190620014d692919062001ac1565b5060208201518160010160006101000a81548160ff021916908360ff1602179055505050506006805480600101828162001511919062001a8c565b9160005260206000209060020201600060408051908101604052806040805190810160405280601281526020017f526f62657274204c6577616e646f77736b6900000000000000000000000000008152508152602001601460ff16815250909190915060008201518160000190805190602001906200159292919062001ac1565b5060208201518160010160006101000a81548160ff021916908360ff16021790555050505060068054806001018281620015cd919062001a8c565b9160005260206000209060020201600060408051908101604052806040805190810160405280601181526020017f437269737469616e6f20526f6e616c646f0000000000000000000000000000008152508152602001601560ff16815250909190915060008201518160000190805190602001906200164e92919062001ac1565b5060208201518160010160006101000a81548160ff021916908360ff1602179055505050506006805480600101828162001689919062001a8c565b9160005260206000209060020201600060408051908101604052806040805190810160405280600681526020017f54686961676f00000000000000000000000000000000000000000000000000008152508152602001601b60ff16815250909190915060008201518160000190805190602001906200170a92919062001ac1565b5060208201518160010160006101000a81548160ff021916908360ff1602179055505050506006805480600101828162001745919062001a8c565b9160005260206000209060020201600060408051908101604052806040805190810160405280600c81526020017f53657267696f2052616d6f7300000000000000000000000000000000000000008152508152602001601b60ff1681525090919091506000820151816000019080519060200190620017c692919062001ac1565b5060208201518160010160006101000a81548160ff021916908360ff1602179055505050506006805480600101828162001801919062001a8c565b9160005260206000209060020201600060408051908101604052806040805190810160405280600c81526020017f44617669642044652047656100000000000000000000000000000000000000008152508152602001601b60ff16815250909190915060008201518160000190805190602001906200188292919062001ac1565b5060208201518160010160006101000a81548160ff021916908360ff16021790555050505060068054806001018281620018bd919062001a8c565b9160005260206000209060020201600060408051908101604052806040805190810160405280600e81526020017f4564696e736f6e20436176616e690000000000000000000000000000000000008152508152602001601f60ff16815250909190915060008201518160000190805190602001906200193e92919062001ac1565b5060208201518160010160006101000a81548160ff021916908360ff1602179055505050506006805480600101828162001979919062001a8c565b9160005260206000209060020201600060408051908101604052806040805190810160405280600c81526020017f4c756973205375c3a172657a00000000000000000000000000000000000000008152508152602001601f60ff1681525090919091506000820151816000019080519060200190620019fa92919062001ac1565b5060208201518160010160006101000a81548160ff021916908360ff16021790555050505062001c35565b82805482825590600052602060002090810192821562001a79579160200282015b8281111562001a7857825182908051906020019062001a6792919062001ac1565b509160200191906001019062001a46565b5b50905062001a88919062001b48565b5090565b81548183558181151162001abc5760020281600202836000526020600020918201910162001abb919062001b79565b5b505050565b828054600181600116156101000203166002900490600052602060002090601f016020900481019282601f1062001b0457805160ff191683800117855562001b35565b8280016001018555821562001b35579182015b8281111562001b3457825182559160200191906001019062001b17565b5b50905062001b44919062001bc1565b5090565b62001b7691905b8082111562001b72576000818162001b68919062001be9565b5060010162001b4f565b5090565b90565b62001bbe91905b8082111562001bba576000808201600062001b9c919062001be9565b6001820160006101000a81549060ff02191690555060020162001b80565b5090565b90565b62001be691905b8082111562001be257600081600090555060010162001bc8565b5090565b90565b50805460018160011615610100020316600290046000825580601f1062001c11575062001c32565b601f01602090049060005260206000209081019062001c31919062001bc1565b5b50565b6116fd8062001c456000396000f3006060604052600436106100d0576000357c0100000000000000000000000000000000000000000000000000000000900463ffffffff168063081812fc146100d557806308e9daa514610138578063095ea7b3146101d457806323b872dd1461021657806342842e0e146102775780634f558e79146102d85780636352211e1461031357806370a08231146103765780638da5cb5b146103c3578063a22cb46514610418578063b88d4fde1461045c578063e985e9c514610500578063f2fde38b14610570578063f71d96cb146105a9575b600080fd5b34156100e057600080fd5b6100f6600480803590602001909190505061066f565b604051808273ffffffffffffffffffffffffffffffffffffffff1673ffffffffffffffffffffffffffffffffffffffff16815260200191505060405180910390f35b341561014357600080fd5b61015960048080359060200190919050506106ac565b6040518080602001828103825283818151815260200191508051906020019080838360005b8381101561019957808201518184015260208101905061017e565b50505050905090810190601f1680156101c65780820380516001836020036101000a031916815260200191505b509250505060405180910390f35b34156101df57600080fd5b610214600480803573ffffffffffffffffffffffffffffffffffffffff16906020019091908035906020019091905050610768565b005b341561022157600080fd5b610275600480803573ffffffffffffffffffffffffffffffffffffffff1690602001909190803573ffffffffffffffffffffffffffffffffffffffff1690602001909190803590602001909190505061092e565b005b341561028257600080fd5b6102d6600480803573ffffffffffffffffffffffffffffffffffffffff1690602001909190803573ffffffffffffffffffffffffffffffffffffffff16906020019091908035906020019091905050610968565b005b34156102e357600080fd5b6102f960048080359060200190919050506109a0565b604051808215151515815260200191505060405180910390f35b341561031e57600080fd5b6103346004808035906020019091905050610a11565b604051808273ffffffffffffffffffffffffffffffffffffffff1673ffffffffffffffffffffffffffffffffffffffff16815260200191505060405180910390f35b341561038157600080fd5b6103ad600480803573ffffffffffffffffffffffffffffffffffffffff16906020019091905050610a8e565b6040518082815260200191505060405180910390f35b34156103ce57600080fd5b6103d6610b12565b604051808273ffffffffffffffffffffffffffffffffffffffff1673ffffffffffffffffffffffffffffffffffffffff16815260200191505060405180910390f35b341561042357600080fd5b61045a600480803573ffffffffffffffffffffffffffffffffffffffff169060200190919080351515906020019091905050610b38565b005b341561046757600080fd5b6104fe600480803573ffffffffffffffffffffffffffffffffffffffff1690602001909190803573ffffffffffffffffffffffffffffffffffffffff1690602001909190803590602001909190803590602001908201803590602001908080601f01602080910402602001604051908101604052809392919081815260200183838082843782019150505050505091905050610c74565b005b341561050b57600080fd5b610556600480803573ffffffffffffffffffffffffffffffffffffffff1690602001909190803573ffffffffffffffffffffffffffffffffffffffff16906020019091905050610c9f565b604051808215151515815260200191505060405180910390f35b341561057b57600080fd5b6105a7600480803573ffffffffffffffffffffffffffffffffffffffff16906020019091905050610d33565b005b34156105b457600080fd5b6105ca6004808035906020019091905050610e8b565b60405180806020018360ff1660ff16815260200182810382528481815460018160011615610100020316600290048152602001915080546001816001161561010002031660029004801561065f5780601f106106345761010080835404028352916020019161065f565b820191906000526020600020905b81548152906001019060200180831161064257829003601f168201915b5050935050505060405180910390f35b60006001600083815260200190815260200160002060009054906101000a900473ffffffffffffffffffffffffffffffffffffffff169050919050565b6005818154811015156106bb57fe5b90600052602060002090016000915090508054600181600116156101000203166002900480601f0160208091040260200160405190810160405280929190818152602001828054600181600116156101000203166002900480156107605780601f1061073557610100808354040283529160200191610760565b820191906000526020600020905b81548152906001019060200180831161074357829003601f168201915b505050505081565b600061077382610a11565b90508073ffffffffffffffffffffffffffffffffffffffff168373ffffffffffffffffffffffffffffffffffffffff16141515156107b057600080fd5b8073ffffffffffffffffffffffffffffffffffffffff163373ffffffffffffffffffffffffffffffffffffffff1614806107f057506107ef8133610c9f565b5b15156107fb57600080fd5b600073ffffffffffffffffffffffffffffffffffffffff1661081c8361066f565b73ffffffffffffffffffffffffffffffffffffffff1614158061086c5750600073ffffffffffffffffffffffffffffffffffffffff168373ffffffffffffffffffffffffffffffffffffffff1614155b1561092957826001600084815260200190815260200160002060006101000a81548173ffffffffffffffffffffffffffffffffffffffff021916908373ffffffffffffffffffffffffffffffffffffffff1602179055508273ffffffffffffffffffffffffffffffffffffffff168173ffffffffffffffffffffffffffffffffffffffff167f8c5be1e5ebec7d5bd14f71427d1e84f3dd0314c0f7b2291e5b200ac8c7c3b925846040518082815260200191505060405180910390a35b505050565b806109393382610eca565b151561094457600080fd5b61096284848460206040519081016040528060008152506000610f5f565b50505050565b806109733382610eca565b151561097e57600080fd5b61099a8484846020604051908101604052806000815250610c74565b50505050565b60008060008084815260200190815260200160002060009054906101000a900473ffffffffffffffffffffffffffffffffffffffff169050600073ffffffffffffffffffffffffffffffffffffffff168173ffffffffffffffffffffffffffffffffffffffff161415915050919050565b60008060008084815260200190815260200160002060009054906101000a900473ffffffffffffffffffffffffffffffffffffffff169050600073ffffffffffffffffffffffffffffffffffffffff168173ffffffffffffffffffffffffffffffffffffffff1614151515610a8557600080fd5b80915050919050565b60008073ffffffffffffffffffffffffffffffffffffffff168273ffffffffffffffffffffffffffffffffffffffff1614151515610acb57600080fd5b600260008373ffffffffffffffffffffffffffffffffffffffff1673ffffffffffffffffffffffffffffffffffffffff168152602001908152602001600020549050919050565b600460009054906101000a900473ffffffffffffffffffffffffffffffffffffffff1681565b3373ffffffffffffffffffffffffffffffffffffffff168273ffffffffffffffffffffffffffffffffffffffff1614151515610b7357600080fd5b80600360003373ffffffffffffffffffffffffffffffffffffffff1673ffffffffffffffffffffffffffffffffffffffff16815260200190815260200160002060008473ffffffffffffffffffffffffffffffffffffffff1673ffffffffffffffffffffffffffffffffffffffff16815260200190815260200160002060006101000a81548160ff0219169083151502179055508173ffffffffffffffffffffffffffffffffffffffff163373ffffffffffffffffffffffffffffffffffffffff167f17307eab39ab6107e8899845ad3d59bd9653f200f220920489ca2b5937696c3183604051808215151515815260200191505060405180910390a35050565b81610c7f3382610eca565b1515610c8a57600080fd5b610c98858585856001610f5f565b5050505050565b6000600360008473ffffffffffffffffffffffffffffffffffffffff1673ffffffffffffffffffffffffffffffffffffffff16815260200190815260200160002060008373ffffffffffffffffffffffffffffffffffffffff1673ffffffffffffffffffffffffffffffffffffffff16815260200190815260200160002060009054906101000a900460ff16905092915050565b600460009054906101000a900473ffffffffffffffffffffffffffffffffffffffff1673ffffffffffffffffffffffffffffffffffffffff163373ffffffffffffffffffffffffffffffffffffffff16141515610d8f57600080fd5b600073ffffffffffffffffffffffffffffffffffffffff168173ffffffffffffffffffffffffffffffffffffffff1614151515610dcb57600080fd5b8073ffffffffffffffffffffffffffffffffffffffff16600460009054906101000a900473ffffffffffffffffffffffffffffffffffffffff1673ffffffffffffffffffffffffffffffffffffffff167f8be0079c531659141344cd1fd0a4f28419497f9722a3daafe3b4186f6b6457e060405160405180910390a380600460006101000a81548173ffffffffffffffffffffffffffffffffffffffff021916908373ffffffffffffffffffffffffffffffffffffffff16021790555050565b600681815481101515610e9a57fe5b906000526020600020906002020160009150905080600001908060010160009054906101000a900460ff16905082565b600080610ed683610a11565b90508073ffffffffffffffffffffffffffffffffffffffff168473ffffffffffffffffffffffffffffffffffffffff161480610f4557508373ffffffffffffffffffffffffffffffffffffffff16610f2d8461066f565b73ffffffffffffffffffffffffffffffffffffffff16145b80610f565750610f558185610c9f565b5b91505092915050565b600073ffffffffffffffffffffffffffffffffffffffff168573ffffffffffffffffffffffffffffffffffffffff1614151515610f9b57600080fd5b600073ffffffffffffffffffffffffffffffffffffffff168473ffffffffffffffffffffffffffffffffffffffff1614151515610fd757600080fd5b610fe083610a11565b73ffffffffffffffffffffffffffffffffffffffff168473ffffffffffffffffffffffffffffffffffffffff161415151561101a57600080fd5b61102485846110c2565b61102e858461122b565b6110388484611359565b80156110565761104a858585856114b1565b151561105557600080fd5b5b8373ffffffffffffffffffffffffffffffffffffffff168573ffffffffffffffffffffffffffffffffffffffff167fddf252ad1be2c89b69c2b068fc378daa952ba7f163c4a11628f55a4df523b3ef856040518082815260200191505060405180910390a35050505050565b8173ffffffffffffffffffffffffffffffffffffffff166110e282610a11565b73ffffffffffffffffffffffffffffffffffffffff1614151561110457600080fd5b600073ffffffffffffffffffffffffffffffffffffffff166001600083815260200190815260200160002060009054906101000a900473ffffffffffffffffffffffffffffffffffffffff1673ffffffffffffffffffffffffffffffffffffffff161415156112275760006001600083815260200190815260200160002060006101000a81548173ffffffffffffffffffffffffffffffffffffffff021916908373ffffffffffffffffffffffffffffffffffffffff160217905550600073ffffffffffffffffffffffffffffffffffffffff168273ffffffffffffffffffffffffffffffffffffffff167f8c5be1e5ebec7d5bd14f71427d1e84f3dd0314c0f7b2291e5b200ac8c7c3b925836040518082815260200191505060405180910390a35b5050565b8173ffffffffffffffffffffffffffffffffffffffff1661124b82610a11565b73ffffffffffffffffffffffffffffffffffffffff1614151561126d57600080fd5b6112c06001600260008573ffffffffffffffffffffffffffffffffffffffff1673ffffffffffffffffffffffffffffffffffffffff1681526020019081526020016000205461168790919063ffffffff16565b600260008473ffffffffffffffffffffffffffffffffffffffff1673ffffffffffffffffffffffffffffffffffffffff16815260200190815260200160002081905550600080600083815260200190815260200160002060006101000a81548173ffffffffffffffffffffffffffffffffffffffff021916908373ffffffffffffffffffffffffffffffffffffffff1602179055505050565b600073ffffffffffffffffffffffffffffffffffffffff1660008083815260200190815260200160002060009054906101000a900473ffffffffffffffffffffffffffffffffffffffff1673ffffffffffffffffffffffffffffffffffffffff161415156113c657600080fd5b8160008083815260200190815260200160002060006101000a81548173ffffffffffffffffffffffffffffffffffffffff021916908373ffffffffffffffffffffffffffffffffffffffff16021790555061146a6001600260008573ffffffffffffffffffffffffffffffffffffffff1673ffffffffffffffffffffffffffffffffffffffff168152602001908152602001600020546116a090919063ffffffff16565b600260008473ffffffffffffffffffffffffffffffffffffffff1673ffffffffffffffffffffffffffffffffffffffff168152602001908152602001600020819055505050565b6000806114d38573ffffffffffffffffffffffffffffffffffffffff166116be565b15156114e2576001915061167e565b8473ffffffffffffffffffffffffffffffffffffffff1663f0b9e5ba8786866000604051602001526040518463ffffffff167c0100000000000000000000000000000000000000000000000000000000028152600401808473ffffffffffffffffffffffffffffffffffffffff1673ffffffffffffffffffffffffffffffffffffffff16815260200183815260200180602001828103825283818151815260200191508051906020019080838360005b838110156115ad578082015181840152602081019050611592565b50505050905090810190601f1680156115da5780820380516001836020036101000a031916815260200191505b50945050505050602060405180830381600087803b15156115fa57600080fd5b6102c65a03f1151561160b57600080fd5b50505060405180519050905063f0b9e5ba7c0100000000000000000000000000000000000000000000000000000000027bffffffffffffffffffffffffffffffffffffffffffffffffffffffff1916817bffffffffffffffffffffffffffffffffffffffffffffffffffffffff19161491505b50949350505050565b600082821115151561169557fe5b818303905092915050565b60008082840190508381101515156116b457fe5b8091505092915050565b600080823b9050600081119150509190505600a165627a7a72305820de007125b4ae647929f97ef61ee64506309cb50b82d0cb3f0cfc0a0e4f4212930029",
  "source": "pragma solidity ^0.4.19;\n\nimport \"./ERC721BasicToken.sol\";\nimport \"./WorldCupInfo.sol\";\n\n/// @title Base contract for CryptoStrikers. Defines what a card is and how to mint one.\n/// @author The CryptoStrikers Team\ncontract StrikersBase is ERC721BasicToken, WorldCupInfo {\n\n  /// @dev Emit this event whenever we mint a new card\n  ///  For Series 1 cards, this occurs during the minting of packs.\n  ///  For Series 2 cards, we mint and award them as a prize for the daily challenge.\n  event CardMinted(uint256 cardId);\n\n  /// @dev The struct representing the game's main object, a sports trading card.\n  struct Card {\n    // The ID of the player on this card. See the players array in WorldCupInfo\n    uint8 playerId;\n\n    // We will be issuing 2 series of cards, each by a different illustrator.\n    // See xxxxx.sol for more info\n    uint8 seriesId;\n\n    // We reserve the right to mint multiple runs of each series.\n    // See xxxxx.sol for more info\n    uint8 runId;\n\n    // For each run, cards for a given player have their mintNumber\n    // incremented in sequence. If we mint 1000 Messis, the third one\n    // to be minted has mintNumber = 3 (out of 1000).\n    uint16 mintNumber;\n\n    // The timestamp at which this card was minted.\n    uint256 mintTime;\n  }\n\n  /// @dev All the cards that have been minted, indexed by cardId.\n  Card[] cards;\n\n  /// @dev An internal method that creates a new card and stores it.\n  ///  Emits both a Birth and a Transfer event.\n  /// @param _playerId The ID of the player on the card (see WorldCupInfo)\n  /// @param _seriesId Series 1 or Series 2\n  /// @param _runId The number of the run within the series\n  /// @param _mintNumber The number of the card within the run\n  function _mintCard(\n    uint8 _playerId,\n    uint8 _seriesId,\n    uint8 _runId,\n    uint16 _mintNumber\n  )\n    internal\n  {\n    Card memory newCard = Card(_playerId, _seriesId, _runId, _mintNumber, now);\n    uint256 newCardId = cards.push(newCard) - 1;\n    CardMinted(newCardId);\n    // todo: use transfer function instead\n    tokenOwner[newCardId] = this;\n    ownedTokensCount[this]++;\n    Transfer(0, this, newCardId);\n  }\n}\n",
  "sourcePath": "/Users/GiaSet/Desktop/Projects/cryptostrikers/contracts/StrikersBase.sol",
  "compiler": {
    "name": "solc",
    "version": "0.4.19+commit.c4cbbb05.Emscripten.clang"
  },
  "schemaVersion": "2.0.0",
  "updatedAt": "2018-03-23T18:39:04.959Z"
}