{
  "contractName": "WorldCupInfo",
  "abi": [
    {
      "constant": true,
      "inputs": [
        {
          "name": "",
          "type": "uint256"
        }
      ],
      "name": "countries",
      "outputs": [
        {
          "name": "",
          "type": "string"
        }
      ],
      "payable": false,
      "stateMutability": "view",
      "type": "function"
    },
    {
      "constant": true,
      "inputs": [],
      "name": "owner",
      "outputs": [
        {
          "name": "",
          "type": "address"
        }
      ],
      "payable": false,
      "stateMutability": "view",
      "type": "function"
    },
    {
      "constant": false,
      "inputs": [
        {
          "name": "newOwner",
          "type": "address"
        }
      ],
      "name": "transferOwnership",
      "outputs": [],
      "payable": false,
      "stateMutability": "nonpayable",
      "type": "function"
    },
    {
      "constant": true,
      "inputs": [
        {
          "name": "",
          "type": "uint256"
        }
      ],
      "name": "players",
      "outputs": [
        {
          "name": "fullName",
          "type": "string"
        },
        {
          "name": "countryId",
          "type": "uint8"
        }
      ],
      "payable": false,
      "stateMutability": "view",
      "type": "function"
    },
    {
      "inputs": [],
      "payable": false,
      "stateMutability": "nonpayable",
      "type": "constructor"
    },
    {
      "anonymous": false,
      "inputs": [
        {
          "indexed": true,
          "name": "previousOwner",
          "type": "address"
        },
        {
          "indexed": true,
          "name": "newOwner",
          "type": "address"
        }
      ],
      "name": "OwnershipTransferred",
      "type": "event"
    }
  ],
  "bytecode": "0x6060604052610400604051908101604052806040805190810160405280600981526020017f417267656e74696e61000000000000000000000000000000000000000000000081525081526020016040805190810160405280600981526020017f4175737472616c6961000000000000000000000000000000000000000000000081525081526020016040805190810160405280600781526020017f42656c6769756d0000000000000000000000000000000000000000000000000081525081526020016040805190810160405280600681526020017f4272617a696c000000000000000000000000000000000000000000000000000081525081526020016040805190810160405280600881526020017f436f6c6f6d62696100000000000000000000000000000000000000000000000081525081526020016040805190810160405280600a81526020017f436f73746120526963610000000000000000000000000000000000000000000081525081526020016040805190810160405280600781526020017f43726f617469610000000000000000000000000000000000000000000000000081525081526020016040805190810160405280600781526020017f44656e6d61726b0000000000000000000000000000000000000000000000000081525081526020016040805190810160405280600581526020017f456779707400000000000000000000000000000000000000000000000000000081525081526020016040805190810160405280600781526020017f456e676c616e640000000000000000000000000000000000000000000000000081525081526020016040805190810160405280600681526020017f4672616e6365000000000000000000000000000000000000000000000000000081525081526020016040805190810160405280600781526020017f4765726d616e790000000000000000000000000000000000000000000000000081525081526020016040805190810160405280600781526020017f4963656c616e640000000000000000000000000000000000000000000000000081525081526020016040805190810160405280600481526020017f4972616e0000000000000000000000000000000000000000000000000000000081525081526020016040805190810160405280600581526020017f4a6170616e00000000000000000000000000000000000000000000000000000081525081526020016040805190810160405280600681526020017f4d657869636f000000000000000000000000000000000000000000000000000081525081526020016040805190810160405280600781526020017f4d6f726f63636f0000000000000000000000000000000000000000000000000081525081526020016040805190810160405280600781526020017f4e6967657269610000000000000000000000000000000000000000000000000081525081526020016040805190810160405280600681526020017f50616e616d61000000000000000000000000000000000000000000000000000081525081526020016040805190810160405280600481526020017f506572750000000000000000000000000000000000000000000000000000000081525081526020016040805190810160405280600681526020017f506f6c616e64000000000000000000000000000000000000000000000000000081525081526020016040805190810160405280600881526020017f506f72747567616c00000000000000000000000000000000000000000000000081525081526020016040805190810160405280600681526020017f527573736961000000000000000000000000000000000000000000000000000081525081526020016040805190810160405280600c81526020017f536175646920417261626961000000000000000000000000000000000000000081525081526020016040805190810160405280600781526020017f53656e6567616c0000000000000000000000000000000000000000000000000081525081526020016040805190810160405280600681526020017f536572626961000000000000000000000000000000000000000000000000000081525081526020016040805190810160405280600b81526020017f536f757468204b6f72656100000000000000000000000000000000000000000081525081526020016040805190810160405280600581526020017f537061696e00000000000000000000000000000000000000000000000000000081525081526020016040805190810160405280600681526020017f53776564656e000000000000000000000000000000000000000000000000000081525081526020016040805190810160405280600b81526020017f537769747a65726c616e6400000000000000000000000000000000000000000081525081526020016040805190810160405280600781526020017f54756e697369610000000000000000000000000000000000000000000000000081525081526020016040805190810160405280600781526020017f557275677561790000000000000000000000000000000000000000000000000081525081525060019060206200078192919062001a30565b5034156200078e57600080fd5b336000806101000a81548173ffffffffffffffffffffffffffffffffffffffff021916908373ffffffffffffffffffffffffffffffffffffffff16021790555060028054806001018281620007e4919062001a97565b9160005260206000209060020201600060408051908101604052806040805190810160405280600c81526020017f4c696f6e656c204d6573736900000000000000000000000000000000000000008152508152602001600060ff16815250909190915060008201518160000190805190602001906200086592919062001acc565b5060208201518160010160006101000a81548160ff021916908360ff16021790555050505060028054806001018281620008a0919062001a97565b9160005260206000209060020201600060408051908101604052806040805190810160405280600e81526020017f53657267696f204167c3bc65726f0000000000000000000000000000000000008152508152602001600060ff16815250909190915060008201518160000190805190602001906200092192919062001acc565b5060208201518160010160006101000a81548160ff021916908360ff160217905550505050600280548060010182816200095c919062001a97565b9160005260206000209060020201600060408051908101604052806040805190810160405280600b81526020017f4564656e2048617a6172640000000000000000000000000000000000000000008152508152602001600260ff1681525090919091506000820151816000019080519060200190620009dd92919062001acc565b5060208201518160010160006101000a81548160ff021916908360ff1602179055505050506002805480600101828162000a18919062001a97565b9160005260206000209060020201600060408051908101604052806040805190810160405280600f81526020017f4b6576696e20446520427275796e6500000000000000000000000000000000008152508152602001600260ff168152509091909150600082015181600001908051906020019062000a9992919062001acc565b5060208201518160010160006101000a81548160ff021916908360ff1602179055505050506002805480600101828162000ad4919062001a97565b9160005260206000209060020201600060408051908101604052806040805190810160405280601081526020017f5468696261757420436f7572746f6973000000000000000000000000000000008152508152602001600260ff168152509091909150600082015181600001908051906020019062000b5592919062001acc565b5060208201518160010160006101000a81548160ff021916908360ff1602179055505050506002805480600101828162000b90919062001a97565b9160005260206000209060020201600060408051908101604052806040805190810160405280600681526020017f4e65796d617200000000000000000000000000000000000000000000000000008152508152602001600360ff168152509091909150600082015181600001908051906020019062000c1192919062001acc565b5060208201518160010160006101000a81548160ff021916908360ff1602179055505050506002805480600101828162000c4c919062001a97565b9160005260206000209060020201600060408051908101604052806040805190810160405280600a81526020017f44616e6920416c766573000000000000000000000000000000000000000000008152508152602001600360ff168152509091909150600082015181600001908051906020019062000ccd92919062001acc565b5060208201518160010160006101000a81548160ff021916908360ff1602179055505050506002805480600101828162000d08919062001a97565b9160005260206000209060020201600060408051908101604052806040805190810160405280600781526020017f4d617263656c6f000000000000000000000000000000000000000000000000008152508152602001600360ff168152509091909150600082015181600001908051906020019062000d8992919062001acc565b5060208201518160010160006101000a81548160ff021916908360ff1602179055505050506002805480600101828162000dc4919062001a97565b9160005260206000209060020201600060408051908101604052806040805190810160405280600c81526020017f4c756b61204d6f647269c48700000000000000000000000000000000000000008152508152602001600660ff168152509091909150600082015181600001908051906020019062000e4592919062001acc565b5060208201518160010160006101000a81548160ff021916908360ff1602179055505050506002805480600101828162000e80919062001a97565b9160005260206000209060020201600060408051908101604052806040805190810160405280601181526020017f43687269737469616e204572696b73656e0000000000000000000000000000008152508152602001600760ff168152509091909150600082015181600001908051906020019062000f0192919062001acc565b5060208201518160010160006101000a81548160ff021916908360ff1602179055505050506002805480600101828162000f3c919062001a97565b9160005260206000209060020201600060408051908101604052806040805190810160405280600d81526020017f4d6f68616d65642053616c6168000000000000000000000000000000000000008152508152602001600860ff168152509091909150600082015181600001908051906020019062000fbd92919062001acc565b5060208201518160010160006101000a81548160ff021916908360ff1602179055505050506002805480600101828162000ff8919062001a97565b9160005260206000209060020201600060408051908101604052806040805190810160405280600a81526020017f4861727279204b616e65000000000000000000000000000000000000000000008152508152602001600960ff16815250909190915060008201518160000190805190602001906200107992919062001acc565b5060208201518160010160006101000a81548160ff021916908360ff16021790555050505060028054806001018281620010b4919062001a97565b9160005260206000209060020201600060408051908101604052806040805190810160405280600a81526020017f5061756c20506f676261000000000000000000000000000000000000000000008152508152602001600a60ff16815250909190915060008201518160000190805190602001906200113592919062001acc565b5060208201518160010160006101000a81548160ff021916908360ff1602179055505050506002805480600101828162001170919062001a97565b9160005260206000209060020201600060408051908101604052806040805190810160405280600d81526020017f4e27476f6c6f204b616e74c3a9000000000000000000000000000000000000008152508152602001600a60ff1681525090919091506000820151816000019080519060200190620011f192919062001acc565b5060208201518160010160006101000a81548160ff021916908360ff160217905550505050600280548060010182816200122c919062001a97565b9160005260206000209060020201600060408051908101604052806040805190810160405280601181526020017f416e746f696e6520477269657a6d616e6e0000000000000000000000000000008152508152602001600a60ff1681525090919091506000820151816000019080519060200190620012ad92919062001acc565b5060208201518160010160006101000a81548160ff021916908360ff16021790555050505060028054806001018281620012e8919062001a97565b9160005260206000209060020201600060408051908101604052806040805190810160405280600a81526020017f546f6e69204b726f6f73000000000000000000000000000000000000000000008152508152602001600b60ff16815250909190915060008201518160000190805190602001906200136992919062001acc565b5060208201518160010160006101000a81548160ff021916908360ff16021790555050505060028054806001018281620013a4919062001a97565b9160005260206000209060020201600060408051908101604052806040805190810160405280600c81526020017f4d6174732048756d6d656c7300000000000000000000000000000000000000008152508152602001600b60ff16815250909190915060008201518160000190805190602001906200142592919062001acc565b5060208201518160010160006101000a81548160ff021916908360ff1602179055505050506002805480600101828162001460919062001a97565b9160005260206000209060020201600060408051908101604052806040805190810160405280600b81526020017f4d6573757420c3967a696c0000000000000000000000000000000000000000008152508152602001600b60ff1681525090919091506000820151816000019080519060200190620014e192919062001acc565b5060208201518160010160006101000a81548160ff021916908360ff160217905550505050600280548060010182816200151c919062001a97565b9160005260206000209060020201600060408051908101604052806040805190810160405280601281526020017f526f62657274204c6577616e646f77736b6900000000000000000000000000008152508152602001601460ff16815250909190915060008201518160000190805190602001906200159d92919062001acc565b5060208201518160010160006101000a81548160ff021916908360ff16021790555050505060028054806001018281620015d8919062001a97565b9160005260206000209060020201600060408051908101604052806040805190810160405280601181526020017f437269737469616e6f20526f6e616c646f0000000000000000000000000000008152508152602001601560ff16815250909190915060008201518160000190805190602001906200165992919062001acc565b5060208201518160010160006101000a81548160ff021916908360ff1602179055505050506002805480600101828162001694919062001a97565b9160005260206000209060020201600060408051908101604052806040805190810160405280600681526020017f54686961676f00000000000000000000000000000000000000000000000000008152508152602001601b60ff16815250909190915060008201518160000190805190602001906200171592919062001acc565b5060208201518160010160006101000a81548160ff021916908360ff1602179055505050506002805480600101828162001750919062001a97565b9160005260206000209060020201600060408051908101604052806040805190810160405280600c81526020017f53657267696f2052616d6f7300000000000000000000000000000000000000008152508152602001601b60ff1681525090919091506000820151816000019080519060200190620017d192919062001acc565b5060208201518160010160006101000a81548160ff021916908360ff160217905550505050600280548060010182816200180c919062001a97565b9160005260206000209060020201600060408051908101604052806040805190810160405280600c81526020017f44617669642044652047656100000000000000000000000000000000000000008152508152602001601b60ff16815250909190915060008201518160000190805190602001906200188d92919062001acc565b5060208201518160010160006101000a81548160ff021916908360ff16021790555050505060028054806001018281620018c8919062001a97565b9160005260206000209060020201600060408051908101604052806040805190810160405280600e81526020017f4564696e736f6e20436176616e690000000000000000000000000000000000008152508152602001601f60ff16815250909190915060008201518160000190805190602001906200194992919062001acc565b5060208201518160010160006101000a81548160ff021916908360ff1602179055505050506002805480600101828162001984919062001a97565b9160005260206000209060020201600060408051908101604052806040805190810160405280600c81526020017f4c756973205375c3a172657a00000000000000000000000000000000000000008152508152602001601f60ff168152509091909150600082015181600001908051906020019062001a0592919062001acc565b5060208201518160010160006101000a81548160ff021916908360ff16021790555050505062001c40565b82805482825590600052602060002090810192821562001a84579160200282015b8281111562001a8357825182908051906020019062001a7292919062001acc565b509160200191906001019062001a51565b5b50905062001a93919062001b53565b5090565b81548183558181151162001ac75760020281600202836000526020600020918201910162001ac6919062001b84565b5b505050565b828054600181600116156101000203166002900490600052602060002090601f016020900481019282601f1062001b0f57805160ff191683800117855562001b40565b8280016001018555821562001b40579182015b8281111562001b3f57825182559160200191906001019062001b22565b5b50905062001b4f919062001bcc565b5090565b62001b8191905b8082111562001b7d576000818162001b73919062001bf4565b5060010162001b5a565b5090565b90565b62001bc991905b8082111562001bc5576000808201600062001ba7919062001bf4565b6001820160006101000a81549060ff02191690555060020162001b8b565b5090565b90565b62001bf191905b8082111562001bed57600081600090555060010162001bd3565b5090565b90565b50805460018160011615610100020316600290046000825580601f1062001c1c575062001c3d565b601f01602090049060005260206000209081019062001c3c919062001bcc565b5b50565b6104f88062001c506000396000f300606060405260043610610062576000357c0100000000000000000000000000000000000000000000000000000000900463ffffffff16806308e9daa5146100675780638da5cb5b14610103578063f2fde38b14610158578063f71d96cb14610191575b600080fd5b341561007257600080fd5b6100886004808035906020019091905050610257565b6040518080602001828103825283818151815260200191508051906020019080838360005b838110156100c85780820151818401526020810190506100ad565b50505050905090810190601f1680156100f55780820380516001836020036101000a031916815260200191505b509250505060405180910390f35b341561010e57600080fd5b610116610313565b604051808273ffffffffffffffffffffffffffffffffffffffff1673ffffffffffffffffffffffffffffffffffffffff16815260200191505060405180910390f35b341561016357600080fd5b61018f600480803573ffffffffffffffffffffffffffffffffffffffff16906020019091905050610338565b005b341561019c57600080fd5b6101b2600480803590602001909190505061048d565b60405180806020018360ff1660ff1681526020018281038252848181546001816001161561010002031660029004815260200191508054600181600116156101000203166002900480156102475780601f1061021c57610100808354040283529160200191610247565b820191906000526020600020905b81548152906001019060200180831161022a57829003601f168201915b5050935050505060405180910390f35b60018181548110151561026657fe5b90600052602060002090016000915090508054600181600116156101000203166002900480601f01602080910402602001604051908101604052809291908181526020018280546001816001161561010002031660029004801561030b5780601f106102e05761010080835404028352916020019161030b565b820191906000526020600020905b8154815290600101906020018083116102ee57829003601f168201915b505050505081565b6000809054906101000a900473ffffffffffffffffffffffffffffffffffffffff1681565b6000809054906101000a900473ffffffffffffffffffffffffffffffffffffffff1673ffffffffffffffffffffffffffffffffffffffff163373ffffffffffffffffffffffffffffffffffffffff1614151561039357600080fd5b600073ffffffffffffffffffffffffffffffffffffffff168173ffffffffffffffffffffffffffffffffffffffff16141515156103cf57600080fd5b8073ffffffffffffffffffffffffffffffffffffffff166000809054906101000a900473ffffffffffffffffffffffffffffffffffffffff1673ffffffffffffffffffffffffffffffffffffffff167f8be0079c531659141344cd1fd0a4f28419497f9722a3daafe3b4186f6b6457e060405160405180910390a3806000806101000a81548173ffffffffffffffffffffffffffffffffffffffff021916908373ffffffffffffffffffffffffffffffffffffffff16021790555050565b60028181548110151561049c57fe5b906000526020600020906002020160009150905080600001908060010160009054906101000a900460ff169050825600a165627a7a723058200a51866434126ccbaadce46bb264405dfe8eaea67b1308a7d135231a036de4720029",
  "source": "pragma solidity ^0.4.19;\n\nimport 'zeppelin-solidity/contracts/ownership/Ownable.sol';\n\ncontract WorldCupInfo is Ownable {\n\n  struct MatchDay {\n    uint date;\n    Game[] games;\n  }\n\n  struct Game {\n    uint homeCountry;\n    uint awayCountry;\n  }\n\n  string[] public countries = [\n    \"Argentina\", \"Australia\", \"Belgium\", \"Brazil\",\n    \"Colombia\", \"Costa Rica\", \"Croatia\", \"Denmark\",\n    \"Egypt\", \"England\", \"France\", \"Germany\",\n    \"Iceland\", \"Iran\", \"Japan\", \"Mexico\",\n    \"Morocco\", \"Nigeria\", \"Panama\", \"Peru\",\n    \"Poland\", \"Portugal\", \"Russia\", \"Saudi Arabia\",\n    \"Senegal\", \"Serbia\", \"South Korea\", \"Spain\",\n    \"Sweden\", \"Switzerland\", \"Tunisia\", \"Uruguay\"\n  ];\n\n  struct Player {\n    string fullName;\n    uint8 countryId;\n  }\n\n  Player[] public players;\n\n  function WorldCupInfo() public {\n    players.push(Player(\"Lionel Messi\", 0));\n    players.push(Player(\"Sergio Agüero\", 0));\n    players.push(Player(\"Eden Hazard\", 2));\n    players.push(Player(\"Kevin De Bruyne\", 2));\n    players.push(Player(\"Thibaut Courtois\", 2));\n    players.push(Player(\"Neymar\", 3));\n    players.push(Player(\"Dani Alves\", 3));\n    players.push(Player(\"Marcelo\", 3));\n    players.push(Player(\"Luka Modrić\", 6));\n    players.push(Player(\"Christian Eriksen\", 7));\n    players.push(Player(\"Mohamed Salah\", 8));\n    players.push(Player(\"Harry Kane\", 9));\n    players.push(Player(\"Paul Pogba\", 10));\n    players.push(Player(\"N'Golo Kanté\", 10));\n    players.push(Player(\"Antoine Griezmann\", 10));\n    players.push(Player(\"Toni Kroos\", 11));\n    players.push(Player(\"Mats Hummels\", 11));\n    players.push(Player(\"Mesut Özil\", 11));\n    players.push(Player(\"Robert Lewandowski\", 20));\n    players.push(Player(\"Cristiano Ronaldo\", 21));\n    players.push(Player(\"Thiago\", 27));\n    players.push(Player(\"Sergio Ramos\", 27));\n    players.push(Player(\"David De Gea\", 27));\n    players.push(Player(\"Edinson Cavani\", 31));\n    players.push(Player(\"Luis Suárez\", 31));\n  }\n}\n",
  "sourcePath": "/Users/GiaSet/Desktop/Projects/cryptostrikers/contracts/WorldCupInfo.sol",
  "compiler": {
    "name": "solc",
    "version": "0.4.19+commit.c4cbbb05.Emscripten.clang"
  },
  "schemaVersion": "2.0.0",
  "updatedAt": "2018-03-23T18:39:04.960Z"
}